{
  "contracts/MyWallet.sol": {
    "MyWallet": {
      "abi": [
        {
          "inputs": [
            {
              "internalType": "contract IEntryPoint",
              "name": "anEntryPoint",
              "type": "address"
            },
            {
              "internalType": "address",
              "name": "anOwner",
              "type": "address"
            },
            {
              "internalType": "uint256",
              "name": "_root",
              "type": "uint256"
            },
            {
              "internalType": "uint256[2]",
              "name": "_qValues",
              "type": "uint256[2]"
            },
            {
              "internalType": "address",
              "name": "_ellipticCurve",
              "type": "address"
            }
          ],
          "stateMutability": "nonpayable",
          "type": "constructor"
        },
        {
          "anonymous": false,
          "inputs": [
            {
              "indexed": true,
              "internalType": "address",
              "name": "oldEntryPoint",
              "type": "address"
            },
            {
              "indexed": true,
              "internalType": "address",
              "name": "newEntryPoint",
              "type": "address"
            }
          ],
          "name": "EntryPointChanged",
          "type": "event"
        },
        {
          "inputs": [],
          "name": "addDeposit",
          "outputs": [],
          "stateMutability": "payable",
          "type": "function"
        },
        {
          "inputs": [],
          "name": "entryPoint",
          "outputs": [
            {
              "internalType": "contract IEntryPoint",
              "name": "",
              "type": "address"
            }
          ],
          "stateMutability": "view",
          "type": "function"
        },
        {
          "inputs": [
            {
              "internalType": "address",
              "name": "dest",
              "type": "address"
            },
            {
              "internalType": "uint256",
              "name": "value",
              "type": "uint256"
            },
            {
              "internalType": "bytes[]",
              "name": "func",
              "type": "bytes[]"
            }
          ],
          "name": "exec",
          "outputs": [],
          "stateMutability": "nonpayable",
          "type": "function"
        },
        {
          "inputs": [
            {
              "internalType": "address[]",
              "name": "dest",
              "type": "address[]"
            },
            {
              "internalType": "bytes[]",
              "name": "func",
              "type": "bytes[]"
            }
          ],
          "name": "execBatch",
          "outputs": [],
          "stateMutability": "nonpayable",
          "type": "function"
        },
        {
          "inputs": [
            {
              "internalType": "address",
              "name": "dest",
              "type": "address"
            },
            {
              "internalType": "uint256",
              "name": "value",
              "type": "uint256"
            },
            {
              "internalType": "bytes",
              "name": "func",
              "type": "bytes"
            }
          ],
          "name": "execFromEntryPoint",
          "outputs": [],
          "stateMutability": "nonpayable",
          "type": "function"
        },
        {
          "inputs": [],
          "name": "getDeposit",
          "outputs": [
            {
              "internalType": "uint256",
              "name": "",
              "type": "uint256"
            }
          ],
          "stateMutability": "view",
          "type": "function"
        },
        {
          "inputs": [],
          "name": "lastUsedTime",
          "outputs": [
            {
              "internalType": "uint256",
              "name": "",
              "type": "uint256"
            }
          ],
          "stateMutability": "view",
          "type": "function"
        },
        {
          "inputs": [],
          "name": "nonce",
          "outputs": [
            {
              "internalType": "uint256",
              "name": "",
              "type": "uint256"
            }
          ],
          "stateMutability": "view",
          "type": "function"
        },
        {
          "inputs": [],
          "name": "owner",
          "outputs": [
            {
              "internalType": "address",
              "name": "",
              "type": "address"
            }
          ],
          "stateMutability": "view",
          "type": "function"
        },
        {
          "inputs": [],
          "name": "root",
          "outputs": [
            {
              "internalType": "uint256",
              "name": "",
              "type": "uint256"
            }
          ],
          "stateMutability": "view",
          "type": "function"
        },
        {
          "inputs": [
            {
              "internalType": "uint256",
              "name": "_root",
              "type": "uint256"
            },
            {
              "internalType": "address",
              "name": "_verifier",
              "type": "address"
            }
          ],
          "name": "setMerkleRootAndVerifier",
          "outputs": [],
          "stateMutability": "nonpayable",
          "type": "function"
        },
        {
          "inputs": [
            {
              "internalType": "uint256[2]",
              "name": "a",
              "type": "uint256[2]"
            },
            {
              "internalType": "uint256[2][2]",
              "name": "b",
              "type": "uint256[2][2]"
            },
            {
              "internalType": "uint256[2]",
              "name": "c",
              "type": "uint256[2]"
            },
            {
              "internalType": "uint256[2]",
              "name": "input",
              "type": "uint256[2]"
            },
            {
              "internalType": "address",
              "name": "to",
              "type": "address"
            },
            {
              "internalType": "uint256",
              "name": "value",
              "type": "uint256"
            }
          ],
          "name": "testTransfer",
          "outputs": [],
          "stateMutability": "nonpayable",
          "type": "function"
        },
        {
          "inputs": [
            {
              "internalType": "address payable",
              "name": "dest",
              "type": "address"
            },
            {
              "internalType": "uint256",
              "name": "amount",
              "type": "uint256"
            }
          ],
          "name": "transfer",
          "outputs": [],
          "stateMutability": "nonpayable",
          "type": "function"
        },
        {
          "inputs": [
            {
              "internalType": "address",
              "name": "newEntryPoint",
              "type": "address"
            }
          ],
          "name": "updateEntryPoint",
          "outputs": [],
          "stateMutability": "nonpayable",
          "type": "function"
        },
        {
          "inputs": [
            {
              "components": [
                {
                  "internalType": "address",
                  "name": "sender",
                  "type": "address"
                },
                {
                  "internalType": "uint256",
                  "name": "nonce",
                  "type": "uint256"
                },
                {
                  "internalType": "bytes",
                  "name": "initCode",
                  "type": "bytes"
                },
                {
                  "internalType": "bytes",
                  "name": "callData",
                  "type": "bytes"
                },
                {
                  "internalType": "uint256",
                  "name": "callGasLimit",
                  "type": "uint256"
                },
                {
                  "internalType": "uint256",
                  "name": "verificationGasLimit",
                  "type": "uint256"
                },
                {
                  "internalType": "uint256",
                  "name": "preVerificationGas",
                  "type": "uint256"
                },
                {
                  "internalType": "uint256",
                  "name": "maxFeePerGas",
                  "type": "uint256"
                },
                {
                  "internalType": "uint256",
                  "name": "maxPriorityFeePerGas",
                  "type": "uint256"
                },
                {
                  "internalType": "bytes",
                  "name": "paymasterAndData",
                  "type": "bytes"
                },
                {
                  "internalType": "bytes",
                  "name": "signature",
                  "type": "bytes"
                },
                {
                  "internalType": "uint256",
                  "name": "r",
                  "type": "uint256"
                },
                {
                  "internalType": "uint256",
                  "name": "s",
                  "type": "uint256"
                },
                {
                  "internalType": "bytes32",
                  "name": "message",
                  "type": "bytes32"
                }
              ],
              "internalType": "struct UserOperation",
              "name": "userOp",
              "type": "tuple"
            },
            {
              "internalType": "bytes32",
              "name": "requestId",
              "type": "bytes32"
            },
            {
              "internalType": "address",
              "name": "aggregator",
              "type": "address"
            },
            {
              "internalType": "uint256",
              "name": "missingWalletFunds",
              "type": "uint256"
            }
          ],
          "name": "validateUserOp",
          "outputs": [],
          "stateMutability": "nonpayable",
          "type": "function"
        },
        {
          "inputs": [],
          "name": "verifierAddr",
          "outputs": [
            {
              "internalType": "address",
              "name": "",
              "type": "address"
            }
          ],
          "stateMutability": "view",
          "type": "function"
        },
        {
          "inputs": [
            {
              "internalType": "address payable",
              "name": "withdrawAddress",
              "type": "address"
            },
            {
              "internalType": "uint256",
              "name": "amount",
              "type": "uint256"
            }
          ],
          "name": "withdrawDepositTo",
          "outputs": [],
          "stateMutability": "nonpayable",
          "type": "function"
        },
        {
          "inputs": [
            {
              "internalType": "uint256[2]",
              "name": "a",
              "type": "uint256[2]"
            },
            {
              "internalType": "uint256[2][2]",
              "name": "b",
              "type": "uint256[2][2]"
            },
            {
              "internalType": "uint256[2]",
              "name": "c",
              "type": "uint256[2]"
            },
            {
              "internalType": "uint256[2]",
              "name": "d",
              "type": "uint256[2]"
            },
            {
              "internalType": "uint256",
              "name": "value",
              "type": "uint256"
            },
            {
              "internalType": "address",
              "name": "dest",
              "type": "address"
            }
          ],
          "name": "zkProof",
          "outputs": [],
          "stateMutability": "nonpayable",
          "type": "function"
        },
        {
          "stateMutability": "payable",
          "type": "receive"
        }
      ],
      "evm": {
        "bytecode": {
          "linkReferences": {},
          "object": "608060405260006003553480156200001657600080fd5b50604051620015c1380380620015c183398101604081905262000039916200017c565b600780546001600160a01b038088166001600160a01b031992831617909255600080549287166c01000000000000000000000000026001600160601b0390931692909217909155600284815560018054909216739bd0782cc9c70a57acac290077a7e0fc8a4e7c4b17909155620000b5906004908490620000e1565b50600680546001600160a01b0319166001600160a01b0392909216919091179055506200024a92505050565b826002810192821562000112579160200282015b8281111562000112578251825591602001919060010190620000f5565b506200012092915062000124565b5090565b5b8082111562000120576000815560010162000125565b6001600160a01b03811681146200015157600080fd5b50565b805162000161816200013b565b919050565b634e487b7160e01b600052604160045260246000fd5b600080600080600060c086880312156200019557600080fd5b8551620001a2816200013b565b80955050602080870151620001b7816200013b565b809550506040870151935087607f880112620001d257600080fd5b604080519081016001600160401b0381118282101715620001f757620001f762000166565b6040528060a089018a8111156200020d57600080fd5b60608a015b818110156200022b578051835291840191840162000212565b508295506200023a8162000154565b9450505050509295509295909350565b611367806200025a6000396000f3fe60806040526004361061010d5760003560e01c8063a97cd4bb11610095578063c399ec8811610064578063c399ec88146102c3578063d0cb75fa146102d8578063e1a3fca3146102f8578063eaaa734c14610318578063ebf0c7171461035a57600080fd5b8063a97cd4bb14610247578063affed0e014610267578063b0d691fe1461028f578063bf98a6e4146102ad57600080fd5b80634d44560d116100dc5780634d44560d14610183578063663ea2e2146101a357806380c5c7d0146101e05780638da5cb5b14610200578063a9059cbb1461022757600080fd5b80631b71bb6e1461011957806331e33df31461013b5780633ef91dfb1461015b5780634a58db191461017b57600080fd5b3661011457005b600080fd5b34801561012557600080fd5b50610139610134366004610cbe565b610370565b005b34801561014757600080fd5b50610139610156366004610db8565b610384565b34801561016757600080fd5b50610139610176366004610e7d565b61039a565b61013961049d565b34801561018f57600080fd5b5061013961019e366004610ed9565b61050e565b3480156101af57600080fd5b506001546101c3906001600160a01b031681565b6040516001600160a01b0390911681526020015b60405180910390f35b3480156101ec57600080fd5b506101396101fb366004610f05565b610582565b34801561020c57600080fd5b506000546101c390600160601b90046001600160a01b031681565b34801561023357600080fd5b50610139610242366004610ed9565b6105c9565b34801561025357600080fd5b50610139610262366004610f8e565b61060c565b34801561027357600080fd5b506000546001600160601b03165b6040519081526020016101d7565b34801561029b57600080fd5b506007546001600160a01b03166101c3565b3480156102b957600080fd5b5061028160035481565b3480156102cf57600080fd5b5061028161063b565b3480156102e457600080fd5b506101396102f3366004610ff5565b6106be565b34801561030457600080fd5b50610139610313366004611055565b61076d565b34801561032457600080fd5b506101396103333660046110ce565b600291909155600180546001600160a01b0319166001600160a01b03909216919091179055565b34801561036657600080fd5b5061028160025481565b6103786108f1565b610381816108fb565b50565b61039286868686858761076d565b505050505050565b6103a2610957565b600080600080858560018181106103bb576103bb6110fe565b90506020028101906103cd9190611114565b8101906103da919061115b565b93509350935093506103ee848484846109af565b61042f5760405162461bcd60e51b815260206004820152600d60248201526c24b73b30b634b210383937b7b360991b60448201526064015b60405180910390fd5b610493888888886000818110610447576104476110fe565b90506020028101906104599190611114565b8080601f016020809104026020016040519081016040528093929190818152602001838380828437600092019190915250610b0092505050565b5050505050505050565b60006104b16007546001600160a01b031690565b6001600160a01b03163460405160006040518083038185875af1925050503d80600081146104fb576040519150601f19603f3d011682016040523d82523d6000602084013e610500565b606091505b505090508061038157600080fd5b610516610957565b6007546001600160a01b031660405163040b850f60e31b81526001600160a01b03848116600483015260248201849052919091169063205c287890604401600060405180830381600087803b15801561056e57600080fd5b505af1158015610392573d6000803e3d6000fd5b6105c3848484848080601f016020809104026020016040519081016040528093929190818152602001838380828437600092019190915250610b0092505050565b50505050565b6105d1610957565b6040516001600160a01b0383169082156108fc029083906000818181858888f19350505050158015610607573d6000803e3d6000fd5b505050565b610614610b70565b6106216040850185611114565b151590506106325761063284610bca565b6105c381610c5c565b600061064f6007546001600160a01b031690565b6040516370a0823160e01b81523060048201526001600160a01b0391909116906370a0823190602401602060405180830381865afa158015610695573d6000803e3d6000fd5b505050506040513d601f19601f820116820180604052508101906106b991906111b5565b905090565b6106c6610957565b82811461070b5760405162461bcd60e51b815260206004820152601360248201527277726f6e67206172726179206c656e6774687360681b6044820152606401610426565b60005b838110156107665761075485858381811061072b5761072b6110fe565b90506020020160208101906107409190610cbe565b6000858585818110610447576104476110fe565b8061075e816111e4565b91505061070e565b5050505050565b600154604051637ae4eb4f60e11b815287918791879187916001600160a01b039091169063f5c9d69e906107ab908790879087908790600401611222565b602060405180830381865afa1580156107c8573d6000803e3d6000fd5b505050506040513d601f19601f820116820180604052508101906107ec91906112ad565b6108285760405162461bcd60e51b815260206004820152600d60248201526c34b73b30b634b210383937b7b360991b6044820152606401610426565b6002548151146108695760405162461bcd60e51b815260206004820152600c60248201526b1a5b9d985b1a59081c9bdbdd60a21b6044820152606401610426565b6003546020820151116108a85760405162461bcd60e51b815260206004820152600760248201526606f6c64204f54560cc1b6044820152606401610426565b6040516001600160a01b0387169086156108fc029087906000818181858888f193505050501580156108de573d6000803e3d6000fd5b5060200151600355505050505050505050565b6108f9610957565b565b6007546040516001600160a01b038084169216907f450909c1478d09248269d4ad4fa8cba61ca3f50faed58c7aedefa51c7f62b83a90600090a3600780546001600160a01b0319166001600160a01b0392909216919091179055565b600054600160601b90046001600160a01b031633148061097657503330145b6108f95760405162461bcd60e51b815260206004820152600a60248201526937b7363c9037bbb732b960b11b6044820152606401610426565b600154604051637ae4eb4f60e11b815260009186918691869186916001600160a01b03169063f5c9d69e906109ee908790879087908790600401611222565b602060405180830381865afa158015610a0b573d6000803e3d6000fd5b505050506040513d601f19601f82011682018060405250810190610a2f91906112ad565b610a6b5760405162461bcd60e51b815260206004820152600d60248201526c34b73b30b634b210383937b7b360991b6044820152606401610426565b600254815114610aac5760405162461bcd60e51b815260206004820152600c60248201526b1a5b9d985b1a59081c9bdbdd60a21b6044820152606401610426565b600354602082015111610aeb5760405162461bcd60e51b815260206004820152600760248201526606f6c64204f54560cc1b6044820152606401610426565b60200151600355506001979650505050505050565b600080846001600160a01b03168484604051610b1c91906112cf565b60006040518083038185875af1925050503d8060008114610b59576040519150601f19603f3d011682016040523d82523d6000602084013e610b5e565b606091505b50915091508161076657805160208201fd5b6007546001600160a01b031633146108f95760405162461bcd60e51b815260206004820152601b60248201527f77616c6c65743a206e6f742066726f6d20456e747279506f696e7400000000006044820152606401610426565b600080546020830135916001600160601b039091169080610bea8361130a565b91906101000a8154816001600160601b0302191690836001600160601b031602179055506001600160601b0316146103815760405162461bcd60e51b815260206004820152601560248201527477616c6c65743a20696e76616c6964206e6f6e636560581b6044820152606401610426565b801561038157604051600090339060001990849084818181858888f193505050503d8060008114610766576040519150601f19603f3d011682016040523d82523d6000602084013e610766565b6001600160a01b038116811461038157600080fd5b600060208284031215610cd057600080fd5b8135610cdb81610ca9565b9392505050565b6040805190810167ffffffffffffffff81118282101715610d1357634e487b7160e01b600052604160045260246000fd5b60405290565b600082601f830112610d2a57600080fd5b610d32610ce2565b806040840185811115610d4457600080fd5b845b81811015610d5e578035845260209384019301610d46565b509095945050505050565b600082601f830112610d7a57600080fd5b610d82610ce2565b806080840185811115610d9457600080fd5b845b81811015610d5e57610da88782610d19565b8452602090930192604001610d96565b6000806000806000806101808789031215610dd257600080fd5b610ddc8888610d19565b9550610deb8860408901610d69565b9450610dfa8860c08901610d19565b9350610e0a886101008901610d19565b92506101408701359150610160870135610e2381610ca9565b809150509295509295509295565b60008083601f840112610e4357600080fd5b50813567ffffffffffffffff811115610e5b57600080fd5b6020830191508360208260051b8501011115610e7657600080fd5b9250929050565b60008060008060608587031215610e9357600080fd5b8435610e9e81610ca9565b935060208501359250604085013567ffffffffffffffff811115610ec157600080fd5b610ecd87828801610e31565b95989497509550505050565b60008060408385031215610eec57600080fd5b8235610ef781610ca9565b946020939093013593505050565b60008060008060608587031215610f1b57600080fd5b8435610f2681610ca9565b935060208501359250604085013567ffffffffffffffff80821115610f4a57600080fd5b818701915087601f830112610f5e57600080fd5b813581811115610f6d57600080fd5b886020828501011115610f7f57600080fd5b95989497505060200194505050565b60008060008060808587031215610fa457600080fd5b843567ffffffffffffffff811115610fbb57600080fd5b85016101c08188031215610fce57600080fd5b9350602085013592506040850135610fe581610ca9565b9396929550929360600135925050565b6000806000806040858703121561100b57600080fd5b843567ffffffffffffffff8082111561102357600080fd5b61102f88838901610e31565b9096509450602087013591508082111561104857600080fd5b50610ecd87828801610e31565b600080600080600080610180878903121561106f57600080fd5b6110798888610d19565b95506110888860408901610d69565b94506110978860c08901610d19565b93506110a7886101008901610d19565b92506101408701356110b881610ca9565b8092505061016087013590509295509295509295565b600080604083850312156110e157600080fd5b8235915060208301356110f381610ca9565b809150509250929050565b634e487b7160e01b600052603260045260246000fd5b6000808335601e1984360301811261112b57600080fd5b83018035915067ffffffffffffffff82111561114657600080fd5b602001915036819003821315610e7657600080fd5b600080600080610140858703121561117257600080fd5b61117c8686610d19565b935061118b8660408701610d69565b925061119a8660c08701610d19565b91506111aa866101008701610d19565b905092959194509250565b6000602082840312156111c757600080fd5b5051919050565b634e487b7160e01b600052601160045260246000fd5b60006000198214156111f8576111f86111ce565b5060010190565b8060005b60028110156105c3578151845260209384019390910190600101611203565b610140810161123182876111ff565b6040808301866000805b600280821061124a5750611284565b835185845b8381101561126d57825182526020928301929091019060010161124f565b50505093850193506020929092019160010161123b565b505050505061129660c08301856111ff565b6112a46101008301846111ff565b95945050505050565b6000602082840312156112bf57600080fd5b81518015158114610cdb57600080fd5b6000825160005b818110156112f057602081860181015185830152016112d6565b818111156112ff576000828501525b509190910192915050565b60006001600160601b0380831681811415611327576113276111ce565b600101939250505056fea26469706673582212207d05581545f75fef39abadf8616999832280d0431240a9930d661a77c281a0e464736f6c634300080c0033",
          "opcodes": "PUSH1 0x80 PUSH1 0x40 MSTORE PUSH1 0x0 PUSH1 0x3 SSTORE CALLVALUE DUP1 ISZERO PUSH3 0x16 JUMPI PUSH1 0x0 DUP1 REVERT JUMPDEST POP PUSH1 0x40 MLOAD PUSH3 0x15C1 CODESIZE SUB DUP1 PUSH3 0x15C1 DUP4 CODECOPY DUP2 ADD PUSH1 0x40 DUP2 SWAP1 MSTORE PUSH3 0x39 SWAP2 PUSH3 0x17C JUMP JUMPDEST PUSH1 0x7 DUP1 SLOAD PUSH1 0x1 PUSH1 0x1 PUSH1 0xA0 SHL SUB DUP1 DUP9 AND PUSH1 0x1 PUSH1 0x1 PUSH1 0xA0 SHL SUB NOT SWAP3 DUP4 AND OR SWAP1 SWAP3 SSTORE PUSH1 0x0 DUP1 SLOAD SWAP3 DUP8 AND PUSH13 0x1000000000000000000000000 MUL PUSH1 0x1 PUSH1 0x1 PUSH1 0x60 SHL SUB SWAP1 SWAP4 AND SWAP3 SWAP1 SWAP3 OR SWAP1 SWAP2 SSTORE PUSH1 0x2 DUP5 DUP2 SSTORE PUSH1 0x1 DUP1 SLOAD SWAP1 SWAP3 AND PUSH20 0x9BD0782CC9C70A57ACAC290077A7E0FC8A4E7C4B OR SWAP1 SWAP2 SSTORE PUSH3 0xB5 SWAP1 PUSH1 0x4 SWAP1 DUP5 SWAP1 PUSH3 0xE1 JUMP JUMPDEST POP PUSH1 0x6 DUP1 SLOAD PUSH1 0x1 PUSH1 0x1 PUSH1 0xA0 SHL SUB NOT AND PUSH1 0x1 PUSH1 0x1 PUSH1 0xA0 SHL SUB SWAP3 SWAP1 SWAP3 AND SWAP2 SWAP1 SWAP2 OR SWAP1 SSTORE POP PUSH3 0x24A SWAP3 POP POP POP JUMP JUMPDEST DUP3 PUSH1 0x2 DUP2 ADD SWAP3 DUP3 ISZERO PUSH3 0x112 JUMPI SWAP2 PUSH1 0x20 MUL DUP3 ADD JUMPDEST DUP3 DUP2 GT ISZERO PUSH3 0x112 JUMPI DUP3 MLOAD DUP3 SSTORE SWAP2 PUSH1 0x20 ADD SWAP2 SWAP1 PUSH1 0x1 ADD SWAP1 PUSH3 0xF5 JUMP JUMPDEST POP PUSH3 0x120 SWAP3 SWAP2 POP PUSH3 0x124 JUMP JUMPDEST POP SWAP1 JUMP JUMPDEST JUMPDEST DUP1 DUP3 GT ISZERO PUSH3 0x120 JUMPI PUSH1 0x0 DUP2 SSTORE PUSH1 0x1 ADD PUSH3 0x125 JUMP JUMPDEST PUSH1 0x1 PUSH1 0x1 PUSH1 0xA0 SHL SUB DUP2 AND DUP2 EQ PUSH3 0x151 JUMPI PUSH1 0x0 DUP1 REVERT JUMPDEST POP JUMP JUMPDEST DUP1 MLOAD PUSH3 0x161 DUP2 PUSH3 0x13B JUMP JUMPDEST SWAP2 SWAP1 POP JUMP JUMPDEST PUSH4 0x4E487B71 PUSH1 0xE0 SHL PUSH1 0x0 MSTORE PUSH1 0x41 PUSH1 0x4 MSTORE PUSH1 0x24 PUSH1 0x0 REVERT JUMPDEST PUSH1 0x0 DUP1 PUSH1 0x0 DUP1 PUSH1 0x0 PUSH1 0xC0 DUP7 DUP9 SUB SLT ISZERO PUSH3 0x195 JUMPI PUSH1 0x0 DUP1 REVERT JUMPDEST DUP6 MLOAD PUSH3 0x1A2 DUP2 PUSH3 0x13B JUMP JUMPDEST DUP1 SWAP6 POP POP PUSH1 0x20 DUP1 DUP8 ADD MLOAD PUSH3 0x1B7 DUP2 PUSH3 0x13B JUMP JUMPDEST DUP1 SWAP6 POP POP PUSH1 0x40 DUP8 ADD MLOAD SWAP4 POP DUP8 PUSH1 0x7F DUP9 ADD SLT PUSH3 0x1D2 JUMPI PUSH1 0x0 DUP1 REVERT JUMPDEST PUSH1 0x40 DUP1 MLOAD SWAP1 DUP2 ADD PUSH1 0x1 PUSH1 0x1 PUSH1 0x40 SHL SUB DUP2 GT DUP3 DUP3 LT OR ISZERO PUSH3 0x1F7 JUMPI PUSH3 0x1F7 PUSH3 0x166 JUMP JUMPDEST PUSH1 0x40 MSTORE DUP1 PUSH1 0xA0 DUP10 ADD DUP11 DUP2 GT ISZERO PUSH3 0x20D JUMPI PUSH1 0x0 DUP1 REVERT JUMPDEST PUSH1 0x60 DUP11 ADD JUMPDEST DUP2 DUP2 LT ISZERO PUSH3 0x22B JUMPI DUP1 MLOAD DUP4 MSTORE SWAP2 DUP5 ADD SWAP2 DUP5 ADD PUSH3 0x212 JUMP JUMPDEST POP DUP3 SWAP6 POP PUSH3 0x23A DUP2 PUSH3 0x154 JUMP JUMPDEST SWAP5 POP POP POP POP POP SWAP3 SWAP6 POP SWAP3 SWAP6 SWAP1 SWAP4 POP JUMP JUMPDEST PUSH2 0x1367 DUP1 PUSH3 0x25A PUSH1 0x0 CODECOPY PUSH1 0x0 RETURN INVALID PUSH1 0x80 PUSH1 0x40 MSTORE PUSH1 0x4 CALLDATASIZE LT PUSH2 0x10D JUMPI PUSH1 0x0 CALLDATALOAD PUSH1 0xE0 SHR DUP1 PUSH4 0xA97CD4BB GT PUSH2 0x95 JUMPI DUP1 PUSH4 0xC399EC88 GT PUSH2 0x64 JUMPI DUP1 PUSH4 0xC399EC88 EQ PUSH2 0x2C3 JUMPI DUP1 PUSH4 0xD0CB75FA EQ PUSH2 0x2D8 JUMPI DUP1 PUSH4 0xE1A3FCA3 EQ PUSH2 0x2F8 JUMPI DUP1 PUSH4 0xEAAA734C EQ PUSH2 0x318 JUMPI DUP1 PUSH4 0xEBF0C717 EQ PUSH2 0x35A JUMPI PUSH1 0x0 DUP1 REVERT JUMPDEST DUP1 PUSH4 0xA97CD4BB EQ PUSH2 0x247 JUMPI DUP1 PUSH4 0xAFFED0E0 EQ PUSH2 0x267 JUMPI DUP1 PUSH4 0xB0D691FE EQ PUSH2 0x28F JUMPI DUP1 PUSH4 0xBF98A6E4 EQ PUSH2 0x2AD JUMPI PUSH1 0x0 DUP1 REVERT JUMPDEST DUP1 PUSH4 0x4D44560D GT PUSH2 0xDC JUMPI DUP1 PUSH4 0x4D44560D EQ PUSH2 0x183 JUMPI DUP1 PUSH4 0x663EA2E2 EQ PUSH2 0x1A3 JUMPI DUP1 PUSH4 0x80C5C7D0 EQ PUSH2 0x1E0 JUMPI DUP1 PUSH4 0x8DA5CB5B EQ PUSH2 0x200 JUMPI DUP1 PUSH4 0xA9059CBB EQ PUSH2 0x227 JUMPI PUSH1 0x0 DUP1 REVERT JUMPDEST DUP1 PUSH4 0x1B71BB6E EQ PUSH2 0x119 JUMPI DUP1 PUSH4 0x31E33DF3 EQ PUSH2 0x13B JUMPI DUP1 PUSH4 0x3EF91DFB EQ PUSH2 0x15B JUMPI DUP1 PUSH4 0x4A58DB19 EQ PUSH2 0x17B JUMPI PUSH1 0x0 DUP1 REVERT JUMPDEST CALLDATASIZE PUSH2 0x114 JUMPI STOP JUMPDEST PUSH1 0x0 DUP1 REVERT JUMPDEST CALLVALUE DUP1 ISZERO PUSH2 0x125 JUMPI PUSH1 0x0 DUP1 REVERT JUMPDEST POP PUSH2 0x139 PUSH2 0x134 CALLDATASIZE PUSH1 0x4 PUSH2 0xCBE JUMP JUMPDEST PUSH2 0x370 JUMP JUMPDEST STOP JUMPDEST CALLVALUE DUP1 ISZERO PUSH2 0x147 JUMPI PUSH1 0x0 DUP1 REVERT JUMPDEST POP PUSH2 0x139 PUSH2 0x156 CALLDATASIZE PUSH1 0x4 PUSH2 0xDB8 JUMP JUMPDEST PUSH2 0x384 JUMP JUMPDEST CALLVALUE DUP1 ISZERO PUSH2 0x167 JUMPI PUSH1 0x0 DUP1 REVERT JUMPDEST POP PUSH2 0x139 PUSH2 0x176 CALLDATASIZE PUSH1 0x4 PUSH2 0xE7D JUMP JUMPDEST PUSH2 0x39A JUMP JUMPDEST PUSH2 0x139 PUSH2 0x49D JUMP JUMPDEST CALLVALUE DUP1 ISZERO PUSH2 0x18F JUMPI PUSH1 0x0 DUP1 REVERT JUMPDEST POP PUSH2 0x139 PUSH2 0x19E CALLDATASIZE PUSH1 0x4 PUSH2 0xED9 JUMP JUMPDEST PUSH2 0x50E JUMP JUMPDEST CALLVALUE DUP1 ISZERO PUSH2 0x1AF JUMPI PUSH1 0x0 DUP1 REVERT JUMPDEST POP PUSH1 0x1 SLOAD PUSH2 0x1C3 SWAP1 PUSH1 0x1 PUSH1 0x1 PUSH1 0xA0 SHL SUB AND DUP2 JUMP JUMPDEST PUSH1 0x40 MLOAD PUSH1 0x1 PUSH1 0x1 PUSH1 0xA0 SHL SUB SWAP1 SWAP2 AND DUP2 MSTORE PUSH1 0x20 ADD JUMPDEST PUSH1 0x40 MLOAD DUP1 SWAP2 SUB SWAP1 RETURN JUMPDEST CALLVALUE DUP1 ISZERO PUSH2 0x1EC JUMPI PUSH1 0x0 DUP1 REVERT JUMPDEST POP PUSH2 0x139 PUSH2 0x1FB CALLDATASIZE PUSH1 0x4 PUSH2 0xF05 JUMP JUMPDEST PUSH2 0x582 JUMP JUMPDEST CALLVALUE DUP1 ISZERO PUSH2 0x20C JUMPI PUSH1 0x0 DUP1 REVERT JUMPDEST POP PUSH1 0x0 SLOAD PUSH2 0x1C3 SWAP1 PUSH1 0x1 PUSH1 0x60 SHL SWAP1 DIV PUSH1 0x1 PUSH1 0x1 PUSH1 0xA0 SHL SUB AND DUP2 JUMP JUMPDEST CALLVALUE DUP1 ISZERO PUSH2 0x233 JUMPI PUSH1 0x0 DUP1 REVERT JUMPDEST POP PUSH2 0x139 PUSH2 0x242 CALLDATASIZE PUSH1 0x4 PUSH2 0xED9 JUMP JUMPDEST PUSH2 0x5C9 JUMP JUMPDEST CALLVALUE DUP1 ISZERO PUSH2 0x253 JUMPI PUSH1 0x0 DUP1 REVERT JUMPDEST POP PUSH2 0x139 PUSH2 0x262 CALLDATASIZE PUSH1 0x4 PUSH2 0xF8E JUMP JUMPDEST PUSH2 0x60C JUMP JUMPDEST CALLVALUE DUP1 ISZERO PUSH2 0x273 JUMPI PUSH1 0x0 DUP1 REVERT JUMPDEST POP PUSH1 0x0 SLOAD PUSH1 0x1 PUSH1 0x1 PUSH1 0x60 SHL SUB AND JUMPDEST PUSH1 0x40 MLOAD SWAP1 DUP2 MSTORE PUSH1 0x20 ADD PUSH2 0x1D7 JUMP JUMPDEST CALLVALUE DUP1 ISZERO PUSH2 0x29B JUMPI PUSH1 0x0 DUP1 REVERT JUMPDEST POP PUSH1 0x7 SLOAD PUSH1 0x1 PUSH1 0x1 PUSH1 0xA0 SHL SUB AND PUSH2 0x1C3 JUMP JUMPDEST CALLVALUE DUP1 ISZERO PUSH2 0x2B9 JUMPI PUSH1 0x0 DUP1 REVERT JUMPDEST POP PUSH2 0x281 PUSH1 0x3 SLOAD DUP2 JUMP JUMPDEST CALLVALUE DUP1 ISZERO PUSH2 0x2CF JUMPI PUSH1 0x0 DUP1 REVERT JUMPDEST POP PUSH2 0x281 PUSH2 0x63B JUMP JUMPDEST CALLVALUE DUP1 ISZERO PUSH2 0x2E4 JUMPI PUSH1 0x0 DUP1 REVERT JUMPDEST POP PUSH2 0x139 PUSH2 0x2F3 CALLDATASIZE PUSH1 0x4 PUSH2 0xFF5 JUMP JUMPDEST PUSH2 0x6BE JUMP JUMPDEST CALLVALUE DUP1 ISZERO PUSH2 0x304 JUMPI PUSH1 0x0 DUP1 REVERT JUMPDEST POP PUSH2 0x139 PUSH2 0x313 CALLDATASIZE PUSH1 0x4 PUSH2 0x1055 JUMP JUMPDEST PUSH2 0x76D JUMP JUMPDEST CALLVALUE DUP1 ISZERO PUSH2 0x324 JUMPI PUSH1 0x0 DUP1 REVERT JUMPDEST POP PUSH2 0x139 PUSH2 0x333 CALLDATASIZE PUSH1 0x4 PUSH2 0x10CE JUMP JUMPDEST PUSH1 0x2 SWAP2 SWAP1 SWAP2 SSTORE PUSH1 0x1 DUP1 SLOAD PUSH1 0x1 PUSH1 0x1 PUSH1 0xA0 SHL SUB NOT AND PUSH1 0x1 PUSH1 0x1 PUSH1 0xA0 SHL SUB SWAP1 SWAP3 AND SWAP2 SWAP1 SWAP2 OR SWAP1 SSTORE JUMP JUMPDEST CALLVALUE DUP1 ISZERO PUSH2 0x366 JUMPI PUSH1 0x0 DUP1 REVERT JUMPDEST POP PUSH2 0x281 PUSH1 0x2 SLOAD DUP2 JUMP JUMPDEST PUSH2 0x378 PUSH2 0x8F1 JUMP JUMPDEST PUSH2 0x381 DUP2 PUSH2 0x8FB JUMP JUMPDEST POP JUMP JUMPDEST PUSH2 0x392 DUP7 DUP7 DUP7 DUP7 DUP6 DUP8 PUSH2 0x76D JUMP JUMPDEST POP POP POP POP POP POP JUMP JUMPDEST PUSH2 0x3A2 PUSH2 0x957 JUMP JUMPDEST PUSH1 0x0 DUP1 PUSH1 0x0 DUP1 DUP6 DUP6 PUSH1 0x1 DUP2 DUP2 LT PUSH2 0x3BB JUMPI PUSH2 0x3BB PUSH2 0x10FE JUMP JUMPDEST SWAP1 POP PUSH1 0x20 MUL DUP2 ADD SWAP1 PUSH2 0x3CD SWAP2 SWAP1 PUSH2 0x1114 JUMP JUMPDEST DUP2 ADD SWAP1 PUSH2 0x3DA SWAP2 SWAP1 PUSH2 0x115B JUMP JUMPDEST SWAP4 POP SWAP4 POP SWAP4 POP SWAP4 POP PUSH2 0x3EE DUP5 DUP5 DUP5 DUP5 PUSH2 0x9AF JUMP JUMPDEST PUSH2 0x42F JUMPI PUSH1 0x40 MLOAD PUSH3 0x461BCD PUSH1 0xE5 SHL DUP2 MSTORE PUSH1 0x20 PUSH1 0x4 DUP3 ADD MSTORE PUSH1 0xD PUSH1 0x24 DUP3 ADD MSTORE PUSH13 0x24B73B30B634B210383937B7B3 PUSH1 0x99 SHL PUSH1 0x44 DUP3 ADD MSTORE PUSH1 0x64 ADD JUMPDEST PUSH1 0x40 MLOAD DUP1 SWAP2 SUB SWAP1 REVERT JUMPDEST PUSH2 0x493 DUP9 DUP9 DUP9 DUP9 PUSH1 0x0 DUP2 DUP2 LT PUSH2 0x447 JUMPI PUSH2 0x447 PUSH2 0x10FE JUMP JUMPDEST SWAP1 POP PUSH1 0x20 MUL DUP2 ADD SWAP1 PUSH2 0x459 SWAP2 SWAP1 PUSH2 0x1114 JUMP JUMPDEST DUP1 DUP1 PUSH1 0x1F ADD PUSH1 0x20 DUP1 SWAP2 DIV MUL PUSH1 0x20 ADD PUSH1 0x40 MLOAD SWAP1 DUP2 ADD PUSH1 0x40 MSTORE DUP1 SWAP4 SWAP3 SWAP2 SWAP1 DUP2 DUP2 MSTORE PUSH1 0x20 ADD DUP4 DUP4 DUP1 DUP3 DUP5 CALLDATACOPY PUSH1 0x0 SWAP3 ADD SWAP2 SWAP1 SWAP2 MSTORE POP PUSH2 0xB00 SWAP3 POP POP POP JUMP JUMPDEST POP POP POP POP POP POP POP POP JUMP JUMPDEST PUSH1 0x0 PUSH2 0x4B1 PUSH1 0x7 SLOAD PUSH1 0x1 PUSH1 0x1 PUSH1 0xA0 SHL SUB AND SWAP1 JUMP JUMPDEST PUSH1 0x1 PUSH1 0x1 PUSH1 0xA0 SHL SUB AND CALLVALUE PUSH1 0x40 MLOAD PUSH1 0x0 PUSH1 0x40 MLOAD DUP1 DUP4 SUB DUP2 DUP6 DUP8 GAS CALL SWAP3 POP POP POP RETURNDATASIZE DUP1 PUSH1 0x0 DUP2 EQ PUSH2 0x4FB JUMPI PUSH1 0x40 MLOAD SWAP2 POP PUSH1 0x1F NOT PUSH1 0x3F RETURNDATASIZE ADD AND DUP3 ADD PUSH1 0x40 MSTORE RETURNDATASIZE DUP3 MSTORE RETURNDATASIZE PUSH1 0x0 PUSH1 0x20 DUP5 ADD RETURNDATACOPY PUSH2 0x500 JUMP JUMPDEST PUSH1 0x60 SWAP2 POP JUMPDEST POP POP SWAP1 POP DUP1 PUSH2 0x381 JUMPI PUSH1 0x0 DUP1 REVERT JUMPDEST PUSH2 0x516 PUSH2 0x957 JUMP JUMPDEST PUSH1 0x7 SLOAD PUSH1 0x1 PUSH1 0x1 PUSH1 0xA0 SHL SUB AND PUSH1 0x40 MLOAD PUSH4 0x40B850F PUSH1 0xE3 SHL DUP2 MSTORE PUSH1 0x1 PUSH1 0x1 PUSH1 0xA0 SHL SUB DUP5 DUP2 AND PUSH1 0x4 DUP4 ADD MSTORE PUSH1 0x24 DUP3 ADD DUP5 SWAP1 MSTORE SWAP2 SWAP1 SWAP2 AND SWAP1 PUSH4 0x205C2878 SWAP1 PUSH1 0x44 ADD PUSH1 0x0 PUSH1 0x40 MLOAD DUP1 DUP4 SUB DUP2 PUSH1 0x0 DUP8 DUP1 EXTCODESIZE ISZERO DUP1 ISZERO PUSH2 0x56E JUMPI PUSH1 0x0 DUP1 REVERT JUMPDEST POP GAS CALL ISZERO DUP1 ISZERO PUSH2 0x392 JUMPI RETURNDATASIZE PUSH1 0x0 DUP1 RETURNDATACOPY RETURNDATASIZE PUSH1 0x0 REVERT JUMPDEST PUSH2 0x5C3 DUP5 DUP5 DUP5 DUP5 DUP1 DUP1 PUSH1 0x1F ADD PUSH1 0x20 DUP1 SWAP2 DIV MUL PUSH1 0x20 ADD PUSH1 0x40 MLOAD SWAP1 DUP2 ADD PUSH1 0x40 MSTORE DUP1 SWAP4 SWAP3 SWAP2 SWAP1 DUP2 DUP2 MSTORE PUSH1 0x20 ADD DUP4 DUP4 DUP1 DUP3 DUP5 CALLDATACOPY PUSH1 0x0 SWAP3 ADD SWAP2 SWAP1 SWAP2 MSTORE POP PUSH2 0xB00 SWAP3 POP POP POP JUMP JUMPDEST POP POP POP POP JUMP JUMPDEST PUSH2 0x5D1 PUSH2 0x957 JUMP JUMPDEST PUSH1 0x40 MLOAD PUSH1 0x1 PUSH1 0x1 PUSH1 0xA0 SHL SUB DUP4 AND SWAP1 DUP3 ISZERO PUSH2 0x8FC MUL SWAP1 DUP4 SWAP1 PUSH1 0x0 DUP2 DUP2 DUP2 DUP6 DUP9 DUP9 CALL SWAP4 POP POP POP POP ISZERO DUP1 ISZERO PUSH2 0x607 JUMPI RETURNDATASIZE PUSH1 0x0 DUP1 RETURNDATACOPY RETURNDATASIZE PUSH1 0x0 REVERT JUMPDEST POP POP POP JUMP JUMPDEST PUSH2 0x614 PUSH2 0xB70 JUMP JUMPDEST PUSH2 0x621 PUSH1 0x40 DUP6 ADD DUP6 PUSH2 0x1114 JUMP JUMPDEST ISZERO ISZERO SWAP1 POP PUSH2 0x632 JUMPI PUSH2 0x632 DUP5 PUSH2 0xBCA JUMP JUMPDEST PUSH2 0x5C3 DUP2 PUSH2 0xC5C JUMP JUMPDEST PUSH1 0x0 PUSH2 0x64F PUSH1 0x7 SLOAD PUSH1 0x1 PUSH1 0x1 PUSH1 0xA0 SHL SUB AND SWAP1 JUMP JUMPDEST PUSH1 0x40 MLOAD PUSH4 0x70A08231 PUSH1 0xE0 SHL DUP2 MSTORE ADDRESS PUSH1 0x4 DUP3 ADD MSTORE PUSH1 0x1 PUSH1 0x1 PUSH1 0xA0 SHL SUB SWAP2 SWAP1 SWAP2 AND SWAP1 PUSH4 0x70A08231 SWAP1 PUSH1 0x24 ADD PUSH1 0x20 PUSH1 0x40 MLOAD DUP1 DUP4 SUB DUP2 DUP7 GAS STATICCALL ISZERO DUP1 ISZERO PUSH2 0x695 JUMPI RETURNDATASIZE PUSH1 0x0 DUP1 RETURNDATACOPY RETURNDATASIZE PUSH1 0x0 REVERT JUMPDEST POP POP POP POP PUSH1 0x40 MLOAD RETURNDATASIZE PUSH1 0x1F NOT PUSH1 0x1F DUP3 ADD AND DUP3 ADD DUP1 PUSH1 0x40 MSTORE POP DUP2 ADD SWAP1 PUSH2 0x6B9 SWAP2 SWAP1 PUSH2 0x11B5 JUMP JUMPDEST SWAP1 POP SWAP1 JUMP JUMPDEST PUSH2 0x6C6 PUSH2 0x957 JUMP JUMPDEST DUP3 DUP2 EQ PUSH2 0x70B JUMPI PUSH1 0x40 MLOAD PUSH3 0x461BCD PUSH1 0xE5 SHL DUP2 MSTORE PUSH1 0x20 PUSH1 0x4 DUP3 ADD MSTORE PUSH1 0x13 PUSH1 0x24 DUP3 ADD MSTORE PUSH19 0x77726F6E67206172726179206C656E67746873 PUSH1 0x68 SHL PUSH1 0x44 DUP3 ADD MSTORE PUSH1 0x64 ADD PUSH2 0x426 JUMP JUMPDEST PUSH1 0x0 JUMPDEST DUP4 DUP2 LT ISZERO PUSH2 0x766 JUMPI PUSH2 0x754 DUP6 DUP6 DUP4 DUP2 DUP2 LT PUSH2 0x72B JUMPI PUSH2 0x72B PUSH2 0x10FE JUMP JUMPDEST SWAP1 POP PUSH1 0x20 MUL ADD PUSH1 0x20 DUP2 ADD SWAP1 PUSH2 0x740 SWAP2 SWAP1 PUSH2 0xCBE JUMP JUMPDEST PUSH1 0x0 DUP6 DUP6 DUP6 DUP2 DUP2 LT PUSH2 0x447 JUMPI PUSH2 0x447 PUSH2 0x10FE JUMP JUMPDEST DUP1 PUSH2 0x75E DUP2 PUSH2 0x11E4 JUMP JUMPDEST SWAP2 POP POP PUSH2 0x70E JUMP JUMPDEST POP POP POP POP POP JUMP JUMPDEST PUSH1 0x1 SLOAD PUSH1 0x40 MLOAD PUSH4 0x7AE4EB4F PUSH1 0xE1 SHL DUP2 MSTORE DUP8 SWAP2 DUP8 SWAP2 DUP8 SWAP2 DUP8 SWAP2 PUSH1 0x1 PUSH1 0x1 PUSH1 0xA0 SHL SUB SWAP1 SWAP2 AND SWAP1 PUSH4 0xF5C9D69E SWAP1 PUSH2 0x7AB SWAP1 DUP8 SWAP1 DUP8 SWAP1 DUP8 SWAP1 DUP8 SWAP1 PUSH1 0x4 ADD PUSH2 0x1222 JUMP JUMPDEST PUSH1 0x20 PUSH1 0x40 MLOAD DUP1 DUP4 SUB DUP2 DUP7 GAS STATICCALL ISZERO DUP1 ISZERO PUSH2 0x7C8 JUMPI RETURNDATASIZE PUSH1 0x0 DUP1 RETURNDATACOPY RETURNDATASIZE PUSH1 0x0 REVERT JUMPDEST POP POP POP POP PUSH1 0x40 MLOAD RETURNDATASIZE PUSH1 0x1F NOT PUSH1 0x1F DUP3 ADD AND DUP3 ADD DUP1 PUSH1 0x40 MSTORE POP DUP2 ADD SWAP1 PUSH2 0x7EC SWAP2 SWAP1 PUSH2 0x12AD JUMP JUMPDEST PUSH2 0x828 JUMPI PUSH1 0x40 MLOAD PUSH3 0x461BCD PUSH1 0xE5 SHL DUP2 MSTORE PUSH1 0x20 PUSH1 0x4 DUP3 ADD MSTORE PUSH1 0xD PUSH1 0x24 DUP3 ADD MSTORE PUSH13 0x34B73B30B634B210383937B7B3 PUSH1 0x99 SHL PUSH1 0x44 DUP3 ADD MSTORE PUSH1 0x64 ADD PUSH2 0x426 JUMP JUMPDEST PUSH1 0x2 SLOAD DUP2 MLOAD EQ PUSH2 0x869 JUMPI PUSH1 0x40 MLOAD PUSH3 0x461BCD PUSH1 0xE5 SHL DUP2 MSTORE PUSH1 0x20 PUSH1 0x4 DUP3 ADD MSTORE PUSH1 0xC PUSH1 0x24 DUP3 ADD MSTORE PUSH12 0x1A5B9D985B1A59081C9BDBDD PUSH1 0xA2 SHL PUSH1 0x44 DUP3 ADD MSTORE PUSH1 0x64 ADD PUSH2 0x426 JUMP JUMPDEST PUSH1 0x3 SLOAD PUSH1 0x20 DUP3 ADD MLOAD GT PUSH2 0x8A8 JUMPI PUSH1 0x40 MLOAD PUSH3 0x461BCD PUSH1 0xE5 SHL DUP2 MSTORE PUSH1 0x20 PUSH1 0x4 DUP3 ADD MSTORE PUSH1 0x7 PUSH1 0x24 DUP3 ADD MSTORE PUSH7 0x6F6C64204F545 PUSH1 0xCC SHL PUSH1 0x44 DUP3 ADD MSTORE PUSH1 0x64 ADD PUSH2 0x426 JUMP JUMPDEST PUSH1 0x40 MLOAD PUSH1 0x1 PUSH1 0x1 PUSH1 0xA0 SHL SUB DUP8 AND SWAP1 DUP7 ISZERO PUSH2 0x8FC MUL SWAP1 DUP8 SWAP1 PUSH1 0x0 DUP2 DUP2 DUP2 DUP6 DUP9 DUP9 CALL SWAP4 POP POP POP POP ISZERO DUP1 ISZERO PUSH2 0x8DE JUMPI RETURNDATASIZE PUSH1 0x0 DUP1 RETURNDATACOPY RETURNDATASIZE PUSH1 0x0 REVERT JUMPDEST POP PUSH1 0x20 ADD MLOAD PUSH1 0x3 SSTORE POP POP POP POP POP POP POP POP POP JUMP JUMPDEST PUSH2 0x8F9 PUSH2 0x957 JUMP JUMPDEST JUMP JUMPDEST PUSH1 0x7 SLOAD PUSH1 0x40 MLOAD PUSH1 0x1 PUSH1 0x1 PUSH1 0xA0 SHL SUB DUP1 DUP5 AND SWAP3 AND SWAP1 PUSH32 0x450909C1478D09248269D4AD4FA8CBA61CA3F50FAED58C7AEDEFA51C7F62B83A SWAP1 PUSH1 0x0 SWAP1 LOG3 PUSH1 0x7 DUP1 SLOAD PUSH1 0x1 PUSH1 0x1 PUSH1 0xA0 SHL SUB NOT AND PUSH1 0x1 PUSH1 0x1 PUSH1 0xA0 SHL SUB SWAP3 SWAP1 SWAP3 AND SWAP2 SWAP1 SWAP2 OR SWAP1 SSTORE JUMP JUMPDEST PUSH1 0x0 SLOAD PUSH1 0x1 PUSH1 0x60 SHL SWAP1 DIV PUSH1 0x1 PUSH1 0x1 PUSH1 0xA0 SHL SUB AND CALLER EQ DUP1 PUSH2 0x976 JUMPI POP CALLER ADDRESS EQ JUMPDEST PUSH2 0x8F9 JUMPI PUSH1 0x40 MLOAD PUSH3 0x461BCD PUSH1 0xE5 SHL DUP2 MSTORE PUSH1 0x20 PUSH1 0x4 DUP3 ADD MSTORE PUSH1 0xA PUSH1 0x24 DUP3 ADD MSTORE PUSH10 0x37B7363C9037BBB732B9 PUSH1 0xB1 SHL PUSH1 0x44 DUP3 ADD MSTORE PUSH1 0x64 ADD PUSH2 0x426 JUMP JUMPDEST PUSH1 0x1 SLOAD PUSH1 0x40 MLOAD PUSH4 0x7AE4EB4F PUSH1 0xE1 SHL DUP2 MSTORE PUSH1 0x0 SWAP2 DUP7 SWAP2 DUP7 SWAP2 DUP7 SWAP2 DUP7 SWAP2 PUSH1 0x1 PUSH1 0x1 PUSH1 0xA0 SHL SUB AND SWAP1 PUSH4 0xF5C9D69E SWAP1 PUSH2 0x9EE SWAP1 DUP8 SWAP1 DUP8 SWAP1 DUP8 SWAP1 DUP8 SWAP1 PUSH1 0x4 ADD PUSH2 0x1222 JUMP JUMPDEST PUSH1 0x20 PUSH1 0x40 MLOAD DUP1 DUP4 SUB DUP2 DUP7 GAS STATICCALL ISZERO DUP1 ISZERO PUSH2 0xA0B JUMPI RETURNDATASIZE PUSH1 0x0 DUP1 RETURNDATACOPY RETURNDATASIZE PUSH1 0x0 REVERT JUMPDEST POP POP POP POP PUSH1 0x40 MLOAD RETURNDATASIZE PUSH1 0x1F NOT PUSH1 0x1F DUP3 ADD AND DUP3 ADD DUP1 PUSH1 0x40 MSTORE POP DUP2 ADD SWAP1 PUSH2 0xA2F SWAP2 SWAP1 PUSH2 0x12AD JUMP JUMPDEST PUSH2 0xA6B JUMPI PUSH1 0x40 MLOAD PUSH3 0x461BCD PUSH1 0xE5 SHL DUP2 MSTORE PUSH1 0x20 PUSH1 0x4 DUP3 ADD MSTORE PUSH1 0xD PUSH1 0x24 DUP3 ADD MSTORE PUSH13 0x34B73B30B634B210383937B7B3 PUSH1 0x99 SHL PUSH1 0x44 DUP3 ADD MSTORE PUSH1 0x64 ADD PUSH2 0x426 JUMP JUMPDEST PUSH1 0x2 SLOAD DUP2 MLOAD EQ PUSH2 0xAAC JUMPI PUSH1 0x40 MLOAD PUSH3 0x461BCD PUSH1 0xE5 SHL DUP2 MSTORE PUSH1 0x20 PUSH1 0x4 DUP3 ADD MSTORE PUSH1 0xC PUSH1 0x24 DUP3 ADD MSTORE PUSH12 0x1A5B9D985B1A59081C9BDBDD PUSH1 0xA2 SHL PUSH1 0x44 DUP3 ADD MSTORE PUSH1 0x64 ADD PUSH2 0x426 JUMP JUMPDEST PUSH1 0x3 SLOAD PUSH1 0x20 DUP3 ADD MLOAD GT PUSH2 0xAEB JUMPI PUSH1 0x40 MLOAD PUSH3 0x461BCD PUSH1 0xE5 SHL DUP2 MSTORE PUSH1 0x20 PUSH1 0x4 DUP3 ADD MSTORE PUSH1 0x7 PUSH1 0x24 DUP3 ADD MSTORE PUSH7 0x6F6C64204F545 PUSH1 0xCC SHL PUSH1 0x44 DUP3 ADD MSTORE PUSH1 0x64 ADD PUSH2 0x426 JUMP JUMPDEST PUSH1 0x20 ADD MLOAD PUSH1 0x3 SSTORE POP PUSH1 0x1 SWAP8 SWAP7 POP POP POP POP POP POP POP JUMP JUMPDEST PUSH1 0x0 DUP1 DUP5 PUSH1 0x1 PUSH1 0x1 PUSH1 0xA0 SHL SUB AND DUP5 DUP5 PUSH1 0x40 MLOAD PUSH2 0xB1C SWAP2 SWAP1 PUSH2 0x12CF JUMP JUMPDEST PUSH1 0x0 PUSH1 0x40 MLOAD DUP1 DUP4 SUB DUP2 DUP6 DUP8 GAS CALL SWAP3 POP POP POP RETURNDATASIZE DUP1 PUSH1 0x0 DUP2 EQ PUSH2 0xB59 JUMPI PUSH1 0x40 MLOAD SWAP2 POP PUSH1 0x1F NOT PUSH1 0x3F RETURNDATASIZE ADD AND DUP3 ADD PUSH1 0x40 MSTORE RETURNDATASIZE DUP3 MSTORE RETURNDATASIZE PUSH1 0x0 PUSH1 0x20 DUP5 ADD RETURNDATACOPY PUSH2 0xB5E JUMP JUMPDEST PUSH1 0x60 SWAP2 POP JUMPDEST POP SWAP2 POP SWAP2 POP DUP2 PUSH2 0x766 JUMPI DUP1 MLOAD PUSH1 0x20 DUP3 ADD REVERT JUMPDEST PUSH1 0x7 SLOAD PUSH1 0x1 PUSH1 0x1 PUSH1 0xA0 SHL SUB AND CALLER EQ PUSH2 0x8F9 JUMPI PUSH1 0x40 MLOAD PUSH3 0x461BCD PUSH1 0xE5 SHL DUP2 MSTORE PUSH1 0x20 PUSH1 0x4 DUP3 ADD MSTORE PUSH1 0x1B PUSH1 0x24 DUP3 ADD MSTORE PUSH32 0x77616C6C65743A206E6F742066726F6D20456E747279506F696E740000000000 PUSH1 0x44 DUP3 ADD MSTORE PUSH1 0x64 ADD PUSH2 0x426 JUMP JUMPDEST PUSH1 0x0 DUP1 SLOAD PUSH1 0x20 DUP4 ADD CALLDATALOAD SWAP2 PUSH1 0x1 PUSH1 0x1 PUSH1 0x60 SHL SUB SWAP1 SWAP2 AND SWAP1 DUP1 PUSH2 0xBEA DUP4 PUSH2 0x130A JUMP JUMPDEST SWAP2 SWAP1 PUSH2 0x100 EXP DUP2 SLOAD DUP2 PUSH1 0x1 PUSH1 0x1 PUSH1 0x60 SHL SUB MUL NOT AND SWAP1 DUP4 PUSH1 0x1 PUSH1 0x1 PUSH1 0x60 SHL SUB AND MUL OR SWAP1 SSTORE POP PUSH1 0x1 PUSH1 0x1 PUSH1 0x60 SHL SUB AND EQ PUSH2 0x381 JUMPI PUSH1 0x40 MLOAD PUSH3 0x461BCD PUSH1 0xE5 SHL DUP2 MSTORE PUSH1 0x20 PUSH1 0x4 DUP3 ADD MSTORE PUSH1 0x15 PUSH1 0x24 DUP3 ADD MSTORE PUSH21 0x77616C6C65743A20696E76616C6964206E6F6E6365 PUSH1 0x58 SHL PUSH1 0x44 DUP3 ADD MSTORE PUSH1 0x64 ADD PUSH2 0x426 JUMP JUMPDEST DUP1 ISZERO PUSH2 0x381 JUMPI PUSH1 0x40 MLOAD PUSH1 0x0 SWAP1 CALLER SWAP1 PUSH1 0x0 NOT SWAP1 DUP5 SWAP1 DUP5 DUP2 DUP2 DUP2 DUP6 DUP9 DUP9 CALL SWAP4 POP POP POP POP RETURNDATASIZE DUP1 PUSH1 0x0 DUP2 EQ PUSH2 0x766 JUMPI PUSH1 0x40 MLOAD SWAP2 POP PUSH1 0x1F NOT PUSH1 0x3F RETURNDATASIZE ADD AND DUP3 ADD PUSH1 0x40 MSTORE RETURNDATASIZE DUP3 MSTORE RETURNDATASIZE PUSH1 0x0 PUSH1 0x20 DUP5 ADD RETURNDATACOPY PUSH2 0x766 JUMP JUMPDEST PUSH1 0x1 PUSH1 0x1 PUSH1 0xA0 SHL SUB DUP2 AND DUP2 EQ PUSH2 0x381 JUMPI PUSH1 0x0 DUP1 REVERT JUMPDEST PUSH1 0x0 PUSH1 0x20 DUP3 DUP5 SUB SLT ISZERO PUSH2 0xCD0 JUMPI PUSH1 0x0 DUP1 REVERT JUMPDEST DUP2 CALLDATALOAD PUSH2 0xCDB DUP2 PUSH2 0xCA9 JUMP JUMPDEST SWAP4 SWAP3 POP POP POP JUMP JUMPDEST PUSH1 0x40 DUP1 MLOAD SWAP1 DUP2 ADD PUSH8 0xFFFFFFFFFFFFFFFF DUP2 GT DUP3 DUP3 LT OR ISZERO PUSH2 0xD13 JUMPI PUSH4 0x4E487B71 PUSH1 0xE0 SHL PUSH1 0x0 MSTORE PUSH1 0x41 PUSH1 0x4 MSTORE PUSH1 0x24 PUSH1 0x0 REVERT JUMPDEST PUSH1 0x40 MSTORE SWAP1 JUMP JUMPDEST PUSH1 0x0 DUP3 PUSH1 0x1F DUP4 ADD SLT PUSH2 0xD2A JUMPI PUSH1 0x0 DUP1 REVERT JUMPDEST PUSH2 0xD32 PUSH2 0xCE2 JUMP JUMPDEST DUP1 PUSH1 0x40 DUP5 ADD DUP6 DUP2 GT ISZERO PUSH2 0xD44 JUMPI PUSH1 0x0 DUP1 REVERT JUMPDEST DUP5 JUMPDEST DUP2 DUP2 LT ISZERO PUSH2 0xD5E JUMPI DUP1 CALLDATALOAD DUP5 MSTORE PUSH1 0x20 SWAP4 DUP5 ADD SWAP4 ADD PUSH2 0xD46 JUMP JUMPDEST POP SWAP1 SWAP6 SWAP5 POP POP POP POP POP JUMP JUMPDEST PUSH1 0x0 DUP3 PUSH1 0x1F DUP4 ADD SLT PUSH2 0xD7A JUMPI PUSH1 0x0 DUP1 REVERT JUMPDEST PUSH2 0xD82 PUSH2 0xCE2 JUMP JUMPDEST DUP1 PUSH1 0x80 DUP5 ADD DUP6 DUP2 GT ISZERO PUSH2 0xD94 JUMPI PUSH1 0x0 DUP1 REVERT JUMPDEST DUP5 JUMPDEST DUP2 DUP2 LT ISZERO PUSH2 0xD5E JUMPI PUSH2 0xDA8 DUP8 DUP3 PUSH2 0xD19 JUMP JUMPDEST DUP5 MSTORE PUSH1 0x20 SWAP1 SWAP4 ADD SWAP3 PUSH1 0x40 ADD PUSH2 0xD96 JUMP JUMPDEST PUSH1 0x0 DUP1 PUSH1 0x0 DUP1 PUSH1 0x0 DUP1 PUSH2 0x180 DUP8 DUP10 SUB SLT ISZERO PUSH2 0xDD2 JUMPI PUSH1 0x0 DUP1 REVERT JUMPDEST PUSH2 0xDDC DUP9 DUP9 PUSH2 0xD19 JUMP JUMPDEST SWAP6 POP PUSH2 0xDEB DUP9 PUSH1 0x40 DUP10 ADD PUSH2 0xD69 JUMP JUMPDEST SWAP5 POP PUSH2 0xDFA DUP9 PUSH1 0xC0 DUP10 ADD PUSH2 0xD19 JUMP JUMPDEST SWAP4 POP PUSH2 0xE0A DUP9 PUSH2 0x100 DUP10 ADD PUSH2 0xD19 JUMP JUMPDEST SWAP3 POP PUSH2 0x140 DUP8 ADD CALLDATALOAD SWAP2 POP PUSH2 0x160 DUP8 ADD CALLDATALOAD PUSH2 0xE23 DUP2 PUSH2 0xCA9 JUMP JUMPDEST DUP1 SWAP2 POP POP SWAP3 SWAP6 POP SWAP3 SWAP6 POP SWAP3 SWAP6 JUMP JUMPDEST PUSH1 0x0 DUP1 DUP4 PUSH1 0x1F DUP5 ADD SLT PUSH2 0xE43 JUMPI PUSH1 0x0 DUP1 REVERT JUMPDEST POP DUP2 CALLDATALOAD PUSH8 0xFFFFFFFFFFFFFFFF DUP2 GT ISZERO PUSH2 0xE5B JUMPI PUSH1 0x0 DUP1 REVERT JUMPDEST PUSH1 0x20 DUP4 ADD SWAP2 POP DUP4 PUSH1 0x20 DUP3 PUSH1 0x5 SHL DUP6 ADD ADD GT ISZERO PUSH2 0xE76 JUMPI PUSH1 0x0 DUP1 REVERT JUMPDEST SWAP3 POP SWAP3 SWAP1 POP JUMP JUMPDEST PUSH1 0x0 DUP1 PUSH1 0x0 DUP1 PUSH1 0x60 DUP6 DUP8 SUB SLT ISZERO PUSH2 0xE93 JUMPI PUSH1 0x0 DUP1 REVERT JUMPDEST DUP5 CALLDATALOAD PUSH2 0xE9E DUP2 PUSH2 0xCA9 JUMP JUMPDEST SWAP4 POP PUSH1 0x20 DUP6 ADD CALLDATALOAD SWAP3 POP PUSH1 0x40 DUP6 ADD CALLDATALOAD PUSH8 0xFFFFFFFFFFFFFFFF DUP2 GT ISZERO PUSH2 0xEC1 JUMPI PUSH1 0x0 DUP1 REVERT JUMPDEST PUSH2 0xECD DUP8 DUP3 DUP9 ADD PUSH2 0xE31 JUMP JUMPDEST SWAP6 SWAP9 SWAP5 SWAP8 POP SWAP6 POP POP POP POP JUMP JUMPDEST PUSH1 0x0 DUP1 PUSH1 0x40 DUP4 DUP6 SUB SLT ISZERO PUSH2 0xEEC JUMPI PUSH1 0x0 DUP1 REVERT JUMPDEST DUP3 CALLDATALOAD PUSH2 0xEF7 DUP2 PUSH2 0xCA9 JUMP JUMPDEST SWAP5 PUSH1 0x20 SWAP4 SWAP1 SWAP4 ADD CALLDATALOAD SWAP4 POP POP POP JUMP JUMPDEST PUSH1 0x0 DUP1 PUSH1 0x0 DUP1 PUSH1 0x60 DUP6 DUP8 SUB SLT ISZERO PUSH2 0xF1B JUMPI PUSH1 0x0 DUP1 REVERT JUMPDEST DUP5 CALLDATALOAD PUSH2 0xF26 DUP2 PUSH2 0xCA9 JUMP JUMPDEST SWAP4 POP PUSH1 0x20 DUP6 ADD CALLDATALOAD SWAP3 POP PUSH1 0x40 DUP6 ADD CALLDATALOAD PUSH8 0xFFFFFFFFFFFFFFFF DUP1 DUP3 GT ISZERO PUSH2 0xF4A JUMPI PUSH1 0x0 DUP1 REVERT JUMPDEST DUP2 DUP8 ADD SWAP2 POP DUP8 PUSH1 0x1F DUP4 ADD SLT PUSH2 0xF5E JUMPI PUSH1 0x0 DUP1 REVERT JUMPDEST DUP2 CALLDATALOAD DUP2 DUP2 GT ISZERO PUSH2 0xF6D JUMPI PUSH1 0x0 DUP1 REVERT JUMPDEST DUP9 PUSH1 0x20 DUP3 DUP6 ADD ADD GT ISZERO PUSH2 0xF7F JUMPI PUSH1 0x0 DUP1 REVERT JUMPDEST SWAP6 SWAP9 SWAP5 SWAP8 POP POP PUSH1 0x20 ADD SWAP5 POP POP POP JUMP JUMPDEST PUSH1 0x0 DUP1 PUSH1 0x0 DUP1 PUSH1 0x80 DUP6 DUP8 SUB SLT ISZERO PUSH2 0xFA4 JUMPI PUSH1 0x0 DUP1 REVERT JUMPDEST DUP5 CALLDATALOAD PUSH8 0xFFFFFFFFFFFFFFFF DUP2 GT ISZERO PUSH2 0xFBB JUMPI PUSH1 0x0 DUP1 REVERT JUMPDEST DUP6 ADD PUSH2 0x1C0 DUP2 DUP9 SUB SLT ISZERO PUSH2 0xFCE JUMPI PUSH1 0x0 DUP1 REVERT JUMPDEST SWAP4 POP PUSH1 0x20 DUP6 ADD CALLDATALOAD SWAP3 POP PUSH1 0x40 DUP6 ADD CALLDATALOAD PUSH2 0xFE5 DUP2 PUSH2 0xCA9 JUMP JUMPDEST SWAP4 SWAP7 SWAP3 SWAP6 POP SWAP3 SWAP4 PUSH1 0x60 ADD CALLDATALOAD SWAP3 POP POP JUMP JUMPDEST PUSH1 0x0 DUP1 PUSH1 0x0 DUP1 PUSH1 0x40 DUP6 DUP8 SUB SLT ISZERO PUSH2 0x100B JUMPI PUSH1 0x0 DUP1 REVERT JUMPDEST DUP5 CALLDATALOAD PUSH8 0xFFFFFFFFFFFFFFFF DUP1 DUP3 GT ISZERO PUSH2 0x1023 JUMPI PUSH1 0x0 DUP1 REVERT JUMPDEST PUSH2 0x102F DUP9 DUP4 DUP10 ADD PUSH2 0xE31 JUMP JUMPDEST SWAP1 SWAP7 POP SWAP5 POP PUSH1 0x20 DUP8 ADD CALLDATALOAD SWAP2 POP DUP1 DUP3 GT ISZERO PUSH2 0x1048 JUMPI PUSH1 0x0 DUP1 REVERT JUMPDEST POP PUSH2 0xECD DUP8 DUP3 DUP9 ADD PUSH2 0xE31 JUMP JUMPDEST PUSH1 0x0 DUP1 PUSH1 0x0 DUP1 PUSH1 0x0 DUP1 PUSH2 0x180 DUP8 DUP10 SUB SLT ISZERO PUSH2 0x106F JUMPI PUSH1 0x0 DUP1 REVERT JUMPDEST PUSH2 0x1079 DUP9 DUP9 PUSH2 0xD19 JUMP JUMPDEST SWAP6 POP PUSH2 0x1088 DUP9 PUSH1 0x40 DUP10 ADD PUSH2 0xD69 JUMP JUMPDEST SWAP5 POP PUSH2 0x1097 DUP9 PUSH1 0xC0 DUP10 ADD PUSH2 0xD19 JUMP JUMPDEST SWAP4 POP PUSH2 0x10A7 DUP9 PUSH2 0x100 DUP10 ADD PUSH2 0xD19 JUMP JUMPDEST SWAP3 POP PUSH2 0x140 DUP8 ADD CALLDATALOAD PUSH2 0x10B8 DUP2 PUSH2 0xCA9 JUMP JUMPDEST DUP1 SWAP3 POP POP PUSH2 0x160 DUP8 ADD CALLDATALOAD SWAP1 POP SWAP3 SWAP6 POP SWAP3 SWAP6 POP SWAP3 SWAP6 JUMP JUMPDEST PUSH1 0x0 DUP1 PUSH1 0x40 DUP4 DUP6 SUB SLT ISZERO PUSH2 0x10E1 JUMPI PUSH1 0x0 DUP1 REVERT JUMPDEST DUP3 CALLDATALOAD SWAP2 POP PUSH1 0x20 DUP4 ADD CALLDATALOAD PUSH2 0x10F3 DUP2 PUSH2 0xCA9 JUMP JUMPDEST DUP1 SWAP2 POP POP SWAP3 POP SWAP3 SWAP1 POP JUMP JUMPDEST PUSH4 0x4E487B71 PUSH1 0xE0 SHL PUSH1 0x0 MSTORE PUSH1 0x32 PUSH1 0x4 MSTORE PUSH1 0x24 PUSH1 0x0 REVERT JUMPDEST PUSH1 0x0 DUP1 DUP4 CALLDATALOAD PUSH1 0x1E NOT DUP5 CALLDATASIZE SUB ADD DUP2 SLT PUSH2 0x112B JUMPI PUSH1 0x0 DUP1 REVERT JUMPDEST DUP4 ADD DUP1 CALLDATALOAD SWAP2 POP PUSH8 0xFFFFFFFFFFFFFFFF DUP3 GT ISZERO PUSH2 0x1146 JUMPI PUSH1 0x0 DUP1 REVERT JUMPDEST PUSH1 0x20 ADD SWAP2 POP CALLDATASIZE DUP2 SWAP1 SUB DUP3 SGT ISZERO PUSH2 0xE76 JUMPI PUSH1 0x0 DUP1 REVERT JUMPDEST PUSH1 0x0 DUP1 PUSH1 0x0 DUP1 PUSH2 0x140 DUP6 DUP8 SUB SLT ISZERO PUSH2 0x1172 JUMPI PUSH1 0x0 DUP1 REVERT JUMPDEST PUSH2 0x117C DUP7 DUP7 PUSH2 0xD19 JUMP JUMPDEST SWAP4 POP PUSH2 0x118B DUP7 PUSH1 0x40 DUP8 ADD PUSH2 0xD69 JUMP JUMPDEST SWAP3 POP PUSH2 0x119A DUP7 PUSH1 0xC0 DUP8 ADD PUSH2 0xD19 JUMP JUMPDEST SWAP2 POP PUSH2 0x11AA DUP7 PUSH2 0x100 DUP8 ADD PUSH2 0xD19 JUMP JUMPDEST SWAP1 POP SWAP3 SWAP6 SWAP2 SWAP5 POP SWAP3 POP JUMP JUMPDEST PUSH1 0x0 PUSH1 0x20 DUP3 DUP5 SUB SLT ISZERO PUSH2 0x11C7 JUMPI PUSH1 0x0 DUP1 REVERT JUMPDEST POP MLOAD SWAP2 SWAP1 POP JUMP JUMPDEST PUSH4 0x4E487B71 PUSH1 0xE0 SHL PUSH1 0x0 MSTORE PUSH1 0x11 PUSH1 0x4 MSTORE PUSH1 0x24 PUSH1 0x0 REVERT JUMPDEST PUSH1 0x0 PUSH1 0x0 NOT DUP3 EQ ISZERO PUSH2 0x11F8 JUMPI PUSH2 0x11F8 PUSH2 0x11CE JUMP JUMPDEST POP PUSH1 0x1 ADD SWAP1 JUMP JUMPDEST DUP1 PUSH1 0x0 JUMPDEST PUSH1 0x2 DUP2 LT ISZERO PUSH2 0x5C3 JUMPI DUP2 MLOAD DUP5 MSTORE PUSH1 0x20 SWAP4 DUP5 ADD SWAP4 SWAP1 SWAP2 ADD SWAP1 PUSH1 0x1 ADD PUSH2 0x1203 JUMP JUMPDEST PUSH2 0x140 DUP2 ADD PUSH2 0x1231 DUP3 DUP8 PUSH2 0x11FF JUMP JUMPDEST PUSH1 0x40 DUP1 DUP4 ADD DUP7 PUSH1 0x0 DUP1 JUMPDEST PUSH1 0x2 DUP1 DUP3 LT PUSH2 0x124A JUMPI POP PUSH2 0x1284 JUMP JUMPDEST DUP4 MLOAD DUP6 DUP5 JUMPDEST DUP4 DUP2 LT ISZERO PUSH2 0x126D JUMPI DUP3 MLOAD DUP3 MSTORE PUSH1 0x20 SWAP3 DUP4 ADD SWAP3 SWAP1 SWAP2 ADD SWAP1 PUSH1 0x1 ADD PUSH2 0x124F JUMP JUMPDEST POP POP POP SWAP4 DUP6 ADD SWAP4 POP PUSH1 0x20 SWAP3 SWAP1 SWAP3 ADD SWAP2 PUSH1 0x1 ADD PUSH2 0x123B JUMP JUMPDEST POP POP POP POP POP PUSH2 0x1296 PUSH1 0xC0 DUP4 ADD DUP6 PUSH2 0x11FF JUMP JUMPDEST PUSH2 0x12A4 PUSH2 0x100 DUP4 ADD DUP5 PUSH2 0x11FF JUMP JUMPDEST SWAP6 SWAP5 POP POP POP POP POP JUMP JUMPDEST PUSH1 0x0 PUSH1 0x20 DUP3 DUP5 SUB SLT ISZERO PUSH2 0x12BF JUMPI PUSH1 0x0 DUP1 REVERT JUMPDEST DUP2 MLOAD DUP1 ISZERO ISZERO DUP2 EQ PUSH2 0xCDB JUMPI PUSH1 0x0 DUP1 REVERT JUMPDEST PUSH1 0x0 DUP3 MLOAD PUSH1 0x0 JUMPDEST DUP2 DUP2 LT ISZERO PUSH2 0x12F0 JUMPI PUSH1 0x20 DUP2 DUP7 ADD DUP2 ADD MLOAD DUP6 DUP4 ADD MSTORE ADD PUSH2 0x12D6 JUMP JUMPDEST DUP2 DUP2 GT ISZERO PUSH2 0x12FF JUMPI PUSH1 0x0 DUP3 DUP6 ADD MSTORE JUMPDEST POP SWAP2 SWAP1 SWAP2 ADD SWAP3 SWAP2 POP POP JUMP JUMPDEST PUSH1 0x0 PUSH1 0x1 PUSH1 0x1 PUSH1 0x60 SHL SUB DUP1 DUP4 AND DUP2 DUP2 EQ ISZERO PUSH2 0x1327 JUMPI PUSH2 0x1327 PUSH2 0x11CE JUMP JUMPDEST PUSH1 0x1 ADD SWAP4 SWAP3 POP POP POP JUMP INVALID LOG2 PUSH5 0x6970667358 0x22 SLT KECCAK256 PUSH30 0x5581545F75FEF39ABADF8616999832280D0431240A9930D661A77C281A0 0xE4 PUSH5 0x736F6C6343 STOP ADDMOD 0xC STOP CALLER "
        },
        "methodIdentifiers": {
          "addDeposit()": "4a58db19",
          "entryPoint()": "b0d691fe",
          "exec(address,uint256,bytes[])": "3ef91dfb",
          "execBatch(address[],bytes[])": "d0cb75fa",
          "execFromEntryPoint(address,uint256,bytes)": "80c5c7d0",
          "getDeposit()": "c399ec88",
          "lastUsedTime()": "bf98a6e4",
          "nonce()": "affed0e0",
          "owner()": "8da5cb5b",
          "root()": "ebf0c717",
          "setMerkleRootAndVerifier(uint256,address)": "eaaa734c",
          "testTransfer(uint256[2],uint256[2][2],uint256[2],uint256[2],address,uint256)": "e1a3fca3",
          "transfer(address,uint256)": "a9059cbb",
          "updateEntryPoint(address)": "1b71bb6e",
          "validateUserOp((address,uint256,bytes,bytes,uint256,uint256,uint256,uint256,uint256,bytes,bytes,uint256,uint256,bytes32),bytes32,address,uint256)": "a97cd4bb",
          "verifierAddr()": "663ea2e2",
          "withdrawDepositTo(address,uint256)": "4d44560d",
          "zkProof(uint256[2],uint256[2][2],uint256[2],uint256[2],uint256,address)": "31e33df3"
        }
      }
    }
  }
}