{
  "contracts/core/EntryPoint.sol": {
    "EntryPoint": {
      "abi": [
        {
          "inputs": [
            {
              "internalType": "uint256",
              "name": "_paymasterStake",
              "type": "uint256"
            },
            {
              "internalType": "uint32",
              "name": "_unstakeDelaySec",
              "type": "uint32"
            }
          ],
          "stateMutability": "nonpayable",
          "type": "constructor"
        },
        {
          "inputs": [
            {
              "internalType": "uint256",
              "name": "opIndex",
              "type": "uint256"
            },
            {
              "internalType": "address",
              "name": "paymaster",
              "type": "address"
            },
            {
              "internalType": "string",
              "name": "reason",
              "type": "string"
            }
          ],
          "name": "FailedOp",
          "type": "error"
        },
        {
          "inputs": [
            {
              "internalType": "address",
              "name": "aggregator",
              "type": "address"
            }
          ],
          "name": "SignatureValidationFailed",
          "type": "error"
        },
        {
          "anonymous": false,
          "inputs": [
            {
              "indexed": true,
              "internalType": "address",
              "name": "account",
              "type": "address"
            },
            {
              "indexed": false,
              "internalType": "uint256",
              "name": "totalDeposit",
              "type": "uint256"
            }
          ],
          "name": "Deposited",
          "type": "event"
        },
        {
          "anonymous": false,
          "inputs": [
            {
              "indexed": true,
              "internalType": "address",
              "name": "account",
              "type": "address"
            },
            {
              "indexed": false,
              "internalType": "uint256",
              "name": "totalStaked",
              "type": "uint256"
            },
            {
              "indexed": false,
              "internalType": "uint256",
              "name": "withdrawTime",
              "type": "uint256"
            }
          ],
          "name": "StakeLocked",
          "type": "event"
        },
        {
          "anonymous": false,
          "inputs": [
            {
              "indexed": true,
              "internalType": "address",
              "name": "account",
              "type": "address"
            },
            {
              "indexed": false,
              "internalType": "uint256",
              "name": "withdrawTime",
              "type": "uint256"
            }
          ],
          "name": "StakeUnlocked",
          "type": "event"
        },
        {
          "anonymous": false,
          "inputs": [
            {
              "indexed": true,
              "internalType": "address",
              "name": "account",
              "type": "address"
            },
            {
              "indexed": false,
              "internalType": "address",
              "name": "withdrawAddress",
              "type": "address"
            },
            {
              "indexed": false,
              "internalType": "uint256",
              "name": "amount",
              "type": "uint256"
            }
          ],
          "name": "StakeWithdrawn",
          "type": "event"
        },
        {
          "anonymous": false,
          "inputs": [
            {
              "indexed": true,
              "internalType": "bytes32",
              "name": "requestId",
              "type": "bytes32"
            },
            {
              "indexed": true,
              "internalType": "address",
              "name": "sender",
              "type": "address"
            },
            {
              "indexed": true,
              "internalType": "address",
              "name": "paymaster",
              "type": "address"
            },
            {
              "indexed": false,
              "internalType": "uint256",
              "name": "nonce",
              "type": "uint256"
            },
            {
              "indexed": false,
              "internalType": "uint256",
              "name": "actualGasCost",
              "type": "uint256"
            },
            {
              "indexed": false,
              "internalType": "uint256",
              "name": "actualGasPrice",
              "type": "uint256"
            },
            {
              "indexed": false,
              "internalType": "bool",
              "name": "success",
              "type": "bool"
            }
          ],
          "name": "UserOperationEvent",
          "type": "event"
        },
        {
          "anonymous": false,
          "inputs": [
            {
              "indexed": true,
              "internalType": "bytes32",
              "name": "requestId",
              "type": "bytes32"
            },
            {
              "indexed": true,
              "internalType": "address",
              "name": "sender",
              "type": "address"
            },
            {
              "indexed": false,
              "internalType": "uint256",
              "name": "nonce",
              "type": "uint256"
            },
            {
              "indexed": false,
              "internalType": "bytes",
              "name": "revertReason",
              "type": "bytes"
            }
          ],
          "name": "UserOperationRevertReason",
          "type": "event"
        },
        {
          "anonymous": false,
          "inputs": [
            {
              "indexed": true,
              "internalType": "address",
              "name": "account",
              "type": "address"
            },
            {
              "indexed": false,
              "internalType": "address",
              "name": "withdrawAddress",
              "type": "address"
            },
            {
              "indexed": false,
              "internalType": "uint256",
              "name": "amount",
              "type": "uint256"
            }
          ],
          "name": "Withdrawn",
          "type": "event"
        },
        {
          "inputs": [
            {
              "internalType": "uint32",
              "name": "_unstakeDelaySec",
              "type": "uint32"
            }
          ],
          "name": "addStake",
          "outputs": [],
          "stateMutability": "payable",
          "type": "function"
        },
        {
          "inputs": [
            {
              "internalType": "address",
              "name": "account",
              "type": "address"
            }
          ],
          "name": "balanceOf",
          "outputs": [
            {
              "internalType": "uint256",
              "name": "",
              "type": "uint256"
            }
          ],
          "stateMutability": "view",
          "type": "function"
        },
        {
          "inputs": [
            {
              "internalType": "address",
              "name": "account",
              "type": "address"
            }
          ],
          "name": "depositTo",
          "outputs": [],
          "stateMutability": "payable",
          "type": "function"
        },
        {
          "inputs": [
            {
              "internalType": "address",
              "name": "",
              "type": "address"
            }
          ],
          "name": "deposits",
          "outputs": [
            {
              "internalType": "uint112",
              "name": "deposit",
              "type": "uint112"
            },
            {
              "internalType": "bool",
              "name": "staked",
              "type": "bool"
            },
            {
              "internalType": "uint112",
              "name": "stake",
              "type": "uint112"
            },
            {
              "internalType": "uint32",
              "name": "unstakeDelaySec",
              "type": "uint32"
            },
            {
              "internalType": "uint64",
              "name": "withdrawTime",
              "type": "uint64"
            }
          ],
          "stateMutability": "view",
          "type": "function"
        },
        {
          "inputs": [
            {
              "internalType": "address",
              "name": "account",
              "type": "address"
            }
          ],
          "name": "getDepositInfo",
          "outputs": [
            {
              "components": [
                {
                  "internalType": "uint112",
                  "name": "deposit",
                  "type": "uint112"
                },
                {
                  "internalType": "bool",
                  "name": "staked",
                  "type": "bool"
                },
                {
                  "internalType": "uint112",
                  "name": "stake",
                  "type": "uint112"
                },
                {
                  "internalType": "uint32",
                  "name": "unstakeDelaySec",
                  "type": "uint32"
                },
                {
                  "internalType": "uint64",
                  "name": "withdrawTime",
                  "type": "uint64"
                }
              ],
              "internalType": "struct IStakeManager.DepositInfo",
              "name": "info",
              "type": "tuple"
            }
          ],
          "stateMutability": "view",
          "type": "function"
        },
        {
          "inputs": [
            {
              "components": [
                {
                  "internalType": "address",
                  "name": "sender",
                  "type": "address"
                },
                {
                  "internalType": "uint256",
                  "name": "nonce",
                  "type": "uint256"
                },
                {
                  "internalType": "bytes",
                  "name": "initCode",
                  "type": "bytes"
                },
                {
                  "internalType": "bytes",
                  "name": "callData",
                  "type": "bytes"
                },
                {
                  "internalType": "uint256",
                  "name": "callGasLimit",
                  "type": "uint256"
                },
                {
                  "internalType": "uint256",
                  "name": "verificationGasLimit",
                  "type": "uint256"
                },
                {
                  "internalType": "uint256",
                  "name": "preVerificationGas",
                  "type": "uint256"
                },
                {
                  "internalType": "uint256",
                  "name": "maxFeePerGas",
                  "type": "uint256"
                },
                {
                  "internalType": "uint256",
                  "name": "maxPriorityFeePerGas",
                  "type": "uint256"
                },
                {
                  "internalType": "bytes",
                  "name": "paymasterAndData",
                  "type": "bytes"
                },
                {
                  "internalType": "bytes",
                  "name": "signature",
                  "type": "bytes"
                }
              ],
              "internalType": "struct UserOperation",
              "name": "userOp",
              "type": "tuple"
            }
          ],
          "name": "getRequestId",
          "outputs": [
            {
              "internalType": "bytes32",
              "name": "",
              "type": "bytes32"
            }
          ],
          "stateMutability": "view",
          "type": "function"
        },
        {
          "inputs": [
            {
              "internalType": "bytes",
              "name": "initCode",
              "type": "bytes"
            }
          ],
          "name": "getSenderAddress",
          "outputs": [
            {
              "internalType": "address",
              "name": "sender",
              "type": "address"
            }
          ],
          "stateMutability": "nonpayable",
          "type": "function"
        },
        {
          "inputs": [
            {
              "internalType": "address",
              "name": "sender",
              "type": "address"
            }
          ],
          "name": "getSenderStorage",
          "outputs": [
            {
              "internalType": "uint256[]",
              "name": "senderStorageCells",
              "type": "uint256[]"
            }
          ],
          "stateMutability": "view",
          "type": "function"
        },
        {
          "inputs": [
            {
              "components": [
                {
                  "components": [
                    {
                      "internalType": "address",
                      "name": "sender",
                      "type": "address"
                    },
                    {
                      "internalType": "uint256",
                      "name": "nonce",
                      "type": "uint256"
                    },
                    {
                      "internalType": "bytes",
                      "name": "initCode",
                      "type": "bytes"
                    },
                    {
                      "internalType": "bytes",
                      "name": "callData",
                      "type": "bytes"
                    },
                    {
                      "internalType": "uint256",
                      "name": "callGasLimit",
                      "type": "uint256"
                    },
                    {
                      "internalType": "uint256",
                      "name": "verificationGasLimit",
                      "type": "uint256"
                    },
                    {
                      "internalType": "uint256",
                      "name": "preVerificationGas",
                      "type": "uint256"
                    },
                    {
                      "internalType": "uint256",
                      "name": "maxFeePerGas",
                      "type": "uint256"
                    },
                    {
                      "internalType": "uint256",
                      "name": "maxPriorityFeePerGas",
                      "type": "uint256"
                    },
                    {
                      "internalType": "bytes",
                      "name": "paymasterAndData",
                      "type": "bytes"
                    },
                    {
                      "internalType": "bytes",
                      "name": "signature",
                      "type": "bytes"
                    }
                  ],
                  "internalType": "struct UserOperation[]",
                  "name": "userOps",
                  "type": "tuple[]"
                },
                {
                  "internalType": "contract IAggregator",
                  "name": "aggregator",
                  "type": "address"
                },
                {
                  "internalType": "bytes",
                  "name": "signature",
                  "type": "bytes"
                }
              ],
              "internalType": "struct IEntryPoint.UserOpsPerAggregator[]",
              "name": "opsPerAggregator",
              "type": "tuple[]"
            },
            {
              "internalType": "address payable",
              "name": "beneficiary",
              "type": "address"
            }
          ],
          "name": "handleAggregatedOps",
          "outputs": [],
          "stateMutability": "nonpayable",
          "type": "function"
        },
        {
          "inputs": [
            {
              "components": [
                {
                  "internalType": "address",
                  "name": "sender",
                  "type": "address"
                },
                {
                  "internalType": "uint256",
                  "name": "nonce",
                  "type": "uint256"
                },
                {
                  "internalType": "bytes",
                  "name": "initCode",
                  "type": "bytes"
                },
                {
                  "internalType": "bytes",
                  "name": "callData",
                  "type": "bytes"
                },
                {
                  "internalType": "uint256",
                  "name": "callGasLimit",
                  "type": "uint256"
                },
                {
                  "internalType": "uint256",
                  "name": "verificationGasLimit",
                  "type": "uint256"
                },
                {
                  "internalType": "uint256",
                  "name": "preVerificationGas",
                  "type": "uint256"
                },
                {
                  "internalType": "uint256",
                  "name": "maxFeePerGas",
                  "type": "uint256"
                },
                {
                  "internalType": "uint256",
                  "name": "maxPriorityFeePerGas",
                  "type": "uint256"
                },
                {
                  "internalType": "bytes",
                  "name": "paymasterAndData",
                  "type": "bytes"
                },
                {
                  "internalType": "bytes",
                  "name": "signature",
                  "type": "bytes"
                }
              ],
              "internalType": "struct UserOperation[]",
              "name": "ops",
              "type": "tuple[]"
            },
            {
              "internalType": "address payable",
              "name": "beneficiary",
              "type": "address"
            }
          ],
          "name": "handleOps",
          "outputs": [],
          "stateMutability": "nonpayable",
          "type": "function"
        },
        {
          "inputs": [
            {
              "internalType": "bytes",
              "name": "callData",
              "type": "bytes"
            },
            {
              "components": [
                {
                  "components": [
                    {
                      "internalType": "address",
                      "name": "sender",
                      "type": "address"
                    },
                    {
                      "internalType": "uint256",
                      "name": "nonce",
                      "type": "uint256"
                    },
                    {
                      "internalType": "uint256",
                      "name": "callGasLimit",
                      "type": "uint256"
                    },
                    {
                      "internalType": "uint256",
                      "name": "verificationGasLimit",
                      "type": "uint256"
                    },
                    {
                      "internalType": "uint256",
                      "name": "preVerificationGas",
                      "type": "uint256"
                    },
                    {
                      "internalType": "address",
                      "name": "paymaster",
                      "type": "address"
                    },
                    {
                      "internalType": "uint256",
                      "name": "maxFeePerGas",
                      "type": "uint256"
                    },
                    {
                      "internalType": "uint256",
                      "name": "maxPriorityFeePerGas",
                      "type": "uint256"
                    }
                  ],
                  "internalType": "struct EntryPoint.MemoryUserOp",
                  "name": "mUserOp",
                  "type": "tuple"
                },
                {
                  "internalType": "bytes32",
                  "name": "requestId",
                  "type": "bytes32"
                },
                {
                  "internalType": "uint256",
                  "name": "prefund",
                  "type": "uint256"
                },
                {
                  "internalType": "uint256",
                  "name": "contextOffset",
                  "type": "uint256"
                },
                {
                  "internalType": "uint256",
                  "name": "preOpGas",
                  "type": "uint256"
                }
              ],
              "internalType": "struct EntryPoint.UserOpInfo",
              "name": "opInfo",
              "type": "tuple"
            },
            {
              "internalType": "bytes",
              "name": "context",
              "type": "bytes"
            }
          ],
          "name": "innerHandleOp",
          "outputs": [
            {
              "internalType": "uint256",
              "name": "actualGasCost",
              "type": "uint256"
            }
          ],
          "stateMutability": "nonpayable",
          "type": "function"
        },
        {
          "inputs": [],
          "name": "paymasterStake",
          "outputs": [
            {
              "internalType": "uint256",
              "name": "",
              "type": "uint256"
            }
          ],
          "stateMutability": "view",
          "type": "function"
        },
        {
          "inputs": [
            {
              "components": [
                {
                  "internalType": "address",
                  "name": "sender",
                  "type": "address"
                },
                {
                  "internalType": "uint256",
                  "name": "nonce",
                  "type": "uint256"
                },
                {
                  "internalType": "bytes",
                  "name": "initCode",
                  "type": "bytes"
                },
                {
                  "internalType": "bytes",
                  "name": "callData",
                  "type": "bytes"
                },
                {
                  "internalType": "uint256",
                  "name": "callGasLimit",
                  "type": "uint256"
                },
                {
                  "internalType": "uint256",
                  "name": "verificationGasLimit",
                  "type": "uint256"
                },
                {
                  "internalType": "uint256",
                  "name": "preVerificationGas",
                  "type": "uint256"
                },
                {
                  "internalType": "uint256",
                  "name": "maxFeePerGas",
                  "type": "uint256"
                },
                {
                  "internalType": "uint256",
                  "name": "maxPriorityFeePerGas",
                  "type": "uint256"
                },
                {
                  "internalType": "bytes",
                  "name": "paymasterAndData",
                  "type": "bytes"
                },
                {
                  "internalType": "bytes",
                  "name": "signature",
                  "type": "bytes"
                }
              ],
              "internalType": "struct UserOperation",
              "name": "userOp",
              "type": "tuple"
            },
            {
              "internalType": "bool",
              "name": "offChainSigCheck",
              "type": "bool"
            }
          ],
          "name": "simulateValidation",
          "outputs": [
            {
              "internalType": "uint256",
              "name": "preOpGas",
              "type": "uint256"
            },
            {
              "internalType": "uint256",
              "name": "prefund",
              "type": "uint256"
            },
            {
              "internalType": "address",
              "name": "actualAggregator",
              "type": "address"
            },
            {
              "internalType": "bytes",
              "name": "sigForUserOp",
              "type": "bytes"
            },
            {
              "internalType": "bytes",
              "name": "sigForAggregation",
              "type": "bytes"
            },
            {
              "internalType": "bytes",
              "name": "offChainSigInfo",
              "type": "bytes"
            }
          ],
          "stateMutability": "nonpayable",
          "type": "function"
        },
        {
          "inputs": [],
          "name": "unlockStake",
          "outputs": [],
          "stateMutability": "nonpayable",
          "type": "function"
        },
        {
          "inputs": [],
          "name": "unstakeDelaySec",
          "outputs": [
            {
              "internalType": "uint32",
              "name": "",
              "type": "uint32"
            }
          ],
          "stateMutability": "view",
          "type": "function"
        },
        {
          "inputs": [
            {
              "internalType": "address payable",
              "name": "withdrawAddress",
              "type": "address"
            }
          ],
          "name": "withdrawStake",
          "outputs": [],
          "stateMutability": "nonpayable",
          "type": "function"
        },
        {
          "inputs": [
            {
              "internalType": "address payable",
              "name": "withdrawAddress",
              "type": "address"
            },
            {
              "internalType": "uint256",
              "name": "withdrawAmount",
              "type": "uint256"
            }
          ],
          "name": "withdrawTo",
          "outputs": [],
          "stateMutability": "nonpayable",
          "type": "function"
        },
        {
          "stateMutability": "payable",
          "type": "receive"
        }
      ],
      "evm": {
        "bytecode": {
          "linkReferences": {},
          "object": "60c06040523480156200001157600080fd5b50604051620033a9380380620033a98339810160408190526200003491620000f1565b63ffffffff8116608081905260a0839052620000975760405162461bcd60e51b815260206004820152601460248201527f696e76616c696420756e7374616b6544656c617900000000000000000000000060448201526064015b60405180910390fd5b60008211620000e95760405162461bcd60e51b815260206004820152601660248201527f696e76616c6964207061796d61737465725374616b650000000000000000000060448201526064016200008e565b50506200012c565b600080604083850312156200010557600080fd5b82519150602083015163ffffffff811681146200012157600080fd5b809150509250929050565b60805160a051613249620001606000396000818161016f01526106ba01526000818161020301526105c901526132496000f3fe6080604052600436106101025760003560e01c80635287ce1211610095578063bb9fe6bf11610064578063bb9fe6bf14610402578063c23a5cea14610417578063ec8b5dbf14610437578063fc7e286d14610464578063ffb01dd91461051a57600080fd5b80635287ce121461025a57806370a08231146103785780639b249f69146103b7578063b760faf9146103ef57600080fd5b80631fad948c116100d15780631fad948c146101b1578063205c2878146101d1578063390b9978146101f15780634b1d7cf51461023a57600080fd5b80630396cb601461011757806314e726341461012a57806317c6a9871461015d5780631d7327561461019157600080fd5b36610112576101103361054c565b005b600080fd5b6101106101253660046124a8565b6105b3565b34801561013657600080fd5b5061014a6101453660046124e7565b61087d565b6040519081526020015b60405180910390f35b34801561016957600080fd5b5061014a7f000000000000000000000000000000000000000000000000000000000000000081565b34801561019d57600080fd5b5061014a6101ac366004612612565b6108bf565b3480156101bd57600080fd5b506101106101cc366004612799565b610a0e565b3480156101dd57600080fd5b506101106101ec3660046127ef565b610b35565b3480156101fd57600080fd5b506102257f000000000000000000000000000000000000000000000000000000000000000081565b60405163ffffffff9091168152602001610154565b34801561024657600080fd5b50610110610255366004612799565b610cf8565b34801561026657600080fd5b5061031f61027536600461281b565b6040805160a081018252600080825260208201819052918101829052606081018290526080810191909152506001600160a01b031660009081526020818152604091829020825160a08101845281546001600160701b038082168352600160701b820460ff16151594830194909452600160781b90049092169282019290925260019091015463ffffffff81166060830152600160201b90046001600160401b0316608082015290565b6040805182516001600160701b03908116825260208085015115159083015283830151169181019190915260608083015163ffffffff16908201526080918201516001600160401b03169181019190915260a001610154565b34801561038457600080fd5b5061014a61039336600461281b565b6001600160a01b03166000908152602081905260409020546001600160701b031690565b3480156103c357600080fd5b506103d76103d2366004612838565b611016565b6040516001600160a01b039091168152602001610154565b6101106103fd36600461281b565b61054c565b34801561040e57600080fd5b50610110611047565b34801561042357600080fd5b5061011061043236600461281b565b61114f565b34801561044357600080fd5b5061045761045236600461281b565b611384565b6040516101549190612879565b34801561047057600080fd5b506104d361047f36600461281b565b600060208190529081526040902080546001909101546001600160701b0380831692600160701b810460ff1692600160781b9091049091169063ffffffff811690600160201b90046001600160401b031685565b604080516001600160701b0396871681529415156020860152929094169183019190915263ffffffff1660608201526001600160401b03909116608082015260a001610154565b34801561052657600080fd5b5061053a6105353660046128bd565b6113ea565b6040516101549695949392919061296b565b61055681346114f1565b6001600160a01b03811660008181526020818152604091829020805492516001600160701b03909316835292917f2da466a7b24304f47e87fa2e1e5a81b9831ce54fec19055ce277ca2f39ba42c491015b60405180910390a25050565b33600090815260208190526040902063ffffffff7f0000000000000000000000000000000000000000000000000000000000000000811690831610156106385760405162461bcd60e51b8152602060048201526015602482015274756e7374616b652064656c617920746f6f206c6f7760581b60448201526064015b60405180910390fd5b600181015463ffffffff90811690831610156106965760405162461bcd60e51b815260206004820152601c60248201527f63616e6e6f7420646563726561736520756e7374616b652074696d6500000000604482015260640161062f565b80546000906106b6903490600160781b90046001600160701b03166129e1565b90507f000000000000000000000000000000000000000000000000000000000000000081101561071e5760405162461bcd60e51b81526020600482015260136024820152727374616b652076616c756520746f6f206c6f7760681b604482015260640161062f565b6001600160701b0381106107655760405162461bcd60e51b815260206004820152600e60248201526d7374616b65206f766572666c6f7760901b604482015260640161062f565b6040805160a08101825283546001600160701b0390811682526001602080840182815286841685870190815263ffffffff808b16606088019081526000608089018181523380835296829052908a902098518954955194518916600160781b02600160781b600160e81b0319951515600160701b026effffffffffffffffffffffffffffff19909716919099161794909417929092169590951786555194909201805492516001600160401b0316600160201b026001600160601b0319909316949093169390931717905590517fa5ae833d0bb1dcd632d98a8b70973e8516812898e19bf27b70071ebc8dc52c0190610870908490879091825263ffffffff16602082015260400190565b60405180910390a2505050565b60006108888261158d565b6040805160208101929092523090820152466060820152608001604051602081830303815290604052805190602001209050919050565b6000805a90503330146108d157600080fd5b8451600087156109ae5760008083600001516001600160a01b031684604001518c8c6040516109019291906129f9565b60006040518083038160008787f1925050503d806000811461093f576040519150601f19603f3d011682016040523d82523d6000602084013e610944565b606091505b5091509150816109ab578051156109a65783600001516001600160a01b031689602001517f1c4fada7374c0a9ee8841fc38afe82932dc0f8e69012e927f061a8bae611a20186602001518460405161099d929190612a09565b60405180910390a35b600192505b50505b600087608001515a8503019050610a006000838a8a8a8080601f0160208091040260200160405190810160405280939291908181526020018383808284376000920191909152508892506115a6915050565b9a9950505050505050505050565b816000816001600160401b03811115610a2957610a29612563565b604051908082528060200260200182016040528015610a6257816020015b610a4f61241e565b815260200190600190039081610a475790505b50905060005b82811015610ac257610ab981878784818110610a8657610a86612a22565b9050602002810190610a989190612a38565b848481518110610aaa57610aaa612a22565b60200260200101516000611898565b50600101610a68565b506000805b83811015610b2257610b1681888884818110610ae557610ae5612a22565b9050602002810190610af79190612a38565b858481518110610b0957610b09612a22565b6020026020010151611a40565b90910190600101610ac7565b50610b2d8482611b08565b505050505050565b3360009081526020818152604091829020825160a08101845281546001600160701b03808216808452600160701b830460ff16151595840195909552600160781b90910416938101939093526001015463ffffffff81166060840152600160201b90046001600160401b03166080830152821115610bf55760405162461bcd60e51b815260206004820152601960248201527f576974686472617720616d6f756e7420746f6f206c6172676500000000000000604482015260640161062f565b8051610c0b9083906001600160701b0316612a59565b6001600160701b03168152604080516001600160a01b03851681526020810184905233917fd1c19fbcd4551a5edfb66d43d2e337c04837afda3482b42bdf569a8fccdae5fb910160405180910390a26000836001600160a01b03168360405160006040518083038185875af1925050503d8060008114610ca7576040519150601f19603f3d011682016040523d82523d6000602084013e610cac565b606091505b5050905080610cf25760405162461bcd60e51b81526020600482015260126024820152716661696c656420746f20776974686472617760701b604482015260640161062f565b50505050565b816000805b82811015610d5257858582818110610d1757610d17612a22565b9050602002810190610d299190612a70565b610d339080612a86565b610d3e9150836129e1565b915080610d4a81612acf565b915050610cfd565b506000816001600160401b03811115610d6d57610d6d612563565b604051908082528060200260200182016040528015610da657816020015b610d9361241e565b815260200190600190039081610d8b5790505b5090506000805b84811015610f2d5736888883818110610dc857610dc8612a22565b9050602002810190610dda9190612a70565b9050366000610de98380612a86565b90925090506000610e00604085016020860161281b565b90508160005b81811015610e7757610e5688868684818110610e2457610e24612a22565b9050602002810190610e369190612a38565b8b8b81518110610e4857610e48612a22565b602002602001015186611898565b5087610e6181612acf565b9850508080610e6f90612acf565b915050610e06565b506001600160a01b03821615610f15576001600160a01b03821663e3563a4f8585610ea560408a018a612aea565b6040518563ffffffff1660e01b8152600401610ec49493929190612c95565b60006040518083038186803b158015610edc57600080fd5b505afa925050508015610eed575060015b610f155760405163086a9f7560e41b81526001600160a01b038316600482015260240161062f565b50505050508080610f2590612acf565b915050610dad565b50600080915060005b858110156110015736898983818110610f5157610f51612a22565b9050602002810190610f639190612a70565b9050366000610f728380612a86565b90925090508060005b81811015610fe957610fbd88858584818110610f9957610f99612a22565b9050602002810190610fab9190612a38565b8b8b81518110610b0957610b09612a22565b610fc790886129e1565b965087610fd381612acf565b9850508080610fe190612acf565b915050610f7b565b50505050508080610ff990612acf565b915050610f36565b5061100c8682611b08565b5050505050505050565b600033156110365760405162461bcd60e51b815260040161062f90612d12565b6110408383611bb9565b9392505050565b336000908152602081905260409020600181015463ffffffff1661107d5760405162461bcd60e51b815260040161062f90612d5e565b8054600160701b900460ff166110c95760405162461bcd60e51b8152602060048201526011602482015270616c726561647920756e7374616b696e6760781b604482015260640161062f565b60018101546000906110e19063ffffffff1642612d8e565b6001830180546bffffffffffffffff000000001916600160201b6001600160401b03841690810291909117909155835460ff60701b1916845560405190815290915033907ffa9b3c14cc825c412c9ed81b3ba365a5b459439403f18829e572ed53a4180f0a906020016105a7565b3360009081526020819052604090208054600160781b90046001600160701b0316806111b45760405162461bcd60e51b81526020600482015260146024820152734e6f207374616b6520746f20776974686472617760601b604482015260640161062f565b6001820154600160201b90046001600160401b03166112155760405162461bcd60e51b815260206004820152601d60248201527f6d7573742063616c6c20756e6c6f636b5374616b652829206669727374000000604482015260640161062f565b600182015442600160201b9091046001600160401b0316111561127a5760405162461bcd60e51b815260206004820152601b60248201527f5374616b65207769746864726177616c206973206e6f74206475650000000000604482015260640161062f565b6001820180546001600160601b03191690558154600160781b600160e81b0319168255604080516001600160a01b03851681526020810183905233917fb7c918e0e249f999e965cafeb6c664271b3f4317d296461500e71da39f0cbda3910160405180910390a26000836001600160a01b03168260405160006040518083038185875af1925050503d806000811461132e576040519150601f19603f3d011682016040523d82523d6000602084013e611333565b606091505b5050905080610cf25760405162461bcd60e51b815260206004820152601860248201527f6661696c656420746f207769746864726177207374616b650000000000000000604482015260640161062f565b6001600160a01b038116600090815260208190526040908190208151600180825281840190935260609282919081602001602082028036833701905050925081836000815181106113d7576113d7612a22565b6020026020010181815250505050919050565b6000806000606080606060005a905061140161241e565b61140f60008b836001611898565b9550806040015196508960c001355a6114289084612a59565b61143291906129e1565b975061143d43600052565b6001600160a01b038616156114c75760405163303b6a1d60e11b81526001600160a01b03871690636076d43a9061147a908d908d90600401612db9565b600060405180830381865afa158015611497573d6000803e3d6000fd5b505050506040513d6000823e601f3d908101601f191682016040526114bf9190810190612e44565b919650945092505b33156114e55760405162461bcd60e51b815260040161062f90612d12565b50509295509295509295565b6001600160a01b038216600090815260208190526040812080549091906115229084906001600160701b03166129e1565b90506001600160701b0381111561156e5760405162461bcd60e51b815260206004820152601060248201526f6465706f736974206f766572666c6f7760801b604482015260640161062f565b81546001600160701b0319166001600160701b03919091161790555050565b600061159882611c7b565b805190602001209050919050565b6000805a8551909150600090816115bc82611cba565b60a08301519091506001600160a01b0381166115db578251935061176e565b80935060008851111561176e57868202955060028a600281111561160157611601612ecb565b1461167357606083015160405163a9a2340960e01b81526001600160a01b0383169163a9a234099161163b908e908d908c90600401612ee1565b600060405180830381600088803b15801561165557600080fd5b5087f1158015611669573d6000803e3d6000fd5b505050505061176e565b606083015160405163a9a2340960e01b81526001600160a01b0383169163a9a23409916116a8908e908d908c90600401612ee1565b600060405180830381600088803b1580156116c257600080fd5b5087f1935050505080156116d4575060015b61176e576116e0612f28565b806308c379a0141561171e57506116f5612f44565b806117005750611720565b8b828260405162fa072b60e01b815260040161062f93929190612fcd565b505b60405162fa072b60e01b8152600481018c90526001600160a01b038216602482015260606044820152600d60648201526c1c1bdcdd13dc081c995d995c9d609a1b608482015260a40161062f565b5a850387019650818702955085896040015110156117e45760405162fa072b60e01b8152600481018c90526001600160a01b038216602482015260606044820152601b60648201527f70726566756e642062656c6f772061637475616c476173436f73740000000000608482015260a40161062f565b60408901518690036117f685826114f1565b6000808c600281111561180b5761180b612ecb565b1490508460a001516001600160a01b031685600001516001600160a01b03168c602001517f33fd4d1f25a5461bea901784a6571de6debc16cd0831932c22c6969cd73ba99488602001518c89876040516118809493929190938452602084019290925260408301521515606082015260800190565b60405180910390a45050505050505095945050505050565b6000805a84519091506118ab8682611ceb565b6118b48661087d565b6020860152604081015160608201516080830151171760e087013517610100870135176effffffffffffffffffffffffffffff81111561192c5760405162461bcd60e51b81526020600482015260136024820152726761732076616c756573206f766572666c6f7760681b604482015260640161062f565b60008061193884611de4565b90506119478a8a8a8a85611e32565b9650915061195443600052565b60a08401516060906001600160a01b03161561197e576119778b8b8b85876120ce565b905061198f565b506040805160208101909152600081525b60005a87039050808b60a001351015611a125760a086015160405162fa072b60e01b8152600481018e90526001600160a01b03909116602482015260606044820152602360648201527f55736564206d6f7265207468616e20766572696669636174696f6e4761734c696084820152621b5a5d60ea1b60a482015260c40161062f565b60408a018390528160608b015260c08b01355a8803018a608001818152505050505050505050949350505050565b6000805a90506000611a53846060015190565b905030631d732756611a686060880188612aea565b87856040518563ffffffff1660e01b8152600401611a899493929190613000565b6020604051808303816000875af1925050508015611ac4575060408051601f3d908101601f19168201909252611ac1918101906130b3565b60015b611afc57600084608001515a611ada9085612a59565b611ae491906129e1565b9050611af48760028785856115a6565b935050611aff565b92505b50509392505050565b6001600160a01b038216611b545760405162461bcd60e51b8152602060048201526013602482015272696e76616c69642062656e656669636961727960681b604482015260640161062f565b6000826001600160a01b03168260405160006040518083038185875af1925050503d8060008114611ba1576040519150601f19603f3d011682016040523d82523d6000602084013e611ba6565b606091505b5050905080611bb457600080fd5b505050565b600080611bc960148285876130cc565b611bd2916130f6565b60601c90506000611be684601481886130cc565b8080601f016020809104026020016040519081016040528093929190818152602001838380828437600092018290525084519495509360209350849250905082850182875af19050600051935080611c725760405162461bcd60e51b815260206004820152600f60248201526e1a5b9a5d10dbd9194819985a5b1959608a1b604482015260640161062f565b50505092915050565b6060366000611c8e610140850185612aea565b915091508360208184030360405194506020810185016040528085528082602087013750505050919050565b60c081015160e08201516000919080821415611cd7575092915050565b611ce3824883016122d1565b949350505050565b611cf8602083018361281b565b6001600160a01b0316815260208083013590820152608080830135604083015260a0830135606083015260c0808401359183019190915260e0808401359183019190915261010083013590820152366000611d57610120850185612aea565b90925090508015611dd7576014811015611db35760405162461bcd60e51b815260206004820152601860248201527f696e76616c6964207061796d6173746572416e64446174610000000000000000604482015260640161062f565b611dc16014600083856130cc565b611dca916130f6565b60601c60a0840152610cf2565b600060a084015250505050565b60a081015160009081906001600160a01b0316611e02576001611e05565b60035b60ff1690506000836080015182856060015102856040015101019050611e2a84611cba565b029392505050565b60008060005a8651909150611e5381611e4e60408b018b612aea565b6122e7565b6001600160a01b03861660011415611ed95780600001516001600160a01b0316633ad59dbc6040518163ffffffff1660e01b8152600401602060405180830381865afa925050508015611ec3575060408051601f3d908101601f19168201909252611ec091810190613126565b60015b611ed35760009250829550611ed9565b95508592505b805160a0820151600091906001600160a01b038116611f2a576001600160a01b0382166000908152602081905260409020546001600160701b0316888111611f2357808903611f26565b60005b9350505b816001600160a01b0316630825d1fc85606001518d8d602001518d886040518663ffffffff1660e01b8152600401611f659493929190613143565b600060405180830381600088803b158015611f7f57600080fd5b5087f193505050508015611f91575060015b61200e57611f9d612f28565b806308c379a01415611fdc5750611fb2612f44565b80611fbd5750611fde565b8c60008260405162fa072b60e01b815260040161062f93929190612fcd565b505b60405162fa072b60e01b8152600481018d905260006024820181905260606044830152606482015260840161062f565b6001600160a01b0381166120ba576001600160a01b038216600090815260208190526040902080546001600160701b0316808a111561209d5760405162fa072b60e01b8152600481018f90526000602482015260606044820152601960648201527f77616c6c6574206469646e2774207061792070726566756e6400000000000000608482015260a40161062f565b81546001600160701b031916908a90036001600160701b03161790555b5a8503965050505050509550959350505050565b825160a08101516001600160a01b038116600090815260208190526040902080546060939291906001600160701b03811690600160701b900460ff168061212b578a8460405162fa072b60e01b815260040161062f92919061317b565b878210156121915760405162fa072b60e01b8152600481018c90526001600160a01b038516602482015260606044820152601960648201527f7061796d6173746572206465706f73697420746f6f206c6f7700000000000000608482015260a40161062f565b8782038360000160006101000a8154816001600160701b0302191690836001600160701b031602179055506000878660600151039050846001600160a01b031663f465c77e828d8d602001518d6040518563ffffffff1660e01b81526004016121fc939291906131ba565b60006040518083038160008887f19350505050801561223d57506040513d6000823e601f3d908101601f1916820160405261223a91908101906131df565b60015b6122c157612249612f28565b806308c379a01415612287575061225e612f44565b806122695750612289565b8c868260405162fa072b60e01b815260040161062f93929190612fcd565b505b60405162fa072b60e01b8152600481018d90526001600160a01b0386166024820152606060448201526000606482015260840161062f565b9c9b505050505050505050505050565b60008183106122e05781611040565b5090919050565b8015611bb45782516001600160a01b03163b156123465760405162461bcd60e51b815260206004820152601a60248201527f73656e64657220616c726561647920636f6e7374727563746564000000000000604482015260640161062f565b60006123528383611bb9565b905083600001516001600160a01b0316816001600160a01b0316146123c75760405162461bcd60e51b815260206004820152602560248201527f73656e64657220646f65736e2774206d6174636820696e6974436f6465206164604482015264647265737360d81b606482015260840161062f565b6001600160a01b0381163b610cf25760405162461bcd60e51b815260206004820181905260248201527f696e6974436f6465206661696c656420746f206372656174652073656e646572604482015260640161062f565b6040518060a0016040528061248360405180610100016040528060006001600160a01b031681526020016000815260200160008152602001600081526020016000815260200160006001600160a01b0316815260200160008152602001600081525090565b8152602001600080191681526020016000815260200160008152602001600081525090565b6000602082840312156124ba57600080fd5b813563ffffffff8116811461104057600080fd5b600061016082840312156124e157600080fd5b50919050565b6000602082840312156124f957600080fd5b81356001600160401b0381111561250f57600080fd5b611ce3848285016124ce565b60008083601f84011261252d57600080fd5b5081356001600160401b0381111561254457600080fd5b60208301915083602082850101111561255c57600080fd5b9250929050565b634e487b7160e01b600052604160045260246000fd5b60a081018181106001600160401b038211171561259857612598612563565b60405250565b61010081018181106001600160401b038211171561259857612598612563565b601f8201601f191681016001600160401b03811182821017156125e3576125e3612563565b6040525050565b6001600160a01b03811681146125ff57600080fd5b50565b803561260d816125ea565b919050565b60008060008060008587036101c081121561262c57600080fd5b86356001600160401b038082111561264357600080fd5b61264f8a838b0161251b565b9098509650601f19929092019161018091508183121561266e57600080fd5b60405161267a81612579565b6101008085121561268a57600080fd5b60405194506126988561259e565b6126a460208c01612602565b855260408b0135602086015260608b0135604086015260808b0135606086015260a08b013560808601526126da60c08c01612602565b60a086015260e08b81013560c0870152908b0135908501529283526101208901356020840152610140890135604084015261016089013560608401528189013560808401529194506101a0880135918083111561273657600080fd5b50506127448882890161251b565b969995985093965092949392505050565b60008083601f84011261276757600080fd5b5081356001600160401b0381111561277e57600080fd5b6020830191508360208260051b850101111561255c57600080fd5b6000806000604084860312156127ae57600080fd5b83356001600160401b038111156127c457600080fd5b6127d086828701612755565b90945092505060208401356127e4816125ea565b809150509250925092565b6000806040838503121561280257600080fd5b823561280d816125ea565b946020939093013593505050565b60006020828403121561282d57600080fd5b8135611040816125ea565b6000806020838503121561284b57600080fd5b82356001600160401b0381111561286157600080fd5b61286d8582860161251b565b90969095509350505050565b6020808252825182820181905260009190848201906040850190845b818110156128b157835183529284019291840191600101612895565b50909695505050505050565b600080604083850312156128d057600080fd5b82356001600160401b038111156128e657600080fd5b6128f2858286016124ce565b9250506020830135801515811461290857600080fd5b809150509250929050565b60005b8381101561292e578181015183820152602001612916565b83811115610cf25750506000910152565b60008151808452612957816020860160208601612913565b601f01601f19169290920160200192915050565b86815285602082015260018060a01b038516604082015260c06060820152600061299860c083018661293f565b82810360808401526129aa818661293f565b905082810360a08401526129be818561293f565b9998505050505050505050565b634e487b7160e01b600052601160045260246000fd5b600082198211156129f4576129f46129cb565b500190565b8183823760009101908152919050565b828152604060208201526000611ce3604083018461293f565b634e487b7160e01b600052603260045260246000fd5b6000823561015e19833603018112612a4f57600080fd5b9190910192915050565b600082821015612a6b57612a6b6129cb565b500390565b60008235605e19833603018112612a4f57600080fd5b6000808335601e19843603018112612a9d57600080fd5b8301803591506001600160401b03821115612ab757600080fd5b6020019150600581901b360382131561255c57600080fd5b6000600019821415612ae357612ae36129cb565b5060010190565b6000808335601e19843603018112612b0157600080fd5b8301803591506001600160401b03821115612b1b57600080fd5b60200191503681900382131561255c57600080fd5b6000808335601e19843603018112612b4757600080fd5b83016020810192503590506001600160401b03811115612b6657600080fd5b80360383131561255c57600080fd5b81835281816020850137506000828201602090810191909152601f909101601f19169091010190565b6000610160612bbd84612bb085612602565b6001600160a01b03169052565b60208301356020850152612bd46040840184612b30565b826040870152612be78387018284612b75565b92505050612bf86060840184612b30565b8583036060870152612c0b838284612b75565b925050506080830135608085015260a083013560a085015260c083013560c085015260e083013560e0850152610100808401358186015250610120612c5281850185612b30565b86840383880152612c64848284612b75565b9350505050610140612c7881850185612b30565b86840383880152612c8a848284612b75565b979650505050505050565b6040808252810184905260006060600586901b830181019083018783805b89811015612cfb57868503605f190184528235368c900361015e19018112612cd9578283fd5b612ce5868d8301612b9e565b9550506020938401939290920191600101612cb3565b505050508281036020840152612c8a818587612b75565b6020808252602c908201527f6d7573742062652063616c6c6564206f66662d636861696e207769746820667260408201526b37b69ebd32b93796b0b2323960a11b606082015260800190565b602081526000612d8860208301600a8152691b9bdd081cdd185ad95960b21b602082015260400190565b92915050565b60006001600160401b03808316818516808303821115612db057612db06129cb565b01949350505050565b604081526000612dcc6040830185612b9e565b905082151560208301529392505050565b600082601f830112612dee57600080fd5b81516001600160401b03811115612e0757612e07612563565b604051612e1e601f8301601f1916602001826125be565b818152846020838601011115612e3357600080fd5b611ce3826020830160208701612913565b600080600060608486031215612e5957600080fd5b83516001600160401b0380821115612e7057600080fd5b612e7c87838801612ddd565b94506020860151915080821115612e9257600080fd5b612e9e87838801612ddd565b93506040860151915080821115612eb457600080fd5b50612ec186828701612ddd565b9150509250925092565b634e487b7160e01b600052602160045260246000fd5b600060038510612f0157634e487b7160e01b600052602160045260246000fd5b84825260606020830152612f18606083018561293f565b9050826040830152949350505050565b600060033d1115612f415760046000803e5060005160e01c5b90565b600060443d1015612f525790565b6040516003193d81016004833e81513d6001600160401b038160248401118184111715612f8157505050505090565b8285019150815181811115612f995750505050505090565b843d8701016020828501011115612fb35750505050505090565b612fc2602082860101876125be565b509095945050505050565b8381526001600160a01b0383166020820152606060408201819052600090612ff79083018461293f565b95945050505050565b60006101c08083526130158184018789612b75565b9050845160018060a01b03808251166020860152602082015160408601526040820151606086015260608201516080860152608082015160a08601528060a08301511660c08601525060c081015160e085015260e08101516101008501525060208501516101208401526040850151610140840152606085015161016084015260808501516101808401528281036101a0840152612c8a818561293f565b6000602082840312156130c557600080fd5b5051919050565b600080858511156130dc57600080fd5b838611156130e957600080fd5b5050820193919092039150565b6001600160601b0319813581811691601485101561311e5780818660140360031b1b83161692505b505092915050565b60006020828403121561313857600080fd5b8151611040816125ea565b6080815260006131566080830187612b9e565b6020830195909552506001600160a01b03929092166040830152606090910152919050565b8281526001600160a01b0382166020820152606060408201819052600a90820152691b9bdd081cdd185ad95960b21b6080820152600060a08201611ce3565b6060815260006131cd6060830186612b9e565b60208301949094525060400152919050565b6000602082840312156131f157600080fd5b81516001600160401b0381111561320757600080fd5b611ce384828501612ddd56fea2646970667358221220329fba13b259a6a6f9a8fb44fdfb8628dccfd2bd1b71dbf68ac412d3f5cbc18164736f6c634300080c0033",
          "opcodes": "PUSH1 0xC0 PUSH1 0x40 MSTORE CALLVALUE DUP1 ISZERO PUSH3 0x11 JUMPI PUSH1 0x0 DUP1 REVERT JUMPDEST POP PUSH1 0x40 MLOAD PUSH3 0x33A9 CODESIZE SUB DUP1 PUSH3 0x33A9 DUP4 CODECOPY DUP2 ADD PUSH1 0x40 DUP2 SWAP1 MSTORE PUSH3 0x34 SWAP2 PUSH3 0xF1 JUMP JUMPDEST PUSH4 0xFFFFFFFF DUP2 AND PUSH1 0x80 DUP2 SWAP1 MSTORE PUSH1 0xA0 DUP4 SWAP1 MSTORE PUSH3 0x97 JUMPI PUSH1 0x40 MLOAD PUSH3 0x461BCD PUSH1 0xE5 SHL DUP2 MSTORE PUSH1 0x20 PUSH1 0x4 DUP3 ADD MSTORE PUSH1 0x14 PUSH1 0x24 DUP3 ADD MSTORE PUSH32 0x696E76616C696420756E7374616B6544656C6179000000000000000000000000 PUSH1 0x44 DUP3 ADD MSTORE PUSH1 0x64 ADD JUMPDEST PUSH1 0x40 MLOAD DUP1 SWAP2 SUB SWAP1 REVERT JUMPDEST PUSH1 0x0 DUP3 GT PUSH3 0xE9 JUMPI PUSH1 0x40 MLOAD PUSH3 0x461BCD PUSH1 0xE5 SHL DUP2 MSTORE PUSH1 0x20 PUSH1 0x4 DUP3 ADD MSTORE PUSH1 0x16 PUSH1 0x24 DUP3 ADD MSTORE PUSH32 0x696E76616C6964207061796D61737465725374616B6500000000000000000000 PUSH1 0x44 DUP3 ADD MSTORE PUSH1 0x64 ADD PUSH3 0x8E JUMP JUMPDEST POP POP PUSH3 0x12C JUMP JUMPDEST PUSH1 0x0 DUP1 PUSH1 0x40 DUP4 DUP6 SUB SLT ISZERO PUSH3 0x105 JUMPI PUSH1 0x0 DUP1 REVERT JUMPDEST DUP3 MLOAD SWAP2 POP PUSH1 0x20 DUP4 ADD MLOAD PUSH4 0xFFFFFFFF DUP2 AND DUP2 EQ PUSH3 0x121 JUMPI PUSH1 0x0 DUP1 REVERT JUMPDEST DUP1 SWAP2 POP POP SWAP3 POP SWAP3 SWAP1 POP JUMP JUMPDEST PUSH1 0x80 MLOAD PUSH1 0xA0 MLOAD PUSH2 0x3249 PUSH3 0x160 PUSH1 0x0 CODECOPY PUSH1 0x0 DUP2 DUP2 PUSH2 0x16F ADD MSTORE PUSH2 0x6BA ADD MSTORE PUSH1 0x0 DUP2 DUP2 PUSH2 0x203 ADD MSTORE PUSH2 0x5C9 ADD MSTORE PUSH2 0x3249 PUSH1 0x0 RETURN INVALID PUSH1 0x80 PUSH1 0x40 MSTORE PUSH1 0x4 CALLDATASIZE LT PUSH2 0x102 JUMPI PUSH1 0x0 CALLDATALOAD PUSH1 0xE0 SHR DUP1 PUSH4 0x5287CE12 GT PUSH2 0x95 JUMPI DUP1 PUSH4 0xBB9FE6BF GT PUSH2 0x64 JUMPI DUP1 PUSH4 0xBB9FE6BF EQ PUSH2 0x402 JUMPI DUP1 PUSH4 0xC23A5CEA EQ PUSH2 0x417 JUMPI DUP1 PUSH4 0xEC8B5DBF EQ PUSH2 0x437 JUMPI DUP1 PUSH4 0xFC7E286D EQ PUSH2 0x464 JUMPI DUP1 PUSH4 0xFFB01DD9 EQ PUSH2 0x51A JUMPI PUSH1 0x0 DUP1 REVERT JUMPDEST DUP1 PUSH4 0x5287CE12 EQ PUSH2 0x25A JUMPI DUP1 PUSH4 0x70A08231 EQ PUSH2 0x378 JUMPI DUP1 PUSH4 0x9B249F69 EQ PUSH2 0x3B7 JUMPI DUP1 PUSH4 0xB760FAF9 EQ PUSH2 0x3EF JUMPI PUSH1 0x0 DUP1 REVERT JUMPDEST DUP1 PUSH4 0x1FAD948C GT PUSH2 0xD1 JUMPI DUP1 PUSH4 0x1FAD948C EQ PUSH2 0x1B1 JUMPI DUP1 PUSH4 0x205C2878 EQ PUSH2 0x1D1 JUMPI DUP1 PUSH4 0x390B9978 EQ PUSH2 0x1F1 JUMPI DUP1 PUSH4 0x4B1D7CF5 EQ PUSH2 0x23A JUMPI PUSH1 0x0 DUP1 REVERT JUMPDEST DUP1 PUSH4 0x396CB60 EQ PUSH2 0x117 JUMPI DUP1 PUSH4 0x14E72634 EQ PUSH2 0x12A JUMPI DUP1 PUSH4 0x17C6A987 EQ PUSH2 0x15D JUMPI DUP1 PUSH4 0x1D732756 EQ PUSH2 0x191 JUMPI PUSH1 0x0 DUP1 REVERT JUMPDEST CALLDATASIZE PUSH2 0x112 JUMPI PUSH2 0x110 CALLER PUSH2 0x54C JUMP JUMPDEST STOP JUMPDEST PUSH1 0x0 DUP1 REVERT JUMPDEST PUSH2 0x110 PUSH2 0x125 CALLDATASIZE PUSH1 0x4 PUSH2 0x24A8 JUMP JUMPDEST PUSH2 0x5B3 JUMP JUMPDEST CALLVALUE DUP1 ISZERO PUSH2 0x136 JUMPI PUSH1 0x0 DUP1 REVERT JUMPDEST POP PUSH2 0x14A PUSH2 0x145 CALLDATASIZE PUSH1 0x4 PUSH2 0x24E7 JUMP JUMPDEST PUSH2 0x87D JUMP JUMPDEST PUSH1 0x40 MLOAD SWAP1 DUP2 MSTORE PUSH1 0x20 ADD JUMPDEST PUSH1 0x40 MLOAD DUP1 SWAP2 SUB SWAP1 RETURN JUMPDEST CALLVALUE DUP1 ISZERO PUSH2 0x169 JUMPI PUSH1 0x0 DUP1 REVERT JUMPDEST POP PUSH2 0x14A PUSH32 0x0 DUP2 JUMP JUMPDEST CALLVALUE DUP1 ISZERO PUSH2 0x19D JUMPI PUSH1 0x0 DUP1 REVERT JUMPDEST POP PUSH2 0x14A PUSH2 0x1AC CALLDATASIZE PUSH1 0x4 PUSH2 0x2612 JUMP JUMPDEST PUSH2 0x8BF JUMP JUMPDEST CALLVALUE DUP1 ISZERO PUSH2 0x1BD JUMPI PUSH1 0x0 DUP1 REVERT JUMPDEST POP PUSH2 0x110 PUSH2 0x1CC CALLDATASIZE PUSH1 0x4 PUSH2 0x2799 JUMP JUMPDEST PUSH2 0xA0E JUMP JUMPDEST CALLVALUE DUP1 ISZERO PUSH2 0x1DD JUMPI PUSH1 0x0 DUP1 REVERT JUMPDEST POP PUSH2 0x110 PUSH2 0x1EC CALLDATASIZE PUSH1 0x4 PUSH2 0x27EF JUMP JUMPDEST PUSH2 0xB35 JUMP JUMPDEST CALLVALUE DUP1 ISZERO PUSH2 0x1FD JUMPI PUSH1 0x0 DUP1 REVERT JUMPDEST POP PUSH2 0x225 PUSH32 0x0 DUP2 JUMP JUMPDEST PUSH1 0x40 MLOAD PUSH4 0xFFFFFFFF SWAP1 SWAP2 AND DUP2 MSTORE PUSH1 0x20 ADD PUSH2 0x154 JUMP JUMPDEST CALLVALUE DUP1 ISZERO PUSH2 0x246 JUMPI PUSH1 0x0 DUP1 REVERT JUMPDEST POP PUSH2 0x110 PUSH2 0x255 CALLDATASIZE PUSH1 0x4 PUSH2 0x2799 JUMP JUMPDEST PUSH2 0xCF8 JUMP JUMPDEST CALLVALUE DUP1 ISZERO PUSH2 0x266 JUMPI PUSH1 0x0 DUP1 REVERT JUMPDEST POP PUSH2 0x31F PUSH2 0x275 CALLDATASIZE PUSH1 0x4 PUSH2 0x281B JUMP JUMPDEST PUSH1 0x40 DUP1 MLOAD PUSH1 0xA0 DUP2 ADD DUP3 MSTORE PUSH1 0x0 DUP1 DUP3 MSTORE PUSH1 0x20 DUP3 ADD DUP2 SWAP1 MSTORE SWAP2 DUP2 ADD DUP3 SWAP1 MSTORE PUSH1 0x60 DUP2 ADD DUP3 SWAP1 MSTORE PUSH1 0x80 DUP2 ADD SWAP2 SWAP1 SWAP2 MSTORE POP PUSH1 0x1 PUSH1 0x1 PUSH1 0xA0 SHL SUB AND PUSH1 0x0 SWAP1 DUP2 MSTORE PUSH1 0x20 DUP2 DUP2 MSTORE PUSH1 0x40 SWAP2 DUP3 SWAP1 KECCAK256 DUP3 MLOAD PUSH1 0xA0 DUP2 ADD DUP5 MSTORE DUP2 SLOAD PUSH1 0x1 PUSH1 0x1 PUSH1 0x70 SHL SUB DUP1 DUP3 AND DUP4 MSTORE PUSH1 0x1 PUSH1 0x70 SHL DUP3 DIV PUSH1 0xFF AND ISZERO ISZERO SWAP5 DUP4 ADD SWAP5 SWAP1 SWAP5 MSTORE PUSH1 0x1 PUSH1 0x78 SHL SWAP1 DIV SWAP1 SWAP3 AND SWAP3 DUP3 ADD SWAP3 SWAP1 SWAP3 MSTORE PUSH1 0x1 SWAP1 SWAP2 ADD SLOAD PUSH4 0xFFFFFFFF DUP2 AND PUSH1 0x60 DUP4 ADD MSTORE PUSH1 0x1 PUSH1 0x20 SHL SWAP1 DIV PUSH1 0x1 PUSH1 0x1 PUSH1 0x40 SHL SUB AND PUSH1 0x80 DUP3 ADD MSTORE SWAP1 JUMP JUMPDEST PUSH1 0x40 DUP1 MLOAD DUP3 MLOAD PUSH1 0x1 PUSH1 0x1 PUSH1 0x70 SHL SUB SWAP1 DUP2 AND DUP3 MSTORE PUSH1 0x20 DUP1 DUP6 ADD MLOAD ISZERO ISZERO SWAP1 DUP4 ADD MSTORE DUP4 DUP4 ADD MLOAD AND SWAP2 DUP2 ADD SWAP2 SWAP1 SWAP2 MSTORE PUSH1 0x60 DUP1 DUP4 ADD MLOAD PUSH4 0xFFFFFFFF AND SWAP1 DUP3 ADD MSTORE PUSH1 0x80 SWAP2 DUP3 ADD MLOAD PUSH1 0x1 PUSH1 0x1 PUSH1 0x40 SHL SUB AND SWAP2 DUP2 ADD SWAP2 SWAP1 SWAP2 MSTORE PUSH1 0xA0 ADD PUSH2 0x154 JUMP JUMPDEST CALLVALUE DUP1 ISZERO PUSH2 0x384 JUMPI PUSH1 0x0 DUP1 REVERT JUMPDEST POP PUSH2 0x14A PUSH2 0x393 CALLDATASIZE PUSH1 0x4 PUSH2 0x281B JUMP JUMPDEST PUSH1 0x1 PUSH1 0x1 PUSH1 0xA0 SHL SUB AND PUSH1 0x0 SWAP1 DUP2 MSTORE PUSH1 0x20 DUP2 SWAP1 MSTORE PUSH1 0x40 SWAP1 KECCAK256 SLOAD PUSH1 0x1 PUSH1 0x1 PUSH1 0x70 SHL SUB AND SWAP1 JUMP JUMPDEST CALLVALUE DUP1 ISZERO PUSH2 0x3C3 JUMPI PUSH1 0x0 DUP1 REVERT JUMPDEST POP PUSH2 0x3D7 PUSH2 0x3D2 CALLDATASIZE PUSH1 0x4 PUSH2 0x2838 JUMP JUMPDEST PUSH2 0x1016 JUMP JUMPDEST PUSH1 0x40 MLOAD PUSH1 0x1 PUSH1 0x1 PUSH1 0xA0 SHL SUB SWAP1 SWAP2 AND DUP2 MSTORE PUSH1 0x20 ADD PUSH2 0x154 JUMP JUMPDEST PUSH2 0x110 PUSH2 0x3FD CALLDATASIZE PUSH1 0x4 PUSH2 0x281B JUMP JUMPDEST PUSH2 0x54C JUMP JUMPDEST CALLVALUE DUP1 ISZERO PUSH2 0x40E JUMPI PUSH1 0x0 DUP1 REVERT JUMPDEST POP PUSH2 0x110 PUSH2 0x1047 JUMP JUMPDEST CALLVALUE DUP1 ISZERO PUSH2 0x423 JUMPI PUSH1 0x0 DUP1 REVERT JUMPDEST POP PUSH2 0x110 PUSH2 0x432 CALLDATASIZE PUSH1 0x4 PUSH2 0x281B JUMP JUMPDEST PUSH2 0x114F JUMP JUMPDEST CALLVALUE DUP1 ISZERO PUSH2 0x443 JUMPI PUSH1 0x0 DUP1 REVERT JUMPDEST POP PUSH2 0x457 PUSH2 0x452 CALLDATASIZE PUSH1 0x4 PUSH2 0x281B JUMP JUMPDEST PUSH2 0x1384 JUMP JUMPDEST PUSH1 0x40 MLOAD PUSH2 0x154 SWAP2 SWAP1 PUSH2 0x2879 JUMP JUMPDEST CALLVALUE DUP1 ISZERO PUSH2 0x470 JUMPI PUSH1 0x0 DUP1 REVERT JUMPDEST POP PUSH2 0x4D3 PUSH2 0x47F CALLDATASIZE PUSH1 0x4 PUSH2 0x281B JUMP JUMPDEST PUSH1 0x0 PUSH1 0x20 DUP2 SWAP1 MSTORE SWAP1 DUP2 MSTORE PUSH1 0x40 SWAP1 KECCAK256 DUP1 SLOAD PUSH1 0x1 SWAP1 SWAP2 ADD SLOAD PUSH1 0x1 PUSH1 0x1 PUSH1 0x70 SHL SUB DUP1 DUP4 AND SWAP3 PUSH1 0x1 PUSH1 0x70 SHL DUP2 DIV PUSH1 0xFF AND SWAP3 PUSH1 0x1 PUSH1 0x78 SHL SWAP1 SWAP2 DIV SWAP1 SWAP2 AND SWAP1 PUSH4 0xFFFFFFFF DUP2 AND SWAP1 PUSH1 0x1 PUSH1 0x20 SHL SWAP1 DIV PUSH1 0x1 PUSH1 0x1 PUSH1 0x40 SHL SUB AND DUP6 JUMP JUMPDEST PUSH1 0x40 DUP1 MLOAD PUSH1 0x1 PUSH1 0x1 PUSH1 0x70 SHL SUB SWAP7 DUP8 AND DUP2 MSTORE SWAP5 ISZERO ISZERO PUSH1 0x20 DUP7 ADD MSTORE SWAP3 SWAP1 SWAP5 AND SWAP2 DUP4 ADD SWAP2 SWAP1 SWAP2 MSTORE PUSH4 0xFFFFFFFF AND PUSH1 0x60 DUP3 ADD MSTORE PUSH1 0x1 PUSH1 0x1 PUSH1 0x40 SHL SUB SWAP1 SWAP2 AND PUSH1 0x80 DUP3 ADD MSTORE PUSH1 0xA0 ADD PUSH2 0x154 JUMP JUMPDEST CALLVALUE DUP1 ISZERO PUSH2 0x526 JUMPI PUSH1 0x0 DUP1 REVERT JUMPDEST POP PUSH2 0x53A PUSH2 0x535 CALLDATASIZE PUSH1 0x4 PUSH2 0x28BD JUMP JUMPDEST PUSH2 0x13EA JUMP JUMPDEST PUSH1 0x40 MLOAD PUSH2 0x154 SWAP7 SWAP6 SWAP5 SWAP4 SWAP3 SWAP2 SWAP1 PUSH2 0x296B JUMP JUMPDEST PUSH2 0x556 DUP2 CALLVALUE PUSH2 0x14F1 JUMP JUMPDEST PUSH1 0x1 PUSH1 0x1 PUSH1 0xA0 SHL SUB DUP2 AND PUSH1 0x0 DUP2 DUP2 MSTORE PUSH1 0x20 DUP2 DUP2 MSTORE PUSH1 0x40 SWAP2 DUP3 SWAP1 KECCAK256 DUP1 SLOAD SWAP3 MLOAD PUSH1 0x1 PUSH1 0x1 PUSH1 0x70 SHL SUB SWAP1 SWAP4 AND DUP4 MSTORE SWAP3 SWAP2 PUSH32 0x2DA466A7B24304F47E87FA2E1E5A81B9831CE54FEC19055CE277CA2F39BA42C4 SWAP2 ADD JUMPDEST PUSH1 0x40 MLOAD DUP1 SWAP2 SUB SWAP1 LOG2 POP POP JUMP JUMPDEST CALLER PUSH1 0x0 SWAP1 DUP2 MSTORE PUSH1 0x20 DUP2 SWAP1 MSTORE PUSH1 0x40 SWAP1 KECCAK256 PUSH4 0xFFFFFFFF PUSH32 0x0 DUP2 AND SWAP1 DUP4 AND LT ISZERO PUSH2 0x638 JUMPI PUSH1 0x40 MLOAD PUSH3 0x461BCD PUSH1 0xE5 SHL DUP2 MSTORE PUSH1 0x20 PUSH1 0x4 DUP3 ADD MSTORE PUSH1 0x15 PUSH1 0x24 DUP3 ADD MSTORE PUSH21 0x756E7374616B652064656C617920746F6F206C6F77 PUSH1 0x58 SHL PUSH1 0x44 DUP3 ADD MSTORE PUSH1 0x64 ADD JUMPDEST PUSH1 0x40 MLOAD DUP1 SWAP2 SUB SWAP1 REVERT JUMPDEST PUSH1 0x1 DUP2 ADD SLOAD PUSH4 0xFFFFFFFF SWAP1 DUP2 AND SWAP1 DUP4 AND LT ISZERO PUSH2 0x696 JUMPI PUSH1 0x40 MLOAD PUSH3 0x461BCD PUSH1 0xE5 SHL DUP2 MSTORE PUSH1 0x20 PUSH1 0x4 DUP3 ADD MSTORE PUSH1 0x1C PUSH1 0x24 DUP3 ADD MSTORE PUSH32 0x63616E6E6F7420646563726561736520756E7374616B652074696D6500000000 PUSH1 0x44 DUP3 ADD MSTORE PUSH1 0x64 ADD PUSH2 0x62F JUMP JUMPDEST DUP1 SLOAD PUSH1 0x0 SWAP1 PUSH2 0x6B6 SWAP1 CALLVALUE SWAP1 PUSH1 0x1 PUSH1 0x78 SHL SWAP1 DIV PUSH1 0x1 PUSH1 0x1 PUSH1 0x70 SHL SUB AND PUSH2 0x29E1 JUMP JUMPDEST SWAP1 POP PUSH32 0x0 DUP2 LT ISZERO PUSH2 0x71E JUMPI PUSH1 0x40 MLOAD PUSH3 0x461BCD PUSH1 0xE5 SHL DUP2 MSTORE PUSH1 0x20 PUSH1 0x4 DUP3 ADD MSTORE PUSH1 0x13 PUSH1 0x24 DUP3 ADD MSTORE PUSH19 0x7374616B652076616C756520746F6F206C6F77 PUSH1 0x68 SHL PUSH1 0x44 DUP3 ADD MSTORE PUSH1 0x64 ADD PUSH2 0x62F JUMP JUMPDEST PUSH1 0x1 PUSH1 0x1 PUSH1 0x70 SHL SUB DUP2 LT PUSH2 0x765 JUMPI PUSH1 0x40 MLOAD PUSH3 0x461BCD PUSH1 0xE5 SHL DUP2 MSTORE PUSH1 0x20 PUSH1 0x4 DUP3 ADD MSTORE PUSH1 0xE PUSH1 0x24 DUP3 ADD MSTORE PUSH14 0x7374616B65206F766572666C6F77 PUSH1 0x90 SHL PUSH1 0x44 DUP3 ADD MSTORE PUSH1 0x64 ADD PUSH2 0x62F JUMP JUMPDEST PUSH1 0x40 DUP1 MLOAD PUSH1 0xA0 DUP2 ADD DUP3 MSTORE DUP4 SLOAD PUSH1 0x1 PUSH1 0x1 PUSH1 0x70 SHL SUB SWAP1 DUP2 AND DUP3 MSTORE PUSH1 0x1 PUSH1 0x20 DUP1 DUP5 ADD DUP3 DUP2 MSTORE DUP7 DUP5 AND DUP6 DUP8 ADD SWAP1 DUP2 MSTORE PUSH4 0xFFFFFFFF DUP1 DUP12 AND PUSH1 0x60 DUP9 ADD SWAP1 DUP2 MSTORE PUSH1 0x0 PUSH1 0x80 DUP10 ADD DUP2 DUP2 MSTORE CALLER DUP1 DUP4 MSTORE SWAP7 DUP3 SWAP1 MSTORE SWAP1 DUP11 SWAP1 KECCAK256 SWAP9 MLOAD DUP10 SLOAD SWAP6 MLOAD SWAP5 MLOAD DUP10 AND PUSH1 0x1 PUSH1 0x78 SHL MUL PUSH1 0x1 PUSH1 0x78 SHL PUSH1 0x1 PUSH1 0xE8 SHL SUB NOT SWAP6 ISZERO ISZERO PUSH1 0x1 PUSH1 0x70 SHL MUL PUSH15 0xFFFFFFFFFFFFFFFFFFFFFFFFFFFFFF NOT SWAP1 SWAP8 AND SWAP2 SWAP1 SWAP10 AND OR SWAP5 SWAP1 SWAP5 OR SWAP3 SWAP1 SWAP3 AND SWAP6 SWAP1 SWAP6 OR DUP7 SSTORE MLOAD SWAP5 SWAP1 SWAP3 ADD DUP1 SLOAD SWAP3 MLOAD PUSH1 0x1 PUSH1 0x1 PUSH1 0x40 SHL SUB AND PUSH1 0x1 PUSH1 0x20 SHL MUL PUSH1 0x1 PUSH1 0x1 PUSH1 0x60 SHL SUB NOT SWAP1 SWAP4 AND SWAP5 SWAP1 SWAP4 AND SWAP4 SWAP1 SWAP4 OR OR SWAP1 SSTORE SWAP1 MLOAD PUSH32 0xA5AE833D0BB1DCD632D98A8B70973E8516812898E19BF27B70071EBC8DC52C01 SWAP1 PUSH2 0x870 SWAP1 DUP5 SWAP1 DUP8 SWAP1 SWAP2 DUP3 MSTORE PUSH4 0xFFFFFFFF AND PUSH1 0x20 DUP3 ADD MSTORE PUSH1 0x40 ADD SWAP1 JUMP JUMPDEST PUSH1 0x40 MLOAD DUP1 SWAP2 SUB SWAP1 LOG2 POP POP POP JUMP JUMPDEST PUSH1 0x0 PUSH2 0x888 DUP3 PUSH2 0x158D JUMP JUMPDEST PUSH1 0x40 DUP1 MLOAD PUSH1 0x20 DUP2 ADD SWAP3 SWAP1 SWAP3 MSTORE ADDRESS SWAP1 DUP3 ADD MSTORE CHAINID PUSH1 0x60 DUP3 ADD MSTORE PUSH1 0x80 ADD PUSH1 0x40 MLOAD PUSH1 0x20 DUP2 DUP4 SUB SUB DUP2 MSTORE SWAP1 PUSH1 0x40 MSTORE DUP1 MLOAD SWAP1 PUSH1 0x20 ADD KECCAK256 SWAP1 POP SWAP2 SWAP1 POP JUMP JUMPDEST PUSH1 0x0 DUP1 GAS SWAP1 POP CALLER ADDRESS EQ PUSH2 0x8D1 JUMPI PUSH1 0x0 DUP1 REVERT JUMPDEST DUP5 MLOAD PUSH1 0x0 DUP8 ISZERO PUSH2 0x9AE JUMPI PUSH1 0x0 DUP1 DUP4 PUSH1 0x0 ADD MLOAD PUSH1 0x1 PUSH1 0x1 PUSH1 0xA0 SHL SUB AND DUP5 PUSH1 0x40 ADD MLOAD DUP13 DUP13 PUSH1 0x40 MLOAD PUSH2 0x901 SWAP3 SWAP2 SWAP1 PUSH2 0x29F9 JUMP JUMPDEST PUSH1 0x0 PUSH1 0x40 MLOAD DUP1 DUP4 SUB DUP2 PUSH1 0x0 DUP8 DUP8 CALL SWAP3 POP POP POP RETURNDATASIZE DUP1 PUSH1 0x0 DUP2 EQ PUSH2 0x93F JUMPI PUSH1 0x40 MLOAD SWAP2 POP PUSH1 0x1F NOT PUSH1 0x3F RETURNDATASIZE ADD AND DUP3 ADD PUSH1 0x40 MSTORE RETURNDATASIZE DUP3 MSTORE RETURNDATASIZE PUSH1 0x0 PUSH1 0x20 DUP5 ADD RETURNDATACOPY PUSH2 0x944 JUMP JUMPDEST PUSH1 0x60 SWAP2 POP JUMPDEST POP SWAP2 POP SWAP2 POP DUP2 PUSH2 0x9AB JUMPI DUP1 MLOAD ISZERO PUSH2 0x9A6 JUMPI DUP4 PUSH1 0x0 ADD MLOAD PUSH1 0x1 PUSH1 0x1 PUSH1 0xA0 SHL SUB AND DUP10 PUSH1 0x20 ADD MLOAD PUSH32 0x1C4FADA7374C0A9EE8841FC38AFE82932DC0F8E69012E927F061A8BAE611A201 DUP7 PUSH1 0x20 ADD MLOAD DUP5 PUSH1 0x40 MLOAD PUSH2 0x99D SWAP3 SWAP2 SWAP1 PUSH2 0x2A09 JUMP JUMPDEST PUSH1 0x40 MLOAD DUP1 SWAP2 SUB SWAP1 LOG3 JUMPDEST PUSH1 0x1 SWAP3 POP JUMPDEST POP POP JUMPDEST PUSH1 0x0 DUP8 PUSH1 0x80 ADD MLOAD GAS DUP6 SUB ADD SWAP1 POP PUSH2 0xA00 PUSH1 0x0 DUP4 DUP11 DUP11 DUP11 DUP1 DUP1 PUSH1 0x1F ADD PUSH1 0x20 DUP1 SWAP2 DIV MUL PUSH1 0x20 ADD PUSH1 0x40 MLOAD SWAP1 DUP2 ADD PUSH1 0x40 MSTORE DUP1 SWAP4 SWAP3 SWAP2 SWAP1 DUP2 DUP2 MSTORE PUSH1 0x20 ADD DUP4 DUP4 DUP1 DUP3 DUP5 CALLDATACOPY PUSH1 0x0 SWAP3 ADD SWAP2 SWAP1 SWAP2 MSTORE POP DUP9 SWAP3 POP PUSH2 0x15A6 SWAP2 POP POP JUMP JUMPDEST SWAP11 SWAP10 POP POP POP POP POP POP POP POP POP POP JUMP JUMPDEST DUP2 PUSH1 0x0 DUP2 PUSH1 0x1 PUSH1 0x1 PUSH1 0x40 SHL SUB DUP2 GT ISZERO PUSH2 0xA29 JUMPI PUSH2 0xA29 PUSH2 0x2563 JUMP JUMPDEST PUSH1 0x40 MLOAD SWAP1 DUP1 DUP3 MSTORE DUP1 PUSH1 0x20 MUL PUSH1 0x20 ADD DUP3 ADD PUSH1 0x40 MSTORE DUP1 ISZERO PUSH2 0xA62 JUMPI DUP2 PUSH1 0x20 ADD JUMPDEST PUSH2 0xA4F PUSH2 0x241E JUMP JUMPDEST DUP2 MSTORE PUSH1 0x20 ADD SWAP1 PUSH1 0x1 SWAP1 SUB SWAP1 DUP2 PUSH2 0xA47 JUMPI SWAP1 POP JUMPDEST POP SWAP1 POP PUSH1 0x0 JUMPDEST DUP3 DUP2 LT ISZERO PUSH2 0xAC2 JUMPI PUSH2 0xAB9 DUP2 DUP8 DUP8 DUP5 DUP2 DUP2 LT PUSH2 0xA86 JUMPI PUSH2 0xA86 PUSH2 0x2A22 JUMP JUMPDEST SWAP1 POP PUSH1 0x20 MUL DUP2 ADD SWAP1 PUSH2 0xA98 SWAP2 SWAP1 PUSH2 0x2A38 JUMP JUMPDEST DUP5 DUP5 DUP2 MLOAD DUP2 LT PUSH2 0xAAA JUMPI PUSH2 0xAAA PUSH2 0x2A22 JUMP JUMPDEST PUSH1 0x20 MUL PUSH1 0x20 ADD ADD MLOAD PUSH1 0x0 PUSH2 0x1898 JUMP JUMPDEST POP PUSH1 0x1 ADD PUSH2 0xA68 JUMP JUMPDEST POP PUSH1 0x0 DUP1 JUMPDEST DUP4 DUP2 LT ISZERO PUSH2 0xB22 JUMPI PUSH2 0xB16 DUP2 DUP9 DUP9 DUP5 DUP2 DUP2 LT PUSH2 0xAE5 JUMPI PUSH2 0xAE5 PUSH2 0x2A22 JUMP JUMPDEST SWAP1 POP PUSH1 0x20 MUL DUP2 ADD SWAP1 PUSH2 0xAF7 SWAP2 SWAP1 PUSH2 0x2A38 JUMP JUMPDEST DUP6 DUP5 DUP2 MLOAD DUP2 LT PUSH2 0xB09 JUMPI PUSH2 0xB09 PUSH2 0x2A22 JUMP JUMPDEST PUSH1 0x20 MUL PUSH1 0x20 ADD ADD MLOAD PUSH2 0x1A40 JUMP JUMPDEST SWAP1 SWAP2 ADD SWAP1 PUSH1 0x1 ADD PUSH2 0xAC7 JUMP JUMPDEST POP PUSH2 0xB2D DUP5 DUP3 PUSH2 0x1B08 JUMP JUMPDEST POP POP POP POP POP POP JUMP JUMPDEST CALLER PUSH1 0x0 SWAP1 DUP2 MSTORE PUSH1 0x20 DUP2 DUP2 MSTORE PUSH1 0x40 SWAP2 DUP3 SWAP1 KECCAK256 DUP3 MLOAD PUSH1 0xA0 DUP2 ADD DUP5 MSTORE DUP2 SLOAD PUSH1 0x1 PUSH1 0x1 PUSH1 0x70 SHL SUB DUP1 DUP3 AND DUP1 DUP5 MSTORE PUSH1 0x1 PUSH1 0x70 SHL DUP4 DIV PUSH1 0xFF AND ISZERO ISZERO SWAP6 DUP5 ADD SWAP6 SWAP1 SWAP6 MSTORE PUSH1 0x1 PUSH1 0x78 SHL SWAP1 SWAP2 DIV AND SWAP4 DUP2 ADD SWAP4 SWAP1 SWAP4 MSTORE PUSH1 0x1 ADD SLOAD PUSH4 0xFFFFFFFF DUP2 AND PUSH1 0x60 DUP5 ADD MSTORE PUSH1 0x1 PUSH1 0x20 SHL SWAP1 DIV PUSH1 0x1 PUSH1 0x1 PUSH1 0x40 SHL SUB AND PUSH1 0x80 DUP4 ADD MSTORE DUP3 GT ISZERO PUSH2 0xBF5 JUMPI PUSH1 0x40 MLOAD PUSH3 0x461BCD PUSH1 0xE5 SHL DUP2 MSTORE PUSH1 0x20 PUSH1 0x4 DUP3 ADD MSTORE PUSH1 0x19 PUSH1 0x24 DUP3 ADD MSTORE PUSH32 0x576974686472617720616D6F756E7420746F6F206C6172676500000000000000 PUSH1 0x44 DUP3 ADD MSTORE PUSH1 0x64 ADD PUSH2 0x62F JUMP JUMPDEST DUP1 MLOAD PUSH2 0xC0B SWAP1 DUP4 SWAP1 PUSH1 0x1 PUSH1 0x1 PUSH1 0x70 SHL SUB AND PUSH2 0x2A59 JUMP JUMPDEST PUSH1 0x1 PUSH1 0x1 PUSH1 0x70 SHL SUB AND DUP2 MSTORE PUSH1 0x40 DUP1 MLOAD PUSH1 0x1 PUSH1 0x1 PUSH1 0xA0 SHL SUB DUP6 AND DUP2 MSTORE PUSH1 0x20 DUP2 ADD DUP5 SWAP1 MSTORE CALLER SWAP2 PUSH32 0xD1C19FBCD4551A5EDFB66D43D2E337C04837AFDA3482B42BDF569A8FCCDAE5FB SWAP2 ADD PUSH1 0x40 MLOAD DUP1 SWAP2 SUB SWAP1 LOG2 PUSH1 0x0 DUP4 PUSH1 0x1 PUSH1 0x1 PUSH1 0xA0 SHL SUB AND DUP4 PUSH1 0x40 MLOAD PUSH1 0x0 PUSH1 0x40 MLOAD DUP1 DUP4 SUB DUP2 DUP6 DUP8 GAS CALL SWAP3 POP POP POP RETURNDATASIZE DUP1 PUSH1 0x0 DUP2 EQ PUSH2 0xCA7 JUMPI PUSH1 0x40 MLOAD SWAP2 POP PUSH1 0x1F NOT PUSH1 0x3F RETURNDATASIZE ADD AND DUP3 ADD PUSH1 0x40 MSTORE RETURNDATASIZE DUP3 MSTORE RETURNDATASIZE PUSH1 0x0 PUSH1 0x20 DUP5 ADD RETURNDATACOPY PUSH2 0xCAC JUMP JUMPDEST PUSH1 0x60 SWAP2 POP JUMPDEST POP POP SWAP1 POP DUP1 PUSH2 0xCF2 JUMPI PUSH1 0x40 MLOAD PUSH3 0x461BCD PUSH1 0xE5 SHL DUP2 MSTORE PUSH1 0x20 PUSH1 0x4 DUP3 ADD MSTORE PUSH1 0x12 PUSH1 0x24 DUP3 ADD MSTORE PUSH18 0x6661696C656420746F207769746864726177 PUSH1 0x70 SHL PUSH1 0x44 DUP3 ADD MSTORE PUSH1 0x64 ADD PUSH2 0x62F JUMP JUMPDEST POP POP POP POP JUMP JUMPDEST DUP2 PUSH1 0x0 DUP1 JUMPDEST DUP3 DUP2 LT ISZERO PUSH2 0xD52 JUMPI DUP6 DUP6 DUP3 DUP2 DUP2 LT PUSH2 0xD17 JUMPI PUSH2 0xD17 PUSH2 0x2A22 JUMP JUMPDEST SWAP1 POP PUSH1 0x20 MUL DUP2 ADD SWAP1 PUSH2 0xD29 SWAP2 SWAP1 PUSH2 0x2A70 JUMP JUMPDEST PUSH2 0xD33 SWAP1 DUP1 PUSH2 0x2A86 JUMP JUMPDEST PUSH2 0xD3E SWAP2 POP DUP4 PUSH2 0x29E1 JUMP JUMPDEST SWAP2 POP DUP1 PUSH2 0xD4A DUP2 PUSH2 0x2ACF JUMP JUMPDEST SWAP2 POP POP PUSH2 0xCFD JUMP JUMPDEST POP PUSH1 0x0 DUP2 PUSH1 0x1 PUSH1 0x1 PUSH1 0x40 SHL SUB DUP2 GT ISZERO PUSH2 0xD6D JUMPI PUSH2 0xD6D PUSH2 0x2563 JUMP JUMPDEST PUSH1 0x40 MLOAD SWAP1 DUP1 DUP3 MSTORE DUP1 PUSH1 0x20 MUL PUSH1 0x20 ADD DUP3 ADD PUSH1 0x40 MSTORE DUP1 ISZERO PUSH2 0xDA6 JUMPI DUP2 PUSH1 0x20 ADD JUMPDEST PUSH2 0xD93 PUSH2 0x241E JUMP JUMPDEST DUP2 MSTORE PUSH1 0x20 ADD SWAP1 PUSH1 0x1 SWAP1 SUB SWAP1 DUP2 PUSH2 0xD8B JUMPI SWAP1 POP JUMPDEST POP SWAP1 POP PUSH1 0x0 DUP1 JUMPDEST DUP5 DUP2 LT ISZERO PUSH2 0xF2D JUMPI CALLDATASIZE DUP9 DUP9 DUP4 DUP2 DUP2 LT PUSH2 0xDC8 JUMPI PUSH2 0xDC8 PUSH2 0x2A22 JUMP JUMPDEST SWAP1 POP PUSH1 0x20 MUL DUP2 ADD SWAP1 PUSH2 0xDDA SWAP2 SWAP1 PUSH2 0x2A70 JUMP JUMPDEST SWAP1 POP CALLDATASIZE PUSH1 0x0 PUSH2 0xDE9 DUP4 DUP1 PUSH2 0x2A86 JUMP JUMPDEST SWAP1 SWAP3 POP SWAP1 POP PUSH1 0x0 PUSH2 0xE00 PUSH1 0x40 DUP6 ADD PUSH1 0x20 DUP7 ADD PUSH2 0x281B JUMP JUMPDEST SWAP1 POP DUP2 PUSH1 0x0 JUMPDEST DUP2 DUP2 LT ISZERO PUSH2 0xE77 JUMPI PUSH2 0xE56 DUP9 DUP7 DUP7 DUP5 DUP2 DUP2 LT PUSH2 0xE24 JUMPI PUSH2 0xE24 PUSH2 0x2A22 JUMP JUMPDEST SWAP1 POP PUSH1 0x20 MUL DUP2 ADD SWAP1 PUSH2 0xE36 SWAP2 SWAP1 PUSH2 0x2A38 JUMP JUMPDEST DUP12 DUP12 DUP2 MLOAD DUP2 LT PUSH2 0xE48 JUMPI PUSH2 0xE48 PUSH2 0x2A22 JUMP JUMPDEST PUSH1 0x20 MUL PUSH1 0x20 ADD ADD MLOAD DUP7 PUSH2 0x1898 JUMP JUMPDEST POP DUP8 PUSH2 0xE61 DUP2 PUSH2 0x2ACF JUMP JUMPDEST SWAP9 POP POP DUP1 DUP1 PUSH2 0xE6F SWAP1 PUSH2 0x2ACF JUMP JUMPDEST SWAP2 POP POP PUSH2 0xE06 JUMP JUMPDEST POP PUSH1 0x1 PUSH1 0x1 PUSH1 0xA0 SHL SUB DUP3 AND ISZERO PUSH2 0xF15 JUMPI PUSH1 0x1 PUSH1 0x1 PUSH1 0xA0 SHL SUB DUP3 AND PUSH4 0xE3563A4F DUP6 DUP6 PUSH2 0xEA5 PUSH1 0x40 DUP11 ADD DUP11 PUSH2 0x2AEA JUMP JUMPDEST PUSH1 0x40 MLOAD DUP6 PUSH4 0xFFFFFFFF AND PUSH1 0xE0 SHL DUP2 MSTORE PUSH1 0x4 ADD PUSH2 0xEC4 SWAP5 SWAP4 SWAP3 SWAP2 SWAP1 PUSH2 0x2C95 JUMP JUMPDEST PUSH1 0x0 PUSH1 0x40 MLOAD DUP1 DUP4 SUB DUP2 DUP7 DUP1 EXTCODESIZE ISZERO DUP1 ISZERO PUSH2 0xEDC JUMPI PUSH1 0x0 DUP1 REVERT JUMPDEST POP GAS STATICCALL SWAP3 POP POP POP DUP1 ISZERO PUSH2 0xEED JUMPI POP PUSH1 0x1 JUMPDEST PUSH2 0xF15 JUMPI PUSH1 0x40 MLOAD PUSH4 0x86A9F75 PUSH1 0xE4 SHL DUP2 MSTORE PUSH1 0x1 PUSH1 0x1 PUSH1 0xA0 SHL SUB DUP4 AND PUSH1 0x4 DUP3 ADD MSTORE PUSH1 0x24 ADD PUSH2 0x62F JUMP JUMPDEST POP POP POP POP POP DUP1 DUP1 PUSH2 0xF25 SWAP1 PUSH2 0x2ACF JUMP JUMPDEST SWAP2 POP POP PUSH2 0xDAD JUMP JUMPDEST POP PUSH1 0x0 DUP1 SWAP2 POP PUSH1 0x0 JUMPDEST DUP6 DUP2 LT ISZERO PUSH2 0x1001 JUMPI CALLDATASIZE DUP10 DUP10 DUP4 DUP2 DUP2 LT PUSH2 0xF51 JUMPI PUSH2 0xF51 PUSH2 0x2A22 JUMP JUMPDEST SWAP1 POP PUSH1 0x20 MUL DUP2 ADD SWAP1 PUSH2 0xF63 SWAP2 SWAP1 PUSH2 0x2A70 JUMP JUMPDEST SWAP1 POP CALLDATASIZE PUSH1 0x0 PUSH2 0xF72 DUP4 DUP1 PUSH2 0x2A86 JUMP JUMPDEST SWAP1 SWAP3 POP SWAP1 POP DUP1 PUSH1 0x0 JUMPDEST DUP2 DUP2 LT ISZERO PUSH2 0xFE9 JUMPI PUSH2 0xFBD DUP9 DUP6 DUP6 DUP5 DUP2 DUP2 LT PUSH2 0xF99 JUMPI PUSH2 0xF99 PUSH2 0x2A22 JUMP JUMPDEST SWAP1 POP PUSH1 0x20 MUL DUP2 ADD SWAP1 PUSH2 0xFAB SWAP2 SWAP1 PUSH2 0x2A38 JUMP JUMPDEST DUP12 DUP12 DUP2 MLOAD DUP2 LT PUSH2 0xB09 JUMPI PUSH2 0xB09 PUSH2 0x2A22 JUMP JUMPDEST PUSH2 0xFC7 SWAP1 DUP9 PUSH2 0x29E1 JUMP JUMPDEST SWAP7 POP DUP8 PUSH2 0xFD3 DUP2 PUSH2 0x2ACF JUMP JUMPDEST SWAP9 POP POP DUP1 DUP1 PUSH2 0xFE1 SWAP1 PUSH2 0x2ACF JUMP JUMPDEST SWAP2 POP POP PUSH2 0xF7B JUMP JUMPDEST POP POP POP POP POP DUP1 DUP1 PUSH2 0xFF9 SWAP1 PUSH2 0x2ACF JUMP JUMPDEST SWAP2 POP POP PUSH2 0xF36 JUMP JUMPDEST POP PUSH2 0x100C DUP7 DUP3 PUSH2 0x1B08 JUMP JUMPDEST POP POP POP POP POP POP POP POP JUMP JUMPDEST PUSH1 0x0 CALLER ISZERO PUSH2 0x1036 JUMPI PUSH1 0x40 MLOAD PUSH3 0x461BCD PUSH1 0xE5 SHL DUP2 MSTORE PUSH1 0x4 ADD PUSH2 0x62F SWAP1 PUSH2 0x2D12 JUMP JUMPDEST PUSH2 0x1040 DUP4 DUP4 PUSH2 0x1BB9 JUMP JUMPDEST SWAP4 SWAP3 POP POP POP JUMP JUMPDEST CALLER PUSH1 0x0 SWAP1 DUP2 MSTORE PUSH1 0x20 DUP2 SWAP1 MSTORE PUSH1 0x40 SWAP1 KECCAK256 PUSH1 0x1 DUP2 ADD SLOAD PUSH4 0xFFFFFFFF AND PUSH2 0x107D JUMPI PUSH1 0x40 MLOAD PUSH3 0x461BCD PUSH1 0xE5 SHL DUP2 MSTORE PUSH1 0x4 ADD PUSH2 0x62F SWAP1 PUSH2 0x2D5E JUMP JUMPDEST DUP1 SLOAD PUSH1 0x1 PUSH1 0x70 SHL SWAP1 DIV PUSH1 0xFF AND PUSH2 0x10C9 JUMPI PUSH1 0x40 MLOAD PUSH3 0x461BCD PUSH1 0xE5 SHL DUP2 MSTORE PUSH1 0x20 PUSH1 0x4 DUP3 ADD MSTORE PUSH1 0x11 PUSH1 0x24 DUP3 ADD MSTORE PUSH17 0x616C726561647920756E7374616B696E67 PUSH1 0x78 SHL PUSH1 0x44 DUP3 ADD MSTORE PUSH1 0x64 ADD PUSH2 0x62F JUMP JUMPDEST PUSH1 0x1 DUP2 ADD SLOAD PUSH1 0x0 SWAP1 PUSH2 0x10E1 SWAP1 PUSH4 0xFFFFFFFF AND TIMESTAMP PUSH2 0x2D8E JUMP JUMPDEST PUSH1 0x1 DUP4 ADD DUP1 SLOAD PUSH12 0xFFFFFFFFFFFFFFFF00000000 NOT AND PUSH1 0x1 PUSH1 0x20 SHL PUSH1 0x1 PUSH1 0x1 PUSH1 0x40 SHL SUB DUP5 AND SWAP1 DUP2 MUL SWAP2 SWAP1 SWAP2 OR SWAP1 SWAP2 SSTORE DUP4 SLOAD PUSH1 0xFF PUSH1 0x70 SHL NOT AND DUP5 SSTORE PUSH1 0x40 MLOAD SWAP1 DUP2 MSTORE SWAP1 SWAP2 POP CALLER SWAP1 PUSH32 0xFA9B3C14CC825C412C9ED81B3BA365A5B459439403F18829E572ED53A4180F0A SWAP1 PUSH1 0x20 ADD PUSH2 0x5A7 JUMP JUMPDEST CALLER PUSH1 0x0 SWAP1 DUP2 MSTORE PUSH1 0x20 DUP2 SWAP1 MSTORE PUSH1 0x40 SWAP1 KECCAK256 DUP1 SLOAD PUSH1 0x1 PUSH1 0x78 SHL SWAP1 DIV PUSH1 0x1 PUSH1 0x1 PUSH1 0x70 SHL SUB AND DUP1 PUSH2 0x11B4 JUMPI PUSH1 0x40 MLOAD PUSH3 0x461BCD PUSH1 0xE5 SHL DUP2 MSTORE PUSH1 0x20 PUSH1 0x4 DUP3 ADD MSTORE PUSH1 0x14 PUSH1 0x24 DUP3 ADD MSTORE PUSH20 0x4E6F207374616B6520746F207769746864726177 PUSH1 0x60 SHL PUSH1 0x44 DUP3 ADD MSTORE PUSH1 0x64 ADD PUSH2 0x62F JUMP JUMPDEST PUSH1 0x1 DUP3 ADD SLOAD PUSH1 0x1 PUSH1 0x20 SHL SWAP1 DIV PUSH1 0x1 PUSH1 0x1 PUSH1 0x40 SHL SUB AND PUSH2 0x1215 JUMPI PUSH1 0x40 MLOAD PUSH3 0x461BCD PUSH1 0xE5 SHL DUP2 MSTORE PUSH1 0x20 PUSH1 0x4 DUP3 ADD MSTORE PUSH1 0x1D PUSH1 0x24 DUP3 ADD MSTORE PUSH32 0x6D7573742063616C6C20756E6C6F636B5374616B652829206669727374000000 PUSH1 0x44 DUP3 ADD MSTORE PUSH1 0x64 ADD PUSH2 0x62F JUMP JUMPDEST PUSH1 0x1 DUP3 ADD SLOAD TIMESTAMP PUSH1 0x1 PUSH1 0x20 SHL SWAP1 SWAP2 DIV PUSH1 0x1 PUSH1 0x1 PUSH1 0x40 SHL SUB AND GT ISZERO PUSH2 0x127A JUMPI PUSH1 0x40 MLOAD PUSH3 0x461BCD PUSH1 0xE5 SHL DUP2 MSTORE PUSH1 0x20 PUSH1 0x4 DUP3 ADD MSTORE PUSH1 0x1B PUSH1 0x24 DUP3 ADD MSTORE PUSH32 0x5374616B65207769746864726177616C206973206E6F74206475650000000000 PUSH1 0x44 DUP3 ADD MSTORE PUSH1 0x64 ADD PUSH2 0x62F JUMP JUMPDEST PUSH1 0x1 DUP3 ADD DUP1 SLOAD PUSH1 0x1 PUSH1 0x1 PUSH1 0x60 SHL SUB NOT AND SWAP1 SSTORE DUP2 SLOAD PUSH1 0x1 PUSH1 0x78 SHL PUSH1 0x1 PUSH1 0xE8 SHL SUB NOT AND DUP3 SSTORE PUSH1 0x40 DUP1 MLOAD PUSH1 0x1 PUSH1 0x1 PUSH1 0xA0 SHL SUB DUP6 AND DUP2 MSTORE PUSH1 0x20 DUP2 ADD DUP4 SWAP1 MSTORE CALLER SWAP2 PUSH32 0xB7C918E0E249F999E965CAFEB6C664271B3F4317D296461500E71DA39F0CBDA3 SWAP2 ADD PUSH1 0x40 MLOAD DUP1 SWAP2 SUB SWAP1 LOG2 PUSH1 0x0 DUP4 PUSH1 0x1 PUSH1 0x1 PUSH1 0xA0 SHL SUB AND DUP3 PUSH1 0x40 MLOAD PUSH1 0x0 PUSH1 0x40 MLOAD DUP1 DUP4 SUB DUP2 DUP6 DUP8 GAS CALL SWAP3 POP POP POP RETURNDATASIZE DUP1 PUSH1 0x0 DUP2 EQ PUSH2 0x132E JUMPI PUSH1 0x40 MLOAD SWAP2 POP PUSH1 0x1F NOT PUSH1 0x3F RETURNDATASIZE ADD AND DUP3 ADD PUSH1 0x40 MSTORE RETURNDATASIZE DUP3 MSTORE RETURNDATASIZE PUSH1 0x0 PUSH1 0x20 DUP5 ADD RETURNDATACOPY PUSH2 0x1333 JUMP JUMPDEST PUSH1 0x60 SWAP2 POP JUMPDEST POP POP SWAP1 POP DUP1 PUSH2 0xCF2 JUMPI PUSH1 0x40 MLOAD PUSH3 0x461BCD PUSH1 0xE5 SHL DUP2 MSTORE PUSH1 0x20 PUSH1 0x4 DUP3 ADD MSTORE PUSH1 0x18 PUSH1 0x24 DUP3 ADD MSTORE PUSH32 0x6661696C656420746F207769746864726177207374616B650000000000000000 PUSH1 0x44 DUP3 ADD MSTORE PUSH1 0x64 ADD PUSH2 0x62F JUMP JUMPDEST PUSH1 0x1 PUSH1 0x1 PUSH1 0xA0 SHL SUB DUP2 AND PUSH1 0x0 SWAP1 DUP2 MSTORE PUSH1 0x20 DUP2 SWAP1 MSTORE PUSH1 0x40 SWAP1 DUP2 SWAP1 KECCAK256 DUP2 MLOAD PUSH1 0x1 DUP1 DUP3 MSTORE DUP2 DUP5 ADD SWAP1 SWAP4 MSTORE PUSH1 0x60 SWAP3 DUP3 SWAP2 SWAP1 DUP2 PUSH1 0x20 ADD PUSH1 0x20 DUP3 MUL DUP1 CALLDATASIZE DUP4 CALLDATACOPY ADD SWAP1 POP POP SWAP3 POP DUP2 DUP4 PUSH1 0x0 DUP2 MLOAD DUP2 LT PUSH2 0x13D7 JUMPI PUSH2 0x13D7 PUSH2 0x2A22 JUMP JUMPDEST PUSH1 0x20 MUL PUSH1 0x20 ADD ADD DUP2 DUP2 MSTORE POP POP POP POP SWAP2 SWAP1 POP JUMP JUMPDEST PUSH1 0x0 DUP1 PUSH1 0x0 PUSH1 0x60 DUP1 PUSH1 0x60 PUSH1 0x0 GAS SWAP1 POP PUSH2 0x1401 PUSH2 0x241E JUMP JUMPDEST PUSH2 0x140F PUSH1 0x0 DUP12 DUP4 PUSH1 0x1 PUSH2 0x1898 JUMP JUMPDEST SWAP6 POP DUP1 PUSH1 0x40 ADD MLOAD SWAP7 POP DUP10 PUSH1 0xC0 ADD CALLDATALOAD GAS PUSH2 0x1428 SWAP1 DUP5 PUSH2 0x2A59 JUMP JUMPDEST PUSH2 0x1432 SWAP2 SWAP1 PUSH2 0x29E1 JUMP JUMPDEST SWAP8 POP PUSH2 0x143D NUMBER PUSH1 0x0 MSTORE JUMP JUMPDEST PUSH1 0x1 PUSH1 0x1 PUSH1 0xA0 SHL SUB DUP7 AND ISZERO PUSH2 0x14C7 JUMPI PUSH1 0x40 MLOAD PUSH4 0x303B6A1D PUSH1 0xE1 SHL DUP2 MSTORE PUSH1 0x1 PUSH1 0x1 PUSH1 0xA0 SHL SUB DUP8 AND SWAP1 PUSH4 0x6076D43A SWAP1 PUSH2 0x147A SWAP1 DUP14 SWAP1 DUP14 SWAP1 PUSH1 0x4 ADD PUSH2 0x2DB9 JUMP JUMPDEST PUSH1 0x0 PUSH1 0x40 MLOAD DUP1 DUP4 SUB DUP2 DUP7 GAS STATICCALL ISZERO DUP1 ISZERO PUSH2 0x1497 JUMPI RETURNDATASIZE PUSH1 0x0 DUP1 RETURNDATACOPY RETURNDATASIZE PUSH1 0x0 REVERT JUMPDEST POP POP POP POP PUSH1 0x40 MLOAD RETURNDATASIZE PUSH1 0x0 DUP3 RETURNDATACOPY PUSH1 0x1F RETURNDATASIZE SWAP1 DUP2 ADD PUSH1 0x1F NOT AND DUP3 ADD PUSH1 0x40 MSTORE PUSH2 0x14BF SWAP2 SWAP1 DUP2 ADD SWAP1 PUSH2 0x2E44 JUMP JUMPDEST SWAP2 SWAP7 POP SWAP5 POP SWAP3 POP JUMPDEST CALLER ISZERO PUSH2 0x14E5 JUMPI PUSH1 0x40 MLOAD PUSH3 0x461BCD PUSH1 0xE5 SHL DUP2 MSTORE PUSH1 0x4 ADD PUSH2 0x62F SWAP1 PUSH2 0x2D12 JUMP JUMPDEST POP POP SWAP3 SWAP6 POP SWAP3 SWAP6 POP SWAP3 SWAP6 JUMP JUMPDEST PUSH1 0x1 PUSH1 0x1 PUSH1 0xA0 SHL SUB DUP3 AND PUSH1 0x0 SWAP1 DUP2 MSTORE PUSH1 0x20 DUP2 SWAP1 MSTORE PUSH1 0x40 DUP2 KECCAK256 DUP1 SLOAD SWAP1 SWAP2 SWAP1 PUSH2 0x1522 SWAP1 DUP5 SWAP1 PUSH1 0x1 PUSH1 0x1 PUSH1 0x70 SHL SUB AND PUSH2 0x29E1 JUMP JUMPDEST SWAP1 POP PUSH1 0x1 PUSH1 0x1 PUSH1 0x70 SHL SUB DUP2 GT ISZERO PUSH2 0x156E JUMPI PUSH1 0x40 MLOAD PUSH3 0x461BCD PUSH1 0xE5 SHL DUP2 MSTORE PUSH1 0x20 PUSH1 0x4 DUP3 ADD MSTORE PUSH1 0x10 PUSH1 0x24 DUP3 ADD MSTORE PUSH16 0x6465706F736974206F766572666C6F77 PUSH1 0x80 SHL PUSH1 0x44 DUP3 ADD MSTORE PUSH1 0x64 ADD PUSH2 0x62F JUMP JUMPDEST DUP2 SLOAD PUSH1 0x1 PUSH1 0x1 PUSH1 0x70 SHL SUB NOT AND PUSH1 0x1 PUSH1 0x1 PUSH1 0x70 SHL SUB SWAP2 SWAP1 SWAP2 AND OR SWAP1 SSTORE POP POP JUMP JUMPDEST PUSH1 0x0 PUSH2 0x1598 DUP3 PUSH2 0x1C7B JUMP JUMPDEST DUP1 MLOAD SWAP1 PUSH1 0x20 ADD KECCAK256 SWAP1 POP SWAP2 SWAP1 POP JUMP JUMPDEST PUSH1 0x0 DUP1 GAS DUP6 MLOAD SWAP1 SWAP2 POP PUSH1 0x0 SWAP1 DUP2 PUSH2 0x15BC DUP3 PUSH2 0x1CBA JUMP JUMPDEST PUSH1 0xA0 DUP4 ADD MLOAD SWAP1 SWAP2 POP PUSH1 0x1 PUSH1 0x1 PUSH1 0xA0 SHL SUB DUP2 AND PUSH2 0x15DB JUMPI DUP3 MLOAD SWAP4 POP PUSH2 0x176E JUMP JUMPDEST DUP1 SWAP4 POP PUSH1 0x0 DUP9 MLOAD GT ISZERO PUSH2 0x176E JUMPI DUP7 DUP3 MUL SWAP6 POP PUSH1 0x2 DUP11 PUSH1 0x2 DUP2 GT ISZERO PUSH2 0x1601 JUMPI PUSH2 0x1601 PUSH2 0x2ECB JUMP JUMPDEST EQ PUSH2 0x1673 JUMPI PUSH1 0x60 DUP4 ADD MLOAD PUSH1 0x40 MLOAD PUSH4 0xA9A23409 PUSH1 0xE0 SHL DUP2 MSTORE PUSH1 0x1 PUSH1 0x1 PUSH1 0xA0 SHL SUB DUP4 AND SWAP2 PUSH4 0xA9A23409 SWAP2 PUSH2 0x163B SWAP1 DUP15 SWAP1 DUP14 SWAP1 DUP13 SWAP1 PUSH1 0x4 ADD PUSH2 0x2EE1 JUMP JUMPDEST PUSH1 0x0 PUSH1 0x40 MLOAD DUP1 DUP4 SUB DUP2 PUSH1 0x0 DUP9 DUP1 EXTCODESIZE ISZERO DUP1 ISZERO PUSH2 0x1655 JUMPI PUSH1 0x0 DUP1 REVERT JUMPDEST POP DUP8 CALL ISZERO DUP1 ISZERO PUSH2 0x1669 JUMPI RETURNDATASIZE PUSH1 0x0 DUP1 RETURNDATACOPY RETURNDATASIZE PUSH1 0x0 REVERT JUMPDEST POP POP POP POP POP PUSH2 0x176E JUMP JUMPDEST PUSH1 0x60 DUP4 ADD MLOAD PUSH1 0x40 MLOAD PUSH4 0xA9A23409 PUSH1 0xE0 SHL DUP2 MSTORE PUSH1 0x1 PUSH1 0x1 PUSH1 0xA0 SHL SUB DUP4 AND SWAP2 PUSH4 0xA9A23409 SWAP2 PUSH2 0x16A8 SWAP1 DUP15 SWAP1 DUP14 SWAP1 DUP13 SWAP1 PUSH1 0x4 ADD PUSH2 0x2EE1 JUMP JUMPDEST PUSH1 0x0 PUSH1 0x40 MLOAD DUP1 DUP4 SUB DUP2 PUSH1 0x0 DUP9 DUP1 EXTCODESIZE ISZERO DUP1 ISZERO PUSH2 0x16C2 JUMPI PUSH1 0x0 DUP1 REVERT JUMPDEST POP DUP8 CALL SWAP4 POP POP POP POP DUP1 ISZERO PUSH2 0x16D4 JUMPI POP PUSH1 0x1 JUMPDEST PUSH2 0x176E JUMPI PUSH2 0x16E0 PUSH2 0x2F28 JUMP JUMPDEST DUP1 PUSH4 0x8C379A0 EQ ISZERO PUSH2 0x171E JUMPI POP PUSH2 0x16F5 PUSH2 0x2F44 JUMP JUMPDEST DUP1 PUSH2 0x1700 JUMPI POP PUSH2 0x1720 JUMP JUMPDEST DUP12 DUP3 DUP3 PUSH1 0x40 MLOAD PUSH3 0xFA072B PUSH1 0xE0 SHL DUP2 MSTORE PUSH1 0x4 ADD PUSH2 0x62F SWAP4 SWAP3 SWAP2 SWAP1 PUSH2 0x2FCD JUMP JUMPDEST POP JUMPDEST PUSH1 0x40 MLOAD PUSH3 0xFA072B PUSH1 0xE0 SHL DUP2 MSTORE PUSH1 0x4 DUP2 ADD DUP13 SWAP1 MSTORE PUSH1 0x1 PUSH1 0x1 PUSH1 0xA0 SHL SUB DUP3 AND PUSH1 0x24 DUP3 ADD MSTORE PUSH1 0x60 PUSH1 0x44 DUP3 ADD MSTORE PUSH1 0xD PUSH1 0x64 DUP3 ADD MSTORE PUSH13 0x1C1BDCDD13DC081C995D995C9D PUSH1 0x9A SHL PUSH1 0x84 DUP3 ADD MSTORE PUSH1 0xA4 ADD PUSH2 0x62F JUMP JUMPDEST GAS DUP6 SUB DUP8 ADD SWAP7 POP DUP2 DUP8 MUL SWAP6 POP DUP6 DUP10 PUSH1 0x40 ADD MLOAD LT ISZERO PUSH2 0x17E4 JUMPI PUSH1 0x40 MLOAD PUSH3 0xFA072B PUSH1 0xE0 SHL DUP2 MSTORE PUSH1 0x4 DUP2 ADD DUP13 SWAP1 MSTORE PUSH1 0x1 PUSH1 0x1 PUSH1 0xA0 SHL SUB DUP3 AND PUSH1 0x24 DUP3 ADD MSTORE PUSH1 0x60 PUSH1 0x44 DUP3 ADD MSTORE PUSH1 0x1B PUSH1 0x64 DUP3 ADD MSTORE PUSH32 0x70726566756E642062656C6F772061637475616C476173436F73740000000000 PUSH1 0x84 DUP3 ADD MSTORE PUSH1 0xA4 ADD PUSH2 0x62F JUMP JUMPDEST PUSH1 0x40 DUP10 ADD MLOAD DUP7 SWAP1 SUB PUSH2 0x17F6 DUP6 DUP3 PUSH2 0x14F1 JUMP JUMPDEST PUSH1 0x0 DUP1 DUP13 PUSH1 0x2 DUP2 GT ISZERO PUSH2 0x180B JUMPI PUSH2 0x180B PUSH2 0x2ECB JUMP JUMPDEST EQ SWAP1 POP DUP5 PUSH1 0xA0 ADD MLOAD PUSH1 0x1 PUSH1 0x1 PUSH1 0xA0 SHL SUB AND DUP6 PUSH1 0x0 ADD MLOAD PUSH1 0x1 PUSH1 0x1 PUSH1 0xA0 SHL SUB AND DUP13 PUSH1 0x20 ADD MLOAD PUSH32 0x33FD4D1F25A5461BEA901784A6571DE6DEBC16CD0831932C22C6969CD73BA994 DUP9 PUSH1 0x20 ADD MLOAD DUP13 DUP10 DUP8 PUSH1 0x40 MLOAD PUSH2 0x1880 SWAP5 SWAP4 SWAP3 SWAP2 SWAP1 SWAP4 DUP5 MSTORE PUSH1 0x20 DUP5 ADD SWAP3 SWAP1 SWAP3 MSTORE PUSH1 0x40 DUP4 ADD MSTORE ISZERO ISZERO PUSH1 0x60 DUP3 ADD MSTORE PUSH1 0x80 ADD SWAP1 JUMP JUMPDEST PUSH1 0x40 MLOAD DUP1 SWAP2 SUB SWAP1 LOG4 POP POP POP POP POP POP POP SWAP6 SWAP5 POP POP POP POP POP JUMP JUMPDEST PUSH1 0x0 DUP1 GAS DUP5 MLOAD SWAP1 SWAP2 POP PUSH2 0x18AB DUP7 DUP3 PUSH2 0x1CEB JUMP JUMPDEST PUSH2 0x18B4 DUP7 PUSH2 0x87D JUMP JUMPDEST PUSH1 0x20 DUP7 ADD MSTORE PUSH1 0x40 DUP2 ADD MLOAD PUSH1 0x60 DUP3 ADD MLOAD PUSH1 0x80 DUP4 ADD MLOAD OR OR PUSH1 0xE0 DUP8 ADD CALLDATALOAD OR PUSH2 0x100 DUP8 ADD CALLDATALOAD OR PUSH15 0xFFFFFFFFFFFFFFFFFFFFFFFFFFFFFF DUP2 GT ISZERO PUSH2 0x192C JUMPI PUSH1 0x40 MLOAD PUSH3 0x461BCD PUSH1 0xE5 SHL DUP2 MSTORE PUSH1 0x20 PUSH1 0x4 DUP3 ADD MSTORE PUSH1 0x13 PUSH1 0x24 DUP3 ADD MSTORE PUSH19 0x6761732076616C756573206F766572666C6F77 PUSH1 0x68 SHL PUSH1 0x44 DUP3 ADD MSTORE PUSH1 0x64 ADD PUSH2 0x62F JUMP JUMPDEST PUSH1 0x0 DUP1 PUSH2 0x1938 DUP5 PUSH2 0x1DE4 JUMP JUMPDEST SWAP1 POP PUSH2 0x1947 DUP11 DUP11 DUP11 DUP11 DUP6 PUSH2 0x1E32 JUMP JUMPDEST SWAP7 POP SWAP2 POP PUSH2 0x1954 NUMBER PUSH1 0x0 MSTORE JUMP JUMPDEST PUSH1 0xA0 DUP5 ADD MLOAD PUSH1 0x60 SWAP1 PUSH1 0x1 PUSH1 0x1 PUSH1 0xA0 SHL SUB AND ISZERO PUSH2 0x197E JUMPI PUSH2 0x1977 DUP12 DUP12 DUP12 DUP6 DUP8 PUSH2 0x20CE JUMP JUMPDEST SWAP1 POP PUSH2 0x198F JUMP JUMPDEST POP PUSH1 0x40 DUP1 MLOAD PUSH1 0x20 DUP2 ADD SWAP1 SWAP2 MSTORE PUSH1 0x0 DUP2 MSTORE JUMPDEST PUSH1 0x0 GAS DUP8 SUB SWAP1 POP DUP1 DUP12 PUSH1 0xA0 ADD CALLDATALOAD LT ISZERO PUSH2 0x1A12 JUMPI PUSH1 0xA0 DUP7 ADD MLOAD PUSH1 0x40 MLOAD PUSH3 0xFA072B PUSH1 0xE0 SHL DUP2 MSTORE PUSH1 0x4 DUP2 ADD DUP15 SWAP1 MSTORE PUSH1 0x1 PUSH1 0x1 PUSH1 0xA0 SHL SUB SWAP1 SWAP2 AND PUSH1 0x24 DUP3 ADD MSTORE PUSH1 0x60 PUSH1 0x44 DUP3 ADD MSTORE PUSH1 0x23 PUSH1 0x64 DUP3 ADD MSTORE PUSH32 0x55736564206D6F7265207468616E20766572696669636174696F6E4761734C69 PUSH1 0x84 DUP3 ADD MSTORE PUSH3 0x1B5A5D PUSH1 0xEA SHL PUSH1 0xA4 DUP3 ADD MSTORE PUSH1 0xC4 ADD PUSH2 0x62F JUMP JUMPDEST PUSH1 0x40 DUP11 ADD DUP4 SWAP1 MSTORE DUP2 PUSH1 0x60 DUP12 ADD MSTORE PUSH1 0xC0 DUP12 ADD CALLDATALOAD GAS DUP9 SUB ADD DUP11 PUSH1 0x80 ADD DUP2 DUP2 MSTORE POP POP POP POP POP POP POP POP POP SWAP5 SWAP4 POP POP POP POP JUMP JUMPDEST PUSH1 0x0 DUP1 GAS SWAP1 POP PUSH1 0x0 PUSH2 0x1A53 DUP5 PUSH1 0x60 ADD MLOAD SWAP1 JUMP JUMPDEST SWAP1 POP ADDRESS PUSH4 0x1D732756 PUSH2 0x1A68 PUSH1 0x60 DUP9 ADD DUP9 PUSH2 0x2AEA JUMP JUMPDEST DUP8 DUP6 PUSH1 0x40 MLOAD DUP6 PUSH4 0xFFFFFFFF AND PUSH1 0xE0 SHL DUP2 MSTORE PUSH1 0x4 ADD PUSH2 0x1A89 SWAP5 SWAP4 SWAP3 SWAP2 SWAP1 PUSH2 0x3000 JUMP JUMPDEST PUSH1 0x20 PUSH1 0x40 MLOAD DUP1 DUP4 SUB DUP2 PUSH1 0x0 DUP8 GAS CALL SWAP3 POP POP POP DUP1 ISZERO PUSH2 0x1AC4 JUMPI POP PUSH1 0x40 DUP1 MLOAD PUSH1 0x1F RETURNDATASIZE SWAP1 DUP2 ADD PUSH1 0x1F NOT AND DUP3 ADD SWAP1 SWAP3 MSTORE PUSH2 0x1AC1 SWAP2 DUP2 ADD SWAP1 PUSH2 0x30B3 JUMP JUMPDEST PUSH1 0x1 JUMPDEST PUSH2 0x1AFC JUMPI PUSH1 0x0 DUP5 PUSH1 0x80 ADD MLOAD GAS PUSH2 0x1ADA SWAP1 DUP6 PUSH2 0x2A59 JUMP JUMPDEST PUSH2 0x1AE4 SWAP2 SWAP1 PUSH2 0x29E1 JUMP JUMPDEST SWAP1 POP PUSH2 0x1AF4 DUP8 PUSH1 0x2 DUP8 DUP6 DUP6 PUSH2 0x15A6 JUMP JUMPDEST SWAP4 POP POP PUSH2 0x1AFF JUMP JUMPDEST SWAP3 POP JUMPDEST POP POP SWAP4 SWAP3 POP POP POP JUMP JUMPDEST PUSH1 0x1 PUSH1 0x1 PUSH1 0xA0 SHL SUB DUP3 AND PUSH2 0x1B54 JUMPI PUSH1 0x40 MLOAD PUSH3 0x461BCD PUSH1 0xE5 SHL DUP2 MSTORE PUSH1 0x20 PUSH1 0x4 DUP3 ADD MSTORE PUSH1 0x13 PUSH1 0x24 DUP3 ADD MSTORE PUSH19 0x696E76616C69642062656E6566696369617279 PUSH1 0x68 SHL PUSH1 0x44 DUP3 ADD MSTORE PUSH1 0x64 ADD PUSH2 0x62F JUMP JUMPDEST PUSH1 0x0 DUP3 PUSH1 0x1 PUSH1 0x1 PUSH1 0xA0 SHL SUB AND DUP3 PUSH1 0x40 MLOAD PUSH1 0x0 PUSH1 0x40 MLOAD DUP1 DUP4 SUB DUP2 DUP6 DUP8 GAS CALL SWAP3 POP POP POP RETURNDATASIZE DUP1 PUSH1 0x0 DUP2 EQ PUSH2 0x1BA1 JUMPI PUSH1 0x40 MLOAD SWAP2 POP PUSH1 0x1F NOT PUSH1 0x3F RETURNDATASIZE ADD AND DUP3 ADD PUSH1 0x40 MSTORE RETURNDATASIZE DUP3 MSTORE RETURNDATASIZE PUSH1 0x0 PUSH1 0x20 DUP5 ADD RETURNDATACOPY PUSH2 0x1BA6 JUMP JUMPDEST PUSH1 0x60 SWAP2 POP JUMPDEST POP POP SWAP1 POP DUP1 PUSH2 0x1BB4 JUMPI PUSH1 0x0 DUP1 REVERT JUMPDEST POP POP POP JUMP JUMPDEST PUSH1 0x0 DUP1 PUSH2 0x1BC9 PUSH1 0x14 DUP3 DUP6 DUP8 PUSH2 0x30CC JUMP JUMPDEST PUSH2 0x1BD2 SWAP2 PUSH2 0x30F6 JUMP JUMPDEST PUSH1 0x60 SHR SWAP1 POP PUSH1 0x0 PUSH2 0x1BE6 DUP5 PUSH1 0x14 DUP2 DUP9 PUSH2 0x30CC JUMP JUMPDEST DUP1 DUP1 PUSH1 0x1F ADD PUSH1 0x20 DUP1 SWAP2 DIV MUL PUSH1 0x20 ADD PUSH1 0x40 MLOAD SWAP1 DUP2 ADD PUSH1 0x40 MSTORE DUP1 SWAP4 SWAP3 SWAP2 SWAP1 DUP2 DUP2 MSTORE PUSH1 0x20 ADD DUP4 DUP4 DUP1 DUP3 DUP5 CALLDATACOPY PUSH1 0x0 SWAP3 ADD DUP3 SWAP1 MSTORE POP DUP5 MLOAD SWAP5 SWAP6 POP SWAP4 PUSH1 0x20 SWAP4 POP DUP5 SWAP3 POP SWAP1 POP DUP3 DUP6 ADD DUP3 DUP8 GAS CALL SWAP1 POP PUSH1 0x0 MLOAD SWAP4 POP DUP1 PUSH2 0x1C72 JUMPI PUSH1 0x40 MLOAD PUSH3 0x461BCD PUSH1 0xE5 SHL DUP2 MSTORE PUSH1 0x20 PUSH1 0x4 DUP3 ADD MSTORE PUSH1 0xF PUSH1 0x24 DUP3 ADD MSTORE PUSH15 0x1A5B9A5D10DBD9194819985A5B1959 PUSH1 0x8A SHL PUSH1 0x44 DUP3 ADD MSTORE PUSH1 0x64 ADD PUSH2 0x62F JUMP JUMPDEST POP POP POP SWAP3 SWAP2 POP POP JUMP JUMPDEST PUSH1 0x60 CALLDATASIZE PUSH1 0x0 PUSH2 0x1C8E PUSH2 0x140 DUP6 ADD DUP6 PUSH2 0x2AEA JUMP JUMPDEST SWAP2 POP SWAP2 POP DUP4 PUSH1 0x20 DUP2 DUP5 SUB SUB PUSH1 0x40 MLOAD SWAP5 POP PUSH1 0x20 DUP2 ADD DUP6 ADD PUSH1 0x40 MSTORE DUP1 DUP6 MSTORE DUP1 DUP3 PUSH1 0x20 DUP8 ADD CALLDATACOPY POP POP POP POP SWAP2 SWAP1 POP JUMP JUMPDEST PUSH1 0xC0 DUP2 ADD MLOAD PUSH1 0xE0 DUP3 ADD MLOAD PUSH1 0x0 SWAP2 SWAP1 DUP1 DUP3 EQ ISZERO PUSH2 0x1CD7 JUMPI POP SWAP3 SWAP2 POP POP JUMP JUMPDEST PUSH2 0x1CE3 DUP3 BASEFEE DUP4 ADD PUSH2 0x22D1 JUMP JUMPDEST SWAP5 SWAP4 POP POP POP POP JUMP JUMPDEST PUSH2 0x1CF8 PUSH1 0x20 DUP4 ADD DUP4 PUSH2 0x281B JUMP JUMPDEST PUSH1 0x1 PUSH1 0x1 PUSH1 0xA0 SHL SUB AND DUP2 MSTORE PUSH1 0x20 DUP1 DUP4 ADD CALLDATALOAD SWAP1 DUP3 ADD MSTORE PUSH1 0x80 DUP1 DUP4 ADD CALLDATALOAD PUSH1 0x40 DUP4 ADD MSTORE PUSH1 0xA0 DUP4 ADD CALLDATALOAD PUSH1 0x60 DUP4 ADD MSTORE PUSH1 0xC0 DUP1 DUP5 ADD CALLDATALOAD SWAP2 DUP4 ADD SWAP2 SWAP1 SWAP2 MSTORE PUSH1 0xE0 DUP1 DUP5 ADD CALLDATALOAD SWAP2 DUP4 ADD SWAP2 SWAP1 SWAP2 MSTORE PUSH2 0x100 DUP4 ADD CALLDATALOAD SWAP1 DUP3 ADD MSTORE CALLDATASIZE PUSH1 0x0 PUSH2 0x1D57 PUSH2 0x120 DUP6 ADD DUP6 PUSH2 0x2AEA JUMP JUMPDEST SWAP1 SWAP3 POP SWAP1 POP DUP1 ISZERO PUSH2 0x1DD7 JUMPI PUSH1 0x14 DUP2 LT ISZERO PUSH2 0x1DB3 JUMPI PUSH1 0x40 MLOAD PUSH3 0x461BCD PUSH1 0xE5 SHL DUP2 MSTORE PUSH1 0x20 PUSH1 0x4 DUP3 ADD MSTORE PUSH1 0x18 PUSH1 0x24 DUP3 ADD MSTORE PUSH32 0x696E76616C6964207061796D6173746572416E64446174610000000000000000 PUSH1 0x44 DUP3 ADD MSTORE PUSH1 0x64 ADD PUSH2 0x62F JUMP JUMPDEST PUSH2 0x1DC1 PUSH1 0x14 PUSH1 0x0 DUP4 DUP6 PUSH2 0x30CC JUMP JUMPDEST PUSH2 0x1DCA SWAP2 PUSH2 0x30F6 JUMP JUMPDEST PUSH1 0x60 SHR PUSH1 0xA0 DUP5 ADD MSTORE PUSH2 0xCF2 JUMP JUMPDEST PUSH1 0x0 PUSH1 0xA0 DUP5 ADD MSTORE POP POP POP POP JUMP JUMPDEST PUSH1 0xA0 DUP2 ADD MLOAD PUSH1 0x0 SWAP1 DUP2 SWAP1 PUSH1 0x1 PUSH1 0x1 PUSH1 0xA0 SHL SUB AND PUSH2 0x1E02 JUMPI PUSH1 0x1 PUSH2 0x1E05 JUMP JUMPDEST PUSH1 0x3 JUMPDEST PUSH1 0xFF AND SWAP1 POP PUSH1 0x0 DUP4 PUSH1 0x80 ADD MLOAD DUP3 DUP6 PUSH1 0x60 ADD MLOAD MUL DUP6 PUSH1 0x40 ADD MLOAD ADD ADD SWAP1 POP PUSH2 0x1E2A DUP5 PUSH2 0x1CBA JUMP JUMPDEST MUL SWAP4 SWAP3 POP POP POP JUMP JUMPDEST PUSH1 0x0 DUP1 PUSH1 0x0 GAS DUP7 MLOAD SWAP1 SWAP2 POP PUSH2 0x1E53 DUP2 PUSH2 0x1E4E PUSH1 0x40 DUP12 ADD DUP12 PUSH2 0x2AEA JUMP JUMPDEST PUSH2 0x22E7 JUMP JUMPDEST PUSH1 0x1 PUSH1 0x1 PUSH1 0xA0 SHL SUB DUP7 AND PUSH1 0x1 EQ ISZERO PUSH2 0x1ED9 JUMPI DUP1 PUSH1 0x0 ADD MLOAD PUSH1 0x1 PUSH1 0x1 PUSH1 0xA0 SHL SUB AND PUSH4 0x3AD59DBC PUSH1 0x40 MLOAD DUP2 PUSH4 0xFFFFFFFF AND PUSH1 0xE0 SHL DUP2 MSTORE PUSH1 0x4 ADD PUSH1 0x20 PUSH1 0x40 MLOAD DUP1 DUP4 SUB DUP2 DUP7 GAS STATICCALL SWAP3 POP POP POP DUP1 ISZERO PUSH2 0x1EC3 JUMPI POP PUSH1 0x40 DUP1 MLOAD PUSH1 0x1F RETURNDATASIZE SWAP1 DUP2 ADD PUSH1 0x1F NOT AND DUP3 ADD SWAP1 SWAP3 MSTORE PUSH2 0x1EC0 SWAP2 DUP2 ADD SWAP1 PUSH2 0x3126 JUMP JUMPDEST PUSH1 0x1 JUMPDEST PUSH2 0x1ED3 JUMPI PUSH1 0x0 SWAP3 POP DUP3 SWAP6 POP PUSH2 0x1ED9 JUMP JUMPDEST SWAP6 POP DUP6 SWAP3 POP JUMPDEST DUP1 MLOAD PUSH1 0xA0 DUP3 ADD MLOAD PUSH1 0x0 SWAP2 SWAP1 PUSH1 0x1 PUSH1 0x1 PUSH1 0xA0 SHL SUB DUP2 AND PUSH2 0x1F2A JUMPI PUSH1 0x1 PUSH1 0x1 PUSH1 0xA0 SHL SUB DUP3 AND PUSH1 0x0 SWAP1 DUP2 MSTORE PUSH1 0x20 DUP2 SWAP1 MSTORE PUSH1 0x40 SWAP1 KECCAK256 SLOAD PUSH1 0x1 PUSH1 0x1 PUSH1 0x70 SHL SUB AND DUP9 DUP2 GT PUSH2 0x1F23 JUMPI DUP1 DUP10 SUB PUSH2 0x1F26 JUMP JUMPDEST PUSH1 0x0 JUMPDEST SWAP4 POP POP JUMPDEST DUP2 PUSH1 0x1 PUSH1 0x1 PUSH1 0xA0 SHL SUB AND PUSH4 0x825D1FC DUP6 PUSH1 0x60 ADD MLOAD DUP14 DUP14 PUSH1 0x20 ADD MLOAD DUP14 DUP9 PUSH1 0x40 MLOAD DUP7 PUSH4 0xFFFFFFFF AND PUSH1 0xE0 SHL DUP2 MSTORE PUSH1 0x4 ADD PUSH2 0x1F65 SWAP5 SWAP4 SWAP3 SWAP2 SWAP1 PUSH2 0x3143 JUMP JUMPDEST PUSH1 0x0 PUSH1 0x40 MLOAD DUP1 DUP4 SUB DUP2 PUSH1 0x0 DUP9 DUP1 EXTCODESIZE ISZERO DUP1 ISZERO PUSH2 0x1F7F JUMPI PUSH1 0x0 DUP1 REVERT JUMPDEST POP DUP8 CALL SWAP4 POP POP POP POP DUP1 ISZERO PUSH2 0x1F91 JUMPI POP PUSH1 0x1 JUMPDEST PUSH2 0x200E JUMPI PUSH2 0x1F9D PUSH2 0x2F28 JUMP JUMPDEST DUP1 PUSH4 0x8C379A0 EQ ISZERO PUSH2 0x1FDC JUMPI POP PUSH2 0x1FB2 PUSH2 0x2F44 JUMP JUMPDEST DUP1 PUSH2 0x1FBD JUMPI POP PUSH2 0x1FDE JUMP JUMPDEST DUP13 PUSH1 0x0 DUP3 PUSH1 0x40 MLOAD PUSH3 0xFA072B PUSH1 0xE0 SHL DUP2 MSTORE PUSH1 0x4 ADD PUSH2 0x62F SWAP4 SWAP3 SWAP2 SWAP1 PUSH2 0x2FCD JUMP JUMPDEST POP JUMPDEST PUSH1 0x40 MLOAD PUSH3 0xFA072B PUSH1 0xE0 SHL DUP2 MSTORE PUSH1 0x4 DUP2 ADD DUP14 SWAP1 MSTORE PUSH1 0x0 PUSH1 0x24 DUP3 ADD DUP2 SWAP1 MSTORE PUSH1 0x60 PUSH1 0x44 DUP4 ADD MSTORE PUSH1 0x64 DUP3 ADD MSTORE PUSH1 0x84 ADD PUSH2 0x62F JUMP JUMPDEST PUSH1 0x1 PUSH1 0x1 PUSH1 0xA0 SHL SUB DUP2 AND PUSH2 0x20BA JUMPI PUSH1 0x1 PUSH1 0x1 PUSH1 0xA0 SHL SUB DUP3 AND PUSH1 0x0 SWAP1 DUP2 MSTORE PUSH1 0x20 DUP2 SWAP1 MSTORE PUSH1 0x40 SWAP1 KECCAK256 DUP1 SLOAD PUSH1 0x1 PUSH1 0x1 PUSH1 0x70 SHL SUB AND DUP1 DUP11 GT ISZERO PUSH2 0x209D JUMPI PUSH1 0x40 MLOAD PUSH3 0xFA072B PUSH1 0xE0 SHL DUP2 MSTORE PUSH1 0x4 DUP2 ADD DUP16 SWAP1 MSTORE PUSH1 0x0 PUSH1 0x24 DUP3 ADD MSTORE PUSH1 0x60 PUSH1 0x44 DUP3 ADD MSTORE PUSH1 0x19 PUSH1 0x64 DUP3 ADD MSTORE PUSH32 0x77616C6C6574206469646E2774207061792070726566756E6400000000000000 PUSH1 0x84 DUP3 ADD MSTORE PUSH1 0xA4 ADD PUSH2 0x62F JUMP JUMPDEST DUP2 SLOAD PUSH1 0x1 PUSH1 0x1 PUSH1 0x70 SHL SUB NOT AND SWAP1 DUP11 SWAP1 SUB PUSH1 0x1 PUSH1 0x1 PUSH1 0x70 SHL SUB AND OR SWAP1 SSTORE JUMPDEST GAS DUP6 SUB SWAP7 POP POP POP POP POP POP SWAP6 POP SWAP6 SWAP4 POP POP POP POP JUMP JUMPDEST DUP3 MLOAD PUSH1 0xA0 DUP2 ADD MLOAD PUSH1 0x1 PUSH1 0x1 PUSH1 0xA0 SHL SUB DUP2 AND PUSH1 0x0 SWAP1 DUP2 MSTORE PUSH1 0x20 DUP2 SWAP1 MSTORE PUSH1 0x40 SWAP1 KECCAK256 DUP1 SLOAD PUSH1 0x60 SWAP4 SWAP3 SWAP2 SWAP1 PUSH1 0x1 PUSH1 0x1 PUSH1 0x70 SHL SUB DUP2 AND SWAP1 PUSH1 0x1 PUSH1 0x70 SHL SWAP1 DIV PUSH1 0xFF AND DUP1 PUSH2 0x212B JUMPI DUP11 DUP5 PUSH1 0x40 MLOAD PUSH3 0xFA072B PUSH1 0xE0 SHL DUP2 MSTORE PUSH1 0x4 ADD PUSH2 0x62F SWAP3 SWAP2 SWAP1 PUSH2 0x317B JUMP JUMPDEST DUP8 DUP3 LT ISZERO PUSH2 0x2191 JUMPI PUSH1 0x40 MLOAD PUSH3 0xFA072B PUSH1 0xE0 SHL DUP2 MSTORE PUSH1 0x4 DUP2 ADD DUP13 SWAP1 MSTORE PUSH1 0x1 PUSH1 0x1 PUSH1 0xA0 SHL SUB DUP6 AND PUSH1 0x24 DUP3 ADD MSTORE PUSH1 0x60 PUSH1 0x44 DUP3 ADD MSTORE PUSH1 0x19 PUSH1 0x64 DUP3 ADD MSTORE PUSH32 0x7061796D6173746572206465706F73697420746F6F206C6F7700000000000000 PUSH1 0x84 DUP3 ADD MSTORE PUSH1 0xA4 ADD PUSH2 0x62F JUMP JUMPDEST DUP8 DUP3 SUB DUP4 PUSH1 0x0 ADD PUSH1 0x0 PUSH2 0x100 EXP DUP2 SLOAD DUP2 PUSH1 0x1 PUSH1 0x1 PUSH1 0x70 SHL SUB MUL NOT AND SWAP1 DUP4 PUSH1 0x1 PUSH1 0x1 PUSH1 0x70 SHL SUB AND MUL OR SWAP1 SSTORE POP PUSH1 0x0 DUP8 DUP7 PUSH1 0x60 ADD MLOAD SUB SWAP1 POP DUP5 PUSH1 0x1 PUSH1 0x1 PUSH1 0xA0 SHL SUB AND PUSH4 0xF465C77E DUP3 DUP14 DUP14 PUSH1 0x20 ADD MLOAD DUP14 PUSH1 0x40 MLOAD DUP6 PUSH4 0xFFFFFFFF AND PUSH1 0xE0 SHL DUP2 MSTORE PUSH1 0x4 ADD PUSH2 0x21FC SWAP4 SWAP3 SWAP2 SWAP1 PUSH2 0x31BA JUMP JUMPDEST PUSH1 0x0 PUSH1 0x40 MLOAD DUP1 DUP4 SUB DUP2 PUSH1 0x0 DUP9 DUP8 CALL SWAP4 POP POP POP POP DUP1 ISZERO PUSH2 0x223D JUMPI POP PUSH1 0x40 MLOAD RETURNDATASIZE PUSH1 0x0 DUP3 RETURNDATACOPY PUSH1 0x1F RETURNDATASIZE SWAP1 DUP2 ADD PUSH1 0x1F NOT AND DUP3 ADD PUSH1 0x40 MSTORE PUSH2 0x223A SWAP2 SWAP1 DUP2 ADD SWAP1 PUSH2 0x31DF JUMP JUMPDEST PUSH1 0x1 JUMPDEST PUSH2 0x22C1 JUMPI PUSH2 0x2249 PUSH2 0x2F28 JUMP JUMPDEST DUP1 PUSH4 0x8C379A0 EQ ISZERO PUSH2 0x2287 JUMPI POP PUSH2 0x225E PUSH2 0x2F44 JUMP JUMPDEST DUP1 PUSH2 0x2269 JUMPI POP PUSH2 0x2289 JUMP JUMPDEST DUP13 DUP7 DUP3 PUSH1 0x40 MLOAD PUSH3 0xFA072B PUSH1 0xE0 SHL DUP2 MSTORE PUSH1 0x4 ADD PUSH2 0x62F SWAP4 SWAP3 SWAP2 SWAP1 PUSH2 0x2FCD JUMP JUMPDEST POP JUMPDEST PUSH1 0x40 MLOAD PUSH3 0xFA072B PUSH1 0xE0 SHL DUP2 MSTORE PUSH1 0x4 DUP2 ADD DUP14 SWAP1 MSTORE PUSH1 0x1 PUSH1 0x1 PUSH1 0xA0 SHL SUB DUP7 AND PUSH1 0x24 DUP3 ADD MSTORE PUSH1 0x60 PUSH1 0x44 DUP3 ADD MSTORE PUSH1 0x0 PUSH1 0x64 DUP3 ADD MSTORE PUSH1 0x84 ADD PUSH2 0x62F JUMP JUMPDEST SWAP13 SWAP12 POP POP POP POP POP POP POP POP POP POP POP POP JUMP JUMPDEST PUSH1 0x0 DUP2 DUP4 LT PUSH2 0x22E0 JUMPI DUP2 PUSH2 0x1040 JUMP JUMPDEST POP SWAP1 SWAP2 SWAP1 POP JUMP JUMPDEST DUP1 ISZERO PUSH2 0x1BB4 JUMPI DUP3 MLOAD PUSH1 0x1 PUSH1 0x1 PUSH1 0xA0 SHL SUB AND EXTCODESIZE ISZERO PUSH2 0x2346 JUMPI PUSH1 0x40 MLOAD PUSH3 0x461BCD PUSH1 0xE5 SHL DUP2 MSTORE PUSH1 0x20 PUSH1 0x4 DUP3 ADD MSTORE PUSH1 0x1A PUSH1 0x24 DUP3 ADD MSTORE PUSH32 0x73656E64657220616C726561647920636F6E7374727563746564000000000000 PUSH1 0x44 DUP3 ADD MSTORE PUSH1 0x64 ADD PUSH2 0x62F JUMP JUMPDEST PUSH1 0x0 PUSH2 0x2352 DUP4 DUP4 PUSH2 0x1BB9 JUMP JUMPDEST SWAP1 POP DUP4 PUSH1 0x0 ADD MLOAD PUSH1 0x1 PUSH1 0x1 PUSH1 0xA0 SHL SUB AND DUP2 PUSH1 0x1 PUSH1 0x1 PUSH1 0xA0 SHL SUB AND EQ PUSH2 0x23C7 JUMPI PUSH1 0x40 MLOAD PUSH3 0x461BCD PUSH1 0xE5 SHL DUP2 MSTORE PUSH1 0x20 PUSH1 0x4 DUP3 ADD MSTORE PUSH1 0x25 PUSH1 0x24 DUP3 ADD MSTORE PUSH32 0x73656E64657220646F65736E2774206D6174636820696E6974436F6465206164 PUSH1 0x44 DUP3 ADD MSTORE PUSH5 0x6472657373 PUSH1 0xD8 SHL PUSH1 0x64 DUP3 ADD MSTORE PUSH1 0x84 ADD PUSH2 0x62F JUMP JUMPDEST PUSH1 0x1 PUSH1 0x1 PUSH1 0xA0 SHL SUB DUP2 AND EXTCODESIZE PUSH2 0xCF2 JUMPI PUSH1 0x40 MLOAD PUSH3 0x461BCD PUSH1 0xE5 SHL DUP2 MSTORE PUSH1 0x20 PUSH1 0x4 DUP3 ADD DUP2 SWAP1 MSTORE PUSH1 0x24 DUP3 ADD MSTORE PUSH32 0x696E6974436F6465206661696C656420746F206372656174652073656E646572 PUSH1 0x44 DUP3 ADD MSTORE PUSH1 0x64 ADD PUSH2 0x62F JUMP JUMPDEST PUSH1 0x40 MLOAD DUP1 PUSH1 0xA0 ADD PUSH1 0x40 MSTORE DUP1 PUSH2 0x2483 PUSH1 0x40 MLOAD DUP1 PUSH2 0x100 ADD PUSH1 0x40 MSTORE DUP1 PUSH1 0x0 PUSH1 0x1 PUSH1 0x1 PUSH1 0xA0 SHL SUB AND DUP2 MSTORE PUSH1 0x20 ADD PUSH1 0x0 DUP2 MSTORE PUSH1 0x20 ADD PUSH1 0x0 DUP2 MSTORE PUSH1 0x20 ADD PUSH1 0x0 DUP2 MSTORE PUSH1 0x20 ADD PUSH1 0x0 DUP2 MSTORE PUSH1 0x20 ADD PUSH1 0x0 PUSH1 0x1 PUSH1 0x1 PUSH1 0xA0 SHL SUB AND DUP2 MSTORE PUSH1 0x20 ADD PUSH1 0x0 DUP2 MSTORE PUSH1 0x20 ADD PUSH1 0x0 DUP2 MSTORE POP SWAP1 JUMP JUMPDEST DUP2 MSTORE PUSH1 0x20 ADD PUSH1 0x0 DUP1 NOT AND DUP2 MSTORE PUSH1 0x20 ADD PUSH1 0x0 DUP2 MSTORE PUSH1 0x20 ADD PUSH1 0x0 DUP2 MSTORE PUSH1 0x20 ADD PUSH1 0x0 DUP2 MSTORE POP SWAP1 JUMP JUMPDEST PUSH1 0x0 PUSH1 0x20 DUP3 DUP5 SUB SLT ISZERO PUSH2 0x24BA JUMPI PUSH1 0x0 DUP1 REVERT JUMPDEST DUP2 CALLDATALOAD PUSH4 0xFFFFFFFF DUP2 AND DUP2 EQ PUSH2 0x1040 JUMPI PUSH1 0x0 DUP1 REVERT JUMPDEST PUSH1 0x0 PUSH2 0x160 DUP3 DUP5 SUB SLT ISZERO PUSH2 0x24E1 JUMPI PUSH1 0x0 DUP1 REVERT JUMPDEST POP SWAP2 SWAP1 POP JUMP JUMPDEST PUSH1 0x0 PUSH1 0x20 DUP3 DUP5 SUB SLT ISZERO PUSH2 0x24F9 JUMPI PUSH1 0x0 DUP1 REVERT JUMPDEST DUP2 CALLDATALOAD PUSH1 0x1 PUSH1 0x1 PUSH1 0x40 SHL SUB DUP2 GT ISZERO PUSH2 0x250F JUMPI PUSH1 0x0 DUP1 REVERT JUMPDEST PUSH2 0x1CE3 DUP5 DUP3 DUP6 ADD PUSH2 0x24CE JUMP JUMPDEST PUSH1 0x0 DUP1 DUP4 PUSH1 0x1F DUP5 ADD SLT PUSH2 0x252D JUMPI PUSH1 0x0 DUP1 REVERT JUMPDEST POP DUP2 CALLDATALOAD PUSH1 0x1 PUSH1 0x1 PUSH1 0x40 SHL SUB DUP2 GT ISZERO PUSH2 0x2544 JUMPI PUSH1 0x0 DUP1 REVERT JUMPDEST PUSH1 0x20 DUP4 ADD SWAP2 POP DUP4 PUSH1 0x20 DUP3 DUP6 ADD ADD GT ISZERO PUSH2 0x255C JUMPI PUSH1 0x0 DUP1 REVERT JUMPDEST SWAP3 POP SWAP3 SWAP1 POP JUMP JUMPDEST PUSH4 0x4E487B71 PUSH1 0xE0 SHL PUSH1 0x0 MSTORE PUSH1 0x41 PUSH1 0x4 MSTORE PUSH1 0x24 PUSH1 0x0 REVERT JUMPDEST PUSH1 0xA0 DUP2 ADD DUP2 DUP2 LT PUSH1 0x1 PUSH1 0x1 PUSH1 0x40 SHL SUB DUP3 GT OR ISZERO PUSH2 0x2598 JUMPI PUSH2 0x2598 PUSH2 0x2563 JUMP JUMPDEST PUSH1 0x40 MSTORE POP JUMP JUMPDEST PUSH2 0x100 DUP2 ADD DUP2 DUP2 LT PUSH1 0x1 PUSH1 0x1 PUSH1 0x40 SHL SUB DUP3 GT OR ISZERO PUSH2 0x2598 JUMPI PUSH2 0x2598 PUSH2 0x2563 JUMP JUMPDEST PUSH1 0x1F DUP3 ADD PUSH1 0x1F NOT AND DUP2 ADD PUSH1 0x1 PUSH1 0x1 PUSH1 0x40 SHL SUB DUP2 GT DUP3 DUP3 LT OR ISZERO PUSH2 0x25E3 JUMPI PUSH2 0x25E3 PUSH2 0x2563 JUMP JUMPDEST PUSH1 0x40 MSTORE POP POP JUMP JUMPDEST PUSH1 0x1 PUSH1 0x1 PUSH1 0xA0 SHL SUB DUP2 AND DUP2 EQ PUSH2 0x25FF JUMPI PUSH1 0x0 DUP1 REVERT JUMPDEST POP JUMP JUMPDEST DUP1 CALLDATALOAD PUSH2 0x260D DUP2 PUSH2 0x25EA JUMP JUMPDEST SWAP2 SWAP1 POP JUMP JUMPDEST PUSH1 0x0 DUP1 PUSH1 0x0 DUP1 PUSH1 0x0 DUP6 DUP8 SUB PUSH2 0x1C0 DUP2 SLT ISZERO PUSH2 0x262C JUMPI PUSH1 0x0 DUP1 REVERT JUMPDEST DUP7 CALLDATALOAD PUSH1 0x1 PUSH1 0x1 PUSH1 0x40 SHL SUB DUP1 DUP3 GT ISZERO PUSH2 0x2643 JUMPI PUSH1 0x0 DUP1 REVERT JUMPDEST PUSH2 0x264F DUP11 DUP4 DUP12 ADD PUSH2 0x251B JUMP JUMPDEST SWAP1 SWAP9 POP SWAP7 POP PUSH1 0x1F NOT SWAP3 SWAP1 SWAP3 ADD SWAP2 PUSH2 0x180 SWAP2 POP DUP2 DUP4 SLT ISZERO PUSH2 0x266E JUMPI PUSH1 0x0 DUP1 REVERT JUMPDEST PUSH1 0x40 MLOAD PUSH2 0x267A DUP2 PUSH2 0x2579 JUMP JUMPDEST PUSH2 0x100 DUP1 DUP6 SLT ISZERO PUSH2 0x268A JUMPI PUSH1 0x0 DUP1 REVERT JUMPDEST PUSH1 0x40 MLOAD SWAP5 POP PUSH2 0x2698 DUP6 PUSH2 0x259E JUMP JUMPDEST PUSH2 0x26A4 PUSH1 0x20 DUP13 ADD PUSH2 0x2602 JUMP JUMPDEST DUP6 MSTORE PUSH1 0x40 DUP12 ADD CALLDATALOAD PUSH1 0x20 DUP7 ADD MSTORE PUSH1 0x60 DUP12 ADD CALLDATALOAD PUSH1 0x40 DUP7 ADD MSTORE PUSH1 0x80 DUP12 ADD CALLDATALOAD PUSH1 0x60 DUP7 ADD MSTORE PUSH1 0xA0 DUP12 ADD CALLDATALOAD PUSH1 0x80 DUP7 ADD MSTORE PUSH2 0x26DA PUSH1 0xC0 DUP13 ADD PUSH2 0x2602 JUMP JUMPDEST PUSH1 0xA0 DUP7 ADD MSTORE PUSH1 0xE0 DUP12 DUP2 ADD CALLDATALOAD PUSH1 0xC0 DUP8 ADD MSTORE SWAP1 DUP12 ADD CALLDATALOAD SWAP1 DUP6 ADD MSTORE SWAP3 DUP4 MSTORE PUSH2 0x120 DUP10 ADD CALLDATALOAD PUSH1 0x20 DUP5 ADD MSTORE PUSH2 0x140 DUP10 ADD CALLDATALOAD PUSH1 0x40 DUP5 ADD MSTORE PUSH2 0x160 DUP10 ADD CALLDATALOAD PUSH1 0x60 DUP5 ADD MSTORE DUP2 DUP10 ADD CALLDATALOAD PUSH1 0x80 DUP5 ADD MSTORE SWAP2 SWAP5 POP PUSH2 0x1A0 DUP9 ADD CALLDATALOAD SWAP2 DUP1 DUP4 GT ISZERO PUSH2 0x2736 JUMPI PUSH1 0x0 DUP1 REVERT JUMPDEST POP POP PUSH2 0x2744 DUP9 DUP3 DUP10 ADD PUSH2 0x251B JUMP JUMPDEST SWAP7 SWAP10 SWAP6 SWAP9 POP SWAP4 SWAP7 POP SWAP3 SWAP5 SWAP4 SWAP3 POP POP POP JUMP JUMPDEST PUSH1 0x0 DUP1 DUP4 PUSH1 0x1F DUP5 ADD SLT PUSH2 0x2767 JUMPI PUSH1 0x0 DUP1 REVERT JUMPDEST POP DUP2 CALLDATALOAD PUSH1 0x1 PUSH1 0x1 PUSH1 0x40 SHL SUB DUP2 GT ISZERO PUSH2 0x277E JUMPI PUSH1 0x0 DUP1 REVERT JUMPDEST PUSH1 0x20 DUP4 ADD SWAP2 POP DUP4 PUSH1 0x20 DUP3 PUSH1 0x5 SHL DUP6 ADD ADD GT ISZERO PUSH2 0x255C JUMPI PUSH1 0x0 DUP1 REVERT JUMPDEST PUSH1 0x0 DUP1 PUSH1 0x0 PUSH1 0x40 DUP5 DUP7 SUB SLT ISZERO PUSH2 0x27AE JUMPI PUSH1 0x0 DUP1 REVERT JUMPDEST DUP4 CALLDATALOAD PUSH1 0x1 PUSH1 0x1 PUSH1 0x40 SHL SUB DUP2 GT ISZERO PUSH2 0x27C4 JUMPI PUSH1 0x0 DUP1 REVERT JUMPDEST PUSH2 0x27D0 DUP7 DUP3 DUP8 ADD PUSH2 0x2755 JUMP JUMPDEST SWAP1 SWAP5 POP SWAP3 POP POP PUSH1 0x20 DUP5 ADD CALLDATALOAD PUSH2 0x27E4 DUP2 PUSH2 0x25EA JUMP JUMPDEST DUP1 SWAP2 POP POP SWAP3 POP SWAP3 POP SWAP3 JUMP JUMPDEST PUSH1 0x0 DUP1 PUSH1 0x40 DUP4 DUP6 SUB SLT ISZERO PUSH2 0x2802 JUMPI PUSH1 0x0 DUP1 REVERT JUMPDEST DUP3 CALLDATALOAD PUSH2 0x280D DUP2 PUSH2 0x25EA JUMP JUMPDEST SWAP5 PUSH1 0x20 SWAP4 SWAP1 SWAP4 ADD CALLDATALOAD SWAP4 POP POP POP JUMP JUMPDEST PUSH1 0x0 PUSH1 0x20 DUP3 DUP5 SUB SLT ISZERO PUSH2 0x282D JUMPI PUSH1 0x0 DUP1 REVERT JUMPDEST DUP2 CALLDATALOAD PUSH2 0x1040 DUP2 PUSH2 0x25EA JUMP JUMPDEST PUSH1 0x0 DUP1 PUSH1 0x20 DUP4 DUP6 SUB SLT ISZERO PUSH2 0x284B JUMPI PUSH1 0x0 DUP1 REVERT JUMPDEST DUP3 CALLDATALOAD PUSH1 0x1 PUSH1 0x1 PUSH1 0x40 SHL SUB DUP2 GT ISZERO PUSH2 0x2861 JUMPI PUSH1 0x0 DUP1 REVERT JUMPDEST PUSH2 0x286D DUP6 DUP3 DUP7 ADD PUSH2 0x251B JUMP JUMPDEST SWAP1 SWAP7 SWAP1 SWAP6 POP SWAP4 POP POP POP POP JUMP JUMPDEST PUSH1 0x20 DUP1 DUP3 MSTORE DUP3 MLOAD DUP3 DUP3 ADD DUP2 SWAP1 MSTORE PUSH1 0x0 SWAP2 SWAP1 DUP5 DUP3 ADD SWAP1 PUSH1 0x40 DUP6 ADD SWAP1 DUP5 JUMPDEST DUP2 DUP2 LT ISZERO PUSH2 0x28B1 JUMPI DUP4 MLOAD DUP4 MSTORE SWAP3 DUP5 ADD SWAP3 SWAP2 DUP5 ADD SWAP2 PUSH1 0x1 ADD PUSH2 0x2895 JUMP JUMPDEST POP SWAP1 SWAP7 SWAP6 POP POP POP POP POP POP JUMP JUMPDEST PUSH1 0x0 DUP1 PUSH1 0x40 DUP4 DUP6 SUB SLT ISZERO PUSH2 0x28D0 JUMPI PUSH1 0x0 DUP1 REVERT JUMPDEST DUP3 CALLDATALOAD PUSH1 0x1 PUSH1 0x1 PUSH1 0x40 SHL SUB DUP2 GT ISZERO PUSH2 0x28E6 JUMPI PUSH1 0x0 DUP1 REVERT JUMPDEST PUSH2 0x28F2 DUP6 DUP3 DUP7 ADD PUSH2 0x24CE JUMP JUMPDEST SWAP3 POP POP PUSH1 0x20 DUP4 ADD CALLDATALOAD DUP1 ISZERO ISZERO DUP2 EQ PUSH2 0x2908 JUMPI PUSH1 0x0 DUP1 REVERT JUMPDEST DUP1 SWAP2 POP POP SWAP3 POP SWAP3 SWAP1 POP JUMP JUMPDEST PUSH1 0x0 JUMPDEST DUP4 DUP2 LT ISZERO PUSH2 0x292E JUMPI DUP2 DUP2 ADD MLOAD DUP4 DUP3 ADD MSTORE PUSH1 0x20 ADD PUSH2 0x2916 JUMP JUMPDEST DUP4 DUP2 GT ISZERO PUSH2 0xCF2 JUMPI POP POP PUSH1 0x0 SWAP2 ADD MSTORE JUMP JUMPDEST PUSH1 0x0 DUP2 MLOAD DUP1 DUP5 MSTORE PUSH2 0x2957 DUP2 PUSH1 0x20 DUP7 ADD PUSH1 0x20 DUP7 ADD PUSH2 0x2913 JUMP JUMPDEST PUSH1 0x1F ADD PUSH1 0x1F NOT AND SWAP3 SWAP1 SWAP3 ADD PUSH1 0x20 ADD SWAP3 SWAP2 POP POP JUMP JUMPDEST DUP7 DUP2 MSTORE DUP6 PUSH1 0x20 DUP3 ADD MSTORE PUSH1 0x1 DUP1 PUSH1 0xA0 SHL SUB DUP6 AND PUSH1 0x40 DUP3 ADD MSTORE PUSH1 0xC0 PUSH1 0x60 DUP3 ADD MSTORE PUSH1 0x0 PUSH2 0x2998 PUSH1 0xC0 DUP4 ADD DUP7 PUSH2 0x293F JUMP JUMPDEST DUP3 DUP2 SUB PUSH1 0x80 DUP5 ADD MSTORE PUSH2 0x29AA DUP2 DUP7 PUSH2 0x293F JUMP JUMPDEST SWAP1 POP DUP3 DUP2 SUB PUSH1 0xA0 DUP5 ADD MSTORE PUSH2 0x29BE DUP2 DUP6 PUSH2 0x293F JUMP JUMPDEST SWAP10 SWAP9 POP POP POP POP POP POP POP POP POP JUMP JUMPDEST PUSH4 0x4E487B71 PUSH1 0xE0 SHL PUSH1 0x0 MSTORE PUSH1 0x11 PUSH1 0x4 MSTORE PUSH1 0x24 PUSH1 0x0 REVERT JUMPDEST PUSH1 0x0 DUP3 NOT DUP3 GT ISZERO PUSH2 0x29F4 JUMPI PUSH2 0x29F4 PUSH2 0x29CB JUMP JUMPDEST POP ADD SWAP1 JUMP JUMPDEST DUP2 DUP4 DUP3 CALLDATACOPY PUSH1 0x0 SWAP2 ADD SWAP1 DUP2 MSTORE SWAP2 SWAP1 POP JUMP JUMPDEST DUP3 DUP2 MSTORE PUSH1 0x40 PUSH1 0x20 DUP3 ADD MSTORE PUSH1 0x0 PUSH2 0x1CE3 PUSH1 0x40 DUP4 ADD DUP5 PUSH2 0x293F JUMP JUMPDEST PUSH4 0x4E487B71 PUSH1 0xE0 SHL PUSH1 0x0 MSTORE PUSH1 0x32 PUSH1 0x4 MSTORE PUSH1 0x24 PUSH1 0x0 REVERT JUMPDEST PUSH1 0x0 DUP3 CALLDATALOAD PUSH2 0x15E NOT DUP4 CALLDATASIZE SUB ADD DUP2 SLT PUSH2 0x2A4F JUMPI PUSH1 0x0 DUP1 REVERT JUMPDEST SWAP2 SWAP1 SWAP2 ADD SWAP3 SWAP2 POP POP JUMP JUMPDEST PUSH1 0x0 DUP3 DUP3 LT ISZERO PUSH2 0x2A6B JUMPI PUSH2 0x2A6B PUSH2 0x29CB JUMP JUMPDEST POP SUB SWAP1 JUMP JUMPDEST PUSH1 0x0 DUP3 CALLDATALOAD PUSH1 0x5E NOT DUP4 CALLDATASIZE SUB ADD DUP2 SLT PUSH2 0x2A4F JUMPI PUSH1 0x0 DUP1 REVERT JUMPDEST PUSH1 0x0 DUP1 DUP4 CALLDATALOAD PUSH1 0x1E NOT DUP5 CALLDATASIZE SUB ADD DUP2 SLT PUSH2 0x2A9D JUMPI PUSH1 0x0 DUP1 REVERT JUMPDEST DUP4 ADD DUP1 CALLDATALOAD SWAP2 POP PUSH1 0x1 PUSH1 0x1 PUSH1 0x40 SHL SUB DUP3 GT ISZERO PUSH2 0x2AB7 JUMPI PUSH1 0x0 DUP1 REVERT JUMPDEST PUSH1 0x20 ADD SWAP2 POP PUSH1 0x5 DUP2 SWAP1 SHL CALLDATASIZE SUB DUP3 SGT ISZERO PUSH2 0x255C JUMPI PUSH1 0x0 DUP1 REVERT JUMPDEST PUSH1 0x0 PUSH1 0x0 NOT DUP3 EQ ISZERO PUSH2 0x2AE3 JUMPI PUSH2 0x2AE3 PUSH2 0x29CB JUMP JUMPDEST POP PUSH1 0x1 ADD SWAP1 JUMP JUMPDEST PUSH1 0x0 DUP1 DUP4 CALLDATALOAD PUSH1 0x1E NOT DUP5 CALLDATASIZE SUB ADD DUP2 SLT PUSH2 0x2B01 JUMPI PUSH1 0x0 DUP1 REVERT JUMPDEST DUP4 ADD DUP1 CALLDATALOAD SWAP2 POP PUSH1 0x1 PUSH1 0x1 PUSH1 0x40 SHL SUB DUP3 GT ISZERO PUSH2 0x2B1B JUMPI PUSH1 0x0 DUP1 REVERT JUMPDEST PUSH1 0x20 ADD SWAP2 POP CALLDATASIZE DUP2 SWAP1 SUB DUP3 SGT ISZERO PUSH2 0x255C JUMPI PUSH1 0x0 DUP1 REVERT JUMPDEST PUSH1 0x0 DUP1 DUP4 CALLDATALOAD PUSH1 0x1E NOT DUP5 CALLDATASIZE SUB ADD DUP2 SLT PUSH2 0x2B47 JUMPI PUSH1 0x0 DUP1 REVERT JUMPDEST DUP4 ADD PUSH1 0x20 DUP2 ADD SWAP3 POP CALLDATALOAD SWAP1 POP PUSH1 0x1 PUSH1 0x1 PUSH1 0x40 SHL SUB DUP2 GT ISZERO PUSH2 0x2B66 JUMPI PUSH1 0x0 DUP1 REVERT JUMPDEST DUP1 CALLDATASIZE SUB DUP4 SGT ISZERO PUSH2 0x255C JUMPI PUSH1 0x0 DUP1 REVERT JUMPDEST DUP2 DUP4 MSTORE DUP2 DUP2 PUSH1 0x20 DUP6 ADD CALLDATACOPY POP PUSH1 0x0 DUP3 DUP3 ADD PUSH1 0x20 SWAP1 DUP2 ADD SWAP2 SWAP1 SWAP2 MSTORE PUSH1 0x1F SWAP1 SWAP2 ADD PUSH1 0x1F NOT AND SWAP1 SWAP2 ADD ADD SWAP1 JUMP JUMPDEST PUSH1 0x0 PUSH2 0x160 PUSH2 0x2BBD DUP5 PUSH2 0x2BB0 DUP6 PUSH2 0x2602 JUMP JUMPDEST PUSH1 0x1 PUSH1 0x1 PUSH1 0xA0 SHL SUB AND SWAP1 MSTORE JUMP JUMPDEST PUSH1 0x20 DUP4 ADD CALLDATALOAD PUSH1 0x20 DUP6 ADD MSTORE PUSH2 0x2BD4 PUSH1 0x40 DUP5 ADD DUP5 PUSH2 0x2B30 JUMP JUMPDEST DUP3 PUSH1 0x40 DUP8 ADD MSTORE PUSH2 0x2BE7 DUP4 DUP8 ADD DUP3 DUP5 PUSH2 0x2B75 JUMP JUMPDEST SWAP3 POP POP POP PUSH2 0x2BF8 PUSH1 0x60 DUP5 ADD DUP5 PUSH2 0x2B30 JUMP JUMPDEST DUP6 DUP4 SUB PUSH1 0x60 DUP8 ADD MSTORE PUSH2 0x2C0B DUP4 DUP3 DUP5 PUSH2 0x2B75 JUMP JUMPDEST SWAP3 POP POP POP PUSH1 0x80 DUP4 ADD CALLDATALOAD PUSH1 0x80 DUP6 ADD MSTORE PUSH1 0xA0 DUP4 ADD CALLDATALOAD PUSH1 0xA0 DUP6 ADD MSTORE PUSH1 0xC0 DUP4 ADD CALLDATALOAD PUSH1 0xC0 DUP6 ADD MSTORE PUSH1 0xE0 DUP4 ADD CALLDATALOAD PUSH1 0xE0 DUP6 ADD MSTORE PUSH2 0x100 DUP1 DUP5 ADD CALLDATALOAD DUP2 DUP7 ADD MSTORE POP PUSH2 0x120 PUSH2 0x2C52 DUP2 DUP6 ADD DUP6 PUSH2 0x2B30 JUMP JUMPDEST DUP7 DUP5 SUB DUP4 DUP9 ADD MSTORE PUSH2 0x2C64 DUP5 DUP3 DUP5 PUSH2 0x2B75 JUMP JUMPDEST SWAP4 POP POP POP POP PUSH2 0x140 PUSH2 0x2C78 DUP2 DUP6 ADD DUP6 PUSH2 0x2B30 JUMP JUMPDEST DUP7 DUP5 SUB DUP4 DUP9 ADD MSTORE PUSH2 0x2C8A DUP5 DUP3 DUP5 PUSH2 0x2B75 JUMP JUMPDEST SWAP8 SWAP7 POP POP POP POP POP POP POP JUMP JUMPDEST PUSH1 0x40 DUP1 DUP3 MSTORE DUP2 ADD DUP5 SWAP1 MSTORE PUSH1 0x0 PUSH1 0x60 PUSH1 0x5 DUP7 SWAP1 SHL DUP4 ADD DUP2 ADD SWAP1 DUP4 ADD DUP8 DUP4 DUP1 JUMPDEST DUP10 DUP2 LT ISZERO PUSH2 0x2CFB JUMPI DUP7 DUP6 SUB PUSH1 0x5F NOT ADD DUP5 MSTORE DUP3 CALLDATALOAD CALLDATASIZE DUP13 SWAP1 SUB PUSH2 0x15E NOT ADD DUP2 SLT PUSH2 0x2CD9 JUMPI DUP3 DUP4 REVERT JUMPDEST PUSH2 0x2CE5 DUP7 DUP14 DUP4 ADD PUSH2 0x2B9E JUMP JUMPDEST SWAP6 POP POP PUSH1 0x20 SWAP4 DUP5 ADD SWAP4 SWAP3 SWAP1 SWAP3 ADD SWAP2 PUSH1 0x1 ADD PUSH2 0x2CB3 JUMP JUMPDEST POP POP POP POP DUP3 DUP2 SUB PUSH1 0x20 DUP5 ADD MSTORE PUSH2 0x2C8A DUP2 DUP6 DUP8 PUSH2 0x2B75 JUMP JUMPDEST PUSH1 0x20 DUP1 DUP3 MSTORE PUSH1 0x2C SWAP1 DUP3 ADD MSTORE PUSH32 0x6D7573742062652063616C6C6564206F66662D636861696E2077697468206672 PUSH1 0x40 DUP3 ADD MSTORE PUSH12 0x37B69EBD32B93796B0B23239 PUSH1 0xA1 SHL PUSH1 0x60 DUP3 ADD MSTORE PUSH1 0x80 ADD SWAP1 JUMP JUMPDEST PUSH1 0x20 DUP2 MSTORE PUSH1 0x0 PUSH2 0x2D88 PUSH1 0x20 DUP4 ADD PUSH1 0xA DUP2 MSTORE PUSH10 0x1B9BDD081CDD185AD959 PUSH1 0xB2 SHL PUSH1 0x20 DUP3 ADD MSTORE PUSH1 0x40 ADD SWAP1 JUMP JUMPDEST SWAP3 SWAP2 POP POP JUMP JUMPDEST PUSH1 0x0 PUSH1 0x1 PUSH1 0x1 PUSH1 0x40 SHL SUB DUP1 DUP4 AND DUP2 DUP6 AND DUP1 DUP4 SUB DUP3 GT ISZERO PUSH2 0x2DB0 JUMPI PUSH2 0x2DB0 PUSH2 0x29CB JUMP JUMPDEST ADD SWAP5 SWAP4 POP POP POP POP JUMP JUMPDEST PUSH1 0x40 DUP2 MSTORE PUSH1 0x0 PUSH2 0x2DCC PUSH1 0x40 DUP4 ADD DUP6 PUSH2 0x2B9E JUMP JUMPDEST SWAP1 POP DUP3 ISZERO ISZERO PUSH1 0x20 DUP4 ADD MSTORE SWAP4 SWAP3 POP POP POP JUMP JUMPDEST PUSH1 0x0 DUP3 PUSH1 0x1F DUP4 ADD SLT PUSH2 0x2DEE JUMPI PUSH1 0x0 DUP1 REVERT JUMPDEST DUP2 MLOAD PUSH1 0x1 PUSH1 0x1 PUSH1 0x40 SHL SUB DUP2 GT ISZERO PUSH2 0x2E07 JUMPI PUSH2 0x2E07 PUSH2 0x2563 JUMP JUMPDEST PUSH1 0x40 MLOAD PUSH2 0x2E1E PUSH1 0x1F DUP4 ADD PUSH1 0x1F NOT AND PUSH1 0x20 ADD DUP3 PUSH2 0x25BE JUMP JUMPDEST DUP2 DUP2 MSTORE DUP5 PUSH1 0x20 DUP4 DUP7 ADD ADD GT ISZERO PUSH2 0x2E33 JUMPI PUSH1 0x0 DUP1 REVERT JUMPDEST PUSH2 0x1CE3 DUP3 PUSH1 0x20 DUP4 ADD PUSH1 0x20 DUP8 ADD PUSH2 0x2913 JUMP JUMPDEST PUSH1 0x0 DUP1 PUSH1 0x0 PUSH1 0x60 DUP5 DUP7 SUB SLT ISZERO PUSH2 0x2E59 JUMPI PUSH1 0x0 DUP1 REVERT JUMPDEST DUP4 MLOAD PUSH1 0x1 PUSH1 0x1 PUSH1 0x40 SHL SUB DUP1 DUP3 GT ISZERO PUSH2 0x2E70 JUMPI PUSH1 0x0 DUP1 REVERT JUMPDEST PUSH2 0x2E7C DUP8 DUP4 DUP9 ADD PUSH2 0x2DDD JUMP JUMPDEST SWAP5 POP PUSH1 0x20 DUP7 ADD MLOAD SWAP2 POP DUP1 DUP3 GT ISZERO PUSH2 0x2E92 JUMPI PUSH1 0x0 DUP1 REVERT JUMPDEST PUSH2 0x2E9E DUP8 DUP4 DUP9 ADD PUSH2 0x2DDD JUMP JUMPDEST SWAP4 POP PUSH1 0x40 DUP7 ADD MLOAD SWAP2 POP DUP1 DUP3 GT ISZERO PUSH2 0x2EB4 JUMPI PUSH1 0x0 DUP1 REVERT JUMPDEST POP PUSH2 0x2EC1 DUP7 DUP3 DUP8 ADD PUSH2 0x2DDD JUMP JUMPDEST SWAP2 POP POP SWAP3 POP SWAP3 POP SWAP3 JUMP JUMPDEST PUSH4 0x4E487B71 PUSH1 0xE0 SHL PUSH1 0x0 MSTORE PUSH1 0x21 PUSH1 0x4 MSTORE PUSH1 0x24 PUSH1 0x0 REVERT JUMPDEST PUSH1 0x0 PUSH1 0x3 DUP6 LT PUSH2 0x2F01 JUMPI PUSH4 0x4E487B71 PUSH1 0xE0 SHL PUSH1 0x0 MSTORE PUSH1 0x21 PUSH1 0x4 MSTORE PUSH1 0x24 PUSH1 0x0 REVERT JUMPDEST DUP5 DUP3 MSTORE PUSH1 0x60 PUSH1 0x20 DUP4 ADD MSTORE PUSH2 0x2F18 PUSH1 0x60 DUP4 ADD DUP6 PUSH2 0x293F JUMP JUMPDEST SWAP1 POP DUP3 PUSH1 0x40 DUP4 ADD MSTORE SWAP5 SWAP4 POP POP POP POP JUMP JUMPDEST PUSH1 0x0 PUSH1 0x3 RETURNDATASIZE GT ISZERO PUSH2 0x2F41 JUMPI PUSH1 0x4 PUSH1 0x0 DUP1 RETURNDATACOPY POP PUSH1 0x0 MLOAD PUSH1 0xE0 SHR JUMPDEST SWAP1 JUMP JUMPDEST PUSH1 0x0 PUSH1 0x44 RETURNDATASIZE LT ISZERO PUSH2 0x2F52 JUMPI SWAP1 JUMP JUMPDEST PUSH1 0x40 MLOAD PUSH1 0x3 NOT RETURNDATASIZE DUP2 ADD PUSH1 0x4 DUP4 RETURNDATACOPY DUP2 MLOAD RETURNDATASIZE PUSH1 0x1 PUSH1 0x1 PUSH1 0x40 SHL SUB DUP2 PUSH1 0x24 DUP5 ADD GT DUP2 DUP5 GT OR ISZERO PUSH2 0x2F81 JUMPI POP POP POP POP POP SWAP1 JUMP JUMPDEST DUP3 DUP6 ADD SWAP2 POP DUP2 MLOAD DUP2 DUP2 GT ISZERO PUSH2 0x2F99 JUMPI POP POP POP POP POP POP SWAP1 JUMP JUMPDEST DUP5 RETURNDATASIZE DUP8 ADD ADD PUSH1 0x20 DUP3 DUP6 ADD ADD GT ISZERO PUSH2 0x2FB3 JUMPI POP POP POP POP POP POP SWAP1 JUMP JUMPDEST PUSH2 0x2FC2 PUSH1 0x20 DUP3 DUP7 ADD ADD DUP8 PUSH2 0x25BE JUMP JUMPDEST POP SWAP1 SWAP6 SWAP5 POP POP POP POP POP JUMP JUMPDEST DUP4 DUP2 MSTORE PUSH1 0x1 PUSH1 0x1 PUSH1 0xA0 SHL SUB DUP4 AND PUSH1 0x20 DUP3 ADD MSTORE PUSH1 0x60 PUSH1 0x40 DUP3 ADD DUP2 SWAP1 MSTORE PUSH1 0x0 SWAP1 PUSH2 0x2FF7 SWAP1 DUP4 ADD DUP5 PUSH2 0x293F JUMP JUMPDEST SWAP6 SWAP5 POP POP POP POP POP JUMP JUMPDEST PUSH1 0x0 PUSH2 0x1C0 DUP1 DUP4 MSTORE PUSH2 0x3015 DUP2 DUP5 ADD DUP8 DUP10 PUSH2 0x2B75 JUMP JUMPDEST SWAP1 POP DUP5 MLOAD PUSH1 0x1 DUP1 PUSH1 0xA0 SHL SUB DUP1 DUP3 MLOAD AND PUSH1 0x20 DUP7 ADD MSTORE PUSH1 0x20 DUP3 ADD MLOAD PUSH1 0x40 DUP7 ADD MSTORE PUSH1 0x40 DUP3 ADD MLOAD PUSH1 0x60 DUP7 ADD MSTORE PUSH1 0x60 DUP3 ADD MLOAD PUSH1 0x80 DUP7 ADD MSTORE PUSH1 0x80 DUP3 ADD MLOAD PUSH1 0xA0 DUP7 ADD MSTORE DUP1 PUSH1 0xA0 DUP4 ADD MLOAD AND PUSH1 0xC0 DUP7 ADD MSTORE POP PUSH1 0xC0 DUP2 ADD MLOAD PUSH1 0xE0 DUP6 ADD MSTORE PUSH1 0xE0 DUP2 ADD MLOAD PUSH2 0x100 DUP6 ADD MSTORE POP PUSH1 0x20 DUP6 ADD MLOAD PUSH2 0x120 DUP5 ADD MSTORE PUSH1 0x40 DUP6 ADD MLOAD PUSH2 0x140 DUP5 ADD MSTORE PUSH1 0x60 DUP6 ADD MLOAD PUSH2 0x160 DUP5 ADD MSTORE PUSH1 0x80 DUP6 ADD MLOAD PUSH2 0x180 DUP5 ADD MSTORE DUP3 DUP2 SUB PUSH2 0x1A0 DUP5 ADD MSTORE PUSH2 0x2C8A DUP2 DUP6 PUSH2 0x293F JUMP JUMPDEST PUSH1 0x0 PUSH1 0x20 DUP3 DUP5 SUB SLT ISZERO PUSH2 0x30C5 JUMPI PUSH1 0x0 DUP1 REVERT JUMPDEST POP MLOAD SWAP2 SWAP1 POP JUMP JUMPDEST PUSH1 0x0 DUP1 DUP6 DUP6 GT ISZERO PUSH2 0x30DC JUMPI PUSH1 0x0 DUP1 REVERT JUMPDEST DUP4 DUP7 GT ISZERO PUSH2 0x30E9 JUMPI PUSH1 0x0 DUP1 REVERT JUMPDEST POP POP DUP3 ADD SWAP4 SWAP2 SWAP1 SWAP3 SUB SWAP2 POP JUMP JUMPDEST PUSH1 0x1 PUSH1 0x1 PUSH1 0x60 SHL SUB NOT DUP2 CALLDATALOAD DUP2 DUP2 AND SWAP2 PUSH1 0x14 DUP6 LT ISZERO PUSH2 0x311E JUMPI DUP1 DUP2 DUP7 PUSH1 0x14 SUB PUSH1 0x3 SHL SHL DUP4 AND AND SWAP3 POP JUMPDEST POP POP SWAP3 SWAP2 POP POP JUMP JUMPDEST PUSH1 0x0 PUSH1 0x20 DUP3 DUP5 SUB SLT ISZERO PUSH2 0x3138 JUMPI PUSH1 0x0 DUP1 REVERT JUMPDEST DUP2 MLOAD PUSH2 0x1040 DUP2 PUSH2 0x25EA JUMP JUMPDEST PUSH1 0x80 DUP2 MSTORE PUSH1 0x0 PUSH2 0x3156 PUSH1 0x80 DUP4 ADD DUP8 PUSH2 0x2B9E JUMP JUMPDEST PUSH1 0x20 DUP4 ADD SWAP6 SWAP1 SWAP6 MSTORE POP PUSH1 0x1 PUSH1 0x1 PUSH1 0xA0 SHL SUB SWAP3 SWAP1 SWAP3 AND PUSH1 0x40 DUP4 ADD MSTORE PUSH1 0x60 SWAP1 SWAP2 ADD MSTORE SWAP2 SWAP1 POP JUMP JUMPDEST DUP3 DUP2 MSTORE PUSH1 0x1 PUSH1 0x1 PUSH1 0xA0 SHL SUB DUP3 AND PUSH1 0x20 DUP3 ADD MSTORE PUSH1 0x60 PUSH1 0x40 DUP3 ADD DUP2 SWAP1 MSTORE PUSH1 0xA SWAP1 DUP3 ADD MSTORE PUSH10 0x1B9BDD081CDD185AD959 PUSH1 0xB2 SHL PUSH1 0x80 DUP3 ADD MSTORE PUSH1 0x0 PUSH1 0xA0 DUP3 ADD PUSH2 0x1CE3 JUMP JUMPDEST PUSH1 0x60 DUP2 MSTORE PUSH1 0x0 PUSH2 0x31CD PUSH1 0x60 DUP4 ADD DUP7 PUSH2 0x2B9E JUMP JUMPDEST PUSH1 0x20 DUP4 ADD SWAP5 SWAP1 SWAP5 MSTORE POP PUSH1 0x40 ADD MSTORE SWAP2 SWAP1 POP JUMP JUMPDEST PUSH1 0x0 PUSH1 0x20 DUP3 DUP5 SUB SLT ISZERO PUSH2 0x31F1 JUMPI PUSH1 0x0 DUP1 REVERT JUMPDEST DUP2 MLOAD PUSH1 0x1 PUSH1 0x1 PUSH1 0x40 SHL SUB DUP2 GT ISZERO PUSH2 0x3207 JUMPI PUSH1 0x0 DUP1 REVERT JUMPDEST PUSH2 0x1CE3 DUP5 DUP3 DUP6 ADD PUSH2 0x2DDD JUMP INVALID LOG2 PUSH5 0x6970667358 0x22 SLT KECCAK256 ORIGIN SWAP16 0xBA SGT 0xB2 MSIZE 0xA6 0xA6 0xF9 0xA8 0xFB DIFFICULTY REVERT 0xFB DUP7 0x28 0xDC 0xCF 0xD2 0xBD SHL PUSH18 0xDBF68AC412D3F5CBC18164736F6C63430008 0xC STOP CALLER "
        },
        "methodIdentifiers": {
          "addStake(uint32)": "0396cb60",
          "balanceOf(address)": "70a08231",
          "depositTo(address)": "b760faf9",
          "deposits(address)": "fc7e286d",
          "getDepositInfo(address)": "5287ce12",
          "getRequestId((address,uint256,bytes,bytes,uint256,uint256,uint256,uint256,uint256,bytes,bytes))": "14e72634",
          "getSenderAddress(bytes)": "9b249f69",
          "getSenderStorage(address)": "ec8b5dbf",
          "handleAggregatedOps(((address,uint256,bytes,bytes,uint256,uint256,uint256,uint256,uint256,bytes,bytes)[],address,bytes)[],address)": "4b1d7cf5",
          "handleOps((address,uint256,bytes,bytes,uint256,uint256,uint256,uint256,uint256,bytes,bytes)[],address)": "1fad948c",
          "innerHandleOp(bytes,((address,uint256,uint256,uint256,uint256,address,uint256,uint256),bytes32,uint256,uint256,uint256),bytes)": "1d732756",
          "paymasterStake()": "17c6a987",
          "simulateValidation((address,uint256,bytes,bytes,uint256,uint256,uint256,uint256,uint256,bytes,bytes),bool)": "ffb01dd9",
          "unlockStake()": "bb9fe6bf",
          "unstakeDelaySec()": "390b9978",
          "withdrawStake(address)": "c23a5cea",
          "withdrawTo(address,uint256)": "205c2878"
        }
      }
    }
  }
}