{
  "contracts/MyWalletDeployer.sol": {
    "MyWalletDeployer": {
      "abi": [
        {
          "inputs": [
            {
              "internalType": "contract IEntryPoint",
              "name": "entryPoint",
              "type": "address"
            },
            {
              "internalType": "address",
              "name": "owner",
              "type": "address"
            },
            {
              "internalType": "uint256",
              "name": "salt",
              "type": "uint256"
            },
            {
              "internalType": "uint256[2]",
              "name": "_qValues",
              "type": "uint256[2]"
            },
            {
              "internalType": "address",
              "name": "_ellipticCurve",
              "type": "address"
            }
          ],
          "name": "deployWallet",
          "outputs": [
            {
              "internalType": "contract MyTouchIdWallet",
              "name": "",
              "type": "address"
            }
          ],
          "stateMutability": "nonpayable",
          "type": "function"
        },
        {
          "inputs": [
            {
              "internalType": "contract IEntryPoint",
              "name": "entryPoint",
              "type": "address"
            },
            {
              "internalType": "address",
              "name": "owner",
              "type": "address"
            },
            {
              "internalType": "uint256",
              "name": "salt",
              "type": "uint256"
            },
            {
              "internalType": "uint256[2]",
              "name": "_qValues",
              "type": "uint256[2]"
            },
            {
              "internalType": "address",
              "name": "_ellipticCurve",
              "type": "address"
            }
          ],
          "name": "getDeploymentAddress",
          "outputs": [
            {
              "internalType": "address",
              "name": "",
              "type": "address"
            }
          ],
          "stateMutability": "view",
          "type": "function"
        }
      ],
      "evm": {
        "bytecode": {
          "linkReferences": {},
          "object": "608060405234801561001057600080fd5b50611857806100206000396000f3fe608060405234801561001057600080fd5b50600436106100365760003560e01c8063859291c31461003b5780638cf66e3414610077575b600080fd5b61004e6100493660046102af565b61008a565b60405173ffffffffffffffffffffffffffffffffffffffff909116815260200160405180910390f35b61004e6100853660046102af565b6101f0565b60008060ff60f81b3086604051806020016100a49061023e565b7fffffffffffffffffffffffffffffffffffffffffffffffffffffffffffffffe082820381018352601f9091011660408190526100eb908c908c908b908b9060200161036c565b604080517fffffffffffffffffffffffffffffffffffffffffffffffffffffffffffffffe081840301815290829052610127929160200161040d565b604051602081830303815290604052805190602001206040516020016101af94939291907fff0000000000000000000000000000000000000000000000000000000000000094909416845260609290921b7fffffffffffffffffffffffffffffffffffffffff0000000000000000000000001660018401526015830152603582015260550190565b604080518083037fffffffffffffffffffffffffffffffffffffffffffffffffffffffffffffffe00181529190528051602090910120979650505050505050565b60008360001b868685856040516102069061023e565b610213949392919061036c565b8190604051809103906000f5905080158015610233573d6000803e3d6000fd5b509695505050505050565b6113f78061042b83390190565b73ffffffffffffffffffffffffffffffffffffffff8116811461026d57600080fd5b50565b803561027b8161024b565b919050565b7f4e487b7100000000000000000000000000000000000000000000000000000000600052604160045260246000fd5b600080600080600060c086880312156102c757600080fd5b85356102d28161024b565b94506020868101356102e38161024b565b945060408701359350607f870188136102fb57600080fd5b6040516040810181811067ffffffffffffffff8211171561031e5761031e610280565b6040528060a089018a81111561033357600080fd5b60608a015b8181101561034f5780358352918401918401610338565b5082955061035c81610270565b9450505050509295509295909350565b600060a08201905073ffffffffffffffffffffffffffffffffffffffff8087168352602081871681850152604084018660005b60028110156103bc5781518352918301919083019060010161039f565b5050505080841660808401525095945050505050565b6000815160005b818110156103f357602081850181015186830152016103d9565b81811115610402576000828601525b509290920192915050565b600061042261041c83866103d2565b846103d2565b94935050505056fe608060405260006001553480156200001657600080fd5b50604051620013f7380380620013f7833981016040819052620000399162000155565b600580546001600160a01b0319166001600160a01b0386811691909117909155600080546001600160601b03166c01000000000000000000000000928616929092029190911790556200008f60028381620000ba565b50600480546001600160a01b0319166001600160a01b03929092169190911790555062000217915050565b8260028101928215620000eb579160200282015b82811115620000eb578251825591602001919060010190620000ce565b50620000f9929150620000fd565b5090565b5b80821115620000f95760008155600101620000fe565b6001600160a01b03811681146200012a57600080fd5b50565b80516200013a8162000114565b919050565b634e487b7160e01b600052604160045260246000fd5b60008060008060a085870312156200016c57600080fd5b8451620001798162000114565b809450506020808601516200018e8162000114565b9350605f86018713620001a057600080fd5b604080519081016001600160401b0381118282101715620001c557620001c56200013f565b604052806080880189811115620001db57600080fd5b604089015b81811015620001f95780518352918401918401620001e0565b5082955062000208816200012d565b94505050505092959194509250565b6111d080620002276000396000f3fe6080604052600436106100d65760003560e01c80638da5cb5b1161007f578063b0d691fe11610059578063b0d691fe14610240578063bf98a6e41461026b578063c399ec8814610281578063d0cb75fa1461029657600080fd5b80638da5cb5b1461018c578063a9059cbb146101f3578063affed0e01461021357600080fd5b80634a58db19116100b05780634a58db19146101445780634d44560d1461014c57806380c5c7d01461016c57600080fd5b80630825d1fc146100e25780631b71bb6e146101045780633ef91dfb1461012457600080fd5b366100dd57005b600080fd5b3480156100ee57600080fd5b506101026100fd366004610be9565b6102b6565b005b34801561011057600080fd5b5061010261011f366004610c50565b6102f7565b34801561013057600080fd5b5061010261013f366004610cc0565b61030b565b6101026103c1565b34801561015857600080fd5b50610102610167366004610d1c565b61044c565b34801561017857600080fd5b50610102610187366004610d48565b6104fb565b34801561019857600080fd5b506000546101c9906c01000000000000000000000000900473ffffffffffffffffffffffffffffffffffffffff1681565b60405173ffffffffffffffffffffffffffffffffffffffff90911681526020015b60405180910390f35b3480156101ff57600080fd5b5061010261020e366004610d1c565b61053c565b34801561021f57600080fd5b506000546bffffffffffffffffffffffff165b6040519081526020016101ea565b34801561024c57600080fd5b5060055473ffffffffffffffffffffffffffffffffffffffff166101c9565b34801561027757600080fd5b5061023260015481565b34801561028d57600080fd5b5061023261058c565b3480156102a257600080fd5b506101026102b1366004610dd1565b610642565b6102be61071a565b6102c984848461079d565b6102d66040850185610e31565b90506000036102e8576102e8846108e6565b6102f1816109ae565b50505050565b6102ff610a19565b61030881610a21565b50565b610313610aaf565b6000806000808585600181811061032c5761032c610e96565b905060200281019061033e9190610e31565b81019061034b9190610f65565b93509350935093506103b788888888600081811061036b5761036b610e96565b905060200281019061037d9190610e31565b8080601f016020809104026020016040519081016040528093929190818152602001838380828437600092019190915250610b4a92505050565b5050505050505050565b60006103e260055473ffffffffffffffffffffffffffffffffffffffff1690565b73ffffffffffffffffffffffffffffffffffffffff163460405160006040518083038185875af1925050503d8060008114610439576040519150601f19603f3d011682016040523d82523d6000602084013e61043e565b606091505b505090508061030857600080fd5b610454610aaf565b60055473ffffffffffffffffffffffffffffffffffffffff166040517f205c287800000000000000000000000000000000000000000000000000000000815273ffffffffffffffffffffffffffffffffffffffff848116600483015260248201849052919091169063205c287890604401600060405180830381600087803b1580156104df57600080fd5b505af11580156104f3573d6000803e3d6000fd5b505050505050565b6102f1848484848080601f016020809104026020016040519081016040528093929190818152602001838380828437600092019190915250610b4a92505050565b610544610aaf565b60405173ffffffffffffffffffffffffffffffffffffffff83169082156108fc029083906000818181858888f19350505050158015610587573d6000803e3d6000fd5b505050565b60006105ad60055473ffffffffffffffffffffffffffffffffffffffff1690565b6040517f70a0823100000000000000000000000000000000000000000000000000000000815230600482015273ffffffffffffffffffffffffffffffffffffffff91909116906370a0823190602401602060405180830381865afa158015610619573d6000803e3d6000fd5b505050506040513d601f19601f8201168201806040525081019061063d9190611005565b905090565b61064a610aaf565b8281146106b8576040517f08c379a000000000000000000000000000000000000000000000000000000000815260206004820152601360248201527f77726f6e67206172726179206c656e677468730000000000000000000000000060448201526064015b60405180910390fd5b60005b83811015610713576107018585838181106106d8576106d8610e96565b90506020020160208101906106ed9190610c50565b600085858581811061036b5761036b610e96565b8061070b8161104d565b9150506106bb565b5050505050565b60055473ffffffffffffffffffffffffffffffffffffffff16331461079b576040517f08c379a000000000000000000000000000000000000000000000000000000000815260206004820152601b60248201527f77616c6c65743a206e6f742066726f6d20456e747279506f696e74000000000060448201526064016106af565b565b600080806107af610140870187610e31565b8101906107bc9190611085565b600480546040805180820182528681526020810186905290517f04e960d700000000000000000000000000000000000000000000000000000000815295985093965091945060009373ffffffffffffffffffffffffffffffffffffffff909216926304e960d79261083392879291600291016110b1565b602060405180830381865afa158015610850573d6000803e3d6000fd5b505050506040513d601f19601f820116820180604052508101906108749190611112565b9050806108dd576040517f08c379a000000000000000000000000000000000000000000000000000000000815260206004820152601d60248201527f5369676e617475726520766572696669636174696f6e206661696c656400000060448201526064016106af565b50505050505050565b600080546020830135916bffffffffffffffffffffffff909116908061090b83611134565b91906101000a8154816bffffffffffffffffffffffff02191690836bffffffffffffffffffffffff1602179055506bffffffffffffffffffffffff1614610308576040517f08c379a000000000000000000000000000000000000000000000000000000000815260206004820152601560248201527f77616c6c65743a20696e76616c6964206e6f6e6365000000000000000000000060448201526064016106af565b80156103085760405160009033907fffffffffffffffffffffffffffffffffffffffffffffffffffffffffffffffff90849084818181858888f193505050503d8060008114610713576040519150601f19603f3d011682016040523d82523d6000602084013e610713565b61079b610aaf565b60055460405173ffffffffffffffffffffffffffffffffffffffff8084169216907f450909c1478d09248269d4ad4fa8cba61ca3f50faed58c7aedefa51c7f62b83a90600090a3600580547fffffffffffffffffffffffff00000000000000000000000000000000000000001673ffffffffffffffffffffffffffffffffffffffff92909216919091179055565b6000546c01000000000000000000000000900473ffffffffffffffffffffffffffffffffffffffff16331480610ae457503330145b61079b576040517f08c379a000000000000000000000000000000000000000000000000000000000815260206004820152600a60248201527f6f6e6c79206f776e65720000000000000000000000000000000000000000000060448201526064016106af565b6000808473ffffffffffffffffffffffffffffffffffffffff168484604051610b73919061115f565b60006040518083038185875af1925050503d8060008114610bb0576040519150601f19603f3d011682016040523d82523d6000602084013e610bb5565b606091505b50915091508161071357805160208201fd5b73ffffffffffffffffffffffffffffffffffffffff8116811461030857600080fd5b60008060008060808587031215610bff57600080fd5b843567ffffffffffffffff811115610c1657600080fd5b85016101608188031215610c2957600080fd5b9350602085013592506040850135610c4081610bc7565b9396929550929360600135925050565b600060208284031215610c6257600080fd5b8135610c6d81610bc7565b9392505050565b60008083601f840112610c8657600080fd5b50813567ffffffffffffffff811115610c9e57600080fd5b6020830191508360208260051b8501011115610cb957600080fd5b9250929050565b60008060008060608587031215610cd657600080fd5b8435610ce181610bc7565b935060208501359250604085013567ffffffffffffffff811115610d0457600080fd5b610d1087828801610c74565b95989497509550505050565b60008060408385031215610d2f57600080fd5b8235610d3a81610bc7565b946020939093013593505050565b60008060008060608587031215610d5e57600080fd5b8435610d6981610bc7565b935060208501359250604085013567ffffffffffffffff80821115610d8d57600080fd5b818701915087601f830112610da157600080fd5b813581811115610db057600080fd5b886020828501011115610dc257600080fd5b95989497505060200194505050565b60008060008060408587031215610de757600080fd5b843567ffffffffffffffff80821115610dff57600080fd5b610e0b88838901610c74565b90965094506020870135915080821115610e2457600080fd5b50610d1087828801610c74565b60008083357fffffffffffffffffffffffffffffffffffffffffffffffffffffffffffffffe1843603018112610e6657600080fd5b83018035915067ffffffffffffffff821115610e8157600080fd5b602001915036819003821315610cb957600080fd5b7f4e487b7100000000000000000000000000000000000000000000000000000000600052603260045260246000fd5b6040805190810167ffffffffffffffff81118282101715610f0f577f4e487b7100000000000000000000000000000000000000000000000000000000600052604160045260246000fd5b60405290565b600082601f830112610f2657600080fd5b610f2e610ec5565b806040840185811115610f4057600080fd5b845b81811015610f5a578035845260209384019301610f42565b509095945050505050565b6000806000806101408587031215610f7c57600080fd5b610f868686610f15565b9350604086605f870112610f9957600080fd5b610fa1610ec5565b8060c0880189811115610fb357600080fd5b8389015b81811015610fd857610fc98b82610f15565b84526020909301928401610fb7565b50819650610fe68a82610f15565b955050505050610ffa866101008701610f15565b905092959194509250565b60006020828403121561101757600080fd5b5051919050565b7f4e487b7100000000000000000000000000000000000000000000000000000000600052601160045260246000fd5b60007fffffffffffffffffffffffffffffffffffffffffffffffffffffffffffffffff820361107e5761107e61101e565b5060010190565b60008060006060848603121561109a57600080fd5b505081359360208301359350604090920135919050565b83815260a0810160208083018560005b60028110156110de578151835291830191908301906001016110c1565b505050606083018460005b6002811015611106578154835291830191600191820191016110e9565b50505050949350505050565b60006020828403121561112457600080fd5b81518015158114610c6d57600080fd5b60006bffffffffffffffffffffffff8083168181036111555761115561101e565b6001019392505050565b6000825160005b818110156111805760208186018101518583015201611166565b8181111561118f576000828501525b50919091019291505056fea264697066735822122014f2b85bb3d19ce59667bf71a3656286104b9638394dff6b3f0f858fc763e56964736f6c634300080f0033a26469706673582212201723526406559f0f7856bdcd7c64a908f38f19d40fa00a445533e08ab9e993e264736f6c634300080f0033",
          "opcodes": "PUSH1 0x80 PUSH1 0x40 MSTORE CALLVALUE DUP1 ISZERO PUSH2 0x10 JUMPI PUSH1 0x0 DUP1 REVERT JUMPDEST POP PUSH2 0x1857 DUP1 PUSH2 0x20 PUSH1 0x0 CODECOPY PUSH1 0x0 RETURN INVALID PUSH1 0x80 PUSH1 0x40 MSTORE CALLVALUE DUP1 ISZERO PUSH2 0x10 JUMPI PUSH1 0x0 DUP1 REVERT JUMPDEST POP PUSH1 0x4 CALLDATASIZE LT PUSH2 0x36 JUMPI PUSH1 0x0 CALLDATALOAD PUSH1 0xE0 SHR DUP1 PUSH4 0x859291C3 EQ PUSH2 0x3B JUMPI DUP1 PUSH4 0x8CF66E34 EQ PUSH2 0x77 JUMPI JUMPDEST PUSH1 0x0 DUP1 REVERT JUMPDEST PUSH2 0x4E PUSH2 0x49 CALLDATASIZE PUSH1 0x4 PUSH2 0x2AF JUMP JUMPDEST PUSH2 0x8A JUMP JUMPDEST PUSH1 0x40 MLOAD PUSH20 0xFFFFFFFFFFFFFFFFFFFFFFFFFFFFFFFFFFFFFFFF SWAP1 SWAP2 AND DUP2 MSTORE PUSH1 0x20 ADD PUSH1 0x40 MLOAD DUP1 SWAP2 SUB SWAP1 RETURN JUMPDEST PUSH2 0x4E PUSH2 0x85 CALLDATASIZE PUSH1 0x4 PUSH2 0x2AF JUMP JUMPDEST PUSH2 0x1F0 JUMP JUMPDEST PUSH1 0x0 DUP1 PUSH1 0xFF PUSH1 0xF8 SHL ADDRESS DUP7 PUSH1 0x40 MLOAD DUP1 PUSH1 0x20 ADD PUSH2 0xA4 SWAP1 PUSH2 0x23E JUMP JUMPDEST PUSH32 0xFFFFFFFFFFFFFFFFFFFFFFFFFFFFFFFFFFFFFFFFFFFFFFFFFFFFFFFFFFFFFFE0 DUP3 DUP3 SUB DUP2 ADD DUP4 MSTORE PUSH1 0x1F SWAP1 SWAP2 ADD AND PUSH1 0x40 DUP2 SWAP1 MSTORE PUSH2 0xEB SWAP1 DUP13 SWAP1 DUP13 SWAP1 DUP12 SWAP1 DUP12 SWAP1 PUSH1 0x20 ADD PUSH2 0x36C JUMP JUMPDEST PUSH1 0x40 DUP1 MLOAD PUSH32 0xFFFFFFFFFFFFFFFFFFFFFFFFFFFFFFFFFFFFFFFFFFFFFFFFFFFFFFFFFFFFFFE0 DUP2 DUP5 SUB ADD DUP2 MSTORE SWAP1 DUP3 SWAP1 MSTORE PUSH2 0x127 SWAP3 SWAP2 PUSH1 0x20 ADD PUSH2 0x40D JUMP JUMPDEST PUSH1 0x40 MLOAD PUSH1 0x20 DUP2 DUP4 SUB SUB DUP2 MSTORE SWAP1 PUSH1 0x40 MSTORE DUP1 MLOAD SWAP1 PUSH1 0x20 ADD KECCAK256 PUSH1 0x40 MLOAD PUSH1 0x20 ADD PUSH2 0x1AF SWAP5 SWAP4 SWAP3 SWAP2 SWAP1 PUSH32 0xFF00000000000000000000000000000000000000000000000000000000000000 SWAP5 SWAP1 SWAP5 AND DUP5 MSTORE PUSH1 0x60 SWAP3 SWAP1 SWAP3 SHL PUSH32 0xFFFFFFFFFFFFFFFFFFFFFFFFFFFFFFFFFFFFFFFF000000000000000000000000 AND PUSH1 0x1 DUP5 ADD MSTORE PUSH1 0x15 DUP4 ADD MSTORE PUSH1 0x35 DUP3 ADD MSTORE PUSH1 0x55 ADD SWAP1 JUMP JUMPDEST PUSH1 0x40 DUP1 MLOAD DUP1 DUP4 SUB PUSH32 0xFFFFFFFFFFFFFFFFFFFFFFFFFFFFFFFFFFFFFFFFFFFFFFFFFFFFFFFFFFFFFFE0 ADD DUP2 MSTORE SWAP2 SWAP1 MSTORE DUP1 MLOAD PUSH1 0x20 SWAP1 SWAP2 ADD KECCAK256 SWAP8 SWAP7 POP POP POP POP POP POP POP JUMP JUMPDEST PUSH1 0x0 DUP4 PUSH1 0x0 SHL DUP7 DUP7 DUP6 DUP6 PUSH1 0x40 MLOAD PUSH2 0x206 SWAP1 PUSH2 0x23E JUMP JUMPDEST PUSH2 0x213 SWAP5 SWAP4 SWAP3 SWAP2 SWAP1 PUSH2 0x36C JUMP JUMPDEST DUP2 SWAP1 PUSH1 0x40 MLOAD DUP1 SWAP2 SUB SWAP1 PUSH1 0x0 CREATE2 SWAP1 POP DUP1 ISZERO DUP1 ISZERO PUSH2 0x233 JUMPI RETURNDATASIZE PUSH1 0x0 DUP1 RETURNDATACOPY RETURNDATASIZE PUSH1 0x0 REVERT JUMPDEST POP SWAP7 SWAP6 POP POP POP POP POP POP JUMP JUMPDEST PUSH2 0x13F7 DUP1 PUSH2 0x42B DUP4 CODECOPY ADD SWAP1 JUMP JUMPDEST PUSH20 0xFFFFFFFFFFFFFFFFFFFFFFFFFFFFFFFFFFFFFFFF DUP2 AND DUP2 EQ PUSH2 0x26D JUMPI PUSH1 0x0 DUP1 REVERT JUMPDEST POP JUMP JUMPDEST DUP1 CALLDATALOAD PUSH2 0x27B DUP2 PUSH2 0x24B JUMP JUMPDEST SWAP2 SWAP1 POP JUMP JUMPDEST PUSH32 0x4E487B7100000000000000000000000000000000000000000000000000000000 PUSH1 0x0 MSTORE PUSH1 0x41 PUSH1 0x4 MSTORE PUSH1 0x24 PUSH1 0x0 REVERT JUMPDEST PUSH1 0x0 DUP1 PUSH1 0x0 DUP1 PUSH1 0x0 PUSH1 0xC0 DUP7 DUP9 SUB SLT ISZERO PUSH2 0x2C7 JUMPI PUSH1 0x0 DUP1 REVERT JUMPDEST DUP6 CALLDATALOAD PUSH2 0x2D2 DUP2 PUSH2 0x24B JUMP JUMPDEST SWAP5 POP PUSH1 0x20 DUP7 DUP2 ADD CALLDATALOAD PUSH2 0x2E3 DUP2 PUSH2 0x24B JUMP JUMPDEST SWAP5 POP PUSH1 0x40 DUP8 ADD CALLDATALOAD SWAP4 POP PUSH1 0x7F DUP8 ADD DUP9 SGT PUSH2 0x2FB JUMPI PUSH1 0x0 DUP1 REVERT JUMPDEST PUSH1 0x40 MLOAD PUSH1 0x40 DUP2 ADD DUP2 DUP2 LT PUSH8 0xFFFFFFFFFFFFFFFF DUP3 GT OR ISZERO PUSH2 0x31E JUMPI PUSH2 0x31E PUSH2 0x280 JUMP JUMPDEST PUSH1 0x40 MSTORE DUP1 PUSH1 0xA0 DUP10 ADD DUP11 DUP2 GT ISZERO PUSH2 0x333 JUMPI PUSH1 0x0 DUP1 REVERT JUMPDEST PUSH1 0x60 DUP11 ADD JUMPDEST DUP2 DUP2 LT ISZERO PUSH2 0x34F JUMPI DUP1 CALLDATALOAD DUP4 MSTORE SWAP2 DUP5 ADD SWAP2 DUP5 ADD PUSH2 0x338 JUMP JUMPDEST POP DUP3 SWAP6 POP PUSH2 0x35C DUP2 PUSH2 0x270 JUMP JUMPDEST SWAP5 POP POP POP POP POP SWAP3 SWAP6 POP SWAP3 SWAP6 SWAP1 SWAP4 POP JUMP JUMPDEST PUSH1 0x0 PUSH1 0xA0 DUP3 ADD SWAP1 POP PUSH20 0xFFFFFFFFFFFFFFFFFFFFFFFFFFFFFFFFFFFFFFFF DUP1 DUP8 AND DUP4 MSTORE PUSH1 0x20 DUP2 DUP8 AND DUP2 DUP6 ADD MSTORE PUSH1 0x40 DUP5 ADD DUP7 PUSH1 0x0 JUMPDEST PUSH1 0x2 DUP2 LT ISZERO PUSH2 0x3BC JUMPI DUP2 MLOAD DUP4 MSTORE SWAP2 DUP4 ADD SWAP2 SWAP1 DUP4 ADD SWAP1 PUSH1 0x1 ADD PUSH2 0x39F JUMP JUMPDEST POP POP POP POP DUP1 DUP5 AND PUSH1 0x80 DUP5 ADD MSTORE POP SWAP6 SWAP5 POP POP POP POP POP JUMP JUMPDEST PUSH1 0x0 DUP2 MLOAD PUSH1 0x0 JUMPDEST DUP2 DUP2 LT ISZERO PUSH2 0x3F3 JUMPI PUSH1 0x20 DUP2 DUP6 ADD DUP2 ADD MLOAD DUP7 DUP4 ADD MSTORE ADD PUSH2 0x3D9 JUMP JUMPDEST DUP2 DUP2 GT ISZERO PUSH2 0x402 JUMPI PUSH1 0x0 DUP3 DUP7 ADD MSTORE JUMPDEST POP SWAP3 SWAP1 SWAP3 ADD SWAP3 SWAP2 POP POP JUMP JUMPDEST PUSH1 0x0 PUSH2 0x422 PUSH2 0x41C DUP4 DUP7 PUSH2 0x3D2 JUMP JUMPDEST DUP5 PUSH2 0x3D2 JUMP JUMPDEST SWAP5 SWAP4 POP POP POP POP JUMP INVALID PUSH1 0x80 PUSH1 0x40 MSTORE PUSH1 0x0 PUSH1 0x1 SSTORE CALLVALUE DUP1 ISZERO PUSH3 0x16 JUMPI PUSH1 0x0 DUP1 REVERT JUMPDEST POP PUSH1 0x40 MLOAD PUSH3 0x13F7 CODESIZE SUB DUP1 PUSH3 0x13F7 DUP4 CODECOPY DUP2 ADD PUSH1 0x40 DUP2 SWAP1 MSTORE PUSH3 0x39 SWAP2 PUSH3 0x155 JUMP JUMPDEST PUSH1 0x5 DUP1 SLOAD PUSH1 0x1 PUSH1 0x1 PUSH1 0xA0 SHL SUB NOT AND PUSH1 0x1 PUSH1 0x1 PUSH1 0xA0 SHL SUB DUP7 DUP2 AND SWAP2 SWAP1 SWAP2 OR SWAP1 SWAP2 SSTORE PUSH1 0x0 DUP1 SLOAD PUSH1 0x1 PUSH1 0x1 PUSH1 0x60 SHL SUB AND PUSH13 0x1000000000000000000000000 SWAP3 DUP7 AND SWAP3 SWAP1 SWAP3 MUL SWAP2 SWAP1 SWAP2 OR SWAP1 SSTORE PUSH3 0x8F PUSH1 0x2 DUP4 DUP2 PUSH3 0xBA JUMP JUMPDEST POP PUSH1 0x4 DUP1 SLOAD PUSH1 0x1 PUSH1 0x1 PUSH1 0xA0 SHL SUB NOT AND PUSH1 0x1 PUSH1 0x1 PUSH1 0xA0 SHL SUB SWAP3 SWAP1 SWAP3 AND SWAP2 SWAP1 SWAP2 OR SWAP1 SSTORE POP PUSH3 0x217 SWAP2 POP POP JUMP JUMPDEST DUP3 PUSH1 0x2 DUP2 ADD SWAP3 DUP3 ISZERO PUSH3 0xEB JUMPI SWAP2 PUSH1 0x20 MUL DUP3 ADD JUMPDEST DUP3 DUP2 GT ISZERO PUSH3 0xEB JUMPI DUP3 MLOAD DUP3 SSTORE SWAP2 PUSH1 0x20 ADD SWAP2 SWAP1 PUSH1 0x1 ADD SWAP1 PUSH3 0xCE JUMP JUMPDEST POP PUSH3 0xF9 SWAP3 SWAP2 POP PUSH3 0xFD JUMP JUMPDEST POP SWAP1 JUMP JUMPDEST JUMPDEST DUP1 DUP3 GT ISZERO PUSH3 0xF9 JUMPI PUSH1 0x0 DUP2 SSTORE PUSH1 0x1 ADD PUSH3 0xFE JUMP JUMPDEST PUSH1 0x1 PUSH1 0x1 PUSH1 0xA0 SHL SUB DUP2 AND DUP2 EQ PUSH3 0x12A JUMPI PUSH1 0x0 DUP1 REVERT JUMPDEST POP JUMP JUMPDEST DUP1 MLOAD PUSH3 0x13A DUP2 PUSH3 0x114 JUMP JUMPDEST SWAP2 SWAP1 POP JUMP JUMPDEST PUSH4 0x4E487B71 PUSH1 0xE0 SHL PUSH1 0x0 MSTORE PUSH1 0x41 PUSH1 0x4 MSTORE PUSH1 0x24 PUSH1 0x0 REVERT JUMPDEST PUSH1 0x0 DUP1 PUSH1 0x0 DUP1 PUSH1 0xA0 DUP6 DUP8 SUB SLT ISZERO PUSH3 0x16C JUMPI PUSH1 0x0 DUP1 REVERT JUMPDEST DUP5 MLOAD PUSH3 0x179 DUP2 PUSH3 0x114 JUMP JUMPDEST DUP1 SWAP5 POP POP PUSH1 0x20 DUP1 DUP7 ADD MLOAD PUSH3 0x18E DUP2 PUSH3 0x114 JUMP JUMPDEST SWAP4 POP PUSH1 0x5F DUP7 ADD DUP8 SGT PUSH3 0x1A0 JUMPI PUSH1 0x0 DUP1 REVERT JUMPDEST PUSH1 0x40 DUP1 MLOAD SWAP1 DUP2 ADD PUSH1 0x1 PUSH1 0x1 PUSH1 0x40 SHL SUB DUP2 GT DUP3 DUP3 LT OR ISZERO PUSH3 0x1C5 JUMPI PUSH3 0x1C5 PUSH3 0x13F JUMP JUMPDEST PUSH1 0x40 MSTORE DUP1 PUSH1 0x80 DUP9 ADD DUP10 DUP2 GT ISZERO PUSH3 0x1DB JUMPI PUSH1 0x0 DUP1 REVERT JUMPDEST PUSH1 0x40 DUP10 ADD JUMPDEST DUP2 DUP2 LT ISZERO PUSH3 0x1F9 JUMPI DUP1 MLOAD DUP4 MSTORE SWAP2 DUP5 ADD SWAP2 DUP5 ADD PUSH3 0x1E0 JUMP JUMPDEST POP DUP3 SWAP6 POP PUSH3 0x208 DUP2 PUSH3 0x12D JUMP JUMPDEST SWAP5 POP POP POP POP POP SWAP3 SWAP6 SWAP2 SWAP5 POP SWAP3 POP JUMP JUMPDEST PUSH2 0x11D0 DUP1 PUSH3 0x227 PUSH1 0x0 CODECOPY PUSH1 0x0 RETURN INVALID PUSH1 0x80 PUSH1 0x40 MSTORE PUSH1 0x4 CALLDATASIZE LT PUSH2 0xD6 JUMPI PUSH1 0x0 CALLDATALOAD PUSH1 0xE0 SHR DUP1 PUSH4 0x8DA5CB5B GT PUSH2 0x7F JUMPI DUP1 PUSH4 0xB0D691FE GT PUSH2 0x59 JUMPI DUP1 PUSH4 0xB0D691FE EQ PUSH2 0x240 JUMPI DUP1 PUSH4 0xBF98A6E4 EQ PUSH2 0x26B JUMPI DUP1 PUSH4 0xC399EC88 EQ PUSH2 0x281 JUMPI DUP1 PUSH4 0xD0CB75FA EQ PUSH2 0x296 JUMPI PUSH1 0x0 DUP1 REVERT JUMPDEST DUP1 PUSH4 0x8DA5CB5B EQ PUSH2 0x18C JUMPI DUP1 PUSH4 0xA9059CBB EQ PUSH2 0x1F3 JUMPI DUP1 PUSH4 0xAFFED0E0 EQ PUSH2 0x213 JUMPI PUSH1 0x0 DUP1 REVERT JUMPDEST DUP1 PUSH4 0x4A58DB19 GT PUSH2 0xB0 JUMPI DUP1 PUSH4 0x4A58DB19 EQ PUSH2 0x144 JUMPI DUP1 PUSH4 0x4D44560D EQ PUSH2 0x14C JUMPI DUP1 PUSH4 0x80C5C7D0 EQ PUSH2 0x16C JUMPI PUSH1 0x0 DUP1 REVERT JUMPDEST DUP1 PUSH4 0x825D1FC EQ PUSH2 0xE2 JUMPI DUP1 PUSH4 0x1B71BB6E EQ PUSH2 0x104 JUMPI DUP1 PUSH4 0x3EF91DFB EQ PUSH2 0x124 JUMPI PUSH1 0x0 DUP1 REVERT JUMPDEST CALLDATASIZE PUSH2 0xDD JUMPI STOP JUMPDEST PUSH1 0x0 DUP1 REVERT JUMPDEST CALLVALUE DUP1 ISZERO PUSH2 0xEE JUMPI PUSH1 0x0 DUP1 REVERT JUMPDEST POP PUSH2 0x102 PUSH2 0xFD CALLDATASIZE PUSH1 0x4 PUSH2 0xBE9 JUMP JUMPDEST PUSH2 0x2B6 JUMP JUMPDEST STOP JUMPDEST CALLVALUE DUP1 ISZERO PUSH2 0x110 JUMPI PUSH1 0x0 DUP1 REVERT JUMPDEST POP PUSH2 0x102 PUSH2 0x11F CALLDATASIZE PUSH1 0x4 PUSH2 0xC50 JUMP JUMPDEST PUSH2 0x2F7 JUMP JUMPDEST CALLVALUE DUP1 ISZERO PUSH2 0x130 JUMPI PUSH1 0x0 DUP1 REVERT JUMPDEST POP PUSH2 0x102 PUSH2 0x13F CALLDATASIZE PUSH1 0x4 PUSH2 0xCC0 JUMP JUMPDEST PUSH2 0x30B JUMP JUMPDEST PUSH2 0x102 PUSH2 0x3C1 JUMP JUMPDEST CALLVALUE DUP1 ISZERO PUSH2 0x158 JUMPI PUSH1 0x0 DUP1 REVERT JUMPDEST POP PUSH2 0x102 PUSH2 0x167 CALLDATASIZE PUSH1 0x4 PUSH2 0xD1C JUMP JUMPDEST PUSH2 0x44C JUMP JUMPDEST CALLVALUE DUP1 ISZERO PUSH2 0x178 JUMPI PUSH1 0x0 DUP1 REVERT JUMPDEST POP PUSH2 0x102 PUSH2 0x187 CALLDATASIZE PUSH1 0x4 PUSH2 0xD48 JUMP JUMPDEST PUSH2 0x4FB JUMP JUMPDEST CALLVALUE DUP1 ISZERO PUSH2 0x198 JUMPI PUSH1 0x0 DUP1 REVERT JUMPDEST POP PUSH1 0x0 SLOAD PUSH2 0x1C9 SWAP1 PUSH13 0x1000000000000000000000000 SWAP1 DIV PUSH20 0xFFFFFFFFFFFFFFFFFFFFFFFFFFFFFFFFFFFFFFFF AND DUP2 JUMP JUMPDEST PUSH1 0x40 MLOAD PUSH20 0xFFFFFFFFFFFFFFFFFFFFFFFFFFFFFFFFFFFFFFFF SWAP1 SWAP2 AND DUP2 MSTORE PUSH1 0x20 ADD JUMPDEST PUSH1 0x40 MLOAD DUP1 SWAP2 SUB SWAP1 RETURN JUMPDEST CALLVALUE DUP1 ISZERO PUSH2 0x1FF JUMPI PUSH1 0x0 DUP1 REVERT JUMPDEST POP PUSH2 0x102 PUSH2 0x20E CALLDATASIZE PUSH1 0x4 PUSH2 0xD1C JUMP JUMPDEST PUSH2 0x53C JUMP JUMPDEST CALLVALUE DUP1 ISZERO PUSH2 0x21F JUMPI PUSH1 0x0 DUP1 REVERT JUMPDEST POP PUSH1 0x0 SLOAD PUSH12 0xFFFFFFFFFFFFFFFFFFFFFFFF AND JUMPDEST PUSH1 0x40 MLOAD SWAP1 DUP2 MSTORE PUSH1 0x20 ADD PUSH2 0x1EA JUMP JUMPDEST CALLVALUE DUP1 ISZERO PUSH2 0x24C JUMPI PUSH1 0x0 DUP1 REVERT JUMPDEST POP PUSH1 0x5 SLOAD PUSH20 0xFFFFFFFFFFFFFFFFFFFFFFFFFFFFFFFFFFFFFFFF AND PUSH2 0x1C9 JUMP JUMPDEST CALLVALUE DUP1 ISZERO PUSH2 0x277 JUMPI PUSH1 0x0 DUP1 REVERT JUMPDEST POP PUSH2 0x232 PUSH1 0x1 SLOAD DUP2 JUMP JUMPDEST CALLVALUE DUP1 ISZERO PUSH2 0x28D JUMPI PUSH1 0x0 DUP1 REVERT JUMPDEST POP PUSH2 0x232 PUSH2 0x58C JUMP JUMPDEST CALLVALUE DUP1 ISZERO PUSH2 0x2A2 JUMPI PUSH1 0x0 DUP1 REVERT JUMPDEST POP PUSH2 0x102 PUSH2 0x2B1 CALLDATASIZE PUSH1 0x4 PUSH2 0xDD1 JUMP JUMPDEST PUSH2 0x642 JUMP JUMPDEST PUSH2 0x2BE PUSH2 0x71A JUMP JUMPDEST PUSH2 0x2C9 DUP5 DUP5 DUP5 PUSH2 0x79D JUMP JUMPDEST PUSH2 0x2D6 PUSH1 0x40 DUP6 ADD DUP6 PUSH2 0xE31 JUMP JUMPDEST SWAP1 POP PUSH1 0x0 SUB PUSH2 0x2E8 JUMPI PUSH2 0x2E8 DUP5 PUSH2 0x8E6 JUMP JUMPDEST PUSH2 0x2F1 DUP2 PUSH2 0x9AE JUMP JUMPDEST POP POP POP POP JUMP JUMPDEST PUSH2 0x2FF PUSH2 0xA19 JUMP JUMPDEST PUSH2 0x308 DUP2 PUSH2 0xA21 JUMP JUMPDEST POP JUMP JUMPDEST PUSH2 0x313 PUSH2 0xAAF JUMP JUMPDEST PUSH1 0x0 DUP1 PUSH1 0x0 DUP1 DUP6 DUP6 PUSH1 0x1 DUP2 DUP2 LT PUSH2 0x32C JUMPI PUSH2 0x32C PUSH2 0xE96 JUMP JUMPDEST SWAP1 POP PUSH1 0x20 MUL DUP2 ADD SWAP1 PUSH2 0x33E SWAP2 SWAP1 PUSH2 0xE31 JUMP JUMPDEST DUP2 ADD SWAP1 PUSH2 0x34B SWAP2 SWAP1 PUSH2 0xF65 JUMP JUMPDEST SWAP4 POP SWAP4 POP SWAP4 POP SWAP4 POP PUSH2 0x3B7 DUP9 DUP9 DUP9 DUP9 PUSH1 0x0 DUP2 DUP2 LT PUSH2 0x36B JUMPI PUSH2 0x36B PUSH2 0xE96 JUMP JUMPDEST SWAP1 POP PUSH1 0x20 MUL DUP2 ADD SWAP1 PUSH2 0x37D SWAP2 SWAP1 PUSH2 0xE31 JUMP JUMPDEST DUP1 DUP1 PUSH1 0x1F ADD PUSH1 0x20 DUP1 SWAP2 DIV MUL PUSH1 0x20 ADD PUSH1 0x40 MLOAD SWAP1 DUP2 ADD PUSH1 0x40 MSTORE DUP1 SWAP4 SWAP3 SWAP2 SWAP1 DUP2 DUP2 MSTORE PUSH1 0x20 ADD DUP4 DUP4 DUP1 DUP3 DUP5 CALLDATACOPY PUSH1 0x0 SWAP3 ADD SWAP2 SWAP1 SWAP2 MSTORE POP PUSH2 0xB4A SWAP3 POP POP POP JUMP JUMPDEST POP POP POP POP POP POP POP POP JUMP JUMPDEST PUSH1 0x0 PUSH2 0x3E2 PUSH1 0x5 SLOAD PUSH20 0xFFFFFFFFFFFFFFFFFFFFFFFFFFFFFFFFFFFFFFFF AND SWAP1 JUMP JUMPDEST PUSH20 0xFFFFFFFFFFFFFFFFFFFFFFFFFFFFFFFFFFFFFFFF AND CALLVALUE PUSH1 0x40 MLOAD PUSH1 0x0 PUSH1 0x40 MLOAD DUP1 DUP4 SUB DUP2 DUP6 DUP8 GAS CALL SWAP3 POP POP POP RETURNDATASIZE DUP1 PUSH1 0x0 DUP2 EQ PUSH2 0x439 JUMPI PUSH1 0x40 MLOAD SWAP2 POP PUSH1 0x1F NOT PUSH1 0x3F RETURNDATASIZE ADD AND DUP3 ADD PUSH1 0x40 MSTORE RETURNDATASIZE DUP3 MSTORE RETURNDATASIZE PUSH1 0x0 PUSH1 0x20 DUP5 ADD RETURNDATACOPY PUSH2 0x43E JUMP JUMPDEST PUSH1 0x60 SWAP2 POP JUMPDEST POP POP SWAP1 POP DUP1 PUSH2 0x308 JUMPI PUSH1 0x0 DUP1 REVERT JUMPDEST PUSH2 0x454 PUSH2 0xAAF JUMP JUMPDEST PUSH1 0x5 SLOAD PUSH20 0xFFFFFFFFFFFFFFFFFFFFFFFFFFFFFFFFFFFFFFFF AND PUSH1 0x40 MLOAD PUSH32 0x205C287800000000000000000000000000000000000000000000000000000000 DUP2 MSTORE PUSH20 0xFFFFFFFFFFFFFFFFFFFFFFFFFFFFFFFFFFFFFFFF DUP5 DUP2 AND PUSH1 0x4 DUP4 ADD MSTORE PUSH1 0x24 DUP3 ADD DUP5 SWAP1 MSTORE SWAP2 SWAP1 SWAP2 AND SWAP1 PUSH4 0x205C2878 SWAP1 PUSH1 0x44 ADD PUSH1 0x0 PUSH1 0x40 MLOAD DUP1 DUP4 SUB DUP2 PUSH1 0x0 DUP8 DUP1 EXTCODESIZE ISZERO DUP1 ISZERO PUSH2 0x4DF JUMPI PUSH1 0x0 DUP1 REVERT JUMPDEST POP GAS CALL ISZERO DUP1 ISZERO PUSH2 0x4F3 JUMPI RETURNDATASIZE PUSH1 0x0 DUP1 RETURNDATACOPY RETURNDATASIZE PUSH1 0x0 REVERT JUMPDEST POP POP POP POP POP POP JUMP JUMPDEST PUSH2 0x2F1 DUP5 DUP5 DUP5 DUP5 DUP1 DUP1 PUSH1 0x1F ADD PUSH1 0x20 DUP1 SWAP2 DIV MUL PUSH1 0x20 ADD PUSH1 0x40 MLOAD SWAP1 DUP2 ADD PUSH1 0x40 MSTORE DUP1 SWAP4 SWAP3 SWAP2 SWAP1 DUP2 DUP2 MSTORE PUSH1 0x20 ADD DUP4 DUP4 DUP1 DUP3 DUP5 CALLDATACOPY PUSH1 0x0 SWAP3 ADD SWAP2 SWAP1 SWAP2 MSTORE POP PUSH2 0xB4A SWAP3 POP POP POP JUMP JUMPDEST PUSH2 0x544 PUSH2 0xAAF JUMP JUMPDEST PUSH1 0x40 MLOAD PUSH20 0xFFFFFFFFFFFFFFFFFFFFFFFFFFFFFFFFFFFFFFFF DUP4 AND SWAP1 DUP3 ISZERO PUSH2 0x8FC MUL SWAP1 DUP4 SWAP1 PUSH1 0x0 DUP2 DUP2 DUP2 DUP6 DUP9 DUP9 CALL SWAP4 POP POP POP POP ISZERO DUP1 ISZERO PUSH2 0x587 JUMPI RETURNDATASIZE PUSH1 0x0 DUP1 RETURNDATACOPY RETURNDATASIZE PUSH1 0x0 REVERT JUMPDEST POP POP POP JUMP JUMPDEST PUSH1 0x0 PUSH2 0x5AD PUSH1 0x5 SLOAD PUSH20 0xFFFFFFFFFFFFFFFFFFFFFFFFFFFFFFFFFFFFFFFF AND SWAP1 JUMP JUMPDEST PUSH1 0x40 MLOAD PUSH32 0x70A0823100000000000000000000000000000000000000000000000000000000 DUP2 MSTORE ADDRESS PUSH1 0x4 DUP3 ADD MSTORE PUSH20 0xFFFFFFFFFFFFFFFFFFFFFFFFFFFFFFFFFFFFFFFF SWAP2 SWAP1 SWAP2 AND SWAP1 PUSH4 0x70A08231 SWAP1 PUSH1 0x24 ADD PUSH1 0x20 PUSH1 0x40 MLOAD DUP1 DUP4 SUB DUP2 DUP7 GAS STATICCALL ISZERO DUP1 ISZERO PUSH2 0x619 JUMPI RETURNDATASIZE PUSH1 0x0 DUP1 RETURNDATACOPY RETURNDATASIZE PUSH1 0x0 REVERT JUMPDEST POP POP POP POP PUSH1 0x40 MLOAD RETURNDATASIZE PUSH1 0x1F NOT PUSH1 0x1F DUP3 ADD AND DUP3 ADD DUP1 PUSH1 0x40 MSTORE POP DUP2 ADD SWAP1 PUSH2 0x63D SWAP2 SWAP1 PUSH2 0x1005 JUMP JUMPDEST SWAP1 POP SWAP1 JUMP JUMPDEST PUSH2 0x64A PUSH2 0xAAF JUMP JUMPDEST DUP3 DUP2 EQ PUSH2 0x6B8 JUMPI PUSH1 0x40 MLOAD PUSH32 0x8C379A000000000000000000000000000000000000000000000000000000000 DUP2 MSTORE PUSH1 0x20 PUSH1 0x4 DUP3 ADD MSTORE PUSH1 0x13 PUSH1 0x24 DUP3 ADD MSTORE PUSH32 0x77726F6E67206172726179206C656E6774687300000000000000000000000000 PUSH1 0x44 DUP3 ADD MSTORE PUSH1 0x64 ADD JUMPDEST PUSH1 0x40 MLOAD DUP1 SWAP2 SUB SWAP1 REVERT JUMPDEST PUSH1 0x0 JUMPDEST DUP4 DUP2 LT ISZERO PUSH2 0x713 JUMPI PUSH2 0x701 DUP6 DUP6 DUP4 DUP2 DUP2 LT PUSH2 0x6D8 JUMPI PUSH2 0x6D8 PUSH2 0xE96 JUMP JUMPDEST SWAP1 POP PUSH1 0x20 MUL ADD PUSH1 0x20 DUP2 ADD SWAP1 PUSH2 0x6ED SWAP2 SWAP1 PUSH2 0xC50 JUMP JUMPDEST PUSH1 0x0 DUP6 DUP6 DUP6 DUP2 DUP2 LT PUSH2 0x36B JUMPI PUSH2 0x36B PUSH2 0xE96 JUMP JUMPDEST DUP1 PUSH2 0x70B DUP2 PUSH2 0x104D JUMP JUMPDEST SWAP2 POP POP PUSH2 0x6BB JUMP JUMPDEST POP POP POP POP POP JUMP JUMPDEST PUSH1 0x5 SLOAD PUSH20 0xFFFFFFFFFFFFFFFFFFFFFFFFFFFFFFFFFFFFFFFF AND CALLER EQ PUSH2 0x79B JUMPI PUSH1 0x40 MLOAD PUSH32 0x8C379A000000000000000000000000000000000000000000000000000000000 DUP2 MSTORE PUSH1 0x20 PUSH1 0x4 DUP3 ADD MSTORE PUSH1 0x1B PUSH1 0x24 DUP3 ADD MSTORE PUSH32 0x77616C6C65743A206E6F742066726F6D20456E747279506F696E740000000000 PUSH1 0x44 DUP3 ADD MSTORE PUSH1 0x64 ADD PUSH2 0x6AF JUMP JUMPDEST JUMP JUMPDEST PUSH1 0x0 DUP1 DUP1 PUSH2 0x7AF PUSH2 0x140 DUP8 ADD DUP8 PUSH2 0xE31 JUMP JUMPDEST DUP2 ADD SWAP1 PUSH2 0x7BC SWAP2 SWAP1 PUSH2 0x1085 JUMP JUMPDEST PUSH1 0x4 DUP1 SLOAD PUSH1 0x40 DUP1 MLOAD DUP1 DUP3 ADD DUP3 MSTORE DUP7 DUP2 MSTORE PUSH1 0x20 DUP2 ADD DUP7 SWAP1 MSTORE SWAP1 MLOAD PUSH32 0x4E960D700000000000000000000000000000000000000000000000000000000 DUP2 MSTORE SWAP6 SWAP9 POP SWAP4 SWAP7 POP SWAP2 SWAP5 POP PUSH1 0x0 SWAP4 PUSH20 0xFFFFFFFFFFFFFFFFFFFFFFFFFFFFFFFFFFFFFFFF SWAP1 SWAP3 AND SWAP3 PUSH4 0x4E960D7 SWAP3 PUSH2 0x833 SWAP3 DUP8 SWAP3 SWAP2 PUSH1 0x2 SWAP2 ADD PUSH2 0x10B1 JUMP JUMPDEST PUSH1 0x20 PUSH1 0x40 MLOAD DUP1 DUP4 SUB DUP2 DUP7 GAS STATICCALL ISZERO DUP1 ISZERO PUSH2 0x850 JUMPI RETURNDATASIZE PUSH1 0x0 DUP1 RETURNDATACOPY RETURNDATASIZE PUSH1 0x0 REVERT JUMPDEST POP POP POP POP PUSH1 0x40 MLOAD RETURNDATASIZE PUSH1 0x1F NOT PUSH1 0x1F DUP3 ADD AND DUP3 ADD DUP1 PUSH1 0x40 MSTORE POP DUP2 ADD SWAP1 PUSH2 0x874 SWAP2 SWAP1 PUSH2 0x1112 JUMP JUMPDEST SWAP1 POP DUP1 PUSH2 0x8DD JUMPI PUSH1 0x40 MLOAD PUSH32 0x8C379A000000000000000000000000000000000000000000000000000000000 DUP2 MSTORE PUSH1 0x20 PUSH1 0x4 DUP3 ADD MSTORE PUSH1 0x1D PUSH1 0x24 DUP3 ADD MSTORE PUSH32 0x5369676E617475726520766572696669636174696F6E206661696C6564000000 PUSH1 0x44 DUP3 ADD MSTORE PUSH1 0x64 ADD PUSH2 0x6AF JUMP JUMPDEST POP POP POP POP POP POP POP JUMP JUMPDEST PUSH1 0x0 DUP1 SLOAD PUSH1 0x20 DUP4 ADD CALLDATALOAD SWAP2 PUSH12 0xFFFFFFFFFFFFFFFFFFFFFFFF SWAP1 SWAP2 AND SWAP1 DUP1 PUSH2 0x90B DUP4 PUSH2 0x1134 JUMP JUMPDEST SWAP2 SWAP1 PUSH2 0x100 EXP DUP2 SLOAD DUP2 PUSH12 0xFFFFFFFFFFFFFFFFFFFFFFFF MUL NOT AND SWAP1 DUP4 PUSH12 0xFFFFFFFFFFFFFFFFFFFFFFFF AND MUL OR SWAP1 SSTORE POP PUSH12 0xFFFFFFFFFFFFFFFFFFFFFFFF AND EQ PUSH2 0x308 JUMPI PUSH1 0x40 MLOAD PUSH32 0x8C379A000000000000000000000000000000000000000000000000000000000 DUP2 MSTORE PUSH1 0x20 PUSH1 0x4 DUP3 ADD MSTORE PUSH1 0x15 PUSH1 0x24 DUP3 ADD MSTORE PUSH32 0x77616C6C65743A20696E76616C6964206E6F6E63650000000000000000000000 PUSH1 0x44 DUP3 ADD MSTORE PUSH1 0x64 ADD PUSH2 0x6AF JUMP JUMPDEST DUP1 ISZERO PUSH2 0x308 JUMPI PUSH1 0x40 MLOAD PUSH1 0x0 SWAP1 CALLER SWAP1 PUSH32 0xFFFFFFFFFFFFFFFFFFFFFFFFFFFFFFFFFFFFFFFFFFFFFFFFFFFFFFFFFFFFFFFF SWAP1 DUP5 SWAP1 DUP5 DUP2 DUP2 DUP2 DUP6 DUP9 DUP9 CALL SWAP4 POP POP POP POP RETURNDATASIZE DUP1 PUSH1 0x0 DUP2 EQ PUSH2 0x713 JUMPI PUSH1 0x40 MLOAD SWAP2 POP PUSH1 0x1F NOT PUSH1 0x3F RETURNDATASIZE ADD AND DUP3 ADD PUSH1 0x40 MSTORE RETURNDATASIZE DUP3 MSTORE RETURNDATASIZE PUSH1 0x0 PUSH1 0x20 DUP5 ADD RETURNDATACOPY PUSH2 0x713 JUMP JUMPDEST PUSH2 0x79B PUSH2 0xAAF JUMP JUMPDEST PUSH1 0x5 SLOAD PUSH1 0x40 MLOAD PUSH20 0xFFFFFFFFFFFFFFFFFFFFFFFFFFFFFFFFFFFFFFFF DUP1 DUP5 AND SWAP3 AND SWAP1 PUSH32 0x450909C1478D09248269D4AD4FA8CBA61CA3F50FAED58C7AEDEFA51C7F62B83A SWAP1 PUSH1 0x0 SWAP1 LOG3 PUSH1 0x5 DUP1 SLOAD PUSH32 0xFFFFFFFFFFFFFFFFFFFFFFFF0000000000000000000000000000000000000000 AND PUSH20 0xFFFFFFFFFFFFFFFFFFFFFFFFFFFFFFFFFFFFFFFF SWAP3 SWAP1 SWAP3 AND SWAP2 SWAP1 SWAP2 OR SWAP1 SSTORE JUMP JUMPDEST PUSH1 0x0 SLOAD PUSH13 0x1000000000000000000000000 SWAP1 DIV PUSH20 0xFFFFFFFFFFFFFFFFFFFFFFFFFFFFFFFFFFFFFFFF AND CALLER EQ DUP1 PUSH2 0xAE4 JUMPI POP CALLER ADDRESS EQ JUMPDEST PUSH2 0x79B JUMPI PUSH1 0x40 MLOAD PUSH32 0x8C379A000000000000000000000000000000000000000000000000000000000 DUP2 MSTORE PUSH1 0x20 PUSH1 0x4 DUP3 ADD MSTORE PUSH1 0xA PUSH1 0x24 DUP3 ADD MSTORE PUSH32 0x6F6E6C79206F776E657200000000000000000000000000000000000000000000 PUSH1 0x44 DUP3 ADD MSTORE PUSH1 0x64 ADD PUSH2 0x6AF JUMP JUMPDEST PUSH1 0x0 DUP1 DUP5 PUSH20 0xFFFFFFFFFFFFFFFFFFFFFFFFFFFFFFFFFFFFFFFF AND DUP5 DUP5 PUSH1 0x40 MLOAD PUSH2 0xB73 SWAP2 SWAP1 PUSH2 0x115F JUMP JUMPDEST PUSH1 0x0 PUSH1 0x40 MLOAD DUP1 DUP4 SUB DUP2 DUP6 DUP8 GAS CALL SWAP3 POP POP POP RETURNDATASIZE DUP1 PUSH1 0x0 DUP2 EQ PUSH2 0xBB0 JUMPI PUSH1 0x40 MLOAD SWAP2 POP PUSH1 0x1F NOT PUSH1 0x3F RETURNDATASIZE ADD AND DUP3 ADD PUSH1 0x40 MSTORE RETURNDATASIZE DUP3 MSTORE RETURNDATASIZE PUSH1 0x0 PUSH1 0x20 DUP5 ADD RETURNDATACOPY PUSH2 0xBB5 JUMP JUMPDEST PUSH1 0x60 SWAP2 POP JUMPDEST POP SWAP2 POP SWAP2 POP DUP2 PUSH2 0x713 JUMPI DUP1 MLOAD PUSH1 0x20 DUP3 ADD REVERT JUMPDEST PUSH20 0xFFFFFFFFFFFFFFFFFFFFFFFFFFFFFFFFFFFFFFFF DUP2 AND DUP2 EQ PUSH2 0x308 JUMPI PUSH1 0x0 DUP1 REVERT JUMPDEST PUSH1 0x0 DUP1 PUSH1 0x0 DUP1 PUSH1 0x80 DUP6 DUP8 SUB SLT ISZERO PUSH2 0xBFF JUMPI PUSH1 0x0 DUP1 REVERT JUMPDEST DUP5 CALLDATALOAD PUSH8 0xFFFFFFFFFFFFFFFF DUP2 GT ISZERO PUSH2 0xC16 JUMPI PUSH1 0x0 DUP1 REVERT JUMPDEST DUP6 ADD PUSH2 0x160 DUP2 DUP9 SUB SLT ISZERO PUSH2 0xC29 JUMPI PUSH1 0x0 DUP1 REVERT JUMPDEST SWAP4 POP PUSH1 0x20 DUP6 ADD CALLDATALOAD SWAP3 POP PUSH1 0x40 DUP6 ADD CALLDATALOAD PUSH2 0xC40 DUP2 PUSH2 0xBC7 JUMP JUMPDEST SWAP4 SWAP7 SWAP3 SWAP6 POP SWAP3 SWAP4 PUSH1 0x60 ADD CALLDATALOAD SWAP3 POP POP JUMP JUMPDEST PUSH1 0x0 PUSH1 0x20 DUP3 DUP5 SUB SLT ISZERO PUSH2 0xC62 JUMPI PUSH1 0x0 DUP1 REVERT JUMPDEST DUP2 CALLDATALOAD PUSH2 0xC6D DUP2 PUSH2 0xBC7 JUMP JUMPDEST SWAP4 SWAP3 POP POP POP JUMP JUMPDEST PUSH1 0x0 DUP1 DUP4 PUSH1 0x1F DUP5 ADD SLT PUSH2 0xC86 JUMPI PUSH1 0x0 DUP1 REVERT JUMPDEST POP DUP2 CALLDATALOAD PUSH8 0xFFFFFFFFFFFFFFFF DUP2 GT ISZERO PUSH2 0xC9E JUMPI PUSH1 0x0 DUP1 REVERT JUMPDEST PUSH1 0x20 DUP4 ADD SWAP2 POP DUP4 PUSH1 0x20 DUP3 PUSH1 0x5 SHL DUP6 ADD ADD GT ISZERO PUSH2 0xCB9 JUMPI PUSH1 0x0 DUP1 REVERT JUMPDEST SWAP3 POP SWAP3 SWAP1 POP JUMP JUMPDEST PUSH1 0x0 DUP1 PUSH1 0x0 DUP1 PUSH1 0x60 DUP6 DUP8 SUB SLT ISZERO PUSH2 0xCD6 JUMPI PUSH1 0x0 DUP1 REVERT JUMPDEST DUP5 CALLDATALOAD PUSH2 0xCE1 DUP2 PUSH2 0xBC7 JUMP JUMPDEST SWAP4 POP PUSH1 0x20 DUP6 ADD CALLDATALOAD SWAP3 POP PUSH1 0x40 DUP6 ADD CALLDATALOAD PUSH8 0xFFFFFFFFFFFFFFFF DUP2 GT ISZERO PUSH2 0xD04 JUMPI PUSH1 0x0 DUP1 REVERT JUMPDEST PUSH2 0xD10 DUP8 DUP3 DUP9 ADD PUSH2 0xC74 JUMP JUMPDEST SWAP6 SWAP9 SWAP5 SWAP8 POP SWAP6 POP POP POP POP JUMP JUMPDEST PUSH1 0x0 DUP1 PUSH1 0x40 DUP4 DUP6 SUB SLT ISZERO PUSH2 0xD2F JUMPI PUSH1 0x0 DUP1 REVERT JUMPDEST DUP3 CALLDATALOAD PUSH2 0xD3A DUP2 PUSH2 0xBC7 JUMP JUMPDEST SWAP5 PUSH1 0x20 SWAP4 SWAP1 SWAP4 ADD CALLDATALOAD SWAP4 POP POP POP JUMP JUMPDEST PUSH1 0x0 DUP1 PUSH1 0x0 DUP1 PUSH1 0x60 DUP6 DUP8 SUB SLT ISZERO PUSH2 0xD5E JUMPI PUSH1 0x0 DUP1 REVERT JUMPDEST DUP5 CALLDATALOAD PUSH2 0xD69 DUP2 PUSH2 0xBC7 JUMP JUMPDEST SWAP4 POP PUSH1 0x20 DUP6 ADD CALLDATALOAD SWAP3 POP PUSH1 0x40 DUP6 ADD CALLDATALOAD PUSH8 0xFFFFFFFFFFFFFFFF DUP1 DUP3 GT ISZERO PUSH2 0xD8D JUMPI PUSH1 0x0 DUP1 REVERT JUMPDEST DUP2 DUP8 ADD SWAP2 POP DUP8 PUSH1 0x1F DUP4 ADD SLT PUSH2 0xDA1 JUMPI PUSH1 0x0 DUP1 REVERT JUMPDEST DUP2 CALLDATALOAD DUP2 DUP2 GT ISZERO PUSH2 0xDB0 JUMPI PUSH1 0x0 DUP1 REVERT JUMPDEST DUP9 PUSH1 0x20 DUP3 DUP6 ADD ADD GT ISZERO PUSH2 0xDC2 JUMPI PUSH1 0x0 DUP1 REVERT JUMPDEST SWAP6 SWAP9 SWAP5 SWAP8 POP POP PUSH1 0x20 ADD SWAP5 POP POP POP JUMP JUMPDEST PUSH1 0x0 DUP1 PUSH1 0x0 DUP1 PUSH1 0x40 DUP6 DUP8 SUB SLT ISZERO PUSH2 0xDE7 JUMPI PUSH1 0x0 DUP1 REVERT JUMPDEST DUP5 CALLDATALOAD PUSH8 0xFFFFFFFFFFFFFFFF DUP1 DUP3 GT ISZERO PUSH2 0xDFF JUMPI PUSH1 0x0 DUP1 REVERT JUMPDEST PUSH2 0xE0B DUP9 DUP4 DUP10 ADD PUSH2 0xC74 JUMP JUMPDEST SWAP1 SWAP7 POP SWAP5 POP PUSH1 0x20 DUP8 ADD CALLDATALOAD SWAP2 POP DUP1 DUP3 GT ISZERO PUSH2 0xE24 JUMPI PUSH1 0x0 DUP1 REVERT JUMPDEST POP PUSH2 0xD10 DUP8 DUP3 DUP9 ADD PUSH2 0xC74 JUMP JUMPDEST PUSH1 0x0 DUP1 DUP4 CALLDATALOAD PUSH32 0xFFFFFFFFFFFFFFFFFFFFFFFFFFFFFFFFFFFFFFFFFFFFFFFFFFFFFFFFFFFFFFE1 DUP5 CALLDATASIZE SUB ADD DUP2 SLT PUSH2 0xE66 JUMPI PUSH1 0x0 DUP1 REVERT JUMPDEST DUP4 ADD DUP1 CALLDATALOAD SWAP2 POP PUSH8 0xFFFFFFFFFFFFFFFF DUP3 GT ISZERO PUSH2 0xE81 JUMPI PUSH1 0x0 DUP1 REVERT JUMPDEST PUSH1 0x20 ADD SWAP2 POP CALLDATASIZE DUP2 SWAP1 SUB DUP3 SGT ISZERO PUSH2 0xCB9 JUMPI PUSH1 0x0 DUP1 REVERT JUMPDEST PUSH32 0x4E487B7100000000000000000000000000000000000000000000000000000000 PUSH1 0x0 MSTORE PUSH1 0x32 PUSH1 0x4 MSTORE PUSH1 0x24 PUSH1 0x0 REVERT JUMPDEST PUSH1 0x40 DUP1 MLOAD SWAP1 DUP2 ADD PUSH8 0xFFFFFFFFFFFFFFFF DUP2 GT DUP3 DUP3 LT OR ISZERO PUSH2 0xF0F JUMPI PUSH32 0x4E487B7100000000000000000000000000000000000000000000000000000000 PUSH1 0x0 MSTORE PUSH1 0x41 PUSH1 0x4 MSTORE PUSH1 0x24 PUSH1 0x0 REVERT JUMPDEST PUSH1 0x40 MSTORE SWAP1 JUMP JUMPDEST PUSH1 0x0 DUP3 PUSH1 0x1F DUP4 ADD SLT PUSH2 0xF26 JUMPI PUSH1 0x0 DUP1 REVERT JUMPDEST PUSH2 0xF2E PUSH2 0xEC5 JUMP JUMPDEST DUP1 PUSH1 0x40 DUP5 ADD DUP6 DUP2 GT ISZERO PUSH2 0xF40 JUMPI PUSH1 0x0 DUP1 REVERT JUMPDEST DUP5 JUMPDEST DUP2 DUP2 LT ISZERO PUSH2 0xF5A JUMPI DUP1 CALLDATALOAD DUP5 MSTORE PUSH1 0x20 SWAP4 DUP5 ADD SWAP4 ADD PUSH2 0xF42 JUMP JUMPDEST POP SWAP1 SWAP6 SWAP5 POP POP POP POP POP JUMP JUMPDEST PUSH1 0x0 DUP1 PUSH1 0x0 DUP1 PUSH2 0x140 DUP6 DUP8 SUB SLT ISZERO PUSH2 0xF7C JUMPI PUSH1 0x0 DUP1 REVERT JUMPDEST PUSH2 0xF86 DUP7 DUP7 PUSH2 0xF15 JUMP JUMPDEST SWAP4 POP PUSH1 0x40 DUP7 PUSH1 0x5F DUP8 ADD SLT PUSH2 0xF99 JUMPI PUSH1 0x0 DUP1 REVERT JUMPDEST PUSH2 0xFA1 PUSH2 0xEC5 JUMP JUMPDEST DUP1 PUSH1 0xC0 DUP9 ADD DUP10 DUP2 GT ISZERO PUSH2 0xFB3 JUMPI PUSH1 0x0 DUP1 REVERT JUMPDEST DUP4 DUP10 ADD JUMPDEST DUP2 DUP2 LT ISZERO PUSH2 0xFD8 JUMPI PUSH2 0xFC9 DUP12 DUP3 PUSH2 0xF15 JUMP JUMPDEST DUP5 MSTORE PUSH1 0x20 SWAP1 SWAP4 ADD SWAP3 DUP5 ADD PUSH2 0xFB7 JUMP JUMPDEST POP DUP2 SWAP7 POP PUSH2 0xFE6 DUP11 DUP3 PUSH2 0xF15 JUMP JUMPDEST SWAP6 POP POP POP POP POP PUSH2 0xFFA DUP7 PUSH2 0x100 DUP8 ADD PUSH2 0xF15 JUMP JUMPDEST SWAP1 POP SWAP3 SWAP6 SWAP2 SWAP5 POP SWAP3 POP JUMP JUMPDEST PUSH1 0x0 PUSH1 0x20 DUP3 DUP5 SUB SLT ISZERO PUSH2 0x1017 JUMPI PUSH1 0x0 DUP1 REVERT JUMPDEST POP MLOAD SWAP2 SWAP1 POP JUMP JUMPDEST PUSH32 0x4E487B7100000000000000000000000000000000000000000000000000000000 PUSH1 0x0 MSTORE PUSH1 0x11 PUSH1 0x4 MSTORE PUSH1 0x24 PUSH1 0x0 REVERT JUMPDEST PUSH1 0x0 PUSH32 0xFFFFFFFFFFFFFFFFFFFFFFFFFFFFFFFFFFFFFFFFFFFFFFFFFFFFFFFFFFFFFFFF DUP3 SUB PUSH2 0x107E JUMPI PUSH2 0x107E PUSH2 0x101E JUMP JUMPDEST POP PUSH1 0x1 ADD SWAP1 JUMP JUMPDEST PUSH1 0x0 DUP1 PUSH1 0x0 PUSH1 0x60 DUP5 DUP7 SUB SLT ISZERO PUSH2 0x109A JUMPI PUSH1 0x0 DUP1 REVERT JUMPDEST POP POP DUP2 CALLDATALOAD SWAP4 PUSH1 0x20 DUP4 ADD CALLDATALOAD SWAP4 POP PUSH1 0x40 SWAP1 SWAP3 ADD CALLDATALOAD SWAP2 SWAP1 POP JUMP JUMPDEST DUP4 DUP2 MSTORE PUSH1 0xA0 DUP2 ADD PUSH1 0x20 DUP1 DUP4 ADD DUP6 PUSH1 0x0 JUMPDEST PUSH1 0x2 DUP2 LT ISZERO PUSH2 0x10DE JUMPI DUP2 MLOAD DUP4 MSTORE SWAP2 DUP4 ADD SWAP2 SWAP1 DUP4 ADD SWAP1 PUSH1 0x1 ADD PUSH2 0x10C1 JUMP JUMPDEST POP POP POP PUSH1 0x60 DUP4 ADD DUP5 PUSH1 0x0 JUMPDEST PUSH1 0x2 DUP2 LT ISZERO PUSH2 0x1106 JUMPI DUP2 SLOAD DUP4 MSTORE SWAP2 DUP4 ADD SWAP2 PUSH1 0x1 SWAP2 DUP3 ADD SWAP2 ADD PUSH2 0x10E9 JUMP JUMPDEST POP POP POP POP SWAP5 SWAP4 POP POP POP POP JUMP JUMPDEST PUSH1 0x0 PUSH1 0x20 DUP3 DUP5 SUB SLT ISZERO PUSH2 0x1124 JUMPI PUSH1 0x0 DUP1 REVERT JUMPDEST DUP2 MLOAD DUP1 ISZERO ISZERO DUP2 EQ PUSH2 0xC6D JUMPI PUSH1 0x0 DUP1 REVERT JUMPDEST PUSH1 0x0 PUSH12 0xFFFFFFFFFFFFFFFFFFFFFFFF DUP1 DUP4 AND DUP2 DUP2 SUB PUSH2 0x1155 JUMPI PUSH2 0x1155 PUSH2 0x101E JUMP JUMPDEST PUSH1 0x1 ADD SWAP4 SWAP3 POP POP POP JUMP JUMPDEST PUSH1 0x0 DUP3 MLOAD PUSH1 0x0 JUMPDEST DUP2 DUP2 LT ISZERO PUSH2 0x1180 JUMPI PUSH1 0x20 DUP2 DUP7 ADD DUP2 ADD MLOAD DUP6 DUP4 ADD MSTORE ADD PUSH2 0x1166 JUMP JUMPDEST DUP2 DUP2 GT ISZERO PUSH2 0x118F JUMPI PUSH1 0x0 DUP3 DUP6 ADD MSTORE JUMPDEST POP SWAP2 SWAP1 SWAP2 ADD SWAP3 SWAP2 POP POP JUMP INVALID LOG2 PUSH5 0x6970667358 0x22 SLT KECCAK256 EQ CALLCODE 0xB8 JUMPDEST 0xB3 0xD1 SWAP13 0xE5 SWAP7 PUSH8 0xBF71A3656286104B SWAP7 CODESIZE CODECOPY 0x4D SELFDESTRUCT PUSH12 0x3F0F858FC763E56964736F6C PUSH4 0x4300080F STOP CALLER LOG2 PUSH5 0x6970667358 0x22 SLT KECCAK256 OR 0x23 MSTORE PUSH5 0x6559F0F78 JUMP 0xBD 0xCD PUSH29 0x64A908F38F19D40FA00A445533E08AB9E993E264736F6C634300080F00 CALLER "
        },
        "methodIdentifiers": {
          "deployWallet(address,address,uint256,uint256[2],address)": "8cf66e34",
          "getDeploymentAddress(address,address,uint256,uint256[2],address)": "859291c3"
        }
      }
    }
  }
}