{
  "contracts/EllipticCurve.sol": {
    "EllipticCurve": {
      "abi": [
        {
          "inputs": [
            {
              "internalType": "uint256",
              "name": "x0",
              "type": "uint256"
            },
            {
              "internalType": "uint256",
              "name": "y0",
              "type": "uint256"
            },
            {
              "internalType": "uint256",
              "name": "x1",
              "type": "uint256"
            },
            {
              "internalType": "uint256",
              "name": "y1",
              "type": "uint256"
            }
          ],
          "name": "add",
          "outputs": [
            {
              "internalType": "uint256",
              "name": "",
              "type": "uint256"
            },
            {
              "internalType": "uint256",
              "name": "",
              "type": "uint256"
            }
          ],
          "stateMutability": "pure",
          "type": "function"
        },
        {
          "inputs": [
            {
              "internalType": "uint256",
              "name": "x1",
              "type": "uint256"
            },
            {
              "internalType": "uint256",
              "name": "y1",
              "type": "uint256"
            },
            {
              "internalType": "uint256",
              "name": "x2",
              "type": "uint256"
            },
            {
              "internalType": "uint256",
              "name": "y2",
              "type": "uint256"
            }
          ],
          "name": "addAndReturnProjectivePoint",
          "outputs": [
            {
              "internalType": "uint256[3]",
              "name": "P",
              "type": "uint256[3]"
            }
          ],
          "stateMutability": "pure",
          "type": "function"
        },
        {
          "inputs": [
            {
              "internalType": "uint256",
              "name": "x0",
              "type": "uint256"
            },
            {
              "internalType": "uint256",
              "name": "y0",
              "type": "uint256"
            },
            {
              "internalType": "uint256",
              "name": "z0",
              "type": "uint256"
            },
            {
              "internalType": "uint256",
              "name": "x1",
              "type": "uint256"
            },
            {
              "internalType": "uint256",
              "name": "y1",
              "type": "uint256"
            },
            {
              "internalType": "uint256",
              "name": "z1",
              "type": "uint256"
            }
          ],
          "name": "addProj",
          "outputs": [
            {
              "internalType": "uint256",
              "name": "x2",
              "type": "uint256"
            },
            {
              "internalType": "uint256",
              "name": "y2",
              "type": "uint256"
            },
            {
              "internalType": "uint256",
              "name": "z2",
              "type": "uint256"
            }
          ],
          "stateMutability": "pure",
          "type": "function"
        },
        {
          "inputs": [
            {
              "internalType": "uint256",
              "name": "x",
              "type": "uint256"
            },
            {
              "internalType": "uint256",
              "name": "y",
              "type": "uint256"
            }
          ],
          "name": "isOnCurve",
          "outputs": [
            {
              "internalType": "bool",
              "name": "",
              "type": "bool"
            }
          ],
          "stateMutability": "pure",
          "type": "function"
        },
        {
          "inputs": [
            {
              "internalType": "uint256",
              "name": "x0",
              "type": "uint256"
            },
            {
              "internalType": "uint256",
              "name": "y0",
              "type": "uint256"
            }
          ],
          "name": "isZeroCurve",
          "outputs": [
            {
              "internalType": "bool",
              "name": "isZero",
              "type": "bool"
            }
          ],
          "stateMutability": "pure",
          "type": "function"
        },
        {
          "inputs": [
            {
              "internalType": "uint256",
              "name": "scalar",
              "type": "uint256"
            }
          ],
          "name": "multipleGeneratorByScalar",
          "outputs": [
            {
              "internalType": "uint256",
              "name": "",
              "type": "uint256"
            },
            {
              "internalType": "uint256",
              "name": "",
              "type": "uint256"
            }
          ],
          "stateMutability": "pure",
          "type": "function"
        },
        {
          "inputs": [
            {
              "internalType": "uint256",
              "name": "x0",
              "type": "uint256"
            },
            {
              "internalType": "uint256",
              "name": "y0",
              "type": "uint256"
            },
            {
              "internalType": "uint256",
              "name": "exp",
              "type": "uint256"
            }
          ],
          "name": "multiplyPowerBase2",
          "outputs": [
            {
              "internalType": "uint256",
              "name": "",
              "type": "uint256"
            },
            {
              "internalType": "uint256",
              "name": "",
              "type": "uint256"
            }
          ],
          "stateMutability": "pure",
          "type": "function"
        },
        {
          "inputs": [
            {
              "internalType": "uint256",
              "name": "x0",
              "type": "uint256"
            },
            {
              "internalType": "uint256",
              "name": "y0",
              "type": "uint256"
            },
            {
              "internalType": "uint256",
              "name": "scalar",
              "type": "uint256"
            }
          ],
          "name": "multiplyScalar",
          "outputs": [
            {
              "internalType": "uint256",
              "name": "x1",
              "type": "uint256"
            },
            {
              "internalType": "uint256",
              "name": "y1",
              "type": "uint256"
            }
          ],
          "stateMutability": "pure",
          "type": "function"
        },
        {
          "inputs": [
            {
              "internalType": "uint256",
              "name": "x0",
              "type": "uint256"
            },
            {
              "internalType": "uint256",
              "name": "y0",
              "type": "uint256"
            },
            {
              "internalType": "uint256",
              "name": "z0",
              "type": "uint256"
            }
          ],
          "name": "toAffinePoint",
          "outputs": [
            {
              "internalType": "uint256",
              "name": "x1",
              "type": "uint256"
            },
            {
              "internalType": "uint256",
              "name": "y1",
              "type": "uint256"
            }
          ],
          "stateMutability": "pure",
          "type": "function"
        },
        {
          "inputs": [
            {
              "internalType": "uint256",
              "name": "x0",
              "type": "uint256"
            },
            {
              "internalType": "uint256",
              "name": "y0",
              "type": "uint256"
            }
          ],
          "name": "toProjectivePoint",
          "outputs": [
            {
              "internalType": "uint256[3]",
              "name": "P",
              "type": "uint256[3]"
            }
          ],
          "stateMutability": "pure",
          "type": "function"
        },
        {
          "inputs": [
            {
              "internalType": "uint256",
              "name": "x0",
              "type": "uint256"
            },
            {
              "internalType": "uint256",
              "name": "y0",
              "type": "uint256"
            }
          ],
          "name": "twice",
          "outputs": [
            {
              "internalType": "uint256",
              "name": "",
              "type": "uint256"
            },
            {
              "internalType": "uint256",
              "name": "",
              "type": "uint256"
            }
          ],
          "stateMutability": "pure",
          "type": "function"
        },
        {
          "inputs": [
            {
              "internalType": "uint256",
              "name": "x0",
              "type": "uint256"
            },
            {
              "internalType": "uint256",
              "name": "y0",
              "type": "uint256"
            },
            {
              "internalType": "uint256",
              "name": "z0",
              "type": "uint256"
            }
          ],
          "name": "twiceProj",
          "outputs": [
            {
              "internalType": "uint256",
              "name": "x1",
              "type": "uint256"
            },
            {
              "internalType": "uint256",
              "name": "y1",
              "type": "uint256"
            },
            {
              "internalType": "uint256",
              "name": "z1",
              "type": "uint256"
            }
          ],
          "stateMutability": "pure",
          "type": "function"
        },
        {
          "inputs": [
            {
              "internalType": "bytes32",
              "name": "message",
              "type": "bytes32"
            },
            {
              "internalType": "uint256[2]",
              "name": "rs",
              "type": "uint256[2]"
            },
            {
              "internalType": "uint256[2]",
              "name": "Q",
              "type": "uint256[2]"
            }
          ],
          "name": "validateSignature",
          "outputs": [
            {
              "internalType": "bool",
              "name": "",
              "type": "bool"
            }
          ],
          "stateMutability": "pure",
          "type": "function"
        },
        {
          "inputs": [],
          "name": "zeroAffine",
          "outputs": [
            {
              "internalType": "uint256",
              "name": "x",
              "type": "uint256"
            },
            {
              "internalType": "uint256",
              "name": "y",
              "type": "uint256"
            }
          ],
          "stateMutability": "pure",
          "type": "function"
        },
        {
          "inputs": [],
          "name": "zeroProj",
          "outputs": [
            {
              "internalType": "uint256",
              "name": "x",
              "type": "uint256"
            },
            {
              "internalType": "uint256",
              "name": "y",
              "type": "uint256"
            },
            {
              "internalType": "uint256",
              "name": "z",
              "type": "uint256"
            }
          ],
          "stateMutability": "pure",
          "type": "function"
        }
      ],
      "evm": {
        "bytecode": {
          "linkReferences": {},
          "object": "608060405234801561001057600080fd5b5061154f806100206000396000f3fe608060405234801561001057600080fd5b50600436106100f55760003560e01c8063713eca2811610097578063c30cfa2d11610066578063c30cfa2d14610205578063c80edca414610218578063e022d77c1461022b578063f214aba01461023e57600080fd5b8063713eca28146101b757806372fb4a14146101d75780637ec8da8d146101ea57806384dfba46146101fd57600080fd5b80630b0dbcfa116100d35780630b0dbcfa1461015d57806314c6706014610170578063322b24aa14610191578063675ca043146101a457600080fd5b806304e960d7146100fa57806309d3ef31146101225780630afb4ddc1461014a575b600080fd5b61010d610108366004611305565b610251565b60405190151581526020015b60405180910390f35b610135610130366004611343565b610470565b60408051928352602083019190915201610119565b610135610158366004611365565b61049f565b61010d61016b366004611343565b6104f6565b60006001815b60408051938452602084019290925290820152606001610119565b61013561019f36600461137e565b610670565b6101356101b236600461137e565b6106c1565b6101ca6101c53660046113aa565b610747565b60405161011991906113dc565b6101356101e536600461137e565b610778565b6101ca6101f8366004611343565b610847565b600080610135565b61010d610213366004611343565b6108d6565b61017661022636600461137e565b6108fa565b6101356102393660046113aa565b610d05565b61017661024c36600461140d565b610d3a565b81516000901580610283575082517fffffffff00000000ffffffffffffffffbce6faada7179e84f3b9cac2fc63255111155b8061029057506020830151155b1561029d57506000610469565b815160208301516102ae91906104f6565b6102ba57506000610469565b6000808080806102f188600160200201517fffffffff00000000ffffffffffffffffbce6faada7179e84f3b9cac2fc632551610e99565b90506103617f6b17d1f2e12c4247f8bce6e563a440f277037d812deb33a0f4a13945d898c2967f4fe342e2fe1a7f9b8ee7eb4a7c0f9e162bce33576b315ececbb6406837bf51f57fffffffff00000000ffffffffffffffffbce6faada7179e84f3b9cac2fc632551848d09610778565b885160208a01518b519398509195506103a1929091907fffffffff00000000ffffffffffffffffbce6faada7179e84f3b9cac2fc63255190859009610778565b909450915060006103b486858786610747565b60408101519091506000036103d25760009650505050505050610469565b600061040582600260200201517fffffffff00000001000000000000000000000000ffffffffffffffffffffffff610e99565b90507fffffffff00000001000000000000000000000000ffffffffffffffffffffffff808283098351098a5190915061045e7fffffffff00000000ffffffffffffffffbce6faada7179e84f3b9cac2fc6325518361147f565b149750505050505050505b9392505050565b6000806000610481858560016108fa565b919650945090506104938585836106c1565b92509250509250929050565b6000806104ed7f6b17d1f2e12c4247f8bce6e563a440f277037d812deb33a0f4a13945d898c2967f4fe342e2fe1a7f9b8ee7eb4a7c0f9e162bce33576b315ececbb6406837bf51f585610778565b91509150915091565b600082158061052457507fffffffff00000001000000000000000000000000ffffffffffffffffffffffff83145b8061052d575081155b8061055757507fffffffff00000001000000000000000000000000ffffffffffffffffffffffff82145b156105645750600061066a565b60007fffffffff00000001000000000000000000000000ffffffffffffffffffffffff838409905060007fffffffff00000001000000000000000000000000ffffffffffffffffffffffff857fffffffff00000001000000000000000000000000ffffffffffffffffffffffff8788090990507fffffffff00000001000000000000000000000000ffffffffffffffffffffffff807fffffffff00000001000000000000000000000000fffffffffffffffffffffffc8709820890507fffffffff00000001000000000000000000000000ffffffffffffffffffffffff7f5ac635d8aa3a93e7b3ebbd55769886bc651d06b0cc53b0f63bce3c3e27d2604b820890501490505b92915050565b60008084846001835b868110156106a55761068c8484846108fa565b919550935091508061069d816114ba565b915050610679565b506106b18383836106c1565b945094505050505b935093915050565b60008060006106f0847fffffffff00000001000000000000000000000000ffffffffffffffffffffffff610e99565b90507fffffffff00000001000000000000000000000000ffffffffffffffffffffffff81870992507fffffffff00000001000000000000000000000000ffffffffffffffffffffffff818609915050935093915050565b61074f611250565b60008061075e87878787610d05565b909250905061076d8282610847565b979650505050505050565b60008082600003610790576000805b915091506106b9565b826001036107a25750839050826106b9565b826002036107b4576107878585610470565b508390508281816001806107c960028861147f565b6000036107d857600094508495505b600187901c96505b861561082c576107f18484846108fa565b9195509350915061080360028861147f565b60010361082057610818848484898986610d3a565b919750955090505b600187901c96506107e0565b6108378686836106c1565b9550955050505050935093915050565b61084f611250565b7fffffffff00000001000000000000000000000000ffffffffffffffffffffffff6001600008604082018190527fffffffff00000001000000000000000000000000ffffffffffffffffffffffff908409815260408101517fffffffff00000001000000000000000000000000ffffffffffffffffffffffff908309602082015292915050565b6000821580156108e4575081155b156108f15750600161066a565b50600092915050565b600080600080600080600061090f8a8a6108d6565b1561092857600060018196509650965050505050610cfc565b7fffffffff00000001000000000000000000000000ffffffffffffffffffffffff888a0992507fffffffff00000001000000000000000000000000ffffffffffffffffffffffff6002840992507fffffffff00000001000000000000000000000000ffffffffffffffffffffffff8a840991507fffffffff00000001000000000000000000000000ffffffffffffffffffffffff89830991507fffffffff00000001000000000000000000000000ffffffffffffffffffffffff6002830991507fffffffff00000001000000000000000000000000ffffffffffffffffffffffff8a8b0999507fffffffff00000001000000000000000000000000ffffffffffffffffffffffff60038b0993507fffffffff00000001000000000000000000000000ffffffffffffffffffffffff88890997507fffffffff00000001000000000000000000000000ffffffffffffffffffffffff7fffffffff00000001000000000000000000000000fffffffffffffffffffffffc890997507fffffffff00000001000000000000000000000000ffffffffffffffffffffffff88850893507fffffffff00000001000000000000000000000000ffffffffffffffffffffffff84850990507fffffffff00000001000000000000000000000000ffffffffffffffffffffffff8260020999507fffffffff00000001000000000000000000000000ffffffffffffffffffffffff8a7fffffffff00000001000000000000000000000000ffffffffffffffffffffffff03820890507fffffffff00000001000000000000000000000000ffffffffffffffffffffffff817fffffffff00000001000000000000000000000000ffffffffffffffffffffffff03830899507fffffffff00000001000000000000000000000000ffffffffffffffffffffffff8a850999507fffffffff00000001000000000000000000000000ffffffffffffffffffffffff838a0998507fffffffff00000001000000000000000000000000ffffffffffffffffffffffff898a0998507fffffffff00000001000000000000000000000000ffffffffffffffffffffffff8960020998507fffffffff00000001000000000000000000000000ffffffffffffffffffffffff897fffffffff00000001000000000000000000000000ffffffffffffffffffffffff038b0895507fffffffff00000001000000000000000000000000ffffffffffffffffffffffff81840996507fffffffff00000001000000000000000000000000ffffffffffffffffffffffff83840994507fffffffff00000001000000000000000000000000ffffffffffffffffffffffff8386099450505050505b93509350939050565b6000806000610d1a8787600188886001610d3a565b91985096509050610d2c8787836106c1565b925092505094509492505050565b6000806000806000806000610d4f8d8d6108d6565b15610d665789898996509650965050505050610e8d565b610d708a8a6108d6565b15610d87578c8c8c96509650965050505050610e8d565b7fffffffff00000001000000000000000000000000ffffffffffffffffffffffff888d0993507fffffffff00000001000000000000000000000000ffffffffffffffffffffffff8b8a0992507fffffffff00000001000000000000000000000000ffffffffffffffffffffffff888e0991507fffffffff00000001000000000000000000000000ffffffffffffffffffffffff8b8b099050808203610e5157828403610e4757610e388d8d8d6108fa565b96509650965050505050610e8d565b6000600181610e38565b610e817fffffffff00000001000000000000000000000000ffffffffffffffffffffffff898d0983838688610f2d565b91985096509450505050505b96509650969350505050565b6000821580610ea757508183145b80610eb0575081155b15610ebd5750600061066a565b81831115610ed257610ecf828461147f565b92505b600060018385835b8115610f0957818381610eef57610eef611450565b949594048581029094039391928383029003919050610eda565b6000851215610f2157505050908301915061066a9050565b50929695505050505050565b6000808080808080807fffffffff00000001000000000000000000000000ffffffffffffffffffffffff8a7fffffffff00000001000000000000000000000000ffffffffffffffffffffffff038a0890507fffffffff00000001000000000000000000000000ffffffffffffffffffffffff8b7fffffffff00000001000000000000000000000000ffffffffffffffffffffffff038d0894507fffffffff00000001000000000000000000000000ffffffffffffffffffffffff85860993507fffffffff00000001000000000000000000000000ffffffffffffffffffffffff81820991507fffffffff00000001000000000000000000000000ffffffffffffffffffffffff8d830991507fffffffff00000001000000000000000000000000ffffffffffffffffffffffff8c8c089a507fffffffff00000001000000000000000000000000ffffffffffffffffffffffff848c099a507fffffffff00000001000000000000000000000000ffffffffffffffffffffffff8b7fffffffff00000001000000000000000000000000ffffffffffffffffffffffff03830891507fffffffff00000001000000000000000000000000ffffffffffffffffffffffff82860997507fffffffff00000001000000000000000000000000ffffffffffffffffffffffff85850992507fffffffff00000001000000000000000000000000ffffffffffffffffffffffff848d099b507fffffffff00000001000000000000000000000000ffffffffffffffffffffffff827fffffffff00000001000000000000000000000000ffffffffffffffffffffffff038d089b507fffffffff00000001000000000000000000000000ffffffffffffffffffffffff8c820990507fffffffff00000001000000000000000000000000ffffffffffffffffffffffff838a0998507fffffffff00000001000000000000000000000000ffffffffffffffffffffffff897fffffffff00000001000000000000000000000000ffffffffffffffffffffffff03820896507fffffffff00000001000000000000000000000000ffffffffffffffffffffffff8d840995505050505050955095509592505050565b60405180606001604052806003906020820280368337509192915050565b600082601f83011261127f57600080fd5b6040516040810181811067ffffffffffffffff821117156112c9577f4e487b7100000000000000000000000000000000000000000000000000000000600052604160045260246000fd5b80604052508060408401858111156112e057600080fd5b845b818110156112fa5780358352602092830192016112e2565b509195945050505050565b600080600060a0848603121561131a57600080fd5b8335925061132b856020860161126e565b915061133a856060860161126e565b90509250925092565b6000806040838503121561135657600080fd5b50508035926020909101359150565b60006020828403121561137757600080fd5b5035919050565b60008060006060848603121561139357600080fd5b505081359360208301359350604090920135919050565b600080600080608085870312156113c057600080fd5b5050823594602084013594506040840135936060013592509050565b60608101818360005b60038110156114045781518352602092830192909101906001016113e5565b50505092915050565b60008060008060008060c0878903121561142657600080fd5b505084359660208601359650604086013595606081013595506080810135945060a0013592509050565b7f4e487b7100000000000000000000000000000000000000000000000000000000600052601260045260246000fd5b6000826114b5577f4e487b7100000000000000000000000000000000000000000000000000000000600052601260045260246000fd5b500690565b60007fffffffffffffffffffffffffffffffffffffffffffffffffffffffffffffffff8203611512577f4e487b7100000000000000000000000000000000000000000000000000000000600052601160045260246000fd5b506001019056fea2646970667358221220b45ea46fe3b236af86fb35456e70629c3cb1c9d254019200dcbb22ece14466d164736f6c634300080f0033",
          "opcodes": "PUSH1 0x80 PUSH1 0x40 MSTORE CALLVALUE DUP1 ISZERO PUSH2 0x10 JUMPI PUSH1 0x0 DUP1 REVERT JUMPDEST POP PUSH2 0x154F DUP1 PUSH2 0x20 PUSH1 0x0 CODECOPY PUSH1 0x0 RETURN INVALID PUSH1 0x80 PUSH1 0x40 MSTORE CALLVALUE DUP1 ISZERO PUSH2 0x10 JUMPI PUSH1 0x0 DUP1 REVERT JUMPDEST POP PUSH1 0x4 CALLDATASIZE LT PUSH2 0xF5 JUMPI PUSH1 0x0 CALLDATALOAD PUSH1 0xE0 SHR DUP1 PUSH4 0x713ECA28 GT PUSH2 0x97 JUMPI DUP1 PUSH4 0xC30CFA2D GT PUSH2 0x66 JUMPI DUP1 PUSH4 0xC30CFA2D EQ PUSH2 0x205 JUMPI DUP1 PUSH4 0xC80EDCA4 EQ PUSH2 0x218 JUMPI DUP1 PUSH4 0xE022D77C EQ PUSH2 0x22B JUMPI DUP1 PUSH4 0xF214ABA0 EQ PUSH2 0x23E JUMPI PUSH1 0x0 DUP1 REVERT JUMPDEST DUP1 PUSH4 0x713ECA28 EQ PUSH2 0x1B7 JUMPI DUP1 PUSH4 0x72FB4A14 EQ PUSH2 0x1D7 JUMPI DUP1 PUSH4 0x7EC8DA8D EQ PUSH2 0x1EA JUMPI DUP1 PUSH4 0x84DFBA46 EQ PUSH2 0x1FD JUMPI PUSH1 0x0 DUP1 REVERT JUMPDEST DUP1 PUSH4 0xB0DBCFA GT PUSH2 0xD3 JUMPI DUP1 PUSH4 0xB0DBCFA EQ PUSH2 0x15D JUMPI DUP1 PUSH4 0x14C67060 EQ PUSH2 0x170 JUMPI DUP1 PUSH4 0x322B24AA EQ PUSH2 0x191 JUMPI DUP1 PUSH4 0x675CA043 EQ PUSH2 0x1A4 JUMPI PUSH1 0x0 DUP1 REVERT JUMPDEST DUP1 PUSH4 0x4E960D7 EQ PUSH2 0xFA JUMPI DUP1 PUSH4 0x9D3EF31 EQ PUSH2 0x122 JUMPI DUP1 PUSH4 0xAFB4DDC EQ PUSH2 0x14A JUMPI JUMPDEST PUSH1 0x0 DUP1 REVERT JUMPDEST PUSH2 0x10D PUSH2 0x108 CALLDATASIZE PUSH1 0x4 PUSH2 0x1305 JUMP JUMPDEST PUSH2 0x251 JUMP JUMPDEST PUSH1 0x40 MLOAD SWAP1 ISZERO ISZERO DUP2 MSTORE PUSH1 0x20 ADD JUMPDEST PUSH1 0x40 MLOAD DUP1 SWAP2 SUB SWAP1 RETURN JUMPDEST PUSH2 0x135 PUSH2 0x130 CALLDATASIZE PUSH1 0x4 PUSH2 0x1343 JUMP JUMPDEST PUSH2 0x470 JUMP JUMPDEST PUSH1 0x40 DUP1 MLOAD SWAP3 DUP4 MSTORE PUSH1 0x20 DUP4 ADD SWAP2 SWAP1 SWAP2 MSTORE ADD PUSH2 0x119 JUMP JUMPDEST PUSH2 0x135 PUSH2 0x158 CALLDATASIZE PUSH1 0x4 PUSH2 0x1365 JUMP JUMPDEST PUSH2 0x49F JUMP JUMPDEST PUSH2 0x10D PUSH2 0x16B CALLDATASIZE PUSH1 0x4 PUSH2 0x1343 JUMP JUMPDEST PUSH2 0x4F6 JUMP JUMPDEST PUSH1 0x0 PUSH1 0x1 DUP2 JUMPDEST PUSH1 0x40 DUP1 MLOAD SWAP4 DUP5 MSTORE PUSH1 0x20 DUP5 ADD SWAP3 SWAP1 SWAP3 MSTORE SWAP1 DUP3 ADD MSTORE PUSH1 0x60 ADD PUSH2 0x119 JUMP JUMPDEST PUSH2 0x135 PUSH2 0x19F CALLDATASIZE PUSH1 0x4 PUSH2 0x137E JUMP JUMPDEST PUSH2 0x670 JUMP JUMPDEST PUSH2 0x135 PUSH2 0x1B2 CALLDATASIZE PUSH1 0x4 PUSH2 0x137E JUMP JUMPDEST PUSH2 0x6C1 JUMP JUMPDEST PUSH2 0x1CA PUSH2 0x1C5 CALLDATASIZE PUSH1 0x4 PUSH2 0x13AA JUMP JUMPDEST PUSH2 0x747 JUMP JUMPDEST PUSH1 0x40 MLOAD PUSH2 0x119 SWAP2 SWAP1 PUSH2 0x13DC JUMP JUMPDEST PUSH2 0x135 PUSH2 0x1E5 CALLDATASIZE PUSH1 0x4 PUSH2 0x137E JUMP JUMPDEST PUSH2 0x778 JUMP JUMPDEST PUSH2 0x1CA PUSH2 0x1F8 CALLDATASIZE PUSH1 0x4 PUSH2 0x1343 JUMP JUMPDEST PUSH2 0x847 JUMP JUMPDEST PUSH1 0x0 DUP1 PUSH2 0x135 JUMP JUMPDEST PUSH2 0x10D PUSH2 0x213 CALLDATASIZE PUSH1 0x4 PUSH2 0x1343 JUMP JUMPDEST PUSH2 0x8D6 JUMP JUMPDEST PUSH2 0x176 PUSH2 0x226 CALLDATASIZE PUSH1 0x4 PUSH2 0x137E JUMP JUMPDEST PUSH2 0x8FA JUMP JUMPDEST PUSH2 0x135 PUSH2 0x239 CALLDATASIZE PUSH1 0x4 PUSH2 0x13AA JUMP JUMPDEST PUSH2 0xD05 JUMP JUMPDEST PUSH2 0x176 PUSH2 0x24C CALLDATASIZE PUSH1 0x4 PUSH2 0x140D JUMP JUMPDEST PUSH2 0xD3A JUMP JUMPDEST DUP2 MLOAD PUSH1 0x0 SWAP1 ISZERO DUP1 PUSH2 0x283 JUMPI POP DUP3 MLOAD PUSH32 0xFFFFFFFF00000000FFFFFFFFFFFFFFFFBCE6FAADA7179E84F3B9CAC2FC632551 GT ISZERO JUMPDEST DUP1 PUSH2 0x290 JUMPI POP PUSH1 0x20 DUP4 ADD MLOAD ISZERO JUMPDEST ISZERO PUSH2 0x29D JUMPI POP PUSH1 0x0 PUSH2 0x469 JUMP JUMPDEST DUP2 MLOAD PUSH1 0x20 DUP4 ADD MLOAD PUSH2 0x2AE SWAP2 SWAP1 PUSH2 0x4F6 JUMP JUMPDEST PUSH2 0x2BA JUMPI POP PUSH1 0x0 PUSH2 0x469 JUMP JUMPDEST PUSH1 0x0 DUP1 DUP1 DUP1 DUP1 PUSH2 0x2F1 DUP9 PUSH1 0x1 PUSH1 0x20 MUL ADD MLOAD PUSH32 0xFFFFFFFF00000000FFFFFFFFFFFFFFFFBCE6FAADA7179E84F3B9CAC2FC632551 PUSH2 0xE99 JUMP JUMPDEST SWAP1 POP PUSH2 0x361 PUSH32 0x6B17D1F2E12C4247F8BCE6E563A440F277037D812DEB33A0F4A13945D898C296 PUSH32 0x4FE342E2FE1A7F9B8EE7EB4A7C0F9E162BCE33576B315ECECBB6406837BF51F5 PUSH32 0xFFFFFFFF00000000FFFFFFFFFFFFFFFFBCE6FAADA7179E84F3B9CAC2FC632551 DUP5 DUP14 MULMOD PUSH2 0x778 JUMP JUMPDEST DUP9 MLOAD PUSH1 0x20 DUP11 ADD MLOAD DUP12 MLOAD SWAP4 SWAP9 POP SWAP2 SWAP6 POP PUSH2 0x3A1 SWAP3 SWAP1 SWAP2 SWAP1 PUSH32 0xFFFFFFFF00000000FFFFFFFFFFFFFFFFBCE6FAADA7179E84F3B9CAC2FC632551 SWAP1 DUP6 SWAP1 MULMOD PUSH2 0x778 JUMP JUMPDEST SWAP1 SWAP5 POP SWAP2 POP PUSH1 0x0 PUSH2 0x3B4 DUP7 DUP6 DUP8 DUP7 PUSH2 0x747 JUMP JUMPDEST PUSH1 0x40 DUP2 ADD MLOAD SWAP1 SWAP2 POP PUSH1 0x0 SUB PUSH2 0x3D2 JUMPI PUSH1 0x0 SWAP7 POP POP POP POP POP POP POP PUSH2 0x469 JUMP JUMPDEST PUSH1 0x0 PUSH2 0x405 DUP3 PUSH1 0x2 PUSH1 0x20 MUL ADD MLOAD PUSH32 0xFFFFFFFF00000001000000000000000000000000FFFFFFFFFFFFFFFFFFFFFFFF PUSH2 0xE99 JUMP JUMPDEST SWAP1 POP PUSH32 0xFFFFFFFF00000001000000000000000000000000FFFFFFFFFFFFFFFFFFFFFFFF DUP1 DUP3 DUP4 MULMOD DUP4 MLOAD MULMOD DUP11 MLOAD SWAP1 SWAP2 POP PUSH2 0x45E PUSH32 0xFFFFFFFF00000000FFFFFFFFFFFFFFFFBCE6FAADA7179E84F3B9CAC2FC632551 DUP4 PUSH2 0x147F JUMP JUMPDEST EQ SWAP8 POP POP POP POP POP POP POP POP JUMPDEST SWAP4 SWAP3 POP POP POP JUMP JUMPDEST PUSH1 0x0 DUP1 PUSH1 0x0 PUSH2 0x481 DUP6 DUP6 PUSH1 0x1 PUSH2 0x8FA JUMP JUMPDEST SWAP2 SWAP7 POP SWAP5 POP SWAP1 POP PUSH2 0x493 DUP6 DUP6 DUP4 PUSH2 0x6C1 JUMP JUMPDEST SWAP3 POP SWAP3 POP POP SWAP3 POP SWAP3 SWAP1 POP JUMP JUMPDEST PUSH1 0x0 DUP1 PUSH2 0x4ED PUSH32 0x6B17D1F2E12C4247F8BCE6E563A440F277037D812DEB33A0F4A13945D898C296 PUSH32 0x4FE342E2FE1A7F9B8EE7EB4A7C0F9E162BCE33576B315ECECBB6406837BF51F5 DUP6 PUSH2 0x778 JUMP JUMPDEST SWAP2 POP SWAP2 POP SWAP2 POP SWAP2 JUMP JUMPDEST PUSH1 0x0 DUP3 ISZERO DUP1 PUSH2 0x524 JUMPI POP PUSH32 0xFFFFFFFF00000001000000000000000000000000FFFFFFFFFFFFFFFFFFFFFFFF DUP4 EQ JUMPDEST DUP1 PUSH2 0x52D JUMPI POP DUP2 ISZERO JUMPDEST DUP1 PUSH2 0x557 JUMPI POP PUSH32 0xFFFFFFFF00000001000000000000000000000000FFFFFFFFFFFFFFFFFFFFFFFF DUP3 EQ JUMPDEST ISZERO PUSH2 0x564 JUMPI POP PUSH1 0x0 PUSH2 0x66A JUMP JUMPDEST PUSH1 0x0 PUSH32 0xFFFFFFFF00000001000000000000000000000000FFFFFFFFFFFFFFFFFFFFFFFF DUP4 DUP5 MULMOD SWAP1 POP PUSH1 0x0 PUSH32 0xFFFFFFFF00000001000000000000000000000000FFFFFFFFFFFFFFFFFFFFFFFF DUP6 PUSH32 0xFFFFFFFF00000001000000000000000000000000FFFFFFFFFFFFFFFFFFFFFFFF DUP8 DUP9 MULMOD MULMOD SWAP1 POP PUSH32 0xFFFFFFFF00000001000000000000000000000000FFFFFFFFFFFFFFFFFFFFFFFF DUP1 PUSH32 0xFFFFFFFF00000001000000000000000000000000FFFFFFFFFFFFFFFFFFFFFFFC DUP8 MULMOD DUP3 ADDMOD SWAP1 POP PUSH32 0xFFFFFFFF00000001000000000000000000000000FFFFFFFFFFFFFFFFFFFFFFFF PUSH32 0x5AC635D8AA3A93E7B3EBBD55769886BC651D06B0CC53B0F63BCE3C3E27D2604B DUP3 ADDMOD SWAP1 POP EQ SWAP1 POP JUMPDEST SWAP3 SWAP2 POP POP JUMP JUMPDEST PUSH1 0x0 DUP1 DUP5 DUP5 PUSH1 0x1 DUP4 JUMPDEST DUP7 DUP2 LT ISZERO PUSH2 0x6A5 JUMPI PUSH2 0x68C DUP5 DUP5 DUP5 PUSH2 0x8FA JUMP JUMPDEST SWAP2 SWAP6 POP SWAP4 POP SWAP2 POP DUP1 PUSH2 0x69D DUP2 PUSH2 0x14BA JUMP JUMPDEST SWAP2 POP POP PUSH2 0x679 JUMP JUMPDEST POP PUSH2 0x6B1 DUP4 DUP4 DUP4 PUSH2 0x6C1 JUMP JUMPDEST SWAP5 POP SWAP5 POP POP POP POP JUMPDEST SWAP4 POP SWAP4 SWAP2 POP POP JUMP JUMPDEST PUSH1 0x0 DUP1 PUSH1 0x0 PUSH2 0x6F0 DUP5 PUSH32 0xFFFFFFFF00000001000000000000000000000000FFFFFFFFFFFFFFFFFFFFFFFF PUSH2 0xE99 JUMP JUMPDEST SWAP1 POP PUSH32 0xFFFFFFFF00000001000000000000000000000000FFFFFFFFFFFFFFFFFFFFFFFF DUP2 DUP8 MULMOD SWAP3 POP PUSH32 0xFFFFFFFF00000001000000000000000000000000FFFFFFFFFFFFFFFFFFFFFFFF DUP2 DUP7 MULMOD SWAP2 POP POP SWAP4 POP SWAP4 SWAP2 POP POP JUMP JUMPDEST PUSH2 0x74F PUSH2 0x1250 JUMP JUMPDEST PUSH1 0x0 DUP1 PUSH2 0x75E DUP8 DUP8 DUP8 DUP8 PUSH2 0xD05 JUMP JUMPDEST SWAP1 SWAP3 POP SWAP1 POP PUSH2 0x76D DUP3 DUP3 PUSH2 0x847 JUMP JUMPDEST SWAP8 SWAP7 POP POP POP POP POP POP POP JUMP JUMPDEST PUSH1 0x0 DUP1 DUP3 PUSH1 0x0 SUB PUSH2 0x790 JUMPI PUSH1 0x0 DUP1 JUMPDEST SWAP2 POP SWAP2 POP PUSH2 0x6B9 JUMP JUMPDEST DUP3 PUSH1 0x1 SUB PUSH2 0x7A2 JUMPI POP DUP4 SWAP1 POP DUP3 PUSH2 0x6B9 JUMP JUMPDEST DUP3 PUSH1 0x2 SUB PUSH2 0x7B4 JUMPI PUSH2 0x787 DUP6 DUP6 PUSH2 0x470 JUMP JUMPDEST POP DUP4 SWAP1 POP DUP3 DUP2 DUP2 PUSH1 0x1 DUP1 PUSH2 0x7C9 PUSH1 0x2 DUP9 PUSH2 0x147F JUMP JUMPDEST PUSH1 0x0 SUB PUSH2 0x7D8 JUMPI PUSH1 0x0 SWAP5 POP DUP5 SWAP6 POP JUMPDEST PUSH1 0x1 DUP8 SWAP1 SHR SWAP7 POP JUMPDEST DUP7 ISZERO PUSH2 0x82C JUMPI PUSH2 0x7F1 DUP5 DUP5 DUP5 PUSH2 0x8FA JUMP JUMPDEST SWAP2 SWAP6 POP SWAP4 POP SWAP2 POP PUSH2 0x803 PUSH1 0x2 DUP9 PUSH2 0x147F JUMP JUMPDEST PUSH1 0x1 SUB PUSH2 0x820 JUMPI PUSH2 0x818 DUP5 DUP5 DUP5 DUP10 DUP10 DUP7 PUSH2 0xD3A JUMP JUMPDEST SWAP2 SWAP8 POP SWAP6 POP SWAP1 POP JUMPDEST PUSH1 0x1 DUP8 SWAP1 SHR SWAP7 POP PUSH2 0x7E0 JUMP JUMPDEST PUSH2 0x837 DUP7 DUP7 DUP4 PUSH2 0x6C1 JUMP JUMPDEST SWAP6 POP SWAP6 POP POP POP POP POP SWAP4 POP SWAP4 SWAP2 POP POP JUMP JUMPDEST PUSH2 0x84F PUSH2 0x1250 JUMP JUMPDEST PUSH32 0xFFFFFFFF00000001000000000000000000000000FFFFFFFFFFFFFFFFFFFFFFFF PUSH1 0x1 PUSH1 0x0 ADDMOD PUSH1 0x40 DUP3 ADD DUP2 SWAP1 MSTORE PUSH32 0xFFFFFFFF00000001000000000000000000000000FFFFFFFFFFFFFFFFFFFFFFFF SWAP1 DUP5 MULMOD DUP2 MSTORE PUSH1 0x40 DUP2 ADD MLOAD PUSH32 0xFFFFFFFF00000001000000000000000000000000FFFFFFFFFFFFFFFFFFFFFFFF SWAP1 DUP4 MULMOD PUSH1 0x20 DUP3 ADD MSTORE SWAP3 SWAP2 POP POP JUMP JUMPDEST PUSH1 0x0 DUP3 ISZERO DUP1 ISZERO PUSH2 0x8E4 JUMPI POP DUP2 ISZERO JUMPDEST ISZERO PUSH2 0x8F1 JUMPI POP PUSH1 0x1 PUSH2 0x66A JUMP JUMPDEST POP PUSH1 0x0 SWAP3 SWAP2 POP POP JUMP JUMPDEST PUSH1 0x0 DUP1 PUSH1 0x0 DUP1 PUSH1 0x0 DUP1 PUSH1 0x0 PUSH2 0x90F DUP11 DUP11 PUSH2 0x8D6 JUMP JUMPDEST ISZERO PUSH2 0x928 JUMPI PUSH1 0x0 PUSH1 0x1 DUP2 SWAP7 POP SWAP7 POP SWAP7 POP POP POP POP POP PUSH2 0xCFC JUMP JUMPDEST PUSH32 0xFFFFFFFF00000001000000000000000000000000FFFFFFFFFFFFFFFFFFFFFFFF DUP9 DUP11 MULMOD SWAP3 POP PUSH32 0xFFFFFFFF00000001000000000000000000000000FFFFFFFFFFFFFFFFFFFFFFFF PUSH1 0x2 DUP5 MULMOD SWAP3 POP PUSH32 0xFFFFFFFF00000001000000000000000000000000FFFFFFFFFFFFFFFFFFFFFFFF DUP11 DUP5 MULMOD SWAP2 POP PUSH32 0xFFFFFFFF00000001000000000000000000000000FFFFFFFFFFFFFFFFFFFFFFFF DUP10 DUP4 MULMOD SWAP2 POP PUSH32 0xFFFFFFFF00000001000000000000000000000000FFFFFFFFFFFFFFFFFFFFFFFF PUSH1 0x2 DUP4 MULMOD SWAP2 POP PUSH32 0xFFFFFFFF00000001000000000000000000000000FFFFFFFFFFFFFFFFFFFFFFFF DUP11 DUP12 MULMOD SWAP10 POP PUSH32 0xFFFFFFFF00000001000000000000000000000000FFFFFFFFFFFFFFFFFFFFFFFF PUSH1 0x3 DUP12 MULMOD SWAP4 POP PUSH32 0xFFFFFFFF00000001000000000000000000000000FFFFFFFFFFFFFFFFFFFFFFFF DUP9 DUP10 MULMOD SWAP8 POP PUSH32 0xFFFFFFFF00000001000000000000000000000000FFFFFFFFFFFFFFFFFFFFFFFF PUSH32 0xFFFFFFFF00000001000000000000000000000000FFFFFFFFFFFFFFFFFFFFFFFC DUP10 MULMOD SWAP8 POP PUSH32 0xFFFFFFFF00000001000000000000000000000000FFFFFFFFFFFFFFFFFFFFFFFF DUP9 DUP6 ADDMOD SWAP4 POP PUSH32 0xFFFFFFFF00000001000000000000000000000000FFFFFFFFFFFFFFFFFFFFFFFF DUP5 DUP6 MULMOD SWAP1 POP PUSH32 0xFFFFFFFF00000001000000000000000000000000FFFFFFFFFFFFFFFFFFFFFFFF DUP3 PUSH1 0x2 MULMOD SWAP10 POP PUSH32 0xFFFFFFFF00000001000000000000000000000000FFFFFFFFFFFFFFFFFFFFFFFF DUP11 PUSH32 0xFFFFFFFF00000001000000000000000000000000FFFFFFFFFFFFFFFFFFFFFFFF SUB DUP3 ADDMOD SWAP1 POP PUSH32 0xFFFFFFFF00000001000000000000000000000000FFFFFFFFFFFFFFFFFFFFFFFF DUP2 PUSH32 0xFFFFFFFF00000001000000000000000000000000FFFFFFFFFFFFFFFFFFFFFFFF SUB DUP4 ADDMOD SWAP10 POP PUSH32 0xFFFFFFFF00000001000000000000000000000000FFFFFFFFFFFFFFFFFFFFFFFF DUP11 DUP6 MULMOD SWAP10 POP PUSH32 0xFFFFFFFF00000001000000000000000000000000FFFFFFFFFFFFFFFFFFFFFFFF DUP4 DUP11 MULMOD SWAP9 POP PUSH32 0xFFFFFFFF00000001000000000000000000000000FFFFFFFFFFFFFFFFFFFFFFFF DUP10 DUP11 MULMOD SWAP9 POP PUSH32 0xFFFFFFFF00000001000000000000000000000000FFFFFFFFFFFFFFFFFFFFFFFF DUP10 PUSH1 0x2 MULMOD SWAP9 POP PUSH32 0xFFFFFFFF00000001000000000000000000000000FFFFFFFFFFFFFFFFFFFFFFFF DUP10 PUSH32 0xFFFFFFFF00000001000000000000000000000000FFFFFFFFFFFFFFFFFFFFFFFF SUB DUP12 ADDMOD SWAP6 POP PUSH32 0xFFFFFFFF00000001000000000000000000000000FFFFFFFFFFFFFFFFFFFFFFFF DUP2 DUP5 MULMOD SWAP7 POP PUSH32 0xFFFFFFFF00000001000000000000000000000000FFFFFFFFFFFFFFFFFFFFFFFF DUP4 DUP5 MULMOD SWAP5 POP PUSH32 0xFFFFFFFF00000001000000000000000000000000FFFFFFFFFFFFFFFFFFFFFFFF DUP4 DUP7 MULMOD SWAP5 POP POP POP POP POP JUMPDEST SWAP4 POP SWAP4 POP SWAP4 SWAP1 POP JUMP JUMPDEST PUSH1 0x0 DUP1 PUSH1 0x0 PUSH2 0xD1A DUP8 DUP8 PUSH1 0x1 DUP9 DUP9 PUSH1 0x1 PUSH2 0xD3A JUMP JUMPDEST SWAP2 SWAP9 POP SWAP7 POP SWAP1 POP PUSH2 0xD2C DUP8 DUP8 DUP4 PUSH2 0x6C1 JUMP JUMPDEST SWAP3 POP SWAP3 POP POP SWAP5 POP SWAP5 SWAP3 POP POP POP JUMP JUMPDEST PUSH1 0x0 DUP1 PUSH1 0x0 DUP1 PUSH1 0x0 DUP1 PUSH1 0x0 PUSH2 0xD4F DUP14 DUP14 PUSH2 0x8D6 JUMP JUMPDEST ISZERO PUSH2 0xD66 JUMPI DUP10 DUP10 DUP10 SWAP7 POP SWAP7 POP SWAP7 POP POP POP POP POP PUSH2 0xE8D JUMP JUMPDEST PUSH2 0xD70 DUP11 DUP11 PUSH2 0x8D6 JUMP JUMPDEST ISZERO PUSH2 0xD87 JUMPI DUP13 DUP13 DUP13 SWAP7 POP SWAP7 POP SWAP7 POP POP POP POP POP PUSH2 0xE8D JUMP JUMPDEST PUSH32 0xFFFFFFFF00000001000000000000000000000000FFFFFFFFFFFFFFFFFFFFFFFF DUP9 DUP14 MULMOD SWAP4 POP PUSH32 0xFFFFFFFF00000001000000000000000000000000FFFFFFFFFFFFFFFFFFFFFFFF DUP12 DUP11 MULMOD SWAP3 POP PUSH32 0xFFFFFFFF00000001000000000000000000000000FFFFFFFFFFFFFFFFFFFFFFFF DUP9 DUP15 MULMOD SWAP2 POP PUSH32 0xFFFFFFFF00000001000000000000000000000000FFFFFFFFFFFFFFFFFFFFFFFF DUP12 DUP12 MULMOD SWAP1 POP DUP1 DUP3 SUB PUSH2 0xE51 JUMPI DUP3 DUP5 SUB PUSH2 0xE47 JUMPI PUSH2 0xE38 DUP14 DUP14 DUP14 PUSH2 0x8FA JUMP JUMPDEST SWAP7 POP SWAP7 POP SWAP7 POP POP POP POP POP PUSH2 0xE8D JUMP JUMPDEST PUSH1 0x0 PUSH1 0x1 DUP2 PUSH2 0xE38 JUMP JUMPDEST PUSH2 0xE81 PUSH32 0xFFFFFFFF00000001000000000000000000000000FFFFFFFFFFFFFFFFFFFFFFFF DUP10 DUP14 MULMOD DUP4 DUP4 DUP7 DUP9 PUSH2 0xF2D JUMP JUMPDEST SWAP2 SWAP9 POP SWAP7 POP SWAP5 POP POP POP POP POP JUMPDEST SWAP7 POP SWAP7 POP SWAP7 SWAP4 POP POP POP POP JUMP JUMPDEST PUSH1 0x0 DUP3 ISZERO DUP1 PUSH2 0xEA7 JUMPI POP DUP2 DUP4 EQ JUMPDEST DUP1 PUSH2 0xEB0 JUMPI POP DUP2 ISZERO JUMPDEST ISZERO PUSH2 0xEBD JUMPI POP PUSH1 0x0 PUSH2 0x66A JUMP JUMPDEST DUP2 DUP4 GT ISZERO PUSH2 0xED2 JUMPI PUSH2 0xECF DUP3 DUP5 PUSH2 0x147F JUMP JUMPDEST SWAP3 POP JUMPDEST PUSH1 0x0 PUSH1 0x1 DUP4 DUP6 DUP4 JUMPDEST DUP2 ISZERO PUSH2 0xF09 JUMPI DUP2 DUP4 DUP2 PUSH2 0xEEF JUMPI PUSH2 0xEEF PUSH2 0x1450 JUMP JUMPDEST SWAP5 SWAP6 SWAP5 DIV DUP6 DUP2 MUL SWAP1 SWAP5 SUB SWAP4 SWAP2 SWAP3 DUP4 DUP4 MUL SWAP1 SUB SWAP2 SWAP1 POP PUSH2 0xEDA JUMP JUMPDEST PUSH1 0x0 DUP6 SLT ISZERO PUSH2 0xF21 JUMPI POP POP POP SWAP1 DUP4 ADD SWAP2 POP PUSH2 0x66A SWAP1 POP JUMP JUMPDEST POP SWAP3 SWAP7 SWAP6 POP POP POP POP POP POP JUMP JUMPDEST PUSH1 0x0 DUP1 DUP1 DUP1 DUP1 DUP1 DUP1 DUP1 PUSH32 0xFFFFFFFF00000001000000000000000000000000FFFFFFFFFFFFFFFFFFFFFFFF DUP11 PUSH32 0xFFFFFFFF00000001000000000000000000000000FFFFFFFFFFFFFFFFFFFFFFFF SUB DUP11 ADDMOD SWAP1 POP PUSH32 0xFFFFFFFF00000001000000000000000000000000FFFFFFFFFFFFFFFFFFFFFFFF DUP12 PUSH32 0xFFFFFFFF00000001000000000000000000000000FFFFFFFFFFFFFFFFFFFFFFFF SUB DUP14 ADDMOD SWAP5 POP PUSH32 0xFFFFFFFF00000001000000000000000000000000FFFFFFFFFFFFFFFFFFFFFFFF DUP6 DUP7 MULMOD SWAP4 POP PUSH32 0xFFFFFFFF00000001000000000000000000000000FFFFFFFFFFFFFFFFFFFFFFFF DUP2 DUP3 MULMOD SWAP2 POP PUSH32 0xFFFFFFFF00000001000000000000000000000000FFFFFFFFFFFFFFFFFFFFFFFF DUP14 DUP4 MULMOD SWAP2 POP PUSH32 0xFFFFFFFF00000001000000000000000000000000FFFFFFFFFFFFFFFFFFFFFFFF DUP13 DUP13 ADDMOD SWAP11 POP PUSH32 0xFFFFFFFF00000001000000000000000000000000FFFFFFFFFFFFFFFFFFFFFFFF DUP5 DUP13 MULMOD SWAP11 POP PUSH32 0xFFFFFFFF00000001000000000000000000000000FFFFFFFFFFFFFFFFFFFFFFFF DUP12 PUSH32 0xFFFFFFFF00000001000000000000000000000000FFFFFFFFFFFFFFFFFFFFFFFF SUB DUP4 ADDMOD SWAP2 POP PUSH32 0xFFFFFFFF00000001000000000000000000000000FFFFFFFFFFFFFFFFFFFFFFFF DUP3 DUP7 MULMOD SWAP8 POP PUSH32 0xFFFFFFFF00000001000000000000000000000000FFFFFFFFFFFFFFFFFFFFFFFF DUP6 DUP6 MULMOD SWAP3 POP PUSH32 0xFFFFFFFF00000001000000000000000000000000FFFFFFFFFFFFFFFFFFFFFFFF DUP5 DUP14 MULMOD SWAP12 POP PUSH32 0xFFFFFFFF00000001000000000000000000000000FFFFFFFFFFFFFFFFFFFFFFFF DUP3 PUSH32 0xFFFFFFFF00000001000000000000000000000000FFFFFFFFFFFFFFFFFFFFFFFF SUB DUP14 ADDMOD SWAP12 POP PUSH32 0xFFFFFFFF00000001000000000000000000000000FFFFFFFFFFFFFFFFFFFFFFFF DUP13 DUP3 MULMOD SWAP1 POP PUSH32 0xFFFFFFFF00000001000000000000000000000000FFFFFFFFFFFFFFFFFFFFFFFF DUP4 DUP11 MULMOD SWAP9 POP PUSH32 0xFFFFFFFF00000001000000000000000000000000FFFFFFFFFFFFFFFFFFFFFFFF DUP10 PUSH32 0xFFFFFFFF00000001000000000000000000000000FFFFFFFFFFFFFFFFFFFFFFFF SUB DUP3 ADDMOD SWAP7 POP PUSH32 0xFFFFFFFF00000001000000000000000000000000FFFFFFFFFFFFFFFFFFFFFFFF DUP14 DUP5 MULMOD SWAP6 POP POP POP POP POP POP SWAP6 POP SWAP6 POP SWAP6 SWAP3 POP POP POP JUMP JUMPDEST PUSH1 0x40 MLOAD DUP1 PUSH1 0x60 ADD PUSH1 0x40 MSTORE DUP1 PUSH1 0x3 SWAP1 PUSH1 0x20 DUP3 MUL DUP1 CALLDATASIZE DUP4 CALLDATACOPY POP SWAP2 SWAP3 SWAP2 POP POP JUMP JUMPDEST PUSH1 0x0 DUP3 PUSH1 0x1F DUP4 ADD SLT PUSH2 0x127F JUMPI PUSH1 0x0 DUP1 REVERT JUMPDEST PUSH1 0x40 MLOAD PUSH1 0x40 DUP2 ADD DUP2 DUP2 LT PUSH8 0xFFFFFFFFFFFFFFFF DUP3 GT OR ISZERO PUSH2 0x12C9 JUMPI PUSH32 0x4E487B7100000000000000000000000000000000000000000000000000000000 PUSH1 0x0 MSTORE PUSH1 0x41 PUSH1 0x4 MSTORE PUSH1 0x24 PUSH1 0x0 REVERT JUMPDEST DUP1 PUSH1 0x40 MSTORE POP DUP1 PUSH1 0x40 DUP5 ADD DUP6 DUP2 GT ISZERO PUSH2 0x12E0 JUMPI PUSH1 0x0 DUP1 REVERT JUMPDEST DUP5 JUMPDEST DUP2 DUP2 LT ISZERO PUSH2 0x12FA JUMPI DUP1 CALLDATALOAD DUP4 MSTORE PUSH1 0x20 SWAP3 DUP4 ADD SWAP3 ADD PUSH2 0x12E2 JUMP JUMPDEST POP SWAP2 SWAP6 SWAP5 POP POP POP POP POP JUMP JUMPDEST PUSH1 0x0 DUP1 PUSH1 0x0 PUSH1 0xA0 DUP5 DUP7 SUB SLT ISZERO PUSH2 0x131A JUMPI PUSH1 0x0 DUP1 REVERT JUMPDEST DUP4 CALLDATALOAD SWAP3 POP PUSH2 0x132B DUP6 PUSH1 0x20 DUP7 ADD PUSH2 0x126E JUMP JUMPDEST SWAP2 POP PUSH2 0x133A DUP6 PUSH1 0x60 DUP7 ADD PUSH2 0x126E JUMP JUMPDEST SWAP1 POP SWAP3 POP SWAP3 POP SWAP3 JUMP JUMPDEST PUSH1 0x0 DUP1 PUSH1 0x40 DUP4 DUP6 SUB SLT ISZERO PUSH2 0x1356 JUMPI PUSH1 0x0 DUP1 REVERT JUMPDEST POP POP DUP1 CALLDATALOAD SWAP3 PUSH1 0x20 SWAP1 SWAP2 ADD CALLDATALOAD SWAP2 POP JUMP JUMPDEST PUSH1 0x0 PUSH1 0x20 DUP3 DUP5 SUB SLT ISZERO PUSH2 0x1377 JUMPI PUSH1 0x0 DUP1 REVERT JUMPDEST POP CALLDATALOAD SWAP2 SWAP1 POP JUMP JUMPDEST PUSH1 0x0 DUP1 PUSH1 0x0 PUSH1 0x60 DUP5 DUP7 SUB SLT ISZERO PUSH2 0x1393 JUMPI PUSH1 0x0 DUP1 REVERT JUMPDEST POP POP DUP2 CALLDATALOAD SWAP4 PUSH1 0x20 DUP4 ADD CALLDATALOAD SWAP4 POP PUSH1 0x40 SWAP1 SWAP3 ADD CALLDATALOAD SWAP2 SWAP1 POP JUMP JUMPDEST PUSH1 0x0 DUP1 PUSH1 0x0 DUP1 PUSH1 0x80 DUP6 DUP8 SUB SLT ISZERO PUSH2 0x13C0 JUMPI PUSH1 0x0 DUP1 REVERT JUMPDEST POP POP DUP3 CALLDATALOAD SWAP5 PUSH1 0x20 DUP5 ADD CALLDATALOAD SWAP5 POP PUSH1 0x40 DUP5 ADD CALLDATALOAD SWAP4 PUSH1 0x60 ADD CALLDATALOAD SWAP3 POP SWAP1 POP JUMP JUMPDEST PUSH1 0x60 DUP2 ADD DUP2 DUP4 PUSH1 0x0 JUMPDEST PUSH1 0x3 DUP2 LT ISZERO PUSH2 0x1404 JUMPI DUP2 MLOAD DUP4 MSTORE PUSH1 0x20 SWAP3 DUP4 ADD SWAP3 SWAP1 SWAP2 ADD SWAP1 PUSH1 0x1 ADD PUSH2 0x13E5 JUMP JUMPDEST POP POP POP SWAP3 SWAP2 POP POP JUMP JUMPDEST PUSH1 0x0 DUP1 PUSH1 0x0 DUP1 PUSH1 0x0 DUP1 PUSH1 0xC0 DUP8 DUP10 SUB SLT ISZERO PUSH2 0x1426 JUMPI PUSH1 0x0 DUP1 REVERT JUMPDEST POP POP DUP5 CALLDATALOAD SWAP7 PUSH1 0x20 DUP7 ADD CALLDATALOAD SWAP7 POP PUSH1 0x40 DUP7 ADD CALLDATALOAD SWAP6 PUSH1 0x60 DUP2 ADD CALLDATALOAD SWAP6 POP PUSH1 0x80 DUP2 ADD CALLDATALOAD SWAP5 POP PUSH1 0xA0 ADD CALLDATALOAD SWAP3 POP SWAP1 POP JUMP JUMPDEST PUSH32 0x4E487B7100000000000000000000000000000000000000000000000000000000 PUSH1 0x0 MSTORE PUSH1 0x12 PUSH1 0x4 MSTORE PUSH1 0x24 PUSH1 0x0 REVERT JUMPDEST PUSH1 0x0 DUP3 PUSH2 0x14B5 JUMPI PUSH32 0x4E487B7100000000000000000000000000000000000000000000000000000000 PUSH1 0x0 MSTORE PUSH1 0x12 PUSH1 0x4 MSTORE PUSH1 0x24 PUSH1 0x0 REVERT JUMPDEST POP MOD SWAP1 JUMP JUMPDEST PUSH1 0x0 PUSH32 0xFFFFFFFFFFFFFFFFFFFFFFFFFFFFFFFFFFFFFFFFFFFFFFFFFFFFFFFFFFFFFFFF DUP3 SUB PUSH2 0x1512 JUMPI PUSH32 0x4E487B7100000000000000000000000000000000000000000000000000000000 PUSH1 0x0 MSTORE PUSH1 0x11 PUSH1 0x4 MSTORE PUSH1 0x24 PUSH1 0x0 REVERT JUMPDEST POP PUSH1 0x1 ADD SWAP1 JUMP INVALID LOG2 PUSH5 0x6970667358 0x22 SLT KECCAK256 0xB4 0x5E LOG4 PUSH16 0xE3B236AF86FB35456E70629C3CB1C9D2 SLOAD ADD SWAP3 STOP 0xDC 0xBB 0x22 0xEC 0xE1 DIFFICULTY PUSH7 0xD164736F6C6343 STOP ADDMOD 0xF STOP CALLER "
        },
        "methodIdentifiers": {
          "add(uint256,uint256,uint256,uint256)": "e022d77c",
          "addAndReturnProjectivePoint(uint256,uint256,uint256,uint256)": "713eca28",
          "addProj(uint256,uint256,uint256,uint256,uint256,uint256)": "f214aba0",
          "isOnCurve(uint256,uint256)": "0b0dbcfa",
          "isZeroCurve(uint256,uint256)": "c30cfa2d",
          "multipleGeneratorByScalar(uint256)": "0afb4ddc",
          "multiplyPowerBase2(uint256,uint256,uint256)": "322b24aa",
          "multiplyScalar(uint256,uint256,uint256)": "72fb4a14",
          "toAffinePoint(uint256,uint256,uint256)": "675ca043",
          "toProjectivePoint(uint256,uint256)": "7ec8da8d",
          "twice(uint256,uint256)": "09d3ef31",
          "twiceProj(uint256,uint256,uint256)": "c80edca4",
          "validateSignature(bytes32,uint256[2],uint256[2])": "04e960d7",
          "zeroAffine()": "84dfba46",
          "zeroProj()": "14c67060"
        }
      }
    }
  }
}