{
  "contracts/Staking.sol": {
    "Staking": {
      "abi": [
        {
          "inputs": [],
          "name": "returnStake",
          "outputs": [],
          "stateMutability": "nonpayable",
          "type": "function"
        },
        {
          "inputs": [],
          "name": "stake",
          "outputs": [],
          "stateMutability": "payable",
          "type": "function"
        }
      ],
      "evm": {
        "bytecode": {
          "linkReferences": {},
          "object": "60806040526000805534801561001457600080fd5b5060f6806100236000396000f3fe60806040526004361060265760003560e01c80633a4b66f114602b5780637ac66574146033575b600080fd5b60316045565b005b348015603e57600080fd5b5060316056565b3460005460519190609b565b600055565b6000805460405173a8458b544c551af2ade164c427a8a4f13a346f2a9282156108fc02929190818181858888f193505050501580156098573d6000803e3d6000fd5b50565b6000821982111560bb57634e487b7160e01b600052601160045260246000fd5b50019056fea2646970667358221220db75df9b11ffc3ef105c754780bbeb06df0f674604ce86ed7c4fbc19a43285c564736f6c634300080c0033",
          "opcodes": "PUSH1 0x80 PUSH1 0x40 MSTORE PUSH1 0x0 DUP1 SSTORE CALLVALUE DUP1 ISZERO PUSH2 0x14 JUMPI PUSH1 0x0 DUP1 REVERT JUMPDEST POP PUSH1 0xF6 DUP1 PUSH2 0x23 PUSH1 0x0 CODECOPY PUSH1 0x0 RETURN INVALID PUSH1 0x80 PUSH1 0x40 MSTORE PUSH1 0x4 CALLDATASIZE LT PUSH1 0x26 JUMPI PUSH1 0x0 CALLDATALOAD PUSH1 0xE0 SHR DUP1 PUSH4 0x3A4B66F1 EQ PUSH1 0x2B JUMPI DUP1 PUSH4 0x7AC66574 EQ PUSH1 0x33 JUMPI JUMPDEST PUSH1 0x0 DUP1 REVERT JUMPDEST PUSH1 0x31 PUSH1 0x45 JUMP JUMPDEST STOP JUMPDEST CALLVALUE DUP1 ISZERO PUSH1 0x3E JUMPI PUSH1 0x0 DUP1 REVERT JUMPDEST POP PUSH1 0x31 PUSH1 0x56 JUMP JUMPDEST CALLVALUE PUSH1 0x0 SLOAD PUSH1 0x51 SWAP2 SWAP1 PUSH1 0x9B JUMP JUMPDEST PUSH1 0x0 SSTORE JUMP JUMPDEST PUSH1 0x0 DUP1 SLOAD PUSH1 0x40 MLOAD PUSH20 0xA8458B544C551AF2ADE164C427A8A4F13A346F2A SWAP3 DUP3 ISZERO PUSH2 0x8FC MUL SWAP3 SWAP2 SWAP1 DUP2 DUP2 DUP2 DUP6 DUP9 DUP9 CALL SWAP4 POP POP POP POP ISZERO DUP1 ISZERO PUSH1 0x98 JUMPI RETURNDATASIZE PUSH1 0x0 DUP1 RETURNDATACOPY RETURNDATASIZE PUSH1 0x0 REVERT JUMPDEST POP JUMP JUMPDEST PUSH1 0x0 DUP3 NOT DUP3 GT ISZERO PUSH1 0xBB JUMPI PUSH4 0x4E487B71 PUSH1 0xE0 SHL PUSH1 0x0 MSTORE PUSH1 0x11 PUSH1 0x4 MSTORE PUSH1 0x24 PUSH1 0x0 REVERT JUMPDEST POP ADD SWAP1 JUMP INVALID LOG2 PUSH5 0x6970667358 0x22 SLT KECCAK256 0xDB PUSH22 0xDF9B11FFC3EF105C754780BBEB06DF0F674604CE86ED PUSH29 0x4FBC19A43285C564736F6C634300080C00330000000000000000000000 "
        },
        "methodIdentifiers": {
          "returnStake()": "7ac66574",
          "stake()": "3a4b66f1"
        }
      }
    }
  }
}