{
  "contracts/EllipticCurve.sol": {
    "EllipticCurve": {
      "abi": [
        {
          "inputs": [
            {
              "internalType": "uint256",
              "name": "x0",
              "type": "uint256"
            },
            {
              "internalType": "uint256",
              "name": "y0",
              "type": "uint256"
            },
            {
              "internalType": "uint256",
              "name": "x1",
              "type": "uint256"
            },
            {
              "internalType": "uint256",
              "name": "y1",
              "type": "uint256"
            }
          ],
          "name": "add",
          "outputs": [
            {
              "internalType": "uint256",
              "name": "",
              "type": "uint256"
            },
            {
              "internalType": "uint256",
              "name": "",
              "type": "uint256"
            }
          ],
          "stateMutability": "pure",
          "type": "function"
        },
        {
          "inputs": [
            {
              "internalType": "uint256",
              "name": "x1",
              "type": "uint256"
            },
            {
              "internalType": "uint256",
              "name": "y1",
              "type": "uint256"
            },
            {
              "internalType": "uint256",
              "name": "x2",
              "type": "uint256"
            },
            {
              "internalType": "uint256",
              "name": "y2",
              "type": "uint256"
            }
          ],
          "name": "addAndReturnProjectivePoint",
          "outputs": [
            {
              "internalType": "uint256[3]",
              "name": "P",
              "type": "uint256[3]"
            }
          ],
          "stateMutability": "pure",
          "type": "function"
        },
        {
          "inputs": [
            {
              "internalType": "uint256",
              "name": "x0",
              "type": "uint256"
            },
            {
              "internalType": "uint256",
              "name": "y0",
              "type": "uint256"
            },
            {
              "internalType": "uint256",
              "name": "z0",
              "type": "uint256"
            },
            {
              "internalType": "uint256",
              "name": "x1",
              "type": "uint256"
            },
            {
              "internalType": "uint256",
              "name": "y1",
              "type": "uint256"
            },
            {
              "internalType": "uint256",
              "name": "z1",
              "type": "uint256"
            }
          ],
          "name": "addProj",
          "outputs": [
            {
              "internalType": "uint256",
              "name": "x2",
              "type": "uint256"
            },
            {
              "internalType": "uint256",
              "name": "y2",
              "type": "uint256"
            },
            {
              "internalType": "uint256",
              "name": "z2",
              "type": "uint256"
            }
          ],
          "stateMutability": "pure",
          "type": "function"
        },
        {
          "inputs": [
            {
              "internalType": "uint256",
              "name": "x",
              "type": "uint256"
            },
            {
              "internalType": "uint256",
              "name": "y",
              "type": "uint256"
            }
          ],
          "name": "isOnCurve",
          "outputs": [
            {
              "internalType": "bool",
              "name": "",
              "type": "bool"
            }
          ],
          "stateMutability": "pure",
          "type": "function"
        },
        {
          "inputs": [
            {
              "internalType": "uint256",
              "name": "x0",
              "type": "uint256"
            },
            {
              "internalType": "uint256",
              "name": "y0",
              "type": "uint256"
            }
          ],
          "name": "isZeroCurve",
          "outputs": [
            {
              "internalType": "bool",
              "name": "isZero",
              "type": "bool"
            }
          ],
          "stateMutability": "pure",
          "type": "function"
        },
        {
          "inputs": [
            {
              "internalType": "uint256",
              "name": "scalar",
              "type": "uint256"
            }
          ],
          "name": "multipleGeneratorByScalar",
          "outputs": [
            {
              "internalType": "uint256",
              "name": "",
              "type": "uint256"
            },
            {
              "internalType": "uint256",
              "name": "",
              "type": "uint256"
            }
          ],
          "stateMutability": "pure",
          "type": "function"
        },
        {
          "inputs": [
            {
              "internalType": "uint256",
              "name": "x0",
              "type": "uint256"
            },
            {
              "internalType": "uint256",
              "name": "y0",
              "type": "uint256"
            },
            {
              "internalType": "uint256",
              "name": "exp",
              "type": "uint256"
            }
          ],
          "name": "multiplyPowerBase2",
          "outputs": [
            {
              "internalType": "uint256",
              "name": "",
              "type": "uint256"
            },
            {
              "internalType": "uint256",
              "name": "",
              "type": "uint256"
            }
          ],
          "stateMutability": "pure",
          "type": "function"
        },
        {
          "inputs": [
            {
              "internalType": "uint256",
              "name": "x0",
              "type": "uint256"
            },
            {
              "internalType": "uint256",
              "name": "y0",
              "type": "uint256"
            },
            {
              "internalType": "uint256",
              "name": "scalar",
              "type": "uint256"
            }
          ],
          "name": "multiplyScalar",
          "outputs": [
            {
              "internalType": "uint256",
              "name": "x1",
              "type": "uint256"
            },
            {
              "internalType": "uint256",
              "name": "y1",
              "type": "uint256"
            }
          ],
          "stateMutability": "pure",
          "type": "function"
        },
        {
          "inputs": [
            {
              "internalType": "uint256",
              "name": "x0",
              "type": "uint256"
            },
            {
              "internalType": "uint256",
              "name": "y0",
              "type": "uint256"
            },
            {
              "internalType": "uint256",
              "name": "z0",
              "type": "uint256"
            }
          ],
          "name": "toAffinePoint",
          "outputs": [
            {
              "internalType": "uint256",
              "name": "x1",
              "type": "uint256"
            },
            {
              "internalType": "uint256",
              "name": "y1",
              "type": "uint256"
            }
          ],
          "stateMutability": "pure",
          "type": "function"
        },
        {
          "inputs": [
            {
              "internalType": "uint256",
              "name": "x0",
              "type": "uint256"
            },
            {
              "internalType": "uint256",
              "name": "y0",
              "type": "uint256"
            }
          ],
          "name": "toProjectivePoint",
          "outputs": [
            {
              "internalType": "uint256[3]",
              "name": "P",
              "type": "uint256[3]"
            }
          ],
          "stateMutability": "pure",
          "type": "function"
        },
        {
          "inputs": [
            {
              "internalType": "uint256",
              "name": "x0",
              "type": "uint256"
            },
            {
              "internalType": "uint256",
              "name": "y0",
              "type": "uint256"
            }
          ],
          "name": "twice",
          "outputs": [
            {
              "internalType": "uint256",
              "name": "",
              "type": "uint256"
            },
            {
              "internalType": "uint256",
              "name": "",
              "type": "uint256"
            }
          ],
          "stateMutability": "pure",
          "type": "function"
        },
        {
          "inputs": [
            {
              "internalType": "uint256",
              "name": "x0",
              "type": "uint256"
            },
            {
              "internalType": "uint256",
              "name": "y0",
              "type": "uint256"
            },
            {
              "internalType": "uint256",
              "name": "z0",
              "type": "uint256"
            }
          ],
          "name": "twiceProj",
          "outputs": [
            {
              "internalType": "uint256",
              "name": "x1",
              "type": "uint256"
            },
            {
              "internalType": "uint256",
              "name": "y1",
              "type": "uint256"
            },
            {
              "internalType": "uint256",
              "name": "z1",
              "type": "uint256"
            }
          ],
          "stateMutability": "pure",
          "type": "function"
        },
        {
          "inputs": [
            {
              "internalType": "bytes32",
              "name": "message",
              "type": "bytes32"
            },
            {
              "internalType": "uint256[2]",
              "name": "rs",
              "type": "uint256[2]"
            },
            {
              "internalType": "uint256[2]",
              "name": "Q",
              "type": "uint256[2]"
            }
          ],
          "name": "validateSignature",
          "outputs": [
            {
              "internalType": "bool",
              "name": "",
              "type": "bool"
            }
          ],
          "stateMutability": "pure",
          "type": "function"
        },
        {
          "inputs": [],
          "name": "zeroAffine",
          "outputs": [
            {
              "internalType": "uint256",
              "name": "x",
              "type": "uint256"
            },
            {
              "internalType": "uint256",
              "name": "y",
              "type": "uint256"
            }
          ],
          "stateMutability": "pure",
          "type": "function"
        },
        {
          "inputs": [],
          "name": "zeroProj",
          "outputs": [
            {
              "internalType": "uint256",
              "name": "x",
              "type": "uint256"
            },
            {
              "internalType": "uint256",
              "name": "y",
              "type": "uint256"
            },
            {
              "internalType": "uint256",
              "name": "z",
              "type": "uint256"
            }
          ],
          "stateMutability": "pure",
          "type": "function"
        }
      ],
      "evm": {
        "bytecode": {
          "linkReferences": {},
          "object": "608060405234801561001057600080fd5b50610fd8806100206000396000f3fe608060405234801561001057600080fd5b50600436106100f55760003560e01c8063713eca2811610097578063c30cfa2d11610066578063c30cfa2d14610205578063c80edca414610218578063e022d77c1461022b578063f214aba01461023e57600080fd5b8063713eca28146101b757806372fb4a14146101d75780637ec8da8d146101ea57806384dfba46146101fd57600080fd5b80630b0dbcfa116100d35780630b0dbcfa1461015d57806314c6706014610170578063322b24aa14610191578063675ca043146101a457600080fd5b806304e960d7146100fa57806309d3ef31146101225780630afb4ddc1461014a575b600080fd5b61010d610108366004610dd6565b610251565b60405190151581526020015b60405180910390f35b610135610130366004610e14565b6103ef565b60408051928352602083019190915201610119565b610135610158366004610e36565b61041e565b61010d61016b366004610e14565b610475565b60006001815b60408051938452602084019290925290820152606001610119565b61013561019f366004610e4f565b610567565b6101356101b2366004610e4f565b6105b8565b6101ca6101c5366004610e7b565b610608565b6040516101199190610ead565b6101356101e5366004610e4f565b610639565b6101ca6101f8366004610e14565b610705565b600080610135565b61010d610213366004610e14565b61075e565b610176610226366004610e4f565b610782565b610135610239366004610e7b565b6109c1565b61017661024c366004610ede565b6109f6565b8151600090158061027157508251600080516020610f8383398151915211155b8061027e57506020830151155b1561028b575060006103e8565b8151602083015161029c9190610475565b6102a8575060006103e8565b6000808080806102cd8860016020020151600080516020610f83833981519152610afd565b905061032b7f6b17d1f2e12c4247f8bce6e563a440f277037d812deb33a0f4a13945d898c2967f4fe342e2fe1a7f9b8ee7eb4a7c0f9e162bce33576b315ececbb6406837bf51f5600080516020610f83833981519152848d09610639565b885160208a01518b5193985091955061035992909190600080516020610f8383398151915290859009610639565b9094509150600061036c86858786610608565b604081015190915061038757600096505050505050506103e8565b60006103a88260026020020151600160601b63ffffffff60c01b0319610afd565b9050600160601b63ffffffff60c01b0319808283098351098a519091506103dd600080516020610f8383398151915283610f37565b149750505050505050505b9392505050565b600080600061040085856001610782565b919650945090506104128585836105b8565b92509250509250929050565b60008061046c7f6b17d1f2e12c4247f8bce6e563a440f277037d812deb33a0f4a13945d898c2967f4fe342e2fe1a7f9b8ee7eb4a7c0f9e162bce33576b315ececbb6406837bf51f585610639565b91509150915091565b60008215806104915750600160601b63ffffffff60c01b031983145b8061049a575081155b806104b25750600160601b63ffffffff60c01b031982145b156104bf57506000610561565b6000600160601b63ffffffff60c01b031983840990506000600160601b63ffffffff60c01b031985600160601b63ffffffff60c01b0319878809099050600160601b63ffffffff60c01b0319806bfffffffffffffffffffffffd63ffffffff60c01b0319870982089050600160601b63ffffffff60c01b03197f5ac635d8aa3a93e7b3ebbd55769886bc651d06b0cc53b0f63bce3c3e27d2604b820890501490505b92915050565b60008084846001835b8681101561059c57610583848484610782565b919550935091508061059481610f59565b915050610570565b506105a88383836105b8565b945094505050505b935093915050565b60008060006105d584600160601b63ffffffff60c01b0319610afd565b9050600160601b63ffffffff60c01b03198187099250600160601b63ffffffff60c01b0319818609915050935093915050565b610610610d3a565b60008061061f878787876109c1565b909250905061062e8282610705565b979650505050505050565b6000808261064e576000805b915091506105b0565b82600114156106615750839050826105b0565b82600214156106745761064585856103ef565b50839050828181600180610689600288610f37565b61069557600094508495505b600187901c96505b86156106ea576106ae848484610782565b919550935091506106c0600288610f37565b600114156106de576106d68484848989866109f6565b919750955090505b600187901c965061069d565b6106f58686836105b8565b9550955050505050935093915050565b61070d610d3a565b600160601b63ffffffff60c01b0319600160000860408201819052600160601b63ffffffff60c01b031990840981526040810151600160601b63ffffffff60c01b0319908309602082015292915050565b60008215801561076c575081155b1561077957506001610561565b50600092915050565b60008060008060008060006107978a8a61075e565b156107b0576000600181965096509650505050506109b8565b600160601b63ffffffff60c01b0319888a099250600160601b63ffffffff60c01b0319600284099250600160601b63ffffffff60c01b03198a84099150600160601b63ffffffff60c01b03198983099150600160601b63ffffffff60c01b0319600283099150600160601b63ffffffff60c01b03198a8b099950600160601b63ffffffff60c01b031960038b099350600160601b63ffffffff60c01b03198889099750600160601b63ffffffff60c01b03196bfffffffffffffffffffffffd63ffffffff60c01b031989099750600160601b63ffffffff60c01b03198885089350600160601b63ffffffff60c01b03198485099050600160601b63ffffffff60c01b0319826002099950600160601b63ffffffff60c01b03198a600160601b63ffffffff60c01b03190382089050600160601b63ffffffff60c01b031981600160601b63ffffffff60c01b03190383089950600160601b63ffffffff60c01b03198a85099950600160601b63ffffffff60c01b0319838a099850600160601b63ffffffff60c01b0319898a099850600160601b63ffffffff60c01b0319896002099850600160601b63ffffffff60c01b031989600160601b63ffffffff60c01b0319038b089550600160601b63ffffffff60c01b03198184099650600160601b63ffffffff60c01b03198384099450600160601b63ffffffff60c01b03198386099450505050505b93509350939050565b60008060006109d687876001888860016109f6565b919850965090506109e88787836105b8565b925092505094509492505050565b6000806000806000806000610a0b8d8d61075e565b15610a225789898996509650965050505050610af1565b610a2c8a8a61075e565b15610a43578c8c8c96509650965050505050610af1565b600160601b63ffffffff60c01b0319888d099350600160601b63ffffffff60c01b03198b8a099250600160601b63ffffffff60c01b0319888e099150600160601b63ffffffff60c01b03198b8b09905080821415610ac75782841415610abd57610aae8d8d8d610782565b96509650965050505050610af1565b6000600181610aae565b610ae5600160601b63ffffffff60c01b0319898d0983838688610b91565b91985096509450505050505b96509650969350505050565b6000821580610b0b57508183145b80610b14575081155b15610b2157506000610561565b81831115610b3657610b338284610f37565b92505b600060018385835b8115610b6d57818381610b5357610b53610f21565b949594048581029094039391928383029003919050610b3e565b6000851215610b855750505090830191506105619050565b50929695505050505050565b600080808080808080600160601b63ffffffff60c01b03198a600160601b63ffffffff60c01b0319038a089050600160601b63ffffffff60c01b03198b600160601b63ffffffff60c01b0319038d089450600160601b63ffffffff60c01b03198586099350600160601b63ffffffff60c01b03198182099150600160601b63ffffffff60c01b03198d83099150600160601b63ffffffff60c01b03198c8c089a50600160601b63ffffffff60c01b0319848c099a50600160601b63ffffffff60c01b03198b600160601b63ffffffff60c01b03190383089150600160601b63ffffffff60c01b03198286099750600160601b63ffffffff60c01b03198585099250600160601b63ffffffff60c01b0319848d099b50600160601b63ffffffff60c01b031982600160601b63ffffffff60c01b0319038d089b50600160601b63ffffffff60c01b03198c82099050600160601b63ffffffff60c01b0319838a099850600160601b63ffffffff60c01b031989600160601b63ffffffff60c01b03190382089650600160601b63ffffffff60c01b03198d840995505050505050955095509592505050565b60405180606001604052806003906020820280368337509192915050565b600082601f830112610d6957600080fd5b6040516040810181811067ffffffffffffffff82111715610d9a57634e487b7160e01b600052604160045260246000fd5b8060405250806040840185811115610db157600080fd5b845b81811015610dcb578035835260209283019201610db3565b509195945050505050565b600080600060a08486031215610deb57600080fd5b83359250610dfc8560208601610d58565b9150610e0b8560608601610d58565b90509250925092565b60008060408385031215610e2757600080fd5b50508035926020909101359150565b600060208284031215610e4857600080fd5b5035919050565b600080600060608486031215610e6457600080fd5b505081359360208301359350604090920135919050565b60008060008060808587031215610e9157600080fd5b5050823594602084013594506040840135936060013592509050565b60608101818360005b6003811015610ed5578151835260209283019290910190600101610eb6565b50505092915050565b60008060008060008060c08789031215610ef757600080fd5b505084359660208601359650604086013595606081013595506080810135945060a0013592509050565b634e487b7160e01b600052601260045260246000fd5b600082610f5457634e487b7160e01b600052601260045260246000fd5b500690565b6000600019821415610f7b57634e487b7160e01b600052601160045260246000fd5b506001019056feffffffff00000000ffffffffffffffffbce6faada7179e84f3b9cac2fc632551a26469706673582212200c121fb6572d0291ce2cbc9b4976a3f3084fd45a05ef60639fed605a8eb65a1164736f6c634300080c0033",
          "opcodes": "PUSH1 0x80 PUSH1 0x40 MSTORE CALLVALUE DUP1 ISZERO PUSH2 0x10 JUMPI PUSH1 0x0 DUP1 REVERT JUMPDEST POP PUSH2 0xFD8 DUP1 PUSH2 0x20 PUSH1 0x0 CODECOPY PUSH1 0x0 RETURN INVALID PUSH1 0x80 PUSH1 0x40 MSTORE CALLVALUE DUP1 ISZERO PUSH2 0x10 JUMPI PUSH1 0x0 DUP1 REVERT JUMPDEST POP PUSH1 0x4 CALLDATASIZE LT PUSH2 0xF5 JUMPI PUSH1 0x0 CALLDATALOAD PUSH1 0xE0 SHR DUP1 PUSH4 0x713ECA28 GT PUSH2 0x97 JUMPI DUP1 PUSH4 0xC30CFA2D GT PUSH2 0x66 JUMPI DUP1 PUSH4 0xC30CFA2D EQ PUSH2 0x205 JUMPI DUP1 PUSH4 0xC80EDCA4 EQ PUSH2 0x218 JUMPI DUP1 PUSH4 0xE022D77C EQ PUSH2 0x22B JUMPI DUP1 PUSH4 0xF214ABA0 EQ PUSH2 0x23E JUMPI PUSH1 0x0 DUP1 REVERT JUMPDEST DUP1 PUSH4 0x713ECA28 EQ PUSH2 0x1B7 JUMPI DUP1 PUSH4 0x72FB4A14 EQ PUSH2 0x1D7 JUMPI DUP1 PUSH4 0x7EC8DA8D EQ PUSH2 0x1EA JUMPI DUP1 PUSH4 0x84DFBA46 EQ PUSH2 0x1FD JUMPI PUSH1 0x0 DUP1 REVERT JUMPDEST DUP1 PUSH4 0xB0DBCFA GT PUSH2 0xD3 JUMPI DUP1 PUSH4 0xB0DBCFA EQ PUSH2 0x15D JUMPI DUP1 PUSH4 0x14C67060 EQ PUSH2 0x170 JUMPI DUP1 PUSH4 0x322B24AA EQ PUSH2 0x191 JUMPI DUP1 PUSH4 0x675CA043 EQ PUSH2 0x1A4 JUMPI PUSH1 0x0 DUP1 REVERT JUMPDEST DUP1 PUSH4 0x4E960D7 EQ PUSH2 0xFA JUMPI DUP1 PUSH4 0x9D3EF31 EQ PUSH2 0x122 JUMPI DUP1 PUSH4 0xAFB4DDC EQ PUSH2 0x14A JUMPI JUMPDEST PUSH1 0x0 DUP1 REVERT JUMPDEST PUSH2 0x10D PUSH2 0x108 CALLDATASIZE PUSH1 0x4 PUSH2 0xDD6 JUMP JUMPDEST PUSH2 0x251 JUMP JUMPDEST PUSH1 0x40 MLOAD SWAP1 ISZERO ISZERO DUP2 MSTORE PUSH1 0x20 ADD JUMPDEST PUSH1 0x40 MLOAD DUP1 SWAP2 SUB SWAP1 RETURN JUMPDEST PUSH2 0x135 PUSH2 0x130 CALLDATASIZE PUSH1 0x4 PUSH2 0xE14 JUMP JUMPDEST PUSH2 0x3EF JUMP JUMPDEST PUSH1 0x40 DUP1 MLOAD SWAP3 DUP4 MSTORE PUSH1 0x20 DUP4 ADD SWAP2 SWAP1 SWAP2 MSTORE ADD PUSH2 0x119 JUMP JUMPDEST PUSH2 0x135 PUSH2 0x158 CALLDATASIZE PUSH1 0x4 PUSH2 0xE36 JUMP JUMPDEST PUSH2 0x41E JUMP JUMPDEST PUSH2 0x10D PUSH2 0x16B CALLDATASIZE PUSH1 0x4 PUSH2 0xE14 JUMP JUMPDEST PUSH2 0x475 JUMP JUMPDEST PUSH1 0x0 PUSH1 0x1 DUP2 JUMPDEST PUSH1 0x40 DUP1 MLOAD SWAP4 DUP5 MSTORE PUSH1 0x20 DUP5 ADD SWAP3 SWAP1 SWAP3 MSTORE SWAP1 DUP3 ADD MSTORE PUSH1 0x60 ADD PUSH2 0x119 JUMP JUMPDEST PUSH2 0x135 PUSH2 0x19F CALLDATASIZE PUSH1 0x4 PUSH2 0xE4F JUMP JUMPDEST PUSH2 0x567 JUMP JUMPDEST PUSH2 0x135 PUSH2 0x1B2 CALLDATASIZE PUSH1 0x4 PUSH2 0xE4F JUMP JUMPDEST PUSH2 0x5B8 JUMP JUMPDEST PUSH2 0x1CA PUSH2 0x1C5 CALLDATASIZE PUSH1 0x4 PUSH2 0xE7B JUMP JUMPDEST PUSH2 0x608 JUMP JUMPDEST PUSH1 0x40 MLOAD PUSH2 0x119 SWAP2 SWAP1 PUSH2 0xEAD JUMP JUMPDEST PUSH2 0x135 PUSH2 0x1E5 CALLDATASIZE PUSH1 0x4 PUSH2 0xE4F JUMP JUMPDEST PUSH2 0x639 JUMP JUMPDEST PUSH2 0x1CA PUSH2 0x1F8 CALLDATASIZE PUSH1 0x4 PUSH2 0xE14 JUMP JUMPDEST PUSH2 0x705 JUMP JUMPDEST PUSH1 0x0 DUP1 PUSH2 0x135 JUMP JUMPDEST PUSH2 0x10D PUSH2 0x213 CALLDATASIZE PUSH1 0x4 PUSH2 0xE14 JUMP JUMPDEST PUSH2 0x75E JUMP JUMPDEST PUSH2 0x176 PUSH2 0x226 CALLDATASIZE PUSH1 0x4 PUSH2 0xE4F JUMP JUMPDEST PUSH2 0x782 JUMP JUMPDEST PUSH2 0x135 PUSH2 0x239 CALLDATASIZE PUSH1 0x4 PUSH2 0xE7B JUMP JUMPDEST PUSH2 0x9C1 JUMP JUMPDEST PUSH2 0x176 PUSH2 0x24C CALLDATASIZE PUSH1 0x4 PUSH2 0xEDE JUMP JUMPDEST PUSH2 0x9F6 JUMP JUMPDEST DUP2 MLOAD PUSH1 0x0 SWAP1 ISZERO DUP1 PUSH2 0x271 JUMPI POP DUP3 MLOAD PUSH1 0x0 DUP1 MLOAD PUSH1 0x20 PUSH2 0xF83 DUP4 CODECOPY DUP2 MLOAD SWAP2 MSTORE GT ISZERO JUMPDEST DUP1 PUSH2 0x27E JUMPI POP PUSH1 0x20 DUP4 ADD MLOAD ISZERO JUMPDEST ISZERO PUSH2 0x28B JUMPI POP PUSH1 0x0 PUSH2 0x3E8 JUMP JUMPDEST DUP2 MLOAD PUSH1 0x20 DUP4 ADD MLOAD PUSH2 0x29C SWAP2 SWAP1 PUSH2 0x475 JUMP JUMPDEST PUSH2 0x2A8 JUMPI POP PUSH1 0x0 PUSH2 0x3E8 JUMP JUMPDEST PUSH1 0x0 DUP1 DUP1 DUP1 DUP1 PUSH2 0x2CD DUP9 PUSH1 0x1 PUSH1 0x20 MUL ADD MLOAD PUSH1 0x0 DUP1 MLOAD PUSH1 0x20 PUSH2 0xF83 DUP4 CODECOPY DUP2 MLOAD SWAP2 MSTORE PUSH2 0xAFD JUMP JUMPDEST SWAP1 POP PUSH2 0x32B PUSH32 0x6B17D1F2E12C4247F8BCE6E563A440F277037D812DEB33A0F4A13945D898C296 PUSH32 0x4FE342E2FE1A7F9B8EE7EB4A7C0F9E162BCE33576B315ECECBB6406837BF51F5 PUSH1 0x0 DUP1 MLOAD PUSH1 0x20 PUSH2 0xF83 DUP4 CODECOPY DUP2 MLOAD SWAP2 MSTORE DUP5 DUP14 MULMOD PUSH2 0x639 JUMP JUMPDEST DUP9 MLOAD PUSH1 0x20 DUP11 ADD MLOAD DUP12 MLOAD SWAP4 SWAP9 POP SWAP2 SWAP6 POP PUSH2 0x359 SWAP3 SWAP1 SWAP2 SWAP1 PUSH1 0x0 DUP1 MLOAD PUSH1 0x20 PUSH2 0xF83 DUP4 CODECOPY DUP2 MLOAD SWAP2 MSTORE SWAP1 DUP6 SWAP1 MULMOD PUSH2 0x639 JUMP JUMPDEST SWAP1 SWAP5 POP SWAP2 POP PUSH1 0x0 PUSH2 0x36C DUP7 DUP6 DUP8 DUP7 PUSH2 0x608 JUMP JUMPDEST PUSH1 0x40 DUP2 ADD MLOAD SWAP1 SWAP2 POP PUSH2 0x387 JUMPI PUSH1 0x0 SWAP7 POP POP POP POP POP POP POP PUSH2 0x3E8 JUMP JUMPDEST PUSH1 0x0 PUSH2 0x3A8 DUP3 PUSH1 0x2 PUSH1 0x20 MUL ADD MLOAD PUSH1 0x1 PUSH1 0x60 SHL PUSH4 0xFFFFFFFF PUSH1 0xC0 SHL SUB NOT PUSH2 0xAFD JUMP JUMPDEST SWAP1 POP PUSH1 0x1 PUSH1 0x60 SHL PUSH4 0xFFFFFFFF PUSH1 0xC0 SHL SUB NOT DUP1 DUP3 DUP4 MULMOD DUP4 MLOAD MULMOD DUP11 MLOAD SWAP1 SWAP2 POP PUSH2 0x3DD PUSH1 0x0 DUP1 MLOAD PUSH1 0x20 PUSH2 0xF83 DUP4 CODECOPY DUP2 MLOAD SWAP2 MSTORE DUP4 PUSH2 0xF37 JUMP JUMPDEST EQ SWAP8 POP POP POP POP POP POP POP POP JUMPDEST SWAP4 SWAP3 POP POP POP JUMP JUMPDEST PUSH1 0x0 DUP1 PUSH1 0x0 PUSH2 0x400 DUP6 DUP6 PUSH1 0x1 PUSH2 0x782 JUMP JUMPDEST SWAP2 SWAP7 POP SWAP5 POP SWAP1 POP PUSH2 0x412 DUP6 DUP6 DUP4 PUSH2 0x5B8 JUMP JUMPDEST SWAP3 POP SWAP3 POP POP SWAP3 POP SWAP3 SWAP1 POP JUMP JUMPDEST PUSH1 0x0 DUP1 PUSH2 0x46C PUSH32 0x6B17D1F2E12C4247F8BCE6E563A440F277037D812DEB33A0F4A13945D898C296 PUSH32 0x4FE342E2FE1A7F9B8EE7EB4A7C0F9E162BCE33576B315ECECBB6406837BF51F5 DUP6 PUSH2 0x639 JUMP JUMPDEST SWAP2 POP SWAP2 POP SWAP2 POP SWAP2 JUMP JUMPDEST PUSH1 0x0 DUP3 ISZERO DUP1 PUSH2 0x491 JUMPI POP PUSH1 0x1 PUSH1 0x60 SHL PUSH4 0xFFFFFFFF PUSH1 0xC0 SHL SUB NOT DUP4 EQ JUMPDEST DUP1 PUSH2 0x49A JUMPI POP DUP2 ISZERO JUMPDEST DUP1 PUSH2 0x4B2 JUMPI POP PUSH1 0x1 PUSH1 0x60 SHL PUSH4 0xFFFFFFFF PUSH1 0xC0 SHL SUB NOT DUP3 EQ JUMPDEST ISZERO PUSH2 0x4BF JUMPI POP PUSH1 0x0 PUSH2 0x561 JUMP JUMPDEST PUSH1 0x0 PUSH1 0x1 PUSH1 0x60 SHL PUSH4 0xFFFFFFFF PUSH1 0xC0 SHL SUB NOT DUP4 DUP5 MULMOD SWAP1 POP PUSH1 0x0 PUSH1 0x1 PUSH1 0x60 SHL PUSH4 0xFFFFFFFF PUSH1 0xC0 SHL SUB NOT DUP6 PUSH1 0x1 PUSH1 0x60 SHL PUSH4 0xFFFFFFFF PUSH1 0xC0 SHL SUB NOT DUP8 DUP9 MULMOD MULMOD SWAP1 POP PUSH1 0x1 PUSH1 0x60 SHL PUSH4 0xFFFFFFFF PUSH1 0xC0 SHL SUB NOT DUP1 PUSH12 0xFFFFFFFFFFFFFFFFFFFFFFFD PUSH4 0xFFFFFFFF PUSH1 0xC0 SHL SUB NOT DUP8 MULMOD DUP3 ADDMOD SWAP1 POP PUSH1 0x1 PUSH1 0x60 SHL PUSH4 0xFFFFFFFF PUSH1 0xC0 SHL SUB NOT PUSH32 0x5AC635D8AA3A93E7B3EBBD55769886BC651D06B0CC53B0F63BCE3C3E27D2604B DUP3 ADDMOD SWAP1 POP EQ SWAP1 POP JUMPDEST SWAP3 SWAP2 POP POP JUMP JUMPDEST PUSH1 0x0 DUP1 DUP5 DUP5 PUSH1 0x1 DUP4 JUMPDEST DUP7 DUP2 LT ISZERO PUSH2 0x59C JUMPI PUSH2 0x583 DUP5 DUP5 DUP5 PUSH2 0x782 JUMP JUMPDEST SWAP2 SWAP6 POP SWAP4 POP SWAP2 POP DUP1 PUSH2 0x594 DUP2 PUSH2 0xF59 JUMP JUMPDEST SWAP2 POP POP PUSH2 0x570 JUMP JUMPDEST POP PUSH2 0x5A8 DUP4 DUP4 DUP4 PUSH2 0x5B8 JUMP JUMPDEST SWAP5 POP SWAP5 POP POP POP POP JUMPDEST SWAP4 POP SWAP4 SWAP2 POP POP JUMP JUMPDEST PUSH1 0x0 DUP1 PUSH1 0x0 PUSH2 0x5D5 DUP5 PUSH1 0x1 PUSH1 0x60 SHL PUSH4 0xFFFFFFFF PUSH1 0xC0 SHL SUB NOT PUSH2 0xAFD JUMP JUMPDEST SWAP1 POP PUSH1 0x1 PUSH1 0x60 SHL PUSH4 0xFFFFFFFF PUSH1 0xC0 SHL SUB NOT DUP2 DUP8 MULMOD SWAP3 POP PUSH1 0x1 PUSH1 0x60 SHL PUSH4 0xFFFFFFFF PUSH1 0xC0 SHL SUB NOT DUP2 DUP7 MULMOD SWAP2 POP POP SWAP4 POP SWAP4 SWAP2 POP POP JUMP JUMPDEST PUSH2 0x610 PUSH2 0xD3A JUMP JUMPDEST PUSH1 0x0 DUP1 PUSH2 0x61F DUP8 DUP8 DUP8 DUP8 PUSH2 0x9C1 JUMP JUMPDEST SWAP1 SWAP3 POP SWAP1 POP PUSH2 0x62E DUP3 DUP3 PUSH2 0x705 JUMP JUMPDEST SWAP8 SWAP7 POP POP POP POP POP POP POP JUMP JUMPDEST PUSH1 0x0 DUP1 DUP3 PUSH2 0x64E JUMPI PUSH1 0x0 DUP1 JUMPDEST SWAP2 POP SWAP2 POP PUSH2 0x5B0 JUMP JUMPDEST DUP3 PUSH1 0x1 EQ ISZERO PUSH2 0x661 JUMPI POP DUP4 SWAP1 POP DUP3 PUSH2 0x5B0 JUMP JUMPDEST DUP3 PUSH1 0x2 EQ ISZERO PUSH2 0x674 JUMPI PUSH2 0x645 DUP6 DUP6 PUSH2 0x3EF JUMP JUMPDEST POP DUP4 SWAP1 POP DUP3 DUP2 DUP2 PUSH1 0x1 DUP1 PUSH2 0x689 PUSH1 0x2 DUP9 PUSH2 0xF37 JUMP JUMPDEST PUSH2 0x695 JUMPI PUSH1 0x0 SWAP5 POP DUP5 SWAP6 POP JUMPDEST PUSH1 0x1 DUP8 SWAP1 SHR SWAP7 POP JUMPDEST DUP7 ISZERO PUSH2 0x6EA JUMPI PUSH2 0x6AE DUP5 DUP5 DUP5 PUSH2 0x782 JUMP JUMPDEST SWAP2 SWAP6 POP SWAP4 POP SWAP2 POP PUSH2 0x6C0 PUSH1 0x2 DUP9 PUSH2 0xF37 JUMP JUMPDEST PUSH1 0x1 EQ ISZERO PUSH2 0x6DE JUMPI PUSH2 0x6D6 DUP5 DUP5 DUP5 DUP10 DUP10 DUP7 PUSH2 0x9F6 JUMP JUMPDEST SWAP2 SWAP8 POP SWAP6 POP SWAP1 POP JUMPDEST PUSH1 0x1 DUP8 SWAP1 SHR SWAP7 POP PUSH2 0x69D JUMP JUMPDEST PUSH2 0x6F5 DUP7 DUP7 DUP4 PUSH2 0x5B8 JUMP JUMPDEST SWAP6 POP SWAP6 POP POP POP POP POP SWAP4 POP SWAP4 SWAP2 POP POP JUMP JUMPDEST PUSH2 0x70D PUSH2 0xD3A JUMP JUMPDEST PUSH1 0x1 PUSH1 0x60 SHL PUSH4 0xFFFFFFFF PUSH1 0xC0 SHL SUB NOT PUSH1 0x1 PUSH1 0x0 ADDMOD PUSH1 0x40 DUP3 ADD DUP2 SWAP1 MSTORE PUSH1 0x1 PUSH1 0x60 SHL PUSH4 0xFFFFFFFF PUSH1 0xC0 SHL SUB NOT SWAP1 DUP5 MULMOD DUP2 MSTORE PUSH1 0x40 DUP2 ADD MLOAD PUSH1 0x1 PUSH1 0x60 SHL PUSH4 0xFFFFFFFF PUSH1 0xC0 SHL SUB NOT SWAP1 DUP4 MULMOD PUSH1 0x20 DUP3 ADD MSTORE SWAP3 SWAP2 POP POP JUMP JUMPDEST PUSH1 0x0 DUP3 ISZERO DUP1 ISZERO PUSH2 0x76C JUMPI POP DUP2 ISZERO JUMPDEST ISZERO PUSH2 0x779 JUMPI POP PUSH1 0x1 PUSH2 0x561 JUMP JUMPDEST POP PUSH1 0x0 SWAP3 SWAP2 POP POP JUMP JUMPDEST PUSH1 0x0 DUP1 PUSH1 0x0 DUP1 PUSH1 0x0 DUP1 PUSH1 0x0 PUSH2 0x797 DUP11 DUP11 PUSH2 0x75E JUMP JUMPDEST ISZERO PUSH2 0x7B0 JUMPI PUSH1 0x0 PUSH1 0x1 DUP2 SWAP7 POP SWAP7 POP SWAP7 POP POP POP POP POP PUSH2 0x9B8 JUMP JUMPDEST PUSH1 0x1 PUSH1 0x60 SHL PUSH4 0xFFFFFFFF PUSH1 0xC0 SHL SUB NOT DUP9 DUP11 MULMOD SWAP3 POP PUSH1 0x1 PUSH1 0x60 SHL PUSH4 0xFFFFFFFF PUSH1 0xC0 SHL SUB NOT PUSH1 0x2 DUP5 MULMOD SWAP3 POP PUSH1 0x1 PUSH1 0x60 SHL PUSH4 0xFFFFFFFF PUSH1 0xC0 SHL SUB NOT DUP11 DUP5 MULMOD SWAP2 POP PUSH1 0x1 PUSH1 0x60 SHL PUSH4 0xFFFFFFFF PUSH1 0xC0 SHL SUB NOT DUP10 DUP4 MULMOD SWAP2 POP PUSH1 0x1 PUSH1 0x60 SHL PUSH4 0xFFFFFFFF PUSH1 0xC0 SHL SUB NOT PUSH1 0x2 DUP4 MULMOD SWAP2 POP PUSH1 0x1 PUSH1 0x60 SHL PUSH4 0xFFFFFFFF PUSH1 0xC0 SHL SUB NOT DUP11 DUP12 MULMOD SWAP10 POP PUSH1 0x1 PUSH1 0x60 SHL PUSH4 0xFFFFFFFF PUSH1 0xC0 SHL SUB NOT PUSH1 0x3 DUP12 MULMOD SWAP4 POP PUSH1 0x1 PUSH1 0x60 SHL PUSH4 0xFFFFFFFF PUSH1 0xC0 SHL SUB NOT DUP9 DUP10 MULMOD SWAP8 POP PUSH1 0x1 PUSH1 0x60 SHL PUSH4 0xFFFFFFFF PUSH1 0xC0 SHL SUB NOT PUSH12 0xFFFFFFFFFFFFFFFFFFFFFFFD PUSH4 0xFFFFFFFF PUSH1 0xC0 SHL SUB NOT DUP10 MULMOD SWAP8 POP PUSH1 0x1 PUSH1 0x60 SHL PUSH4 0xFFFFFFFF PUSH1 0xC0 SHL SUB NOT DUP9 DUP6 ADDMOD SWAP4 POP PUSH1 0x1 PUSH1 0x60 SHL PUSH4 0xFFFFFFFF PUSH1 0xC0 SHL SUB NOT DUP5 DUP6 MULMOD SWAP1 POP PUSH1 0x1 PUSH1 0x60 SHL PUSH4 0xFFFFFFFF PUSH1 0xC0 SHL SUB NOT DUP3 PUSH1 0x2 MULMOD SWAP10 POP PUSH1 0x1 PUSH1 0x60 SHL PUSH4 0xFFFFFFFF PUSH1 0xC0 SHL SUB NOT DUP11 PUSH1 0x1 PUSH1 0x60 SHL PUSH4 0xFFFFFFFF PUSH1 0xC0 SHL SUB NOT SUB DUP3 ADDMOD SWAP1 POP PUSH1 0x1 PUSH1 0x60 SHL PUSH4 0xFFFFFFFF PUSH1 0xC0 SHL SUB NOT DUP2 PUSH1 0x1 PUSH1 0x60 SHL PUSH4 0xFFFFFFFF PUSH1 0xC0 SHL SUB NOT SUB DUP4 ADDMOD SWAP10 POP PUSH1 0x1 PUSH1 0x60 SHL PUSH4 0xFFFFFFFF PUSH1 0xC0 SHL SUB NOT DUP11 DUP6 MULMOD SWAP10 POP PUSH1 0x1 PUSH1 0x60 SHL PUSH4 0xFFFFFFFF PUSH1 0xC0 SHL SUB NOT DUP4 DUP11 MULMOD SWAP9 POP PUSH1 0x1 PUSH1 0x60 SHL PUSH4 0xFFFFFFFF PUSH1 0xC0 SHL SUB NOT DUP10 DUP11 MULMOD SWAP9 POP PUSH1 0x1 PUSH1 0x60 SHL PUSH4 0xFFFFFFFF PUSH1 0xC0 SHL SUB NOT DUP10 PUSH1 0x2 MULMOD SWAP9 POP PUSH1 0x1 PUSH1 0x60 SHL PUSH4 0xFFFFFFFF PUSH1 0xC0 SHL SUB NOT DUP10 PUSH1 0x1 PUSH1 0x60 SHL PUSH4 0xFFFFFFFF PUSH1 0xC0 SHL SUB NOT SUB DUP12 ADDMOD SWAP6 POP PUSH1 0x1 PUSH1 0x60 SHL PUSH4 0xFFFFFFFF PUSH1 0xC0 SHL SUB NOT DUP2 DUP5 MULMOD SWAP7 POP PUSH1 0x1 PUSH1 0x60 SHL PUSH4 0xFFFFFFFF PUSH1 0xC0 SHL SUB NOT DUP4 DUP5 MULMOD SWAP5 POP PUSH1 0x1 PUSH1 0x60 SHL PUSH4 0xFFFFFFFF PUSH1 0xC0 SHL SUB NOT DUP4 DUP7 MULMOD SWAP5 POP POP POP POP POP JUMPDEST SWAP4 POP SWAP4 POP SWAP4 SWAP1 POP JUMP JUMPDEST PUSH1 0x0 DUP1 PUSH1 0x0 PUSH2 0x9D6 DUP8 DUP8 PUSH1 0x1 DUP9 DUP9 PUSH1 0x1 PUSH2 0x9F6 JUMP JUMPDEST SWAP2 SWAP9 POP SWAP7 POP SWAP1 POP PUSH2 0x9E8 DUP8 DUP8 DUP4 PUSH2 0x5B8 JUMP JUMPDEST SWAP3 POP SWAP3 POP POP SWAP5 POP SWAP5 SWAP3 POP POP POP JUMP JUMPDEST PUSH1 0x0 DUP1 PUSH1 0x0 DUP1 PUSH1 0x0 DUP1 PUSH1 0x0 PUSH2 0xA0B DUP14 DUP14 PUSH2 0x75E JUMP JUMPDEST ISZERO PUSH2 0xA22 JUMPI DUP10 DUP10 DUP10 SWAP7 POP SWAP7 POP SWAP7 POP POP POP POP POP PUSH2 0xAF1 JUMP JUMPDEST PUSH2 0xA2C DUP11 DUP11 PUSH2 0x75E JUMP JUMPDEST ISZERO PUSH2 0xA43 JUMPI DUP13 DUP13 DUP13 SWAP7 POP SWAP7 POP SWAP7 POP POP POP POP POP PUSH2 0xAF1 JUMP JUMPDEST PUSH1 0x1 PUSH1 0x60 SHL PUSH4 0xFFFFFFFF PUSH1 0xC0 SHL SUB NOT DUP9 DUP14 MULMOD SWAP4 POP PUSH1 0x1 PUSH1 0x60 SHL PUSH4 0xFFFFFFFF PUSH1 0xC0 SHL SUB NOT DUP12 DUP11 MULMOD SWAP3 POP PUSH1 0x1 PUSH1 0x60 SHL PUSH4 0xFFFFFFFF PUSH1 0xC0 SHL SUB NOT DUP9 DUP15 MULMOD SWAP2 POP PUSH1 0x1 PUSH1 0x60 SHL PUSH4 0xFFFFFFFF PUSH1 0xC0 SHL SUB NOT DUP12 DUP12 MULMOD SWAP1 POP DUP1 DUP3 EQ ISZERO PUSH2 0xAC7 JUMPI DUP3 DUP5 EQ ISZERO PUSH2 0xABD JUMPI PUSH2 0xAAE DUP14 DUP14 DUP14 PUSH2 0x782 JUMP JUMPDEST SWAP7 POP SWAP7 POP SWAP7 POP POP POP POP POP PUSH2 0xAF1 JUMP JUMPDEST PUSH1 0x0 PUSH1 0x1 DUP2 PUSH2 0xAAE JUMP JUMPDEST PUSH2 0xAE5 PUSH1 0x1 PUSH1 0x60 SHL PUSH4 0xFFFFFFFF PUSH1 0xC0 SHL SUB NOT DUP10 DUP14 MULMOD DUP4 DUP4 DUP7 DUP9 PUSH2 0xB91 JUMP JUMPDEST SWAP2 SWAP9 POP SWAP7 POP SWAP5 POP POP POP POP POP JUMPDEST SWAP7 POP SWAP7 POP SWAP7 SWAP4 POP POP POP POP JUMP JUMPDEST PUSH1 0x0 DUP3 ISZERO DUP1 PUSH2 0xB0B JUMPI POP DUP2 DUP4 EQ JUMPDEST DUP1 PUSH2 0xB14 JUMPI POP DUP2 ISZERO JUMPDEST ISZERO PUSH2 0xB21 JUMPI POP PUSH1 0x0 PUSH2 0x561 JUMP JUMPDEST DUP2 DUP4 GT ISZERO PUSH2 0xB36 JUMPI PUSH2 0xB33 DUP3 DUP5 PUSH2 0xF37 JUMP JUMPDEST SWAP3 POP JUMPDEST PUSH1 0x0 PUSH1 0x1 DUP4 DUP6 DUP4 JUMPDEST DUP2 ISZERO PUSH2 0xB6D JUMPI DUP2 DUP4 DUP2 PUSH2 0xB53 JUMPI PUSH2 0xB53 PUSH2 0xF21 JUMP JUMPDEST SWAP5 SWAP6 SWAP5 DIV DUP6 DUP2 MUL SWAP1 SWAP5 SUB SWAP4 SWAP2 SWAP3 DUP4 DUP4 MUL SWAP1 SUB SWAP2 SWAP1 POP PUSH2 0xB3E JUMP JUMPDEST PUSH1 0x0 DUP6 SLT ISZERO PUSH2 0xB85 JUMPI POP POP POP SWAP1 DUP4 ADD SWAP2 POP PUSH2 0x561 SWAP1 POP JUMP JUMPDEST POP SWAP3 SWAP7 SWAP6 POP POP POP POP POP POP JUMP JUMPDEST PUSH1 0x0 DUP1 DUP1 DUP1 DUP1 DUP1 DUP1 DUP1 PUSH1 0x1 PUSH1 0x60 SHL PUSH4 0xFFFFFFFF PUSH1 0xC0 SHL SUB NOT DUP11 PUSH1 0x1 PUSH1 0x60 SHL PUSH4 0xFFFFFFFF PUSH1 0xC0 SHL SUB NOT SUB DUP11 ADDMOD SWAP1 POP PUSH1 0x1 PUSH1 0x60 SHL PUSH4 0xFFFFFFFF PUSH1 0xC0 SHL SUB NOT DUP12 PUSH1 0x1 PUSH1 0x60 SHL PUSH4 0xFFFFFFFF PUSH1 0xC0 SHL SUB NOT SUB DUP14 ADDMOD SWAP5 POP PUSH1 0x1 PUSH1 0x60 SHL PUSH4 0xFFFFFFFF PUSH1 0xC0 SHL SUB NOT DUP6 DUP7 MULMOD SWAP4 POP PUSH1 0x1 PUSH1 0x60 SHL PUSH4 0xFFFFFFFF PUSH1 0xC0 SHL SUB NOT DUP2 DUP3 MULMOD SWAP2 POP PUSH1 0x1 PUSH1 0x60 SHL PUSH4 0xFFFFFFFF PUSH1 0xC0 SHL SUB NOT DUP14 DUP4 MULMOD SWAP2 POP PUSH1 0x1 PUSH1 0x60 SHL PUSH4 0xFFFFFFFF PUSH1 0xC0 SHL SUB NOT DUP13 DUP13 ADDMOD SWAP11 POP PUSH1 0x1 PUSH1 0x60 SHL PUSH4 0xFFFFFFFF PUSH1 0xC0 SHL SUB NOT DUP5 DUP13 MULMOD SWAP11 POP PUSH1 0x1 PUSH1 0x60 SHL PUSH4 0xFFFFFFFF PUSH1 0xC0 SHL SUB NOT DUP12 PUSH1 0x1 PUSH1 0x60 SHL PUSH4 0xFFFFFFFF PUSH1 0xC0 SHL SUB NOT SUB DUP4 ADDMOD SWAP2 POP PUSH1 0x1 PUSH1 0x60 SHL PUSH4 0xFFFFFFFF PUSH1 0xC0 SHL SUB NOT DUP3 DUP7 MULMOD SWAP8 POP PUSH1 0x1 PUSH1 0x60 SHL PUSH4 0xFFFFFFFF PUSH1 0xC0 SHL SUB NOT DUP6 DUP6 MULMOD SWAP3 POP PUSH1 0x1 PUSH1 0x60 SHL PUSH4 0xFFFFFFFF PUSH1 0xC0 SHL SUB NOT DUP5 DUP14 MULMOD SWAP12 POP PUSH1 0x1 PUSH1 0x60 SHL PUSH4 0xFFFFFFFF PUSH1 0xC0 SHL SUB NOT DUP3 PUSH1 0x1 PUSH1 0x60 SHL PUSH4 0xFFFFFFFF PUSH1 0xC0 SHL SUB NOT SUB DUP14 ADDMOD SWAP12 POP PUSH1 0x1 PUSH1 0x60 SHL PUSH4 0xFFFFFFFF PUSH1 0xC0 SHL SUB NOT DUP13 DUP3 MULMOD SWAP1 POP PUSH1 0x1 PUSH1 0x60 SHL PUSH4 0xFFFFFFFF PUSH1 0xC0 SHL SUB NOT DUP4 DUP11 MULMOD SWAP9 POP PUSH1 0x1 PUSH1 0x60 SHL PUSH4 0xFFFFFFFF PUSH1 0xC0 SHL SUB NOT DUP10 PUSH1 0x1 PUSH1 0x60 SHL PUSH4 0xFFFFFFFF PUSH1 0xC0 SHL SUB NOT SUB DUP3 ADDMOD SWAP7 POP PUSH1 0x1 PUSH1 0x60 SHL PUSH4 0xFFFFFFFF PUSH1 0xC0 SHL SUB NOT DUP14 DUP5 MULMOD SWAP6 POP POP POP POP POP POP SWAP6 POP SWAP6 POP SWAP6 SWAP3 POP POP POP JUMP JUMPDEST PUSH1 0x40 MLOAD DUP1 PUSH1 0x60 ADD PUSH1 0x40 MSTORE DUP1 PUSH1 0x3 SWAP1 PUSH1 0x20 DUP3 MUL DUP1 CALLDATASIZE DUP4 CALLDATACOPY POP SWAP2 SWAP3 SWAP2 POP POP JUMP JUMPDEST PUSH1 0x0 DUP3 PUSH1 0x1F DUP4 ADD SLT PUSH2 0xD69 JUMPI PUSH1 0x0 DUP1 REVERT JUMPDEST PUSH1 0x40 MLOAD PUSH1 0x40 DUP2 ADD DUP2 DUP2 LT PUSH8 0xFFFFFFFFFFFFFFFF DUP3 GT OR ISZERO PUSH2 0xD9A JUMPI PUSH4 0x4E487B71 PUSH1 0xE0 SHL PUSH1 0x0 MSTORE PUSH1 0x41 PUSH1 0x4 MSTORE PUSH1 0x24 PUSH1 0x0 REVERT JUMPDEST DUP1 PUSH1 0x40 MSTORE POP DUP1 PUSH1 0x40 DUP5 ADD DUP6 DUP2 GT ISZERO PUSH2 0xDB1 JUMPI PUSH1 0x0 DUP1 REVERT JUMPDEST DUP5 JUMPDEST DUP2 DUP2 LT ISZERO PUSH2 0xDCB JUMPI DUP1 CALLDATALOAD DUP4 MSTORE PUSH1 0x20 SWAP3 DUP4 ADD SWAP3 ADD PUSH2 0xDB3 JUMP JUMPDEST POP SWAP2 SWAP6 SWAP5 POP POP POP POP POP JUMP JUMPDEST PUSH1 0x0 DUP1 PUSH1 0x0 PUSH1 0xA0 DUP5 DUP7 SUB SLT ISZERO PUSH2 0xDEB JUMPI PUSH1 0x0 DUP1 REVERT JUMPDEST DUP4 CALLDATALOAD SWAP3 POP PUSH2 0xDFC DUP6 PUSH1 0x20 DUP7 ADD PUSH2 0xD58 JUMP JUMPDEST SWAP2 POP PUSH2 0xE0B DUP6 PUSH1 0x60 DUP7 ADD PUSH2 0xD58 JUMP JUMPDEST SWAP1 POP SWAP3 POP SWAP3 POP SWAP3 JUMP JUMPDEST PUSH1 0x0 DUP1 PUSH1 0x40 DUP4 DUP6 SUB SLT ISZERO PUSH2 0xE27 JUMPI PUSH1 0x0 DUP1 REVERT JUMPDEST POP POP DUP1 CALLDATALOAD SWAP3 PUSH1 0x20 SWAP1 SWAP2 ADD CALLDATALOAD SWAP2 POP JUMP JUMPDEST PUSH1 0x0 PUSH1 0x20 DUP3 DUP5 SUB SLT ISZERO PUSH2 0xE48 JUMPI PUSH1 0x0 DUP1 REVERT JUMPDEST POP CALLDATALOAD SWAP2 SWAP1 POP JUMP JUMPDEST PUSH1 0x0 DUP1 PUSH1 0x0 PUSH1 0x60 DUP5 DUP7 SUB SLT ISZERO PUSH2 0xE64 JUMPI PUSH1 0x0 DUP1 REVERT JUMPDEST POP POP DUP2 CALLDATALOAD SWAP4 PUSH1 0x20 DUP4 ADD CALLDATALOAD SWAP4 POP PUSH1 0x40 SWAP1 SWAP3 ADD CALLDATALOAD SWAP2 SWAP1 POP JUMP JUMPDEST PUSH1 0x0 DUP1 PUSH1 0x0 DUP1 PUSH1 0x80 DUP6 DUP8 SUB SLT ISZERO PUSH2 0xE91 JUMPI PUSH1 0x0 DUP1 REVERT JUMPDEST POP POP DUP3 CALLDATALOAD SWAP5 PUSH1 0x20 DUP5 ADD CALLDATALOAD SWAP5 POP PUSH1 0x40 DUP5 ADD CALLDATALOAD SWAP4 PUSH1 0x60 ADD CALLDATALOAD SWAP3 POP SWAP1 POP JUMP JUMPDEST PUSH1 0x60 DUP2 ADD DUP2 DUP4 PUSH1 0x0 JUMPDEST PUSH1 0x3 DUP2 LT ISZERO PUSH2 0xED5 JUMPI DUP2 MLOAD DUP4 MSTORE PUSH1 0x20 SWAP3 DUP4 ADD SWAP3 SWAP1 SWAP2 ADD SWAP1 PUSH1 0x1 ADD PUSH2 0xEB6 JUMP JUMPDEST POP POP POP SWAP3 SWAP2 POP POP JUMP JUMPDEST PUSH1 0x0 DUP1 PUSH1 0x0 DUP1 PUSH1 0x0 DUP1 PUSH1 0xC0 DUP8 DUP10 SUB SLT ISZERO PUSH2 0xEF7 JUMPI PUSH1 0x0 DUP1 REVERT JUMPDEST POP POP DUP5 CALLDATALOAD SWAP7 PUSH1 0x20 DUP7 ADD CALLDATALOAD SWAP7 POP PUSH1 0x40 DUP7 ADD CALLDATALOAD SWAP6 PUSH1 0x60 DUP2 ADD CALLDATALOAD SWAP6 POP PUSH1 0x80 DUP2 ADD CALLDATALOAD SWAP5 POP PUSH1 0xA0 ADD CALLDATALOAD SWAP3 POP SWAP1 POP JUMP JUMPDEST PUSH4 0x4E487B71 PUSH1 0xE0 SHL PUSH1 0x0 MSTORE PUSH1 0x12 PUSH1 0x4 MSTORE PUSH1 0x24 PUSH1 0x0 REVERT JUMPDEST PUSH1 0x0 DUP3 PUSH2 0xF54 JUMPI PUSH4 0x4E487B71 PUSH1 0xE0 SHL PUSH1 0x0 MSTORE PUSH1 0x12 PUSH1 0x4 MSTORE PUSH1 0x24 PUSH1 0x0 REVERT JUMPDEST POP MOD SWAP1 JUMP JUMPDEST PUSH1 0x0 PUSH1 0x0 NOT DUP3 EQ ISZERO PUSH2 0xF7B JUMPI PUSH4 0x4E487B71 PUSH1 0xE0 SHL PUSH1 0x0 MSTORE PUSH1 0x11 PUSH1 0x4 MSTORE PUSH1 0x24 PUSH1 0x0 REVERT JUMPDEST POP PUSH1 0x1 ADD SWAP1 JUMP INVALID SELFDESTRUCT SELFDESTRUCT SELFDESTRUCT SELFDESTRUCT STOP STOP STOP STOP SELFDESTRUCT SELFDESTRUCT SELFDESTRUCT SELFDESTRUCT SELFDESTRUCT SELFDESTRUCT SELFDESTRUCT SELFDESTRUCT 0xBC 0xE6 STATICCALL 0xAD 0xA7 OR SWAP15 DUP5 RETURN 0xB9 0xCA 0xC2 0xFC PUSH4 0x2551A264 PUSH10 0x706673582212200C121F 0xB6 JUMPI 0x2D MUL SWAP2 0xCE 0x2C 0xBC SWAP12 0x49 PUSH23 0xA3F3084FD45A05EF60639FED605A8EB65A1164736F6C63 NUMBER STOP ADDMOD 0xC STOP CALLER "
        },
        "methodIdentifiers": {
          "add(uint256,uint256,uint256,uint256)": "e022d77c",
          "addAndReturnProjectivePoint(uint256,uint256,uint256,uint256)": "713eca28",
          "addProj(uint256,uint256,uint256,uint256,uint256,uint256)": "f214aba0",
          "isOnCurve(uint256,uint256)": "0b0dbcfa",
          "isZeroCurve(uint256,uint256)": "c30cfa2d",
          "multipleGeneratorByScalar(uint256)": "0afb4ddc",
          "multiplyPowerBase2(uint256,uint256,uint256)": "322b24aa",
          "multiplyScalar(uint256,uint256,uint256)": "72fb4a14",
          "toAffinePoint(uint256,uint256,uint256)": "675ca043",
          "toProjectivePoint(uint256,uint256)": "7ec8da8d",
          "twice(uint256,uint256)": "09d3ef31",
          "twiceProj(uint256,uint256,uint256)": "c80edca4",
          "validateSignature(bytes32,uint256[2],uint256[2])": "04e960d7",
          "zeroAffine()": "84dfba46",
          "zeroProj()": "14c67060"
        }
      }
    }
  }
}