{
  "contracts/core/EntryPoint.sol": {
    "EntryPoint": {
      "abi": [
        {
          "inputs": [
            {
              "internalType": "uint256",
              "name": "_paymasterStake",
              "type": "uint256"
            },
            {
              "internalType": "uint32",
              "name": "_unstakeDelaySec",
              "type": "uint32"
            }
          ],
          "stateMutability": "nonpayable",
          "type": "constructor"
        },
        {
          "inputs": [
            {
              "internalType": "uint256",
              "name": "opIndex",
              "type": "uint256"
            },
            {
              "internalType": "address",
              "name": "paymaster",
              "type": "address"
            },
            {
              "internalType": "string",
              "name": "reason",
              "type": "string"
            }
          ],
          "name": "FailedOp",
          "type": "error"
        },
        {
          "inputs": [
            {
              "internalType": "address",
              "name": "aggregator",
              "type": "address"
            }
          ],
          "name": "SignatureValidationFailed",
          "type": "error"
        },
        {
          "anonymous": false,
          "inputs": [
            {
              "indexed": true,
              "internalType": "address",
              "name": "account",
              "type": "address"
            },
            {
              "indexed": false,
              "internalType": "uint256",
              "name": "totalDeposit",
              "type": "uint256"
            }
          ],
          "name": "Deposited",
          "type": "event"
        },
        {
          "anonymous": false,
          "inputs": [
            {
              "indexed": true,
              "internalType": "address",
              "name": "account",
              "type": "address"
            },
            {
              "indexed": false,
              "internalType": "uint256",
              "name": "totalStaked",
              "type": "uint256"
            },
            {
              "indexed": false,
              "internalType": "uint256",
              "name": "withdrawTime",
              "type": "uint256"
            }
          ],
          "name": "StakeLocked",
          "type": "event"
        },
        {
          "anonymous": false,
          "inputs": [
            {
              "indexed": true,
              "internalType": "address",
              "name": "account",
              "type": "address"
            },
            {
              "indexed": false,
              "internalType": "uint256",
              "name": "withdrawTime",
              "type": "uint256"
            }
          ],
          "name": "StakeUnlocked",
          "type": "event"
        },
        {
          "anonymous": false,
          "inputs": [
            {
              "indexed": true,
              "internalType": "address",
              "name": "account",
              "type": "address"
            },
            {
              "indexed": false,
              "internalType": "address",
              "name": "withdrawAddress",
              "type": "address"
            },
            {
              "indexed": false,
              "internalType": "uint256",
              "name": "amount",
              "type": "uint256"
            }
          ],
          "name": "StakeWithdrawn",
          "type": "event"
        },
        {
          "anonymous": false,
          "inputs": [
            {
              "indexed": true,
              "internalType": "bytes32",
              "name": "requestId",
              "type": "bytes32"
            },
            {
              "indexed": true,
              "internalType": "address",
              "name": "sender",
              "type": "address"
            },
            {
              "indexed": true,
              "internalType": "address",
              "name": "paymaster",
              "type": "address"
            },
            {
              "indexed": false,
              "internalType": "uint256",
              "name": "nonce",
              "type": "uint256"
            },
            {
              "indexed": false,
              "internalType": "uint256",
              "name": "actualGasCost",
              "type": "uint256"
            },
            {
              "indexed": false,
              "internalType": "uint256",
              "name": "actualGasPrice",
              "type": "uint256"
            },
            {
              "indexed": false,
              "internalType": "bool",
              "name": "success",
              "type": "bool"
            }
          ],
          "name": "UserOperationEvent",
          "type": "event"
        },
        {
          "anonymous": false,
          "inputs": [
            {
              "indexed": true,
              "internalType": "bytes32",
              "name": "requestId",
              "type": "bytes32"
            },
            {
              "indexed": true,
              "internalType": "address",
              "name": "sender",
              "type": "address"
            },
            {
              "indexed": false,
              "internalType": "uint256",
              "name": "nonce",
              "type": "uint256"
            },
            {
              "indexed": false,
              "internalType": "bytes",
              "name": "revertReason",
              "type": "bytes"
            }
          ],
          "name": "UserOperationRevertReason",
          "type": "event"
        },
        {
          "anonymous": false,
          "inputs": [
            {
              "indexed": true,
              "internalType": "address",
              "name": "account",
              "type": "address"
            },
            {
              "indexed": false,
              "internalType": "address",
              "name": "withdrawAddress",
              "type": "address"
            },
            {
              "indexed": false,
              "internalType": "uint256",
              "name": "amount",
              "type": "uint256"
            }
          ],
          "name": "Withdrawn",
          "type": "event"
        },
        {
          "inputs": [
            {
              "internalType": "uint32",
              "name": "_unstakeDelaySec",
              "type": "uint32"
            }
          ],
          "name": "addStake",
          "outputs": [],
          "stateMutability": "payable",
          "type": "function"
        },
        {
          "inputs": [
            {
              "internalType": "address",
              "name": "account",
              "type": "address"
            }
          ],
          "name": "balanceOf",
          "outputs": [
            {
              "internalType": "uint256",
              "name": "",
              "type": "uint256"
            }
          ],
          "stateMutability": "view",
          "type": "function"
        },
        {
          "inputs": [
            {
              "internalType": "address",
              "name": "account",
              "type": "address"
            }
          ],
          "name": "depositTo",
          "outputs": [],
          "stateMutability": "payable",
          "type": "function"
        },
        {
          "inputs": [
            {
              "internalType": "address",
              "name": "",
              "type": "address"
            }
          ],
          "name": "deposits",
          "outputs": [
            {
              "internalType": "uint112",
              "name": "deposit",
              "type": "uint112"
            },
            {
              "internalType": "bool",
              "name": "staked",
              "type": "bool"
            },
            {
              "internalType": "uint112",
              "name": "stake",
              "type": "uint112"
            },
            {
              "internalType": "uint32",
              "name": "unstakeDelaySec",
              "type": "uint32"
            },
            {
              "internalType": "uint64",
              "name": "withdrawTime",
              "type": "uint64"
            }
          ],
          "stateMutability": "view",
          "type": "function"
        },
        {
          "inputs": [
            {
              "internalType": "address",
              "name": "account",
              "type": "address"
            }
          ],
          "name": "getDepositInfo",
          "outputs": [
            {
              "components": [
                {
                  "internalType": "uint112",
                  "name": "deposit",
                  "type": "uint112"
                },
                {
                  "internalType": "bool",
                  "name": "staked",
                  "type": "bool"
                },
                {
                  "internalType": "uint112",
                  "name": "stake",
                  "type": "uint112"
                },
                {
                  "internalType": "uint32",
                  "name": "unstakeDelaySec",
                  "type": "uint32"
                },
                {
                  "internalType": "uint64",
                  "name": "withdrawTime",
                  "type": "uint64"
                }
              ],
              "internalType": "struct IStakeManager.DepositInfo",
              "name": "info",
              "type": "tuple"
            }
          ],
          "stateMutability": "view",
          "type": "function"
        },
        {
          "inputs": [
            {
              "components": [
                {
                  "internalType": "address",
                  "name": "sender",
                  "type": "address"
                },
                {
                  "internalType": "uint256",
                  "name": "nonce",
                  "type": "uint256"
                },
                {
                  "internalType": "bytes",
                  "name": "initCode",
                  "type": "bytes"
                },
                {
                  "internalType": "bytes",
                  "name": "callData",
                  "type": "bytes"
                },
                {
                  "internalType": "uint256",
                  "name": "callGasLimit",
                  "type": "uint256"
                },
                {
                  "internalType": "uint256",
                  "name": "verificationGasLimit",
                  "type": "uint256"
                },
                {
                  "internalType": "uint256",
                  "name": "preVerificationGas",
                  "type": "uint256"
                },
                {
                  "internalType": "uint256",
                  "name": "maxFeePerGas",
                  "type": "uint256"
                },
                {
                  "internalType": "uint256",
                  "name": "maxPriorityFeePerGas",
                  "type": "uint256"
                },
                {
                  "internalType": "bytes",
                  "name": "paymasterAndData",
                  "type": "bytes"
                },
                {
                  "internalType": "bytes",
                  "name": "signature",
                  "type": "bytes"
                }
              ],
              "internalType": "struct UserOperation",
              "name": "userOp",
              "type": "tuple"
            }
          ],
          "name": "getRequestId",
          "outputs": [
            {
              "internalType": "bytes32",
              "name": "",
              "type": "bytes32"
            }
          ],
          "stateMutability": "view",
          "type": "function"
        },
        {
          "inputs": [
            {
              "internalType": "bytes",
              "name": "initCode",
              "type": "bytes"
            }
          ],
          "name": "getSenderAddress",
          "outputs": [
            {
              "internalType": "address",
              "name": "sender",
              "type": "address"
            }
          ],
          "stateMutability": "nonpayable",
          "type": "function"
        },
        {
          "inputs": [
            {
              "internalType": "address",
              "name": "sender",
              "type": "address"
            }
          ],
          "name": "getSenderStorage",
          "outputs": [
            {
              "internalType": "uint256[]",
              "name": "senderStorageCells",
              "type": "uint256[]"
            }
          ],
          "stateMutability": "view",
          "type": "function"
        },
        {
          "inputs": [
            {
              "components": [
                {
                  "components": [
                    {
                      "internalType": "address",
                      "name": "sender",
                      "type": "address"
                    },
                    {
                      "internalType": "uint256",
                      "name": "nonce",
                      "type": "uint256"
                    },
                    {
                      "internalType": "bytes",
                      "name": "initCode",
                      "type": "bytes"
                    },
                    {
                      "internalType": "bytes",
                      "name": "callData",
                      "type": "bytes"
                    },
                    {
                      "internalType": "uint256",
                      "name": "callGasLimit",
                      "type": "uint256"
                    },
                    {
                      "internalType": "uint256",
                      "name": "verificationGasLimit",
                      "type": "uint256"
                    },
                    {
                      "internalType": "uint256",
                      "name": "preVerificationGas",
                      "type": "uint256"
                    },
                    {
                      "internalType": "uint256",
                      "name": "maxFeePerGas",
                      "type": "uint256"
                    },
                    {
                      "internalType": "uint256",
                      "name": "maxPriorityFeePerGas",
                      "type": "uint256"
                    },
                    {
                      "internalType": "bytes",
                      "name": "paymasterAndData",
                      "type": "bytes"
                    },
                    {
                      "internalType": "bytes",
                      "name": "signature",
                      "type": "bytes"
                    }
                  ],
                  "internalType": "struct UserOperation[]",
                  "name": "userOps",
                  "type": "tuple[]"
                },
                {
                  "internalType": "contract IAggregator",
                  "name": "aggregator",
                  "type": "address"
                },
                {
                  "internalType": "bytes",
                  "name": "signature",
                  "type": "bytes"
                }
              ],
              "internalType": "struct IEntryPoint.UserOpsPerAggregator[]",
              "name": "opsPerAggregator",
              "type": "tuple[]"
            },
            {
              "internalType": "address payable",
              "name": "beneficiary",
              "type": "address"
            }
          ],
          "name": "handleAggregatedOps",
          "outputs": [],
          "stateMutability": "nonpayable",
          "type": "function"
        },
        {
          "inputs": [
            {
              "components": [
                {
                  "internalType": "address",
                  "name": "sender",
                  "type": "address"
                },
                {
                  "internalType": "uint256",
                  "name": "nonce",
                  "type": "uint256"
                },
                {
                  "internalType": "bytes",
                  "name": "initCode",
                  "type": "bytes"
                },
                {
                  "internalType": "bytes",
                  "name": "callData",
                  "type": "bytes"
                },
                {
                  "internalType": "uint256",
                  "name": "callGasLimit",
                  "type": "uint256"
                },
                {
                  "internalType": "uint256",
                  "name": "verificationGasLimit",
                  "type": "uint256"
                },
                {
                  "internalType": "uint256",
                  "name": "preVerificationGas",
                  "type": "uint256"
                },
                {
                  "internalType": "uint256",
                  "name": "maxFeePerGas",
                  "type": "uint256"
                },
                {
                  "internalType": "uint256",
                  "name": "maxPriorityFeePerGas",
                  "type": "uint256"
                },
                {
                  "internalType": "bytes",
                  "name": "paymasterAndData",
                  "type": "bytes"
                },
                {
                  "internalType": "bytes",
                  "name": "signature",
                  "type": "bytes"
                }
              ],
              "internalType": "struct UserOperation[]",
              "name": "ops",
              "type": "tuple[]"
            },
            {
              "internalType": "address payable",
              "name": "beneficiary",
              "type": "address"
            }
          ],
          "name": "handleOps",
          "outputs": [],
          "stateMutability": "nonpayable",
          "type": "function"
        },
        {
          "inputs": [
            {
              "internalType": "bytes",
              "name": "callData",
              "type": "bytes"
            },
            {
              "components": [
                {
                  "components": [
                    {
                      "internalType": "address",
                      "name": "sender",
                      "type": "address"
                    },
                    {
                      "internalType": "uint256",
                      "name": "nonce",
                      "type": "uint256"
                    },
                    {
                      "internalType": "uint256",
                      "name": "callGasLimit",
                      "type": "uint256"
                    },
                    {
                      "internalType": "uint256",
                      "name": "verificationGasLimit",
                      "type": "uint256"
                    },
                    {
                      "internalType": "uint256",
                      "name": "preVerificationGas",
                      "type": "uint256"
                    },
                    {
                      "internalType": "address",
                      "name": "paymaster",
                      "type": "address"
                    },
                    {
                      "internalType": "uint256",
                      "name": "maxFeePerGas",
                      "type": "uint256"
                    },
                    {
                      "internalType": "uint256",
                      "name": "maxPriorityFeePerGas",
                      "type": "uint256"
                    }
                  ],
                  "internalType": "struct EntryPoint.MemoryUserOp",
                  "name": "mUserOp",
                  "type": "tuple"
                },
                {
                  "internalType": "bytes32",
                  "name": "requestId",
                  "type": "bytes32"
                },
                {
                  "internalType": "uint256",
                  "name": "prefund",
                  "type": "uint256"
                },
                {
                  "internalType": "uint256",
                  "name": "contextOffset",
                  "type": "uint256"
                },
                {
                  "internalType": "uint256",
                  "name": "preOpGas",
                  "type": "uint256"
                }
              ],
              "internalType": "struct EntryPoint.UserOpInfo",
              "name": "opInfo",
              "type": "tuple"
            },
            {
              "internalType": "bytes",
              "name": "context",
              "type": "bytes"
            }
          ],
          "name": "innerHandleOp",
          "outputs": [
            {
              "internalType": "uint256",
              "name": "actualGasCost",
              "type": "uint256"
            }
          ],
          "stateMutability": "nonpayable",
          "type": "function"
        },
        {
          "inputs": [],
          "name": "paymasterStake",
          "outputs": [
            {
              "internalType": "uint256",
              "name": "",
              "type": "uint256"
            }
          ],
          "stateMutability": "view",
          "type": "function"
        },
        {
          "inputs": [
            {
              "components": [
                {
                  "internalType": "address",
                  "name": "sender",
                  "type": "address"
                },
                {
                  "internalType": "uint256",
                  "name": "nonce",
                  "type": "uint256"
                },
                {
                  "internalType": "bytes",
                  "name": "initCode",
                  "type": "bytes"
                },
                {
                  "internalType": "bytes",
                  "name": "callData",
                  "type": "bytes"
                },
                {
                  "internalType": "uint256",
                  "name": "callGasLimit",
                  "type": "uint256"
                },
                {
                  "internalType": "uint256",
                  "name": "verificationGasLimit",
                  "type": "uint256"
                },
                {
                  "internalType": "uint256",
                  "name": "preVerificationGas",
                  "type": "uint256"
                },
                {
                  "internalType": "uint256",
                  "name": "maxFeePerGas",
                  "type": "uint256"
                },
                {
                  "internalType": "uint256",
                  "name": "maxPriorityFeePerGas",
                  "type": "uint256"
                },
                {
                  "internalType": "bytes",
                  "name": "paymasterAndData",
                  "type": "bytes"
                },
                {
                  "internalType": "bytes",
                  "name": "signature",
                  "type": "bytes"
                }
              ],
              "internalType": "struct UserOperation",
              "name": "userOp",
              "type": "tuple"
            },
            {
              "internalType": "bool",
              "name": "offChainSigCheck",
              "type": "bool"
            }
          ],
          "name": "simulateValidation",
          "outputs": [
            {
              "internalType": "uint256",
              "name": "preOpGas",
              "type": "uint256"
            },
            {
              "internalType": "uint256",
              "name": "prefund",
              "type": "uint256"
            },
            {
              "internalType": "address",
              "name": "actualAggregator",
              "type": "address"
            },
            {
              "internalType": "bytes",
              "name": "sigForUserOp",
              "type": "bytes"
            },
            {
              "internalType": "bytes",
              "name": "sigForAggregation",
              "type": "bytes"
            },
            {
              "internalType": "bytes",
              "name": "offChainSigInfo",
              "type": "bytes"
            }
          ],
          "stateMutability": "nonpayable",
          "type": "function"
        },
        {
          "inputs": [],
          "name": "unlockStake",
          "outputs": [],
          "stateMutability": "nonpayable",
          "type": "function"
        },
        {
          "inputs": [],
          "name": "unstakeDelaySec",
          "outputs": [
            {
              "internalType": "uint32",
              "name": "",
              "type": "uint32"
            }
          ],
          "stateMutability": "view",
          "type": "function"
        },
        {
          "inputs": [
            {
              "internalType": "address payable",
              "name": "withdrawAddress",
              "type": "address"
            }
          ],
          "name": "withdrawStake",
          "outputs": [],
          "stateMutability": "nonpayable",
          "type": "function"
        },
        {
          "inputs": [
            {
              "internalType": "address payable",
              "name": "withdrawAddress",
              "type": "address"
            },
            {
              "internalType": "uint256",
              "name": "withdrawAmount",
              "type": "uint256"
            }
          ],
          "name": "withdrawTo",
          "outputs": [],
          "stateMutability": "nonpayable",
          "type": "function"
        },
        {
          "stateMutability": "payable",
          "type": "receive"
        }
      ],
      "evm": {
        "bytecode": {
          "linkReferences": {},
          "object": "60c06040523480156200001157600080fd5b5060405162004044380380620040448339810160408190526200003491620000f1565b63ffffffff8116608081905260a0839052620000975760405162461bcd60e51b815260206004820152601460248201527f696e76616c696420756e7374616b6544656c617900000000000000000000000060448201526064015b60405180910390fd5b60008211620000e95760405162461bcd60e51b815260206004820152601660248201527f696e76616c6964207061796d61737465725374616b650000000000000000000060448201526064016200008e565b50506200012c565b600080604083850312156200010557600080fd5b82519150602083015163ffffffff811681146200012157600080fd5b809150509250929050565b60805160a051613ee4620001606000396000818161017f01526107ab015260008181610213015261066b0152613ee46000f3fe6080604052600436106101125760003560e01c80635287ce12116100a5578063bb9fe6bf11610074578063ec8b5dbf11610059578063ec8b5dbf1461049d578063fc7e286d146104ca578063ffb01dd9146105a857600080fd5b8063bb9fe6bf14610468578063c23a5cea1461047d57600080fd5b80635287ce121461026a57806370a08231146103bd5780639b249f6914610410578063b760faf91461045557600080fd5b80631fad948c116100e15780631fad948c146101c1578063205c2878146101e1578063390b9978146102015780634b1d7cf51461024a57600080fd5b80630396cb601461012757806314e726341461013a57806317c6a9871461016d5780631d732756146101a157600080fd5b3661012257610120336105da565b005b600080fd5b610120610135366004612ec5565b610655565b34801561014657600080fd5b5061015a610155366004612f04565b610a1f565b6040519081526020015b60405180910390f35b34801561017957600080fd5b5061015a7f000000000000000000000000000000000000000000000000000000000000000081565b3480156101ad57600080fd5b5061015a6101bc366004613078565b610a61565b3480156101cd57600080fd5b506101206101dc36600461321f565b610bca565b3480156101ed57600080fd5b506101206101fc366004613276565b610cf2565b34801561020d57600080fd5b506102357f000000000000000000000000000000000000000000000000000000000000000081565b60405163ffffffff9091168152602001610164565b34801561025657600080fd5b5061012061026536600461321f565b610f3c565b34801561027657600080fd5b5061035c6102853660046132a2565b6040805160a0810182526000808252602082018190529181018290526060810182905260808101919091525073ffffffffffffffffffffffffffffffffffffffff1660009081526020818152604091829020825160a08101845281546dffffffffffffffffffffffffffff80821683526e010000000000000000000000000000820460ff161515948301949094526f0100000000000000000000000000000090049092169282019290925260019091015463ffffffff81166060830152640100000000900467ffffffffffffffff16608082015290565b6040805182516dffffffffffffffffffffffffffff908116825260208085015115159083015283830151169181019190915260608083015163ffffffff169082015260809182015167ffffffffffffffff169181019190915260a001610164565b3480156103c957600080fd5b5061015a6103d83660046132a2565b73ffffffffffffffffffffffffffffffffffffffff166000908152602081905260409020546dffffffffffffffffffffffffffff1690565b34801561041c57600080fd5b5061043061042b3660046132bf565b61129b565b60405173ffffffffffffffffffffffffffffffffffffffff9091168152602001610164565b6101206104633660046132a2565b6105da565b34801561047457600080fd5b5061012061133c565b34801561048957600080fd5b506101206104983660046132a2565b6114c5565b3480156104a957600080fd5b506104bd6104b83660046132a2565b6117c9565b6040516101649190613301565b3480156104d657600080fd5b506105596104e53660046132a2565b600060208190529081526040902080546001909101546dffffffffffffffffffffffffffff808316926e010000000000000000000000000000810460ff16926f010000000000000000000000000000009091049091169063ffffffff811690640100000000900467ffffffffffffffff1685565b604080516dffffffffffffffffffffffffffff96871681529415156020860152929094169183019190915263ffffffff16606082015267ffffffffffffffff909116608082015260a001610164565b3480156105b457600080fd5b506105c86105c3366004613345565b61183c565b60405161016496959493929190613412565b6105e48134611a04565b73ffffffffffffffffffffffffffffffffffffffff811660008181526020818152604091829020805492516dffffffffffffffffffffffffffff909316835292917f2da466a7b24304f47e87fa2e1e5a81b9831ce54fec19055ce277ca2f39ba42c491015b60405180910390a25050565b33600090815260208190526040902063ffffffff7f0000000000000000000000000000000000000000000000000000000000000000811690831610156106fc576040517f08c379a000000000000000000000000000000000000000000000000000000000815260206004820152601560248201527f756e7374616b652064656c617920746f6f206c6f77000000000000000000000060448201526064015b60405180910390fd5b600181015463ffffffff9081169083161015610774576040517f08c379a000000000000000000000000000000000000000000000000000000000815260206004820152601c60248201527f63616e6e6f7420646563726561736520756e7374616b652074696d650000000060448201526064016106f3565b80546000906107a79034906f0100000000000000000000000000000090046dffffffffffffffffffffffffffff166134af565b90507f0000000000000000000000000000000000000000000000000000000000000000811015610833576040517f08c379a000000000000000000000000000000000000000000000000000000000815260206004820152601360248201527f7374616b652076616c756520746f6f206c6f770000000000000000000000000060448201526064016106f3565b6dffffffffffffffffffffffffffff81106108aa576040517f08c379a000000000000000000000000000000000000000000000000000000000815260206004820152600e60248201527f7374616b65206f766572666c6f7700000000000000000000000000000000000060448201526064016106f3565b6040805160a08101825283546dffffffffffffffffffffffffffff90811682526001602080840182815286841685870190815263ffffffff808b16606088019081526000608089018181523380835296829052908a9020985189549551945189166f01000000000000000000000000000000027fffffff0000000000000000000000000000ffffffffffffffffffffffffffffff9515156e010000000000000000000000000000027fffffffffffffffffffffffffffffffffff0000000000000000000000000000009097169190991617949094179290921695909517865551949092018054925167ffffffffffffffff16640100000000027fffffffffffffffffffffffffffffffffffffffff000000000000000000000000909316949093169390931717905590517fa5ae833d0bb1dcd632d98a8b70973e8516812898e19bf27b70071ebc8dc52c0190610a12908490879091825263ffffffff16602082015260400190565b60405180910390a2505050565b6000610a2a82611b01565b6040805160208101929092523090820152466060820152608001604051602081830303815290604052805190602001209050919050565b6000805a9050333014610a7357600080fd5b845160008715610b6a57600080836000015173ffffffffffffffffffffffffffffffffffffffff1684604001518c8c604051610ab09291906134c7565b60006040518083038160008787f1925050503d8060008114610aee576040519150601f19603f3d011682016040523d82523d6000602084013e610af3565b606091505b509150915081610b6757805115610b6257836000015173ffffffffffffffffffffffffffffffffffffffff1689602001517f1c4fada7374c0a9ee8841fc38afe82932dc0f8e69012e927f061a8bae611a201866020015184604051610b599291906134d7565b60405180910390a35b600192505b50505b600087608001515a8503019050610bbc6000838a8a8a8080601f016020809104026020016040519081016040528093929190818152602001838380828437600092019190915250889250611b1a915050565b9a9950505050505050505050565b8160008167ffffffffffffffff811115610be657610be6612f82565b604051908082528060200260200182016040528015610c1f57816020015b610c0c612e21565b815260200190600190039081610c045790505b50905060005b82811015610c7f57610c7681878784818110610c4357610c436134f0565b9050602002810190610c55919061351f565b848481518110610c6757610c676134f0565b60200260200101516000611ef3565b50600101610c25565b506000805b83811015610cdf57610cd381888884818110610ca257610ca26134f0565b9050602002810190610cb4919061351f565b858481518110610cc657610cc66134f0565b602002602001015161210c565b90910190600101610c84565b50610cea84826121f2565b505050505050565b3360009081526020818152604091829020825160a08101845281546dffffffffffffffffffffffffffff8082168084526e010000000000000000000000000000830460ff161515958401959095526f0100000000000000000000000000000090910416938101939093526001015463ffffffff81166060840152640100000000900467ffffffffffffffff166080830152821115610dec576040517f08c379a000000000000000000000000000000000000000000000000000000000815260206004820152601960248201527f576974686472617720616d6f756e7420746f6f206c617267650000000000000060448201526064016106f3565b8051610e099083906dffffffffffffffffffffffffffff1661355d565b6dffffffffffffffffffffffffffff1681526040805173ffffffffffffffffffffffffffffffffffffffff851681526020810184905233917fd1c19fbcd4551a5edfb66d43d2e337c04837afda3482b42bdf569a8fccdae5fb910160405180910390a260008373ffffffffffffffffffffffffffffffffffffffff168360405160006040518083038185875af1925050503d8060008114610ec6576040519150601f19603f3d011682016040523d82523d6000602084013e610ecb565b606091505b5050905080610f36576040517f08c379a000000000000000000000000000000000000000000000000000000000815260206004820152601260248201527f6661696c656420746f207769746864726177000000000000000000000000000060448201526064016106f3565b50505050565b816000805b82811015610f9657858582818110610f5b57610f5b6134f0565b9050602002810190610f6d9190613574565b610f7790806135a8565b610f829150836134af565b915080610f8e81613610565b915050610f41565b5060008167ffffffffffffffff811115610fb257610fb2612f82565b604051908082528060200260200182016040528015610feb57816020015b610fd8612e21565b815260200190600190039081610fd05790505b5090506000805b848110156111b2573688888381811061100d5761100d6134f0565b905060200281019061101f9190613574565b905036600061102e83806135a8565b9092509050600061104560408501602086016132a2565b90508160005b818110156110bc5761109b88868684818110611069576110696134f0565b905060200281019061107b919061351f565b8b8b8151811061108d5761108d6134f0565b602002602001015186611ef3565b50876110a681613610565b98505080806110b490613610565b91505061104b565b5073ffffffffffffffffffffffffffffffffffffffff82161561119a5773ffffffffffffffffffffffffffffffffffffffff821663e3563a4f858561110460408a018a613648565b6040518563ffffffff1660e01b8152600401611123949392919061385e565b60006040518083038186803b15801561113b57600080fd5b505afa92505050801561114c575060015b61119a576040517f86a9f75000000000000000000000000000000000000000000000000000000000815273ffffffffffffffffffffffffffffffffffffffff831660048201526024016106f3565b505050505080806111aa90613610565b915050610ff2565b50600080915060005b8581101561128657368989838181106111d6576111d66134f0565b90506020028101906111e89190613574565b90503660006111f783806135a8565b90925090508060005b8181101561126e576112428885858481811061121e5761121e6134f0565b9050602002810190611230919061351f565b8b8b81518110610cc657610cc66134f0565b61124c90886134af565b96508761125881613610565b985050808061126690613610565b915050611200565b5050505050808061127e90613610565b9150506111bb565b5061129186826121f2565b5050505050505050565b6000331561132b576040517f08c379a000000000000000000000000000000000000000000000000000000000815260206004820152602c60248201527f6d7573742062652063616c6c6564206f66662d636861696e207769746820667260448201527f6f6d3d7a65726f2d61646472000000000000000000000000000000000000000060648201526084016106f3565b61133583836122e1565b9392505050565b3360009081526020819052604081206001810154909163ffffffff9091169003611392576040517f08c379a00000000000000000000000000000000000000000000000000000000081526004016106f390613915565b80546e010000000000000000000000000000900460ff1661140f576040517f08c379a000000000000000000000000000000000000000000000000000000000815260206004820152601160248201527f616c726561647920756e7374616b696e6700000000000000000000000000000060448201526064016106f3565b60018101546000906114279063ffffffff1642613958565b6001830180547fffffffffffffffffffffffffffffffffffffffff0000000000000000ffffffff1664010000000067ffffffffffffffff84169081029190911790915583547fffffffffffffffffffffffffffffffffff00ffffffffffffffffffffffffffff16845560405190815290915033907ffa9b3c14cc825c412c9ed81b3ba365a5b459439403f18829e572ed53a4180f0a90602001610649565b33600090815260208190526040902080546f0100000000000000000000000000000090046dffffffffffffffffffffffffffff1680611560576040517f08c379a000000000000000000000000000000000000000000000000000000000815260206004820152601460248201527f4e6f207374616b6520746f20776974686472617700000000000000000000000060448201526064016106f3565b6001820154640100000000900467ffffffffffffffff166115dd576040517f08c379a000000000000000000000000000000000000000000000000000000000815260206004820152601d60248201527f6d7573742063616c6c20756e6c6f636b5374616b65282920666972737400000060448201526064016106f3565b60018201544264010000000090910467ffffffffffffffff16111561165e576040517f08c379a000000000000000000000000000000000000000000000000000000000815260206004820152601b60248201527f5374616b65207769746864726177616c206973206e6f7420647565000000000060448201526064016106f3565b6001820180547fffffffffffffffffffffffffffffffffffffffff00000000000000000000000016905581547fffffff0000000000000000000000000000ffffffffffffffffffffffffffffff1682556040805173ffffffffffffffffffffffffffffffffffffffff851681526020810183905233917fb7c918e0e249f999e965cafeb6c664271b3f4317d296461500e71da39f0cbda3910160405180910390a260008373ffffffffffffffffffffffffffffffffffffffff168260405160006040518083038185875af1925050503d8060008114611759576040519150601f19603f3d011682016040523d82523d6000602084013e61175e565b606091505b5050905080610f36576040517f08c379a000000000000000000000000000000000000000000000000000000000815260206004820152601860248201527f6661696c656420746f207769746864726177207374616b65000000000000000060448201526064016106f3565b73ffffffffffffffffffffffffffffffffffffffff811660009081526020819052604090819020815160018082528184019093526060928291908160200160208202803683370190505092508183600081518110611829576118296134f0565b6020026020010181815250505050919050565b6000806000606080606060005a9050611853612e21565b61186160008b836001611ef3565b9550806040015196508960c001355a61187a908461355d565b61188491906134af565b975061188f43600052565b73ffffffffffffffffffffffffffffffffffffffff86161561196a576040517f6076d43a00000000000000000000000000000000000000000000000000000000815273ffffffffffffffffffffffffffffffffffffffff871690636076d43a906118ff908d908d90600401613984565b600060405180830381865afa15801561191c573d6000803e3d6000fd5b505050506040513d6000823e601f3d9081017fffffffffffffffffffffffffffffffffffffffffffffffffffffffffffffffe01682016040526119629190810190613a2e565b919650945092505b33156119f8576040517f08c379a000000000000000000000000000000000000000000000000000000000815260206004820152602c60248201527f6d7573742062652063616c6c6564206f66662d636861696e207769746820667260448201527f6f6d3d7a65726f2d61646472000000000000000000000000000000000000000060648201526084016106f3565b50509295509295509295565b73ffffffffffffffffffffffffffffffffffffffff821660009081526020819052604081208054909190611a499084906dffffffffffffffffffffffffffff166134af565b90506dffffffffffffffffffffffffffff811115611ac3576040517f08c379a000000000000000000000000000000000000000000000000000000000815260206004820152601060248201527f6465706f736974206f766572666c6f770000000000000000000000000000000060448201526064016106f3565b81547fffffffffffffffffffffffffffffffffffff0000000000000000000000000000166dffffffffffffffffffffffffffff919091161790555050565b6000611b0c826123cb565b805190602001209050919050565b6000805a855190915060009081611b308261240a565b60a083015190915073ffffffffffffffffffffffffffffffffffffffff8116611b5c5782519350611d89565b809350600088511115611d8957868202955060028a6002811115611b8257611b82613ab6565b14611c1a5760608301516040517fa9a2340900000000000000000000000000000000000000000000000000000000815273ffffffffffffffffffffffffffffffffffffffff83169163a9a2340991611be2908e908d908c90600401613ae5565b600060405180830381600088803b158015611bfc57600080fd5b5087f1158015611c10573d6000803e3d6000fd5b5050505050611d89565b60608301516040517fa9a2340900000000000000000000000000000000000000000000000000000000815273ffffffffffffffffffffffffffffffffffffffff83169163a9a2340991611c75908e908d908c90600401613ae5565b600060405180830381600088803b158015611c8f57600080fd5b5087f193505050508015611ca1575060015b611d8957611cad613b45565b806308c379a003611d035750611cc1613b61565b80611ccc5750611d05565b8b82826040517efa072b0000000000000000000000000000000000000000000000000000000081526004016106f393929190613c09565b505b6040517efa072b000000000000000000000000000000000000000000000000000000008152600481018c905273ffffffffffffffffffffffffffffffffffffffff8216602482015260606044820152600d60648201527f706f73744f702072657665727400000000000000000000000000000000000000608482015260a4016106f3565b5a85038701965081870295508589604001511015611e25576040517efa072b000000000000000000000000000000000000000000000000000000008152600481018c905273ffffffffffffffffffffffffffffffffffffffff8216602482015260606044820152601b60648201527f70726566756e642062656c6f772061637475616c476173436f73740000000000608482015260a4016106f3565b6040890151869003611e378582611a04565b6000808c6002811115611e4c57611e4c613ab6565b1490508460a0015173ffffffffffffffffffffffffffffffffffffffff16856000015173ffffffffffffffffffffffffffffffffffffffff168c602001517f33fd4d1f25a5461bea901784a6571de6debc16cd0831932c22c6969cd73ba99488602001518c8987604051611edb9493929190938452602084019290925260408301521515606082015260800190565b60405180910390a45050505050505095945050505050565b6000805a8451909150611f06868261243a565b611f0f86610a1f565b6020860152604081015160608201516080830151171760e087013517610100870135176effffffffffffffffffffffffffffff811115611fab576040517f08c379a000000000000000000000000000000000000000000000000000000000815260206004820152601360248201527f6761732076616c756573206f766572666c6f770000000000000000000000000060448201526064016106f3565b600080611fb78461255a565b9050611fc68a8a8a8a856125b5565b96509150611fd343600052565b60a084015160609073ffffffffffffffffffffffffffffffffffffffff161561200a576120038b8b8b858761295f565b905061201b565b506040805160208101909152600081525b60005a87039050808b60a0013510156120de5760a08601516040517efa072b000000000000000000000000000000000000000000000000000000008152600481018e905273ffffffffffffffffffffffffffffffffffffffff909116602482015260606044820152602360648201527f55736564206d6f7265207468616e20766572696669636174696f6e4761734c6960848201527f6d6974000000000000000000000000000000000000000000000000000000000060a482015260c4016106f3565b60408a018390528160608b015260c08b01355a8803018a608001818152505050505050505050949350505050565b6000805a9050600061211f846060015190565b905030631d7327566121346060880188613648565b87856040518563ffffffff1660e01b81526004016121559493929190613c47565b6020604051808303816000875af19250505080156121ae575060408051601f3d9081017fffffffffffffffffffffffffffffffffffffffffffffffffffffffffffffffe01682019092526121ab91810190613d08565b60015b6121e657600084608001515a6121c4908561355d565b6121ce91906134af565b90506121de876002878585611b1a565b9350506121e9565b92505b50509392505050565b73ffffffffffffffffffffffffffffffffffffffff821661226f576040517f08c379a000000000000000000000000000000000000000000000000000000000815260206004820152601360248201527f696e76616c69642062656e65666963696172790000000000000000000000000060448201526064016106f3565b60008273ffffffffffffffffffffffffffffffffffffffff168260405160006040518083038185875af1925050503d80600081146122c9576040519150601f19603f3d011682016040523d82523d6000602084013e6122ce565b606091505b50509050806122dc57600080fd5b505050565b6000806122f16014828587613d21565b6122fa91613d4b565b60601c9050600061230e8460148188613d21565b8080601f016020809104026020016040519081016040528093929190818152602001838380828437600092018290525084519495509360209350849250905082850182875af190506000519350806123c2576040517f08c379a000000000000000000000000000000000000000000000000000000000815260206004820152600f60248201527f696e6974436f6465206661696c6564000000000000000000000000000000000060448201526064016106f3565b50505092915050565b60603660006123de610140850185613648565b915091508360208184030360405194506020810185016040528085528082602087013750505050919050565b60c081015160e082015160009190808203612426575092915050565b61243282488301612c37565b949350505050565b61244760208301836132a2565b73ffffffffffffffffffffffffffffffffffffffff16815260208083013590820152608080830135604083015260a0830135606083015260c0808401359183019190915260e08084013591830191909152610100830135908201523660006124b3610120850185613648565b9092509050801561254d576014811015612529576040517f08c379a000000000000000000000000000000000000000000000000000000000815260206004820152601860248201527f696e76616c6964207061796d6173746572416e6444617461000000000000000060448201526064016106f3565b612537601460008385613d21565b61254091613d4b565b60601c60a0840152610f36565b600060a084015250505050565b60a0810151600090819073ffffffffffffffffffffffffffffffffffffffff16612585576001612588565b60035b60ff16905060008360800151828560600151028560400151010190506125ad8461240a565b029392505050565b60008060005a86519091506125d6816125d160408b018b613648565b612c4d565b7fffffffffffffffffffffffffffffffffffffffffffffffffffffffffffffffff73ffffffffffffffffffffffffffffffffffffffff8716016126b257806000015173ffffffffffffffffffffffffffffffffffffffff16633ad59dbc6040518163ffffffff1660e01b8152600401602060405180830381865afa92505050801561269c575060408051601f3d9081017fffffffffffffffffffffffffffffffffffffffffffffffffffffffffffffffe016820190925261269991810190613d93565b60015b6126ac57600092508295506126b2565b95508592505b805160a08201516000919073ffffffffffffffffffffffffffffffffffffffff81166127245773ffffffffffffffffffffffffffffffffffffffff82166000908152602081905260409020546dffffffffffffffffffffffffffff1688811161271d57808903612720565b60005b9350505b8173ffffffffffffffffffffffffffffffffffffffff16630825d1fc85606001518d8d602001518d886040518663ffffffff1660e01b815260040161276c9493929190613db0565b600060405180830381600088803b15801561278657600080fd5b5087f193505050508015612798575060015b612846576127a4613b45565b806308c379a0036127fb57506127b8613b61565b806127c357506127fd565b8c6000826040517efa072b0000000000000000000000000000000000000000000000000000000081526004016106f393929190613c09565b505b6040517efa072b000000000000000000000000000000000000000000000000000000008152600481018d90526000602482018190526060604483015260648201526084016106f3565b73ffffffffffffffffffffffffffffffffffffffff811661294b5773ffffffffffffffffffffffffffffffffffffffff8216600090815260208190526040902080546dffffffffffffffffffffffffffff16808a111561290f576040517efa072b000000000000000000000000000000000000000000000000000000008152600481018f90526000602482015260606044820152601960648201527f77616c6c6574206469646e2774207061792070726566756e6400000000000000608482015260a4016106f3565b81547fffffffffffffffffffffffffffffffffffff000000000000000000000000000016908a90036dffffffffffffffffffffffffffff161790555b5a8503965050505050509550959350505050565b825160a081015173ffffffffffffffffffffffffffffffffffffffff8116600090815260208190526040902080546060939291906dffffffffffffffffffffffffffff8116906e010000000000000000000000000000900460ff16806129f4578a846040517efa072b0000000000000000000000000000000000000000000000000000000081526004016106f3929190613df5565b87821015612a80576040517efa072b000000000000000000000000000000000000000000000000000000008152600481018c905273ffffffffffffffffffffffffffffffffffffffff8516602482015260606044820152601960648201527f7061796d6173746572206465706f73697420746f6f206c6f7700000000000000608482015260a4016106f3565b8782038360000160006101000a8154816dffffffffffffffffffffffffffff02191690836dffffffffffffffffffffffffffff16021790555060008786606001510390508473ffffffffffffffffffffffffffffffffffffffff1663f465c77e828d8d602001518d6040518563ffffffff1660e01b8152600401612b0693929190613e54565b60006040518083038160008887f193505050508015612b6557506040513d6000823e601f3d9081017fffffffffffffffffffffffffffffffffffffffffffffffffffffffffffffffe0168201604052612b629190810190613e79565b60015b612c2757612b71613b45565b806308c379a003612bc75750612b85613b61565b80612b905750612bc9565b8c86826040517efa072b0000000000000000000000000000000000000000000000000000000081526004016106f393929190613c09565b505b6040517efa072b000000000000000000000000000000000000000000000000000000008152600481018d905273ffffffffffffffffffffffffffffffffffffffff8616602482015260606044820152600060648201526084016106f3565b9c9b505050505050505050505050565b6000818310612c465781611335565b5090919050565b80156122dc57825173ffffffffffffffffffffffffffffffffffffffff163b15612cd3576040517f08c379a000000000000000000000000000000000000000000000000000000000815260206004820152601a60248201527f73656e64657220616c726561647920636f6e737472756374656400000000000060448201526064016106f3565b6000612cdf83836122e1565b9050836000015173ffffffffffffffffffffffffffffffffffffffff168173ffffffffffffffffffffffffffffffffffffffff1614612da0576040517f08c379a000000000000000000000000000000000000000000000000000000000815260206004820152602560248201527f73656e64657220646f65736e2774206d6174636820696e6974436f646520616460448201527f647265737300000000000000000000000000000000000000000000000000000060648201526084016106f3565b8073ffffffffffffffffffffffffffffffffffffffff163b600003610f36576040517f08c379a000000000000000000000000000000000000000000000000000000000815260206004820181905260248201527f696e6974436f6465206661696c656420746f206372656174652073656e64657260448201526064016106f3565b6040518060a00160405280612ea0604051806101000160405280600073ffffffffffffffffffffffffffffffffffffffff16815260200160008152602001600081526020016000815260200160008152602001600073ffffffffffffffffffffffffffffffffffffffff16815260200160008152602001600081525090565b8152602001600080191681526020016000815260200160008152602001600081525090565b600060208284031215612ed757600080fd5b813563ffffffff8116811461133557600080fd5b60006101608284031215612efe57600080fd5b50919050565b600060208284031215612f1657600080fd5b813567ffffffffffffffff811115612f2d57600080fd5b61243284828501612eeb565b60008083601f840112612f4b57600080fd5b50813567ffffffffffffffff811115612f6357600080fd5b602083019150836020828501011115612f7b57600080fd5b9250929050565b7f4e487b7100000000000000000000000000000000000000000000000000000000600052604160045260246000fd5b60a0810181811067ffffffffffffffff82111715612fd157612fd1612f82565b60405250565b610100810181811067ffffffffffffffff82111715612fd157612fd1612f82565b7fffffffffffffffffffffffffffffffffffffffffffffffffffffffffffffffe0601f830116810181811067ffffffffffffffff8211171561303c5761303c612f82565b6040525050565b73ffffffffffffffffffffffffffffffffffffffff8116811461306557600080fd5b50565b803561307381613043565b919050565b60008060008060008587036101c081121561309257600080fd5b863567ffffffffffffffff808211156130aa57600080fd5b6130b68a838b01612f39565b90985096507fffffffffffffffffffffffffffffffffffffffffffffffffffffffffffffffe092909201916101809150818312156130f357600080fd5b6040516130ff81612fb1565b6101008085121561310f57600080fd5b604051945061311d85612fd7565b61312960208c01613068565b855260408b0135602086015260608b0135604086015260808b0135606086015260a08b0135608086015261315f60c08c01613068565b60a086015260e08b81013560c0870152908b0135908501529283526101208901356020840152610140890135604084015261016089013560608401528189013560808401529194506101a088013591808311156131bb57600080fd5b50506131c988828901612f39565b969995985093965092949392505050565b60008083601f8401126131ec57600080fd5b50813567ffffffffffffffff81111561320457600080fd5b6020830191508360208260051b8501011115612f7b57600080fd5b60008060006040848603121561323457600080fd5b833567ffffffffffffffff81111561324b57600080fd5b613257868287016131da565b909450925050602084013561326b81613043565b809150509250925092565b6000806040838503121561328957600080fd5b823561329481613043565b946020939093013593505050565b6000602082840312156132b457600080fd5b813561133581613043565b600080602083850312156132d257600080fd5b823567ffffffffffffffff8111156132e957600080fd5b6132f585828601612f39565b90969095509350505050565b6020808252825182820181905260009190848201906040850190845b818110156133395783518352928401929184019160010161331d565b50909695505050505050565b6000806040838503121561335857600080fd5b823567ffffffffffffffff81111561336f57600080fd5b61337b85828601612eeb565b9250506020830135801515811461339157600080fd5b809150509250929050565b60005b838110156133b757818101518382015260200161339f565b83811115610f365750506000910152565b600081518084526133e081602086016020860161339c565b601f017fffffffffffffffffffffffffffffffffffffffffffffffffffffffffffffffe0169290920160200192915050565b86815285602082015273ffffffffffffffffffffffffffffffffffffffff8516604082015260c06060820152600061344d60c08301866133c8565b828103608084015261345f81866133c8565b905082810360a084015261347381856133c8565b9998505050505050505050565b7f4e487b7100000000000000000000000000000000000000000000000000000000600052601160045260246000fd5b600082198211156134c2576134c2613480565b500190565b8183823760009101908152919050565b82815260406020820152600061243260408301846133c8565b7f4e487b7100000000000000000000000000000000000000000000000000000000600052603260045260246000fd5b600082357ffffffffffffffffffffffffffffffffffffffffffffffffffffffffffffffea183360301811261355357600080fd5b9190910192915050565b60008282101561356f5761356f613480565b500390565b600082357fffffffffffffffffffffffffffffffffffffffffffffffffffffffffffffffa183360301811261355357600080fd5b60008083357fffffffffffffffffffffffffffffffffffffffffffffffffffffffffffffffe18436030181126135dd57600080fd5b83018035915067ffffffffffffffff8211156135f857600080fd5b6020019150600581901b3603821315612f7b57600080fd5b60007fffffffffffffffffffffffffffffffffffffffffffffffffffffffffffffffff820361364157613641613480565b5060010190565b60008083357fffffffffffffffffffffffffffffffffffffffffffffffffffffffffffffffe184360301811261367d57600080fd5b83018035915067ffffffffffffffff82111561369857600080fd5b602001915036819003821315612f7b57600080fd5b60008083357fffffffffffffffffffffffffffffffffffffffffffffffffffffffffffffffe18436030181126136e257600080fd5b830160208101925035905067ffffffffffffffff81111561370257600080fd5b803603821315612f7b57600080fd5b8183528181602085013750600060208284010152600060207fffffffffffffffffffffffffffffffffffffffffffffffffffffffffffffffe0601f840116840101905092915050565b60006101606137868461376c85613068565b73ffffffffffffffffffffffffffffffffffffffff169052565b6020830135602085015261379d60408401846136ad565b8260408701526137b08387018284613711565b925050506137c160608401846136ad565b85830360608701526137d4838284613711565b925050506080830135608085015260a083013560a085015260c083013560c085015260e083013560e085015261010080840135818601525061012061381b818501856136ad565b8684038388015261382d848284613711565b9350505050610140613841818501856136ad565b86840383880152613853848284613711565b979650505050505050565b6040808252810184905260006060600586901b830181019083018783805b898110156138fe577fffffffffffffffffffffffffffffffffffffffffffffffffffffffffffffffa087860301845282357ffffffffffffffffffffffffffffffffffffffffffffffffffffffffffffffea18c36030181126138dc578283fd5b6138e8868d830161375a565b955050602093840193929092019160010161387c565b505050508281036020840152613853818587613711565b60208152600061395260208301600a81527f6e6f74207374616b656400000000000000000000000000000000000000000000602082015260400190565b92915050565b600067ffffffffffffffff80831681851680830382111561397b5761397b613480565b01949350505050565b604081526000613997604083018561375a565b905082151560208301529392505050565b600082601f8301126139b957600080fd5b815167ffffffffffffffff8111156139d3576139d3612f82565b604051613a0860207fffffffffffffffffffffffffffffffffffffffffffffffffffffffffffffffe0601f8501160182612ff8565b818152846020838601011115613a1d57600080fd5b61243282602083016020870161339c565b600080600060608486031215613a4357600080fd5b835167ffffffffffffffff80821115613a5b57600080fd5b613a67878388016139a8565b94506020860151915080821115613a7d57600080fd5b613a89878388016139a8565b93506040860151915080821115613a9f57600080fd5b50613aac868287016139a8565b9150509250925092565b7f4e487b7100000000000000000000000000000000000000000000000000000000600052602160045260246000fd5b600060038510613b1e577f4e487b7100000000000000000000000000000000000000000000000000000000600052602160045260246000fd5b84825260606020830152613b3560608301856133c8565b9050826040830152949350505050565b600060033d1115613b5e5760046000803e5060005160e01c5b90565b600060443d1015613b6f5790565b6040517ffffffffffffffffffffffffffffffffffffffffffffffffffffffffffffffffc803d016004833e81513d67ffffffffffffffff8160248401118184111715613bbd57505050505090565b8285019150815181811115613bd55750505050505090565b843d8701016020828501011115613bef5750505050505090565b613bfe60208286010187612ff8565b509095945050505050565b83815273ffffffffffffffffffffffffffffffffffffffff83166020820152606060408201526000613c3e60608301846133c8565b95945050505050565b60006101c0808352613c5c8184018789613711565b9050845173ffffffffffffffffffffffffffffffffffffffff808251166020860152602082015160408601526040820151606086015260608201516080860152608082015160a08601528060a08301511660c08601525060c081015160e085015260e08101516101008501525060208501516101208401526040850151610140840152606085015161016084015260808501516101808401528281036101a084015261385381856133c8565b600060208284031215613d1a57600080fd5b5051919050565b60008085851115613d3157600080fd5b83861115613d3e57600080fd5b5050820193919092039150565b7fffffffffffffffffffffffffffffffffffffffff0000000000000000000000008135818116916014851015613d8b5780818660140360031b1b83161692505b505092915050565b600060208284031215613da557600080fd5b815161133581613043565b608081526000613dc3608083018761375a565b60208301959095525073ffffffffffffffffffffffffffffffffffffffff929092166040830152606090910152919050565b82815273ffffffffffffffffffffffffffffffffffffffff8216602082015260606040820152600061243260608301600a81527f6e6f74207374616b656400000000000000000000000000000000000000000000602082015260400190565b606081526000613e67606083018661375a565b60208301949094525060400152919050565b600060208284031215613e8b57600080fd5b815167ffffffffffffffff811115613ea257600080fd5b612432848285016139a856fea26469706673582212201d61509e49e90173f3a6dce366ad693bf2090d1750865da8af04b6da8450aa9f64736f6c634300080f0033",
          "opcodes": "PUSH1 0xC0 PUSH1 0x40 MSTORE CALLVALUE DUP1 ISZERO PUSH3 0x11 JUMPI PUSH1 0x0 DUP1 REVERT JUMPDEST POP PUSH1 0x40 MLOAD PUSH3 0x4044 CODESIZE SUB DUP1 PUSH3 0x4044 DUP4 CODECOPY DUP2 ADD PUSH1 0x40 DUP2 SWAP1 MSTORE PUSH3 0x34 SWAP2 PUSH3 0xF1 JUMP JUMPDEST PUSH4 0xFFFFFFFF DUP2 AND PUSH1 0x80 DUP2 SWAP1 MSTORE PUSH1 0xA0 DUP4 SWAP1 MSTORE PUSH3 0x97 JUMPI PUSH1 0x40 MLOAD PUSH3 0x461BCD PUSH1 0xE5 SHL DUP2 MSTORE PUSH1 0x20 PUSH1 0x4 DUP3 ADD MSTORE PUSH1 0x14 PUSH1 0x24 DUP3 ADD MSTORE PUSH32 0x696E76616C696420756E7374616B6544656C6179000000000000000000000000 PUSH1 0x44 DUP3 ADD MSTORE PUSH1 0x64 ADD JUMPDEST PUSH1 0x40 MLOAD DUP1 SWAP2 SUB SWAP1 REVERT JUMPDEST PUSH1 0x0 DUP3 GT PUSH3 0xE9 JUMPI PUSH1 0x40 MLOAD PUSH3 0x461BCD PUSH1 0xE5 SHL DUP2 MSTORE PUSH1 0x20 PUSH1 0x4 DUP3 ADD MSTORE PUSH1 0x16 PUSH1 0x24 DUP3 ADD MSTORE PUSH32 0x696E76616C6964207061796D61737465725374616B6500000000000000000000 PUSH1 0x44 DUP3 ADD MSTORE PUSH1 0x64 ADD PUSH3 0x8E JUMP JUMPDEST POP POP PUSH3 0x12C JUMP JUMPDEST PUSH1 0x0 DUP1 PUSH1 0x40 DUP4 DUP6 SUB SLT ISZERO PUSH3 0x105 JUMPI PUSH1 0x0 DUP1 REVERT JUMPDEST DUP3 MLOAD SWAP2 POP PUSH1 0x20 DUP4 ADD MLOAD PUSH4 0xFFFFFFFF DUP2 AND DUP2 EQ PUSH3 0x121 JUMPI PUSH1 0x0 DUP1 REVERT JUMPDEST DUP1 SWAP2 POP POP SWAP3 POP SWAP3 SWAP1 POP JUMP JUMPDEST PUSH1 0x80 MLOAD PUSH1 0xA0 MLOAD PUSH2 0x3EE4 PUSH3 0x160 PUSH1 0x0 CODECOPY PUSH1 0x0 DUP2 DUP2 PUSH2 0x17F ADD MSTORE PUSH2 0x7AB ADD MSTORE PUSH1 0x0 DUP2 DUP2 PUSH2 0x213 ADD MSTORE PUSH2 0x66B ADD MSTORE PUSH2 0x3EE4 PUSH1 0x0 RETURN INVALID PUSH1 0x80 PUSH1 0x40 MSTORE PUSH1 0x4 CALLDATASIZE LT PUSH2 0x112 JUMPI PUSH1 0x0 CALLDATALOAD PUSH1 0xE0 SHR DUP1 PUSH4 0x5287CE12 GT PUSH2 0xA5 JUMPI DUP1 PUSH4 0xBB9FE6BF GT PUSH2 0x74 JUMPI DUP1 PUSH4 0xEC8B5DBF GT PUSH2 0x59 JUMPI DUP1 PUSH4 0xEC8B5DBF EQ PUSH2 0x49D JUMPI DUP1 PUSH4 0xFC7E286D EQ PUSH2 0x4CA JUMPI DUP1 PUSH4 0xFFB01DD9 EQ PUSH2 0x5A8 JUMPI PUSH1 0x0 DUP1 REVERT JUMPDEST DUP1 PUSH4 0xBB9FE6BF EQ PUSH2 0x468 JUMPI DUP1 PUSH4 0xC23A5CEA EQ PUSH2 0x47D JUMPI PUSH1 0x0 DUP1 REVERT JUMPDEST DUP1 PUSH4 0x5287CE12 EQ PUSH2 0x26A JUMPI DUP1 PUSH4 0x70A08231 EQ PUSH2 0x3BD JUMPI DUP1 PUSH4 0x9B249F69 EQ PUSH2 0x410 JUMPI DUP1 PUSH4 0xB760FAF9 EQ PUSH2 0x455 JUMPI PUSH1 0x0 DUP1 REVERT JUMPDEST DUP1 PUSH4 0x1FAD948C GT PUSH2 0xE1 JUMPI DUP1 PUSH4 0x1FAD948C EQ PUSH2 0x1C1 JUMPI DUP1 PUSH4 0x205C2878 EQ PUSH2 0x1E1 JUMPI DUP1 PUSH4 0x390B9978 EQ PUSH2 0x201 JUMPI DUP1 PUSH4 0x4B1D7CF5 EQ PUSH2 0x24A JUMPI PUSH1 0x0 DUP1 REVERT JUMPDEST DUP1 PUSH4 0x396CB60 EQ PUSH2 0x127 JUMPI DUP1 PUSH4 0x14E72634 EQ PUSH2 0x13A JUMPI DUP1 PUSH4 0x17C6A987 EQ PUSH2 0x16D JUMPI DUP1 PUSH4 0x1D732756 EQ PUSH2 0x1A1 JUMPI PUSH1 0x0 DUP1 REVERT JUMPDEST CALLDATASIZE PUSH2 0x122 JUMPI PUSH2 0x120 CALLER PUSH2 0x5DA JUMP JUMPDEST STOP JUMPDEST PUSH1 0x0 DUP1 REVERT JUMPDEST PUSH2 0x120 PUSH2 0x135 CALLDATASIZE PUSH1 0x4 PUSH2 0x2EC5 JUMP JUMPDEST PUSH2 0x655 JUMP JUMPDEST CALLVALUE DUP1 ISZERO PUSH2 0x146 JUMPI PUSH1 0x0 DUP1 REVERT JUMPDEST POP PUSH2 0x15A PUSH2 0x155 CALLDATASIZE PUSH1 0x4 PUSH2 0x2F04 JUMP JUMPDEST PUSH2 0xA1F JUMP JUMPDEST PUSH1 0x40 MLOAD SWAP1 DUP2 MSTORE PUSH1 0x20 ADD JUMPDEST PUSH1 0x40 MLOAD DUP1 SWAP2 SUB SWAP1 RETURN JUMPDEST CALLVALUE DUP1 ISZERO PUSH2 0x179 JUMPI PUSH1 0x0 DUP1 REVERT JUMPDEST POP PUSH2 0x15A PUSH32 0x0 DUP2 JUMP JUMPDEST CALLVALUE DUP1 ISZERO PUSH2 0x1AD JUMPI PUSH1 0x0 DUP1 REVERT JUMPDEST POP PUSH2 0x15A PUSH2 0x1BC CALLDATASIZE PUSH1 0x4 PUSH2 0x3078 JUMP JUMPDEST PUSH2 0xA61 JUMP JUMPDEST CALLVALUE DUP1 ISZERO PUSH2 0x1CD JUMPI PUSH1 0x0 DUP1 REVERT JUMPDEST POP PUSH2 0x120 PUSH2 0x1DC CALLDATASIZE PUSH1 0x4 PUSH2 0x321F JUMP JUMPDEST PUSH2 0xBCA JUMP JUMPDEST CALLVALUE DUP1 ISZERO PUSH2 0x1ED JUMPI PUSH1 0x0 DUP1 REVERT JUMPDEST POP PUSH2 0x120 PUSH2 0x1FC CALLDATASIZE PUSH1 0x4 PUSH2 0x3276 JUMP JUMPDEST PUSH2 0xCF2 JUMP JUMPDEST CALLVALUE DUP1 ISZERO PUSH2 0x20D JUMPI PUSH1 0x0 DUP1 REVERT JUMPDEST POP PUSH2 0x235 PUSH32 0x0 DUP2 JUMP JUMPDEST PUSH1 0x40 MLOAD PUSH4 0xFFFFFFFF SWAP1 SWAP2 AND DUP2 MSTORE PUSH1 0x20 ADD PUSH2 0x164 JUMP JUMPDEST CALLVALUE DUP1 ISZERO PUSH2 0x256 JUMPI PUSH1 0x0 DUP1 REVERT JUMPDEST POP PUSH2 0x120 PUSH2 0x265 CALLDATASIZE PUSH1 0x4 PUSH2 0x321F JUMP JUMPDEST PUSH2 0xF3C JUMP JUMPDEST CALLVALUE DUP1 ISZERO PUSH2 0x276 JUMPI PUSH1 0x0 DUP1 REVERT JUMPDEST POP PUSH2 0x35C PUSH2 0x285 CALLDATASIZE PUSH1 0x4 PUSH2 0x32A2 JUMP JUMPDEST PUSH1 0x40 DUP1 MLOAD PUSH1 0xA0 DUP2 ADD DUP3 MSTORE PUSH1 0x0 DUP1 DUP3 MSTORE PUSH1 0x20 DUP3 ADD DUP2 SWAP1 MSTORE SWAP2 DUP2 ADD DUP3 SWAP1 MSTORE PUSH1 0x60 DUP2 ADD DUP3 SWAP1 MSTORE PUSH1 0x80 DUP2 ADD SWAP2 SWAP1 SWAP2 MSTORE POP PUSH20 0xFFFFFFFFFFFFFFFFFFFFFFFFFFFFFFFFFFFFFFFF AND PUSH1 0x0 SWAP1 DUP2 MSTORE PUSH1 0x20 DUP2 DUP2 MSTORE PUSH1 0x40 SWAP2 DUP3 SWAP1 KECCAK256 DUP3 MLOAD PUSH1 0xA0 DUP2 ADD DUP5 MSTORE DUP2 SLOAD PUSH14 0xFFFFFFFFFFFFFFFFFFFFFFFFFFFF DUP1 DUP3 AND DUP4 MSTORE PUSH15 0x10000000000000000000000000000 DUP3 DIV PUSH1 0xFF AND ISZERO ISZERO SWAP5 DUP4 ADD SWAP5 SWAP1 SWAP5 MSTORE PUSH16 0x1000000000000000000000000000000 SWAP1 DIV SWAP1 SWAP3 AND SWAP3 DUP3 ADD SWAP3 SWAP1 SWAP3 MSTORE PUSH1 0x1 SWAP1 SWAP2 ADD SLOAD PUSH4 0xFFFFFFFF DUP2 AND PUSH1 0x60 DUP4 ADD MSTORE PUSH5 0x100000000 SWAP1 DIV PUSH8 0xFFFFFFFFFFFFFFFF AND PUSH1 0x80 DUP3 ADD MSTORE SWAP1 JUMP JUMPDEST PUSH1 0x40 DUP1 MLOAD DUP3 MLOAD PUSH14 0xFFFFFFFFFFFFFFFFFFFFFFFFFFFF SWAP1 DUP2 AND DUP3 MSTORE PUSH1 0x20 DUP1 DUP6 ADD MLOAD ISZERO ISZERO SWAP1 DUP4 ADD MSTORE DUP4 DUP4 ADD MLOAD AND SWAP2 DUP2 ADD SWAP2 SWAP1 SWAP2 MSTORE PUSH1 0x60 DUP1 DUP4 ADD MLOAD PUSH4 0xFFFFFFFF AND SWAP1 DUP3 ADD MSTORE PUSH1 0x80 SWAP2 DUP3 ADD MLOAD PUSH8 0xFFFFFFFFFFFFFFFF AND SWAP2 DUP2 ADD SWAP2 SWAP1 SWAP2 MSTORE PUSH1 0xA0 ADD PUSH2 0x164 JUMP JUMPDEST CALLVALUE DUP1 ISZERO PUSH2 0x3C9 JUMPI PUSH1 0x0 DUP1 REVERT JUMPDEST POP PUSH2 0x15A PUSH2 0x3D8 CALLDATASIZE PUSH1 0x4 PUSH2 0x32A2 JUMP JUMPDEST PUSH20 0xFFFFFFFFFFFFFFFFFFFFFFFFFFFFFFFFFFFFFFFF AND PUSH1 0x0 SWAP1 DUP2 MSTORE PUSH1 0x20 DUP2 SWAP1 MSTORE PUSH1 0x40 SWAP1 KECCAK256 SLOAD PUSH14 0xFFFFFFFFFFFFFFFFFFFFFFFFFFFF AND SWAP1 JUMP JUMPDEST CALLVALUE DUP1 ISZERO PUSH2 0x41C JUMPI PUSH1 0x0 DUP1 REVERT JUMPDEST POP PUSH2 0x430 PUSH2 0x42B CALLDATASIZE PUSH1 0x4 PUSH2 0x32BF JUMP JUMPDEST PUSH2 0x129B JUMP JUMPDEST PUSH1 0x40 MLOAD PUSH20 0xFFFFFFFFFFFFFFFFFFFFFFFFFFFFFFFFFFFFFFFF SWAP1 SWAP2 AND DUP2 MSTORE PUSH1 0x20 ADD PUSH2 0x164 JUMP JUMPDEST PUSH2 0x120 PUSH2 0x463 CALLDATASIZE PUSH1 0x4 PUSH2 0x32A2 JUMP JUMPDEST PUSH2 0x5DA JUMP JUMPDEST CALLVALUE DUP1 ISZERO PUSH2 0x474 JUMPI PUSH1 0x0 DUP1 REVERT JUMPDEST POP PUSH2 0x120 PUSH2 0x133C JUMP JUMPDEST CALLVALUE DUP1 ISZERO PUSH2 0x489 JUMPI PUSH1 0x0 DUP1 REVERT JUMPDEST POP PUSH2 0x120 PUSH2 0x498 CALLDATASIZE PUSH1 0x4 PUSH2 0x32A2 JUMP JUMPDEST PUSH2 0x14C5 JUMP JUMPDEST CALLVALUE DUP1 ISZERO PUSH2 0x4A9 JUMPI PUSH1 0x0 DUP1 REVERT JUMPDEST POP PUSH2 0x4BD PUSH2 0x4B8 CALLDATASIZE PUSH1 0x4 PUSH2 0x32A2 JUMP JUMPDEST PUSH2 0x17C9 JUMP JUMPDEST PUSH1 0x40 MLOAD PUSH2 0x164 SWAP2 SWAP1 PUSH2 0x3301 JUMP JUMPDEST CALLVALUE DUP1 ISZERO PUSH2 0x4D6 JUMPI PUSH1 0x0 DUP1 REVERT JUMPDEST POP PUSH2 0x559 PUSH2 0x4E5 CALLDATASIZE PUSH1 0x4 PUSH2 0x32A2 JUMP JUMPDEST PUSH1 0x0 PUSH1 0x20 DUP2 SWAP1 MSTORE SWAP1 DUP2 MSTORE PUSH1 0x40 SWAP1 KECCAK256 DUP1 SLOAD PUSH1 0x1 SWAP1 SWAP2 ADD SLOAD PUSH14 0xFFFFFFFFFFFFFFFFFFFFFFFFFFFF DUP1 DUP4 AND SWAP3 PUSH15 0x10000000000000000000000000000 DUP2 DIV PUSH1 0xFF AND SWAP3 PUSH16 0x1000000000000000000000000000000 SWAP1 SWAP2 DIV SWAP1 SWAP2 AND SWAP1 PUSH4 0xFFFFFFFF DUP2 AND SWAP1 PUSH5 0x100000000 SWAP1 DIV PUSH8 0xFFFFFFFFFFFFFFFF AND DUP6 JUMP JUMPDEST PUSH1 0x40 DUP1 MLOAD PUSH14 0xFFFFFFFFFFFFFFFFFFFFFFFFFFFF SWAP7 DUP8 AND DUP2 MSTORE SWAP5 ISZERO ISZERO PUSH1 0x20 DUP7 ADD MSTORE SWAP3 SWAP1 SWAP5 AND SWAP2 DUP4 ADD SWAP2 SWAP1 SWAP2 MSTORE PUSH4 0xFFFFFFFF AND PUSH1 0x60 DUP3 ADD MSTORE PUSH8 0xFFFFFFFFFFFFFFFF SWAP1 SWAP2 AND PUSH1 0x80 DUP3 ADD MSTORE PUSH1 0xA0 ADD PUSH2 0x164 JUMP JUMPDEST CALLVALUE DUP1 ISZERO PUSH2 0x5B4 JUMPI PUSH1 0x0 DUP1 REVERT JUMPDEST POP PUSH2 0x5C8 PUSH2 0x5C3 CALLDATASIZE PUSH1 0x4 PUSH2 0x3345 JUMP JUMPDEST PUSH2 0x183C JUMP JUMPDEST PUSH1 0x40 MLOAD PUSH2 0x164 SWAP7 SWAP6 SWAP5 SWAP4 SWAP3 SWAP2 SWAP1 PUSH2 0x3412 JUMP JUMPDEST PUSH2 0x5E4 DUP2 CALLVALUE PUSH2 0x1A04 JUMP JUMPDEST PUSH20 0xFFFFFFFFFFFFFFFFFFFFFFFFFFFFFFFFFFFFFFFF DUP2 AND PUSH1 0x0 DUP2 DUP2 MSTORE PUSH1 0x20 DUP2 DUP2 MSTORE PUSH1 0x40 SWAP2 DUP3 SWAP1 KECCAK256 DUP1 SLOAD SWAP3 MLOAD PUSH14 0xFFFFFFFFFFFFFFFFFFFFFFFFFFFF SWAP1 SWAP4 AND DUP4 MSTORE SWAP3 SWAP2 PUSH32 0x2DA466A7B24304F47E87FA2E1E5A81B9831CE54FEC19055CE277CA2F39BA42C4 SWAP2 ADD JUMPDEST PUSH1 0x40 MLOAD DUP1 SWAP2 SUB SWAP1 LOG2 POP POP JUMP JUMPDEST CALLER PUSH1 0x0 SWAP1 DUP2 MSTORE PUSH1 0x20 DUP2 SWAP1 MSTORE PUSH1 0x40 SWAP1 KECCAK256 PUSH4 0xFFFFFFFF PUSH32 0x0 DUP2 AND SWAP1 DUP4 AND LT ISZERO PUSH2 0x6FC JUMPI PUSH1 0x40 MLOAD PUSH32 0x8C379A000000000000000000000000000000000000000000000000000000000 DUP2 MSTORE PUSH1 0x20 PUSH1 0x4 DUP3 ADD MSTORE PUSH1 0x15 PUSH1 0x24 DUP3 ADD MSTORE PUSH32 0x756E7374616B652064656C617920746F6F206C6F770000000000000000000000 PUSH1 0x44 DUP3 ADD MSTORE PUSH1 0x64 ADD JUMPDEST PUSH1 0x40 MLOAD DUP1 SWAP2 SUB SWAP1 REVERT JUMPDEST PUSH1 0x1 DUP2 ADD SLOAD PUSH4 0xFFFFFFFF SWAP1 DUP2 AND SWAP1 DUP4 AND LT ISZERO PUSH2 0x774 JUMPI PUSH1 0x40 MLOAD PUSH32 0x8C379A000000000000000000000000000000000000000000000000000000000 DUP2 MSTORE PUSH1 0x20 PUSH1 0x4 DUP3 ADD MSTORE PUSH1 0x1C PUSH1 0x24 DUP3 ADD MSTORE PUSH32 0x63616E6E6F7420646563726561736520756E7374616B652074696D6500000000 PUSH1 0x44 DUP3 ADD MSTORE PUSH1 0x64 ADD PUSH2 0x6F3 JUMP JUMPDEST DUP1 SLOAD PUSH1 0x0 SWAP1 PUSH2 0x7A7 SWAP1 CALLVALUE SWAP1 PUSH16 0x1000000000000000000000000000000 SWAP1 DIV PUSH14 0xFFFFFFFFFFFFFFFFFFFFFFFFFFFF AND PUSH2 0x34AF JUMP JUMPDEST SWAP1 POP PUSH32 0x0 DUP2 LT ISZERO PUSH2 0x833 JUMPI PUSH1 0x40 MLOAD PUSH32 0x8C379A000000000000000000000000000000000000000000000000000000000 DUP2 MSTORE PUSH1 0x20 PUSH1 0x4 DUP3 ADD MSTORE PUSH1 0x13 PUSH1 0x24 DUP3 ADD MSTORE PUSH32 0x7374616B652076616C756520746F6F206C6F7700000000000000000000000000 PUSH1 0x44 DUP3 ADD MSTORE PUSH1 0x64 ADD PUSH2 0x6F3 JUMP JUMPDEST PUSH14 0xFFFFFFFFFFFFFFFFFFFFFFFFFFFF DUP2 LT PUSH2 0x8AA JUMPI PUSH1 0x40 MLOAD PUSH32 0x8C379A000000000000000000000000000000000000000000000000000000000 DUP2 MSTORE PUSH1 0x20 PUSH1 0x4 DUP3 ADD MSTORE PUSH1 0xE PUSH1 0x24 DUP3 ADD MSTORE PUSH32 0x7374616B65206F766572666C6F77000000000000000000000000000000000000 PUSH1 0x44 DUP3 ADD MSTORE PUSH1 0x64 ADD PUSH2 0x6F3 JUMP JUMPDEST PUSH1 0x40 DUP1 MLOAD PUSH1 0xA0 DUP2 ADD DUP3 MSTORE DUP4 SLOAD PUSH14 0xFFFFFFFFFFFFFFFFFFFFFFFFFFFF SWAP1 DUP2 AND DUP3 MSTORE PUSH1 0x1 PUSH1 0x20 DUP1 DUP5 ADD DUP3 DUP2 MSTORE DUP7 DUP5 AND DUP6 DUP8 ADD SWAP1 DUP2 MSTORE PUSH4 0xFFFFFFFF DUP1 DUP12 AND PUSH1 0x60 DUP9 ADD SWAP1 DUP2 MSTORE PUSH1 0x0 PUSH1 0x80 DUP10 ADD DUP2 DUP2 MSTORE CALLER DUP1 DUP4 MSTORE SWAP7 DUP3 SWAP1 MSTORE SWAP1 DUP11 SWAP1 KECCAK256 SWAP9 MLOAD DUP10 SLOAD SWAP6 MLOAD SWAP5 MLOAD DUP10 AND PUSH16 0x1000000000000000000000000000000 MUL PUSH32 0xFFFFFF0000000000000000000000000000FFFFFFFFFFFFFFFFFFFFFFFFFFFFFF SWAP6 ISZERO ISZERO PUSH15 0x10000000000000000000000000000 MUL PUSH32 0xFFFFFFFFFFFFFFFFFFFFFFFFFFFFFFFFFF000000000000000000000000000000 SWAP1 SWAP8 AND SWAP2 SWAP1 SWAP10 AND OR SWAP5 SWAP1 SWAP5 OR SWAP3 SWAP1 SWAP3 AND SWAP6 SWAP1 SWAP6 OR DUP7 SSTORE MLOAD SWAP5 SWAP1 SWAP3 ADD DUP1 SLOAD SWAP3 MLOAD PUSH8 0xFFFFFFFFFFFFFFFF AND PUSH5 0x100000000 MUL PUSH32 0xFFFFFFFFFFFFFFFFFFFFFFFFFFFFFFFFFFFFFFFF000000000000000000000000 SWAP1 SWAP4 AND SWAP5 SWAP1 SWAP4 AND SWAP4 SWAP1 SWAP4 OR OR SWAP1 SSTORE SWAP1 MLOAD PUSH32 0xA5AE833D0BB1DCD632D98A8B70973E8516812898E19BF27B70071EBC8DC52C01 SWAP1 PUSH2 0xA12 SWAP1 DUP5 SWAP1 DUP8 SWAP1 SWAP2 DUP3 MSTORE PUSH4 0xFFFFFFFF AND PUSH1 0x20 DUP3 ADD MSTORE PUSH1 0x40 ADD SWAP1 JUMP JUMPDEST PUSH1 0x40 MLOAD DUP1 SWAP2 SUB SWAP1 LOG2 POP POP POP JUMP JUMPDEST PUSH1 0x0 PUSH2 0xA2A DUP3 PUSH2 0x1B01 JUMP JUMPDEST PUSH1 0x40 DUP1 MLOAD PUSH1 0x20 DUP2 ADD SWAP3 SWAP1 SWAP3 MSTORE ADDRESS SWAP1 DUP3 ADD MSTORE CHAINID PUSH1 0x60 DUP3 ADD MSTORE PUSH1 0x80 ADD PUSH1 0x40 MLOAD PUSH1 0x20 DUP2 DUP4 SUB SUB DUP2 MSTORE SWAP1 PUSH1 0x40 MSTORE DUP1 MLOAD SWAP1 PUSH1 0x20 ADD KECCAK256 SWAP1 POP SWAP2 SWAP1 POP JUMP JUMPDEST PUSH1 0x0 DUP1 GAS SWAP1 POP CALLER ADDRESS EQ PUSH2 0xA73 JUMPI PUSH1 0x0 DUP1 REVERT JUMPDEST DUP5 MLOAD PUSH1 0x0 DUP8 ISZERO PUSH2 0xB6A JUMPI PUSH1 0x0 DUP1 DUP4 PUSH1 0x0 ADD MLOAD PUSH20 0xFFFFFFFFFFFFFFFFFFFFFFFFFFFFFFFFFFFFFFFF AND DUP5 PUSH1 0x40 ADD MLOAD DUP13 DUP13 PUSH1 0x40 MLOAD PUSH2 0xAB0 SWAP3 SWAP2 SWAP1 PUSH2 0x34C7 JUMP JUMPDEST PUSH1 0x0 PUSH1 0x40 MLOAD DUP1 DUP4 SUB DUP2 PUSH1 0x0 DUP8 DUP8 CALL SWAP3 POP POP POP RETURNDATASIZE DUP1 PUSH1 0x0 DUP2 EQ PUSH2 0xAEE JUMPI PUSH1 0x40 MLOAD SWAP2 POP PUSH1 0x1F NOT PUSH1 0x3F RETURNDATASIZE ADD AND DUP3 ADD PUSH1 0x40 MSTORE RETURNDATASIZE DUP3 MSTORE RETURNDATASIZE PUSH1 0x0 PUSH1 0x20 DUP5 ADD RETURNDATACOPY PUSH2 0xAF3 JUMP JUMPDEST PUSH1 0x60 SWAP2 POP JUMPDEST POP SWAP2 POP SWAP2 POP DUP2 PUSH2 0xB67 JUMPI DUP1 MLOAD ISZERO PUSH2 0xB62 JUMPI DUP4 PUSH1 0x0 ADD MLOAD PUSH20 0xFFFFFFFFFFFFFFFFFFFFFFFFFFFFFFFFFFFFFFFF AND DUP10 PUSH1 0x20 ADD MLOAD PUSH32 0x1C4FADA7374C0A9EE8841FC38AFE82932DC0F8E69012E927F061A8BAE611A201 DUP7 PUSH1 0x20 ADD MLOAD DUP5 PUSH1 0x40 MLOAD PUSH2 0xB59 SWAP3 SWAP2 SWAP1 PUSH2 0x34D7 JUMP JUMPDEST PUSH1 0x40 MLOAD DUP1 SWAP2 SUB SWAP1 LOG3 JUMPDEST PUSH1 0x1 SWAP3 POP JUMPDEST POP POP JUMPDEST PUSH1 0x0 DUP8 PUSH1 0x80 ADD MLOAD GAS DUP6 SUB ADD SWAP1 POP PUSH2 0xBBC PUSH1 0x0 DUP4 DUP11 DUP11 DUP11 DUP1 DUP1 PUSH1 0x1F ADD PUSH1 0x20 DUP1 SWAP2 DIV MUL PUSH1 0x20 ADD PUSH1 0x40 MLOAD SWAP1 DUP2 ADD PUSH1 0x40 MSTORE DUP1 SWAP4 SWAP3 SWAP2 SWAP1 DUP2 DUP2 MSTORE PUSH1 0x20 ADD DUP4 DUP4 DUP1 DUP3 DUP5 CALLDATACOPY PUSH1 0x0 SWAP3 ADD SWAP2 SWAP1 SWAP2 MSTORE POP DUP9 SWAP3 POP PUSH2 0x1B1A SWAP2 POP POP JUMP JUMPDEST SWAP11 SWAP10 POP POP POP POP POP POP POP POP POP POP JUMP JUMPDEST DUP2 PUSH1 0x0 DUP2 PUSH8 0xFFFFFFFFFFFFFFFF DUP2 GT ISZERO PUSH2 0xBE6 JUMPI PUSH2 0xBE6 PUSH2 0x2F82 JUMP JUMPDEST PUSH1 0x40 MLOAD SWAP1 DUP1 DUP3 MSTORE DUP1 PUSH1 0x20 MUL PUSH1 0x20 ADD DUP3 ADD PUSH1 0x40 MSTORE DUP1 ISZERO PUSH2 0xC1F JUMPI DUP2 PUSH1 0x20 ADD JUMPDEST PUSH2 0xC0C PUSH2 0x2E21 JUMP JUMPDEST DUP2 MSTORE PUSH1 0x20 ADD SWAP1 PUSH1 0x1 SWAP1 SUB SWAP1 DUP2 PUSH2 0xC04 JUMPI SWAP1 POP JUMPDEST POP SWAP1 POP PUSH1 0x0 JUMPDEST DUP3 DUP2 LT ISZERO PUSH2 0xC7F JUMPI PUSH2 0xC76 DUP2 DUP8 DUP8 DUP5 DUP2 DUP2 LT PUSH2 0xC43 JUMPI PUSH2 0xC43 PUSH2 0x34F0 JUMP JUMPDEST SWAP1 POP PUSH1 0x20 MUL DUP2 ADD SWAP1 PUSH2 0xC55 SWAP2 SWAP1 PUSH2 0x351F JUMP JUMPDEST DUP5 DUP5 DUP2 MLOAD DUP2 LT PUSH2 0xC67 JUMPI PUSH2 0xC67 PUSH2 0x34F0 JUMP JUMPDEST PUSH1 0x20 MUL PUSH1 0x20 ADD ADD MLOAD PUSH1 0x0 PUSH2 0x1EF3 JUMP JUMPDEST POP PUSH1 0x1 ADD PUSH2 0xC25 JUMP JUMPDEST POP PUSH1 0x0 DUP1 JUMPDEST DUP4 DUP2 LT ISZERO PUSH2 0xCDF JUMPI PUSH2 0xCD3 DUP2 DUP9 DUP9 DUP5 DUP2 DUP2 LT PUSH2 0xCA2 JUMPI PUSH2 0xCA2 PUSH2 0x34F0 JUMP JUMPDEST SWAP1 POP PUSH1 0x20 MUL DUP2 ADD SWAP1 PUSH2 0xCB4 SWAP2 SWAP1 PUSH2 0x351F JUMP JUMPDEST DUP6 DUP5 DUP2 MLOAD DUP2 LT PUSH2 0xCC6 JUMPI PUSH2 0xCC6 PUSH2 0x34F0 JUMP JUMPDEST PUSH1 0x20 MUL PUSH1 0x20 ADD ADD MLOAD PUSH2 0x210C JUMP JUMPDEST SWAP1 SWAP2 ADD SWAP1 PUSH1 0x1 ADD PUSH2 0xC84 JUMP JUMPDEST POP PUSH2 0xCEA DUP5 DUP3 PUSH2 0x21F2 JUMP JUMPDEST POP POP POP POP POP POP JUMP JUMPDEST CALLER PUSH1 0x0 SWAP1 DUP2 MSTORE PUSH1 0x20 DUP2 DUP2 MSTORE PUSH1 0x40 SWAP2 DUP3 SWAP1 KECCAK256 DUP3 MLOAD PUSH1 0xA0 DUP2 ADD DUP5 MSTORE DUP2 SLOAD PUSH14 0xFFFFFFFFFFFFFFFFFFFFFFFFFFFF DUP1 DUP3 AND DUP1 DUP5 MSTORE PUSH15 0x10000000000000000000000000000 DUP4 DIV PUSH1 0xFF AND ISZERO ISZERO SWAP6 DUP5 ADD SWAP6 SWAP1 SWAP6 MSTORE PUSH16 0x1000000000000000000000000000000 SWAP1 SWAP2 DIV AND SWAP4 DUP2 ADD SWAP4 SWAP1 SWAP4 MSTORE PUSH1 0x1 ADD SLOAD PUSH4 0xFFFFFFFF DUP2 AND PUSH1 0x60 DUP5 ADD MSTORE PUSH5 0x100000000 SWAP1 DIV PUSH8 0xFFFFFFFFFFFFFFFF AND PUSH1 0x80 DUP4 ADD MSTORE DUP3 GT ISZERO PUSH2 0xDEC JUMPI PUSH1 0x40 MLOAD PUSH32 0x8C379A000000000000000000000000000000000000000000000000000000000 DUP2 MSTORE PUSH1 0x20 PUSH1 0x4 DUP3 ADD MSTORE PUSH1 0x19 PUSH1 0x24 DUP3 ADD MSTORE PUSH32 0x576974686472617720616D6F756E7420746F6F206C6172676500000000000000 PUSH1 0x44 DUP3 ADD MSTORE PUSH1 0x64 ADD PUSH2 0x6F3 JUMP JUMPDEST DUP1 MLOAD PUSH2 0xE09 SWAP1 DUP4 SWAP1 PUSH14 0xFFFFFFFFFFFFFFFFFFFFFFFFFFFF AND PUSH2 0x355D JUMP JUMPDEST PUSH14 0xFFFFFFFFFFFFFFFFFFFFFFFFFFFF AND DUP2 MSTORE PUSH1 0x40 DUP1 MLOAD PUSH20 0xFFFFFFFFFFFFFFFFFFFFFFFFFFFFFFFFFFFFFFFF DUP6 AND DUP2 MSTORE PUSH1 0x20 DUP2 ADD DUP5 SWAP1 MSTORE CALLER SWAP2 PUSH32 0xD1C19FBCD4551A5EDFB66D43D2E337C04837AFDA3482B42BDF569A8FCCDAE5FB SWAP2 ADD PUSH1 0x40 MLOAD DUP1 SWAP2 SUB SWAP1 LOG2 PUSH1 0x0 DUP4 PUSH20 0xFFFFFFFFFFFFFFFFFFFFFFFFFFFFFFFFFFFFFFFF AND DUP4 PUSH1 0x40 MLOAD PUSH1 0x0 PUSH1 0x40 MLOAD DUP1 DUP4 SUB DUP2 DUP6 DUP8 GAS CALL SWAP3 POP POP POP RETURNDATASIZE DUP1 PUSH1 0x0 DUP2 EQ PUSH2 0xEC6 JUMPI PUSH1 0x40 MLOAD SWAP2 POP PUSH1 0x1F NOT PUSH1 0x3F RETURNDATASIZE ADD AND DUP3 ADD PUSH1 0x40 MSTORE RETURNDATASIZE DUP3 MSTORE RETURNDATASIZE PUSH1 0x0 PUSH1 0x20 DUP5 ADD RETURNDATACOPY PUSH2 0xECB JUMP JUMPDEST PUSH1 0x60 SWAP2 POP JUMPDEST POP POP SWAP1 POP DUP1 PUSH2 0xF36 JUMPI PUSH1 0x40 MLOAD PUSH32 0x8C379A000000000000000000000000000000000000000000000000000000000 DUP2 MSTORE PUSH1 0x20 PUSH1 0x4 DUP3 ADD MSTORE PUSH1 0x12 PUSH1 0x24 DUP3 ADD MSTORE PUSH32 0x6661696C656420746F2077697468647261770000000000000000000000000000 PUSH1 0x44 DUP3 ADD MSTORE PUSH1 0x64 ADD PUSH2 0x6F3 JUMP JUMPDEST POP POP POP POP JUMP JUMPDEST DUP2 PUSH1 0x0 DUP1 JUMPDEST DUP3 DUP2 LT ISZERO PUSH2 0xF96 JUMPI DUP6 DUP6 DUP3 DUP2 DUP2 LT PUSH2 0xF5B JUMPI PUSH2 0xF5B PUSH2 0x34F0 JUMP JUMPDEST SWAP1 POP PUSH1 0x20 MUL DUP2 ADD SWAP1 PUSH2 0xF6D SWAP2 SWAP1 PUSH2 0x3574 JUMP JUMPDEST PUSH2 0xF77 SWAP1 DUP1 PUSH2 0x35A8 JUMP JUMPDEST PUSH2 0xF82 SWAP2 POP DUP4 PUSH2 0x34AF JUMP JUMPDEST SWAP2 POP DUP1 PUSH2 0xF8E DUP2 PUSH2 0x3610 JUMP JUMPDEST SWAP2 POP POP PUSH2 0xF41 JUMP JUMPDEST POP PUSH1 0x0 DUP2 PUSH8 0xFFFFFFFFFFFFFFFF DUP2 GT ISZERO PUSH2 0xFB2 JUMPI PUSH2 0xFB2 PUSH2 0x2F82 JUMP JUMPDEST PUSH1 0x40 MLOAD SWAP1 DUP1 DUP3 MSTORE DUP1 PUSH1 0x20 MUL PUSH1 0x20 ADD DUP3 ADD PUSH1 0x40 MSTORE DUP1 ISZERO PUSH2 0xFEB JUMPI DUP2 PUSH1 0x20 ADD JUMPDEST PUSH2 0xFD8 PUSH2 0x2E21 JUMP JUMPDEST DUP2 MSTORE PUSH1 0x20 ADD SWAP1 PUSH1 0x1 SWAP1 SUB SWAP1 DUP2 PUSH2 0xFD0 JUMPI SWAP1 POP JUMPDEST POP SWAP1 POP PUSH1 0x0 DUP1 JUMPDEST DUP5 DUP2 LT ISZERO PUSH2 0x11B2 JUMPI CALLDATASIZE DUP9 DUP9 DUP4 DUP2 DUP2 LT PUSH2 0x100D JUMPI PUSH2 0x100D PUSH2 0x34F0 JUMP JUMPDEST SWAP1 POP PUSH1 0x20 MUL DUP2 ADD SWAP1 PUSH2 0x101F SWAP2 SWAP1 PUSH2 0x3574 JUMP JUMPDEST SWAP1 POP CALLDATASIZE PUSH1 0x0 PUSH2 0x102E DUP4 DUP1 PUSH2 0x35A8 JUMP JUMPDEST SWAP1 SWAP3 POP SWAP1 POP PUSH1 0x0 PUSH2 0x1045 PUSH1 0x40 DUP6 ADD PUSH1 0x20 DUP7 ADD PUSH2 0x32A2 JUMP JUMPDEST SWAP1 POP DUP2 PUSH1 0x0 JUMPDEST DUP2 DUP2 LT ISZERO PUSH2 0x10BC JUMPI PUSH2 0x109B DUP9 DUP7 DUP7 DUP5 DUP2 DUP2 LT PUSH2 0x1069 JUMPI PUSH2 0x1069 PUSH2 0x34F0 JUMP JUMPDEST SWAP1 POP PUSH1 0x20 MUL DUP2 ADD SWAP1 PUSH2 0x107B SWAP2 SWAP1 PUSH2 0x351F JUMP JUMPDEST DUP12 DUP12 DUP2 MLOAD DUP2 LT PUSH2 0x108D JUMPI PUSH2 0x108D PUSH2 0x34F0 JUMP JUMPDEST PUSH1 0x20 MUL PUSH1 0x20 ADD ADD MLOAD DUP7 PUSH2 0x1EF3 JUMP JUMPDEST POP DUP8 PUSH2 0x10A6 DUP2 PUSH2 0x3610 JUMP JUMPDEST SWAP9 POP POP DUP1 DUP1 PUSH2 0x10B4 SWAP1 PUSH2 0x3610 JUMP JUMPDEST SWAP2 POP POP PUSH2 0x104B JUMP JUMPDEST POP PUSH20 0xFFFFFFFFFFFFFFFFFFFFFFFFFFFFFFFFFFFFFFFF DUP3 AND ISZERO PUSH2 0x119A JUMPI PUSH20 0xFFFFFFFFFFFFFFFFFFFFFFFFFFFFFFFFFFFFFFFF DUP3 AND PUSH4 0xE3563A4F DUP6 DUP6 PUSH2 0x1104 PUSH1 0x40 DUP11 ADD DUP11 PUSH2 0x3648 JUMP JUMPDEST PUSH1 0x40 MLOAD DUP6 PUSH4 0xFFFFFFFF AND PUSH1 0xE0 SHL DUP2 MSTORE PUSH1 0x4 ADD PUSH2 0x1123 SWAP5 SWAP4 SWAP3 SWAP2 SWAP1 PUSH2 0x385E JUMP JUMPDEST PUSH1 0x0 PUSH1 0x40 MLOAD DUP1 DUP4 SUB DUP2 DUP7 DUP1 EXTCODESIZE ISZERO DUP1 ISZERO PUSH2 0x113B JUMPI PUSH1 0x0 DUP1 REVERT JUMPDEST POP GAS STATICCALL SWAP3 POP POP POP DUP1 ISZERO PUSH2 0x114C JUMPI POP PUSH1 0x1 JUMPDEST PUSH2 0x119A JUMPI PUSH1 0x40 MLOAD PUSH32 0x86A9F75000000000000000000000000000000000000000000000000000000000 DUP2 MSTORE PUSH20 0xFFFFFFFFFFFFFFFFFFFFFFFFFFFFFFFFFFFFFFFF DUP4 AND PUSH1 0x4 DUP3 ADD MSTORE PUSH1 0x24 ADD PUSH2 0x6F3 JUMP JUMPDEST POP POP POP POP POP DUP1 DUP1 PUSH2 0x11AA SWAP1 PUSH2 0x3610 JUMP JUMPDEST SWAP2 POP POP PUSH2 0xFF2 JUMP JUMPDEST POP PUSH1 0x0 DUP1 SWAP2 POP PUSH1 0x0 JUMPDEST DUP6 DUP2 LT ISZERO PUSH2 0x1286 JUMPI CALLDATASIZE DUP10 DUP10 DUP4 DUP2 DUP2 LT PUSH2 0x11D6 JUMPI PUSH2 0x11D6 PUSH2 0x34F0 JUMP JUMPDEST SWAP1 POP PUSH1 0x20 MUL DUP2 ADD SWAP1 PUSH2 0x11E8 SWAP2 SWAP1 PUSH2 0x3574 JUMP JUMPDEST SWAP1 POP CALLDATASIZE PUSH1 0x0 PUSH2 0x11F7 DUP4 DUP1 PUSH2 0x35A8 JUMP JUMPDEST SWAP1 SWAP3 POP SWAP1 POP DUP1 PUSH1 0x0 JUMPDEST DUP2 DUP2 LT ISZERO PUSH2 0x126E JUMPI PUSH2 0x1242 DUP9 DUP6 DUP6 DUP5 DUP2 DUP2 LT PUSH2 0x121E JUMPI PUSH2 0x121E PUSH2 0x34F0 JUMP JUMPDEST SWAP1 POP PUSH1 0x20 MUL DUP2 ADD SWAP1 PUSH2 0x1230 SWAP2 SWAP1 PUSH2 0x351F JUMP JUMPDEST DUP12 DUP12 DUP2 MLOAD DUP2 LT PUSH2 0xCC6 JUMPI PUSH2 0xCC6 PUSH2 0x34F0 JUMP JUMPDEST PUSH2 0x124C SWAP1 DUP9 PUSH2 0x34AF JUMP JUMPDEST SWAP7 POP DUP8 PUSH2 0x1258 DUP2 PUSH2 0x3610 JUMP JUMPDEST SWAP9 POP POP DUP1 DUP1 PUSH2 0x1266 SWAP1 PUSH2 0x3610 JUMP JUMPDEST SWAP2 POP POP PUSH2 0x1200 JUMP JUMPDEST POP POP POP POP POP DUP1 DUP1 PUSH2 0x127E SWAP1 PUSH2 0x3610 JUMP JUMPDEST SWAP2 POP POP PUSH2 0x11BB JUMP JUMPDEST POP PUSH2 0x1291 DUP7 DUP3 PUSH2 0x21F2 JUMP JUMPDEST POP POP POP POP POP POP POP POP JUMP JUMPDEST PUSH1 0x0 CALLER ISZERO PUSH2 0x132B JUMPI PUSH1 0x40 MLOAD PUSH32 0x8C379A000000000000000000000000000000000000000000000000000000000 DUP2 MSTORE PUSH1 0x20 PUSH1 0x4 DUP3 ADD MSTORE PUSH1 0x2C PUSH1 0x24 DUP3 ADD MSTORE PUSH32 0x6D7573742062652063616C6C6564206F66662D636861696E2077697468206672 PUSH1 0x44 DUP3 ADD MSTORE PUSH32 0x6F6D3D7A65726F2D616464720000000000000000000000000000000000000000 PUSH1 0x64 DUP3 ADD MSTORE PUSH1 0x84 ADD PUSH2 0x6F3 JUMP JUMPDEST PUSH2 0x1335 DUP4 DUP4 PUSH2 0x22E1 JUMP JUMPDEST SWAP4 SWAP3 POP POP POP JUMP JUMPDEST CALLER PUSH1 0x0 SWAP1 DUP2 MSTORE PUSH1 0x20 DUP2 SWAP1 MSTORE PUSH1 0x40 DUP2 KECCAK256 PUSH1 0x1 DUP2 ADD SLOAD SWAP1 SWAP2 PUSH4 0xFFFFFFFF SWAP1 SWAP2 AND SWAP1 SUB PUSH2 0x1392 JUMPI PUSH1 0x40 MLOAD PUSH32 0x8C379A000000000000000000000000000000000000000000000000000000000 DUP2 MSTORE PUSH1 0x4 ADD PUSH2 0x6F3 SWAP1 PUSH2 0x3915 JUMP JUMPDEST DUP1 SLOAD PUSH15 0x10000000000000000000000000000 SWAP1 DIV PUSH1 0xFF AND PUSH2 0x140F JUMPI PUSH1 0x40 MLOAD PUSH32 0x8C379A000000000000000000000000000000000000000000000000000000000 DUP2 MSTORE PUSH1 0x20 PUSH1 0x4 DUP3 ADD MSTORE PUSH1 0x11 PUSH1 0x24 DUP3 ADD MSTORE PUSH32 0x616C726561647920756E7374616B696E67000000000000000000000000000000 PUSH1 0x44 DUP3 ADD MSTORE PUSH1 0x64 ADD PUSH2 0x6F3 JUMP JUMPDEST PUSH1 0x1 DUP2 ADD SLOAD PUSH1 0x0 SWAP1 PUSH2 0x1427 SWAP1 PUSH4 0xFFFFFFFF AND TIMESTAMP PUSH2 0x3958 JUMP JUMPDEST PUSH1 0x1 DUP4 ADD DUP1 SLOAD PUSH32 0xFFFFFFFFFFFFFFFFFFFFFFFFFFFFFFFFFFFFFFFF0000000000000000FFFFFFFF AND PUSH5 0x100000000 PUSH8 0xFFFFFFFFFFFFFFFF DUP5 AND SWAP1 DUP2 MUL SWAP2 SWAP1 SWAP2 OR SWAP1 SWAP2 SSTORE DUP4 SLOAD PUSH32 0xFFFFFFFFFFFFFFFFFFFFFFFFFFFFFFFFFF00FFFFFFFFFFFFFFFFFFFFFFFFFFFF AND DUP5 SSTORE PUSH1 0x40 MLOAD SWAP1 DUP2 MSTORE SWAP1 SWAP2 POP CALLER SWAP1 PUSH32 0xFA9B3C14CC825C412C9ED81B3BA365A5B459439403F18829E572ED53A4180F0A SWAP1 PUSH1 0x20 ADD PUSH2 0x649 JUMP JUMPDEST CALLER PUSH1 0x0 SWAP1 DUP2 MSTORE PUSH1 0x20 DUP2 SWAP1 MSTORE PUSH1 0x40 SWAP1 KECCAK256 DUP1 SLOAD PUSH16 0x1000000000000000000000000000000 SWAP1 DIV PUSH14 0xFFFFFFFFFFFFFFFFFFFFFFFFFFFF AND DUP1 PUSH2 0x1560 JUMPI PUSH1 0x40 MLOAD PUSH32 0x8C379A000000000000000000000000000000000000000000000000000000000 DUP2 MSTORE PUSH1 0x20 PUSH1 0x4 DUP3 ADD MSTORE PUSH1 0x14 PUSH1 0x24 DUP3 ADD MSTORE PUSH32 0x4E6F207374616B6520746F207769746864726177000000000000000000000000 PUSH1 0x44 DUP3 ADD MSTORE PUSH1 0x64 ADD PUSH2 0x6F3 JUMP JUMPDEST PUSH1 0x1 DUP3 ADD SLOAD PUSH5 0x100000000 SWAP1 DIV PUSH8 0xFFFFFFFFFFFFFFFF AND PUSH2 0x15DD JUMPI PUSH1 0x40 MLOAD PUSH32 0x8C379A000000000000000000000000000000000000000000000000000000000 DUP2 MSTORE PUSH1 0x20 PUSH1 0x4 DUP3 ADD MSTORE PUSH1 0x1D PUSH1 0x24 DUP3 ADD MSTORE PUSH32 0x6D7573742063616C6C20756E6C6F636B5374616B652829206669727374000000 PUSH1 0x44 DUP3 ADD MSTORE PUSH1 0x64 ADD PUSH2 0x6F3 JUMP JUMPDEST PUSH1 0x1 DUP3 ADD SLOAD TIMESTAMP PUSH5 0x100000000 SWAP1 SWAP2 DIV PUSH8 0xFFFFFFFFFFFFFFFF AND GT ISZERO PUSH2 0x165E JUMPI PUSH1 0x40 MLOAD PUSH32 0x8C379A000000000000000000000000000000000000000000000000000000000 DUP2 MSTORE PUSH1 0x20 PUSH1 0x4 DUP3 ADD MSTORE PUSH1 0x1B PUSH1 0x24 DUP3 ADD MSTORE PUSH32 0x5374616B65207769746864726177616C206973206E6F74206475650000000000 PUSH1 0x44 DUP3 ADD MSTORE PUSH1 0x64 ADD PUSH2 0x6F3 JUMP JUMPDEST PUSH1 0x1 DUP3 ADD DUP1 SLOAD PUSH32 0xFFFFFFFFFFFFFFFFFFFFFFFFFFFFFFFFFFFFFFFF000000000000000000000000 AND SWAP1 SSTORE DUP2 SLOAD PUSH32 0xFFFFFF0000000000000000000000000000FFFFFFFFFFFFFFFFFFFFFFFFFFFFFF AND DUP3 SSTORE PUSH1 0x40 DUP1 MLOAD PUSH20 0xFFFFFFFFFFFFFFFFFFFFFFFFFFFFFFFFFFFFFFFF DUP6 AND DUP2 MSTORE PUSH1 0x20 DUP2 ADD DUP4 SWAP1 MSTORE CALLER SWAP2 PUSH32 0xB7C918E0E249F999E965CAFEB6C664271B3F4317D296461500E71DA39F0CBDA3 SWAP2 ADD PUSH1 0x40 MLOAD DUP1 SWAP2 SUB SWAP1 LOG2 PUSH1 0x0 DUP4 PUSH20 0xFFFFFFFFFFFFFFFFFFFFFFFFFFFFFFFFFFFFFFFF AND DUP3 PUSH1 0x40 MLOAD PUSH1 0x0 PUSH1 0x40 MLOAD DUP1 DUP4 SUB DUP2 DUP6 DUP8 GAS CALL SWAP3 POP POP POP RETURNDATASIZE DUP1 PUSH1 0x0 DUP2 EQ PUSH2 0x1759 JUMPI PUSH1 0x40 MLOAD SWAP2 POP PUSH1 0x1F NOT PUSH1 0x3F RETURNDATASIZE ADD AND DUP3 ADD PUSH1 0x40 MSTORE RETURNDATASIZE DUP3 MSTORE RETURNDATASIZE PUSH1 0x0 PUSH1 0x20 DUP5 ADD RETURNDATACOPY PUSH2 0x175E JUMP JUMPDEST PUSH1 0x60 SWAP2 POP JUMPDEST POP POP SWAP1 POP DUP1 PUSH2 0xF36 JUMPI PUSH1 0x40 MLOAD PUSH32 0x8C379A000000000000000000000000000000000000000000000000000000000 DUP2 MSTORE PUSH1 0x20 PUSH1 0x4 DUP3 ADD MSTORE PUSH1 0x18 PUSH1 0x24 DUP3 ADD MSTORE PUSH32 0x6661696C656420746F207769746864726177207374616B650000000000000000 PUSH1 0x44 DUP3 ADD MSTORE PUSH1 0x64 ADD PUSH2 0x6F3 JUMP JUMPDEST PUSH20 0xFFFFFFFFFFFFFFFFFFFFFFFFFFFFFFFFFFFFFFFF DUP2 AND PUSH1 0x0 SWAP1 DUP2 MSTORE PUSH1 0x20 DUP2 SWAP1 MSTORE PUSH1 0x40 SWAP1 DUP2 SWAP1 KECCAK256 DUP2 MLOAD PUSH1 0x1 DUP1 DUP3 MSTORE DUP2 DUP5 ADD SWAP1 SWAP4 MSTORE PUSH1 0x60 SWAP3 DUP3 SWAP2 SWAP1 DUP2 PUSH1 0x20 ADD PUSH1 0x20 DUP3 MUL DUP1 CALLDATASIZE DUP4 CALLDATACOPY ADD SWAP1 POP POP SWAP3 POP DUP2 DUP4 PUSH1 0x0 DUP2 MLOAD DUP2 LT PUSH2 0x1829 JUMPI PUSH2 0x1829 PUSH2 0x34F0 JUMP JUMPDEST PUSH1 0x20 MUL PUSH1 0x20 ADD ADD DUP2 DUP2 MSTORE POP POP POP POP SWAP2 SWAP1 POP JUMP JUMPDEST PUSH1 0x0 DUP1 PUSH1 0x0 PUSH1 0x60 DUP1 PUSH1 0x60 PUSH1 0x0 GAS SWAP1 POP PUSH2 0x1853 PUSH2 0x2E21 JUMP JUMPDEST PUSH2 0x1861 PUSH1 0x0 DUP12 DUP4 PUSH1 0x1 PUSH2 0x1EF3 JUMP JUMPDEST SWAP6 POP DUP1 PUSH1 0x40 ADD MLOAD SWAP7 POP DUP10 PUSH1 0xC0 ADD CALLDATALOAD GAS PUSH2 0x187A SWAP1 DUP5 PUSH2 0x355D JUMP JUMPDEST PUSH2 0x1884 SWAP2 SWAP1 PUSH2 0x34AF JUMP JUMPDEST SWAP8 POP PUSH2 0x188F NUMBER PUSH1 0x0 MSTORE JUMP JUMPDEST PUSH20 0xFFFFFFFFFFFFFFFFFFFFFFFFFFFFFFFFFFFFFFFF DUP7 AND ISZERO PUSH2 0x196A JUMPI PUSH1 0x40 MLOAD PUSH32 0x6076D43A00000000000000000000000000000000000000000000000000000000 DUP2 MSTORE PUSH20 0xFFFFFFFFFFFFFFFFFFFFFFFFFFFFFFFFFFFFFFFF DUP8 AND SWAP1 PUSH4 0x6076D43A SWAP1 PUSH2 0x18FF SWAP1 DUP14 SWAP1 DUP14 SWAP1 PUSH1 0x4 ADD PUSH2 0x3984 JUMP JUMPDEST PUSH1 0x0 PUSH1 0x40 MLOAD DUP1 DUP4 SUB DUP2 DUP7 GAS STATICCALL ISZERO DUP1 ISZERO PUSH2 0x191C JUMPI RETURNDATASIZE PUSH1 0x0 DUP1 RETURNDATACOPY RETURNDATASIZE PUSH1 0x0 REVERT JUMPDEST POP POP POP POP PUSH1 0x40 MLOAD RETURNDATASIZE PUSH1 0x0 DUP3 RETURNDATACOPY PUSH1 0x1F RETURNDATASIZE SWAP1 DUP2 ADD PUSH32 0xFFFFFFFFFFFFFFFFFFFFFFFFFFFFFFFFFFFFFFFFFFFFFFFFFFFFFFFFFFFFFFE0 AND DUP3 ADD PUSH1 0x40 MSTORE PUSH2 0x1962 SWAP2 SWAP1 DUP2 ADD SWAP1 PUSH2 0x3A2E JUMP JUMPDEST SWAP2 SWAP7 POP SWAP5 POP SWAP3 POP JUMPDEST CALLER ISZERO PUSH2 0x19F8 JUMPI PUSH1 0x40 MLOAD PUSH32 0x8C379A000000000000000000000000000000000000000000000000000000000 DUP2 MSTORE PUSH1 0x20 PUSH1 0x4 DUP3 ADD MSTORE PUSH1 0x2C PUSH1 0x24 DUP3 ADD MSTORE PUSH32 0x6D7573742062652063616C6C6564206F66662D636861696E2077697468206672 PUSH1 0x44 DUP3 ADD MSTORE PUSH32 0x6F6D3D7A65726F2D616464720000000000000000000000000000000000000000 PUSH1 0x64 DUP3 ADD MSTORE PUSH1 0x84 ADD PUSH2 0x6F3 JUMP JUMPDEST POP POP SWAP3 SWAP6 POP SWAP3 SWAP6 POP SWAP3 SWAP6 JUMP JUMPDEST PUSH20 0xFFFFFFFFFFFFFFFFFFFFFFFFFFFFFFFFFFFFFFFF DUP3 AND PUSH1 0x0 SWAP1 DUP2 MSTORE PUSH1 0x20 DUP2 SWAP1 MSTORE PUSH1 0x40 DUP2 KECCAK256 DUP1 SLOAD SWAP1 SWAP2 SWAP1 PUSH2 0x1A49 SWAP1 DUP5 SWAP1 PUSH14 0xFFFFFFFFFFFFFFFFFFFFFFFFFFFF AND PUSH2 0x34AF JUMP JUMPDEST SWAP1 POP PUSH14 0xFFFFFFFFFFFFFFFFFFFFFFFFFFFF DUP2 GT ISZERO PUSH2 0x1AC3 JUMPI PUSH1 0x40 MLOAD PUSH32 0x8C379A000000000000000000000000000000000000000000000000000000000 DUP2 MSTORE PUSH1 0x20 PUSH1 0x4 DUP3 ADD MSTORE PUSH1 0x10 PUSH1 0x24 DUP3 ADD MSTORE PUSH32 0x6465706F736974206F766572666C6F7700000000000000000000000000000000 PUSH1 0x44 DUP3 ADD MSTORE PUSH1 0x64 ADD PUSH2 0x6F3 JUMP JUMPDEST DUP2 SLOAD PUSH32 0xFFFFFFFFFFFFFFFFFFFFFFFFFFFFFFFFFFFF0000000000000000000000000000 AND PUSH14 0xFFFFFFFFFFFFFFFFFFFFFFFFFFFF SWAP2 SWAP1 SWAP2 AND OR SWAP1 SSTORE POP POP JUMP JUMPDEST PUSH1 0x0 PUSH2 0x1B0C DUP3 PUSH2 0x23CB JUMP JUMPDEST DUP1 MLOAD SWAP1 PUSH1 0x20 ADD KECCAK256 SWAP1 POP SWAP2 SWAP1 POP JUMP JUMPDEST PUSH1 0x0 DUP1 GAS DUP6 MLOAD SWAP1 SWAP2 POP PUSH1 0x0 SWAP1 DUP2 PUSH2 0x1B30 DUP3 PUSH2 0x240A JUMP JUMPDEST PUSH1 0xA0 DUP4 ADD MLOAD SWAP1 SWAP2 POP PUSH20 0xFFFFFFFFFFFFFFFFFFFFFFFFFFFFFFFFFFFFFFFF DUP2 AND PUSH2 0x1B5C JUMPI DUP3 MLOAD SWAP4 POP PUSH2 0x1D89 JUMP JUMPDEST DUP1 SWAP4 POP PUSH1 0x0 DUP9 MLOAD GT ISZERO PUSH2 0x1D89 JUMPI DUP7 DUP3 MUL SWAP6 POP PUSH1 0x2 DUP11 PUSH1 0x2 DUP2 GT ISZERO PUSH2 0x1B82 JUMPI PUSH2 0x1B82 PUSH2 0x3AB6 JUMP JUMPDEST EQ PUSH2 0x1C1A JUMPI PUSH1 0x60 DUP4 ADD MLOAD PUSH1 0x40 MLOAD PUSH32 0xA9A2340900000000000000000000000000000000000000000000000000000000 DUP2 MSTORE PUSH20 0xFFFFFFFFFFFFFFFFFFFFFFFFFFFFFFFFFFFFFFFF DUP4 AND SWAP2 PUSH4 0xA9A23409 SWAP2 PUSH2 0x1BE2 SWAP1 DUP15 SWAP1 DUP14 SWAP1 DUP13 SWAP1 PUSH1 0x4 ADD PUSH2 0x3AE5 JUMP JUMPDEST PUSH1 0x0 PUSH1 0x40 MLOAD DUP1 DUP4 SUB DUP2 PUSH1 0x0 DUP9 DUP1 EXTCODESIZE ISZERO DUP1 ISZERO PUSH2 0x1BFC JUMPI PUSH1 0x0 DUP1 REVERT JUMPDEST POP DUP8 CALL ISZERO DUP1 ISZERO PUSH2 0x1C10 JUMPI RETURNDATASIZE PUSH1 0x0 DUP1 RETURNDATACOPY RETURNDATASIZE PUSH1 0x0 REVERT JUMPDEST POP POP POP POP POP PUSH2 0x1D89 JUMP JUMPDEST PUSH1 0x60 DUP4 ADD MLOAD PUSH1 0x40 MLOAD PUSH32 0xA9A2340900000000000000000000000000000000000000000000000000000000 DUP2 MSTORE PUSH20 0xFFFFFFFFFFFFFFFFFFFFFFFFFFFFFFFFFFFFFFFF DUP4 AND SWAP2 PUSH4 0xA9A23409 SWAP2 PUSH2 0x1C75 SWAP1 DUP15 SWAP1 DUP14 SWAP1 DUP13 SWAP1 PUSH1 0x4 ADD PUSH2 0x3AE5 JUMP JUMPDEST PUSH1 0x0 PUSH1 0x40 MLOAD DUP1 DUP4 SUB DUP2 PUSH1 0x0 DUP9 DUP1 EXTCODESIZE ISZERO DUP1 ISZERO PUSH2 0x1C8F JUMPI PUSH1 0x0 DUP1 REVERT JUMPDEST POP DUP8 CALL SWAP4 POP POP POP POP DUP1 ISZERO PUSH2 0x1CA1 JUMPI POP PUSH1 0x1 JUMPDEST PUSH2 0x1D89 JUMPI PUSH2 0x1CAD PUSH2 0x3B45 JUMP JUMPDEST DUP1 PUSH4 0x8C379A0 SUB PUSH2 0x1D03 JUMPI POP PUSH2 0x1CC1 PUSH2 0x3B61 JUMP JUMPDEST DUP1 PUSH2 0x1CCC JUMPI POP PUSH2 0x1D05 JUMP JUMPDEST DUP12 DUP3 DUP3 PUSH1 0x40 MLOAD PUSH31 0xFA072B00000000000000000000000000000000000000000000000000000000 DUP2 MSTORE PUSH1 0x4 ADD PUSH2 0x6F3 SWAP4 SWAP3 SWAP2 SWAP1 PUSH2 0x3C09 JUMP JUMPDEST POP JUMPDEST PUSH1 0x40 MLOAD PUSH31 0xFA072B00000000000000000000000000000000000000000000000000000000 DUP2 MSTORE PUSH1 0x4 DUP2 ADD DUP13 SWAP1 MSTORE PUSH20 0xFFFFFFFFFFFFFFFFFFFFFFFFFFFFFFFFFFFFFFFF DUP3 AND PUSH1 0x24 DUP3 ADD MSTORE PUSH1 0x60 PUSH1 0x44 DUP3 ADD MSTORE PUSH1 0xD PUSH1 0x64 DUP3 ADD MSTORE PUSH32 0x706F73744F702072657665727400000000000000000000000000000000000000 PUSH1 0x84 DUP3 ADD MSTORE PUSH1 0xA4 ADD PUSH2 0x6F3 JUMP JUMPDEST GAS DUP6 SUB DUP8 ADD SWAP7 POP DUP2 DUP8 MUL SWAP6 POP DUP6 DUP10 PUSH1 0x40 ADD MLOAD LT ISZERO PUSH2 0x1E25 JUMPI PUSH1 0x40 MLOAD PUSH31 0xFA072B00000000000000000000000000000000000000000000000000000000 DUP2 MSTORE PUSH1 0x4 DUP2 ADD DUP13 SWAP1 MSTORE PUSH20 0xFFFFFFFFFFFFFFFFFFFFFFFFFFFFFFFFFFFFFFFF DUP3 AND PUSH1 0x24 DUP3 ADD MSTORE PUSH1 0x60 PUSH1 0x44 DUP3 ADD MSTORE PUSH1 0x1B PUSH1 0x64 DUP3 ADD MSTORE PUSH32 0x70726566756E642062656C6F772061637475616C476173436F73740000000000 PUSH1 0x84 DUP3 ADD MSTORE PUSH1 0xA4 ADD PUSH2 0x6F3 JUMP JUMPDEST PUSH1 0x40 DUP10 ADD MLOAD DUP7 SWAP1 SUB PUSH2 0x1E37 DUP6 DUP3 PUSH2 0x1A04 JUMP JUMPDEST PUSH1 0x0 DUP1 DUP13 PUSH1 0x2 DUP2 GT ISZERO PUSH2 0x1E4C JUMPI PUSH2 0x1E4C PUSH2 0x3AB6 JUMP JUMPDEST EQ SWAP1 POP DUP5 PUSH1 0xA0 ADD MLOAD PUSH20 0xFFFFFFFFFFFFFFFFFFFFFFFFFFFFFFFFFFFFFFFF AND DUP6 PUSH1 0x0 ADD MLOAD PUSH20 0xFFFFFFFFFFFFFFFFFFFFFFFFFFFFFFFFFFFFFFFF AND DUP13 PUSH1 0x20 ADD MLOAD PUSH32 0x33FD4D1F25A5461BEA901784A6571DE6DEBC16CD0831932C22C6969CD73BA994 DUP9 PUSH1 0x20 ADD MLOAD DUP13 DUP10 DUP8 PUSH1 0x40 MLOAD PUSH2 0x1EDB SWAP5 SWAP4 SWAP3 SWAP2 SWAP1 SWAP4 DUP5 MSTORE PUSH1 0x20 DUP5 ADD SWAP3 SWAP1 SWAP3 MSTORE PUSH1 0x40 DUP4 ADD MSTORE ISZERO ISZERO PUSH1 0x60 DUP3 ADD MSTORE PUSH1 0x80 ADD SWAP1 JUMP JUMPDEST PUSH1 0x40 MLOAD DUP1 SWAP2 SUB SWAP1 LOG4 POP POP POP POP POP POP POP SWAP6 SWAP5 POP POP POP POP POP JUMP JUMPDEST PUSH1 0x0 DUP1 GAS DUP5 MLOAD SWAP1 SWAP2 POP PUSH2 0x1F06 DUP7 DUP3 PUSH2 0x243A JUMP JUMPDEST PUSH2 0x1F0F DUP7 PUSH2 0xA1F JUMP JUMPDEST PUSH1 0x20 DUP7 ADD MSTORE PUSH1 0x40 DUP2 ADD MLOAD PUSH1 0x60 DUP3 ADD MLOAD PUSH1 0x80 DUP4 ADD MLOAD OR OR PUSH1 0xE0 DUP8 ADD CALLDATALOAD OR PUSH2 0x100 DUP8 ADD CALLDATALOAD OR PUSH15 0xFFFFFFFFFFFFFFFFFFFFFFFFFFFFFF DUP2 GT ISZERO PUSH2 0x1FAB JUMPI PUSH1 0x40 MLOAD PUSH32 0x8C379A000000000000000000000000000000000000000000000000000000000 DUP2 MSTORE PUSH1 0x20 PUSH1 0x4 DUP3 ADD MSTORE PUSH1 0x13 PUSH1 0x24 DUP3 ADD MSTORE PUSH32 0x6761732076616C756573206F766572666C6F7700000000000000000000000000 PUSH1 0x44 DUP3 ADD MSTORE PUSH1 0x64 ADD PUSH2 0x6F3 JUMP JUMPDEST PUSH1 0x0 DUP1 PUSH2 0x1FB7 DUP5 PUSH2 0x255A JUMP JUMPDEST SWAP1 POP PUSH2 0x1FC6 DUP11 DUP11 DUP11 DUP11 DUP6 PUSH2 0x25B5 JUMP JUMPDEST SWAP7 POP SWAP2 POP PUSH2 0x1FD3 NUMBER PUSH1 0x0 MSTORE JUMP JUMPDEST PUSH1 0xA0 DUP5 ADD MLOAD PUSH1 0x60 SWAP1 PUSH20 0xFFFFFFFFFFFFFFFFFFFFFFFFFFFFFFFFFFFFFFFF AND ISZERO PUSH2 0x200A JUMPI PUSH2 0x2003 DUP12 DUP12 DUP12 DUP6 DUP8 PUSH2 0x295F JUMP JUMPDEST SWAP1 POP PUSH2 0x201B JUMP JUMPDEST POP PUSH1 0x40 DUP1 MLOAD PUSH1 0x20 DUP2 ADD SWAP1 SWAP2 MSTORE PUSH1 0x0 DUP2 MSTORE JUMPDEST PUSH1 0x0 GAS DUP8 SUB SWAP1 POP DUP1 DUP12 PUSH1 0xA0 ADD CALLDATALOAD LT ISZERO PUSH2 0x20DE JUMPI PUSH1 0xA0 DUP7 ADD MLOAD PUSH1 0x40 MLOAD PUSH31 0xFA072B00000000000000000000000000000000000000000000000000000000 DUP2 MSTORE PUSH1 0x4 DUP2 ADD DUP15 SWAP1 MSTORE PUSH20 0xFFFFFFFFFFFFFFFFFFFFFFFFFFFFFFFFFFFFFFFF SWAP1 SWAP2 AND PUSH1 0x24 DUP3 ADD MSTORE PUSH1 0x60 PUSH1 0x44 DUP3 ADD MSTORE PUSH1 0x23 PUSH1 0x64 DUP3 ADD MSTORE PUSH32 0x55736564206D6F7265207468616E20766572696669636174696F6E4761734C69 PUSH1 0x84 DUP3 ADD MSTORE PUSH32 0x6D69740000000000000000000000000000000000000000000000000000000000 PUSH1 0xA4 DUP3 ADD MSTORE PUSH1 0xC4 ADD PUSH2 0x6F3 JUMP JUMPDEST PUSH1 0x40 DUP11 ADD DUP4 SWAP1 MSTORE DUP2 PUSH1 0x60 DUP12 ADD MSTORE PUSH1 0xC0 DUP12 ADD CALLDATALOAD GAS DUP9 SUB ADD DUP11 PUSH1 0x80 ADD DUP2 DUP2 MSTORE POP POP POP POP POP POP POP POP POP SWAP5 SWAP4 POP POP POP POP JUMP JUMPDEST PUSH1 0x0 DUP1 GAS SWAP1 POP PUSH1 0x0 PUSH2 0x211F DUP5 PUSH1 0x60 ADD MLOAD SWAP1 JUMP JUMPDEST SWAP1 POP ADDRESS PUSH4 0x1D732756 PUSH2 0x2134 PUSH1 0x60 DUP9 ADD DUP9 PUSH2 0x3648 JUMP JUMPDEST DUP8 DUP6 PUSH1 0x40 MLOAD DUP6 PUSH4 0xFFFFFFFF AND PUSH1 0xE0 SHL DUP2 MSTORE PUSH1 0x4 ADD PUSH2 0x2155 SWAP5 SWAP4 SWAP3 SWAP2 SWAP1 PUSH2 0x3C47 JUMP JUMPDEST PUSH1 0x20 PUSH1 0x40 MLOAD DUP1 DUP4 SUB DUP2 PUSH1 0x0 DUP8 GAS CALL SWAP3 POP POP POP DUP1 ISZERO PUSH2 0x21AE JUMPI POP PUSH1 0x40 DUP1 MLOAD PUSH1 0x1F RETURNDATASIZE SWAP1 DUP2 ADD PUSH32 0xFFFFFFFFFFFFFFFFFFFFFFFFFFFFFFFFFFFFFFFFFFFFFFFFFFFFFFFFFFFFFFE0 AND DUP3 ADD SWAP1 SWAP3 MSTORE PUSH2 0x21AB SWAP2 DUP2 ADD SWAP1 PUSH2 0x3D08 JUMP JUMPDEST PUSH1 0x1 JUMPDEST PUSH2 0x21E6 JUMPI PUSH1 0x0 DUP5 PUSH1 0x80 ADD MLOAD GAS PUSH2 0x21C4 SWAP1 DUP6 PUSH2 0x355D JUMP JUMPDEST PUSH2 0x21CE SWAP2 SWAP1 PUSH2 0x34AF JUMP JUMPDEST SWAP1 POP PUSH2 0x21DE DUP8 PUSH1 0x2 DUP8 DUP6 DUP6 PUSH2 0x1B1A JUMP JUMPDEST SWAP4 POP POP PUSH2 0x21E9 JUMP JUMPDEST SWAP3 POP JUMPDEST POP POP SWAP4 SWAP3 POP POP POP JUMP JUMPDEST PUSH20 0xFFFFFFFFFFFFFFFFFFFFFFFFFFFFFFFFFFFFFFFF DUP3 AND PUSH2 0x226F JUMPI PUSH1 0x40 MLOAD PUSH32 0x8C379A000000000000000000000000000000000000000000000000000000000 DUP2 MSTORE PUSH1 0x20 PUSH1 0x4 DUP3 ADD MSTORE PUSH1 0x13 PUSH1 0x24 DUP3 ADD MSTORE PUSH32 0x696E76616C69642062656E656669636961727900000000000000000000000000 PUSH1 0x44 DUP3 ADD MSTORE PUSH1 0x64 ADD PUSH2 0x6F3 JUMP JUMPDEST PUSH1 0x0 DUP3 PUSH20 0xFFFFFFFFFFFFFFFFFFFFFFFFFFFFFFFFFFFFFFFF AND DUP3 PUSH1 0x40 MLOAD PUSH1 0x0 PUSH1 0x40 MLOAD DUP1 DUP4 SUB DUP2 DUP6 DUP8 GAS CALL SWAP3 POP POP POP RETURNDATASIZE DUP1 PUSH1 0x0 DUP2 EQ PUSH2 0x22C9 JUMPI PUSH1 0x40 MLOAD SWAP2 POP PUSH1 0x1F NOT PUSH1 0x3F RETURNDATASIZE ADD AND DUP3 ADD PUSH1 0x40 MSTORE RETURNDATASIZE DUP3 MSTORE RETURNDATASIZE PUSH1 0x0 PUSH1 0x20 DUP5 ADD RETURNDATACOPY PUSH2 0x22CE JUMP JUMPDEST PUSH1 0x60 SWAP2 POP JUMPDEST POP POP SWAP1 POP DUP1 PUSH2 0x22DC JUMPI PUSH1 0x0 DUP1 REVERT JUMPDEST POP POP POP JUMP JUMPDEST PUSH1 0x0 DUP1 PUSH2 0x22F1 PUSH1 0x14 DUP3 DUP6 DUP8 PUSH2 0x3D21 JUMP JUMPDEST PUSH2 0x22FA SWAP2 PUSH2 0x3D4B JUMP JUMPDEST PUSH1 0x60 SHR SWAP1 POP PUSH1 0x0 PUSH2 0x230E DUP5 PUSH1 0x14 DUP2 DUP9 PUSH2 0x3D21 JUMP JUMPDEST DUP1 DUP1 PUSH1 0x1F ADD PUSH1 0x20 DUP1 SWAP2 DIV MUL PUSH1 0x20 ADD PUSH1 0x40 MLOAD SWAP1 DUP2 ADD PUSH1 0x40 MSTORE DUP1 SWAP4 SWAP3 SWAP2 SWAP1 DUP2 DUP2 MSTORE PUSH1 0x20 ADD DUP4 DUP4 DUP1 DUP3 DUP5 CALLDATACOPY PUSH1 0x0 SWAP3 ADD DUP3 SWAP1 MSTORE POP DUP5 MLOAD SWAP5 SWAP6 POP SWAP4 PUSH1 0x20 SWAP4 POP DUP5 SWAP3 POP SWAP1 POP DUP3 DUP6 ADD DUP3 DUP8 GAS CALL SWAP1 POP PUSH1 0x0 MLOAD SWAP4 POP DUP1 PUSH2 0x23C2 JUMPI PUSH1 0x40 MLOAD PUSH32 0x8C379A000000000000000000000000000000000000000000000000000000000 DUP2 MSTORE PUSH1 0x20 PUSH1 0x4 DUP3 ADD MSTORE PUSH1 0xF PUSH1 0x24 DUP3 ADD MSTORE PUSH32 0x696E6974436F6465206661696C65640000000000000000000000000000000000 PUSH1 0x44 DUP3 ADD MSTORE PUSH1 0x64 ADD PUSH2 0x6F3 JUMP JUMPDEST POP POP POP SWAP3 SWAP2 POP POP JUMP JUMPDEST PUSH1 0x60 CALLDATASIZE PUSH1 0x0 PUSH2 0x23DE PUSH2 0x140 DUP6 ADD DUP6 PUSH2 0x3648 JUMP JUMPDEST SWAP2 POP SWAP2 POP DUP4 PUSH1 0x20 DUP2 DUP5 SUB SUB PUSH1 0x40 MLOAD SWAP5 POP PUSH1 0x20 DUP2 ADD DUP6 ADD PUSH1 0x40 MSTORE DUP1 DUP6 MSTORE DUP1 DUP3 PUSH1 0x20 DUP8 ADD CALLDATACOPY POP POP POP POP SWAP2 SWAP1 POP JUMP JUMPDEST PUSH1 0xC0 DUP2 ADD MLOAD PUSH1 0xE0 DUP3 ADD MLOAD PUSH1 0x0 SWAP2 SWAP1 DUP1 DUP3 SUB PUSH2 0x2426 JUMPI POP SWAP3 SWAP2 POP POP JUMP JUMPDEST PUSH2 0x2432 DUP3 BASEFEE DUP4 ADD PUSH2 0x2C37 JUMP JUMPDEST SWAP5 SWAP4 POP POP POP POP JUMP JUMPDEST PUSH2 0x2447 PUSH1 0x20 DUP4 ADD DUP4 PUSH2 0x32A2 JUMP JUMPDEST PUSH20 0xFFFFFFFFFFFFFFFFFFFFFFFFFFFFFFFFFFFFFFFF AND DUP2 MSTORE PUSH1 0x20 DUP1 DUP4 ADD CALLDATALOAD SWAP1 DUP3 ADD MSTORE PUSH1 0x80 DUP1 DUP4 ADD CALLDATALOAD PUSH1 0x40 DUP4 ADD MSTORE PUSH1 0xA0 DUP4 ADD CALLDATALOAD PUSH1 0x60 DUP4 ADD MSTORE PUSH1 0xC0 DUP1 DUP5 ADD CALLDATALOAD SWAP2 DUP4 ADD SWAP2 SWAP1 SWAP2 MSTORE PUSH1 0xE0 DUP1 DUP5 ADD CALLDATALOAD SWAP2 DUP4 ADD SWAP2 SWAP1 SWAP2 MSTORE PUSH2 0x100 DUP4 ADD CALLDATALOAD SWAP1 DUP3 ADD MSTORE CALLDATASIZE PUSH1 0x0 PUSH2 0x24B3 PUSH2 0x120 DUP6 ADD DUP6 PUSH2 0x3648 JUMP JUMPDEST SWAP1 SWAP3 POP SWAP1 POP DUP1 ISZERO PUSH2 0x254D JUMPI PUSH1 0x14 DUP2 LT ISZERO PUSH2 0x2529 JUMPI PUSH1 0x40 MLOAD PUSH32 0x8C379A000000000000000000000000000000000000000000000000000000000 DUP2 MSTORE PUSH1 0x20 PUSH1 0x4 DUP3 ADD MSTORE PUSH1 0x18 PUSH1 0x24 DUP3 ADD MSTORE PUSH32 0x696E76616C6964207061796D6173746572416E64446174610000000000000000 PUSH1 0x44 DUP3 ADD MSTORE PUSH1 0x64 ADD PUSH2 0x6F3 JUMP JUMPDEST PUSH2 0x2537 PUSH1 0x14 PUSH1 0x0 DUP4 DUP6 PUSH2 0x3D21 JUMP JUMPDEST PUSH2 0x2540 SWAP2 PUSH2 0x3D4B JUMP JUMPDEST PUSH1 0x60 SHR PUSH1 0xA0 DUP5 ADD MSTORE PUSH2 0xF36 JUMP JUMPDEST PUSH1 0x0 PUSH1 0xA0 DUP5 ADD MSTORE POP POP POP POP JUMP JUMPDEST PUSH1 0xA0 DUP2 ADD MLOAD PUSH1 0x0 SWAP1 DUP2 SWAP1 PUSH20 0xFFFFFFFFFFFFFFFFFFFFFFFFFFFFFFFFFFFFFFFF AND PUSH2 0x2585 JUMPI PUSH1 0x1 PUSH2 0x2588 JUMP JUMPDEST PUSH1 0x3 JUMPDEST PUSH1 0xFF AND SWAP1 POP PUSH1 0x0 DUP4 PUSH1 0x80 ADD MLOAD DUP3 DUP6 PUSH1 0x60 ADD MLOAD MUL DUP6 PUSH1 0x40 ADD MLOAD ADD ADD SWAP1 POP PUSH2 0x25AD DUP5 PUSH2 0x240A JUMP JUMPDEST MUL SWAP4 SWAP3 POP POP POP JUMP JUMPDEST PUSH1 0x0 DUP1 PUSH1 0x0 GAS DUP7 MLOAD SWAP1 SWAP2 POP PUSH2 0x25D6 DUP2 PUSH2 0x25D1 PUSH1 0x40 DUP12 ADD DUP12 PUSH2 0x3648 JUMP JUMPDEST PUSH2 0x2C4D JUMP JUMPDEST PUSH32 0xFFFFFFFFFFFFFFFFFFFFFFFFFFFFFFFFFFFFFFFFFFFFFFFFFFFFFFFFFFFFFFFF PUSH20 0xFFFFFFFFFFFFFFFFFFFFFFFFFFFFFFFFFFFFFFFF DUP8 AND ADD PUSH2 0x26B2 JUMPI DUP1 PUSH1 0x0 ADD MLOAD PUSH20 0xFFFFFFFFFFFFFFFFFFFFFFFFFFFFFFFFFFFFFFFF AND PUSH4 0x3AD59DBC PUSH1 0x40 MLOAD DUP2 PUSH4 0xFFFFFFFF AND PUSH1 0xE0 SHL DUP2 MSTORE PUSH1 0x4 ADD PUSH1 0x20 PUSH1 0x40 MLOAD DUP1 DUP4 SUB DUP2 DUP7 GAS STATICCALL SWAP3 POP POP POP DUP1 ISZERO PUSH2 0x269C JUMPI POP PUSH1 0x40 DUP1 MLOAD PUSH1 0x1F RETURNDATASIZE SWAP1 DUP2 ADD PUSH32 0xFFFFFFFFFFFFFFFFFFFFFFFFFFFFFFFFFFFFFFFFFFFFFFFFFFFFFFFFFFFFFFE0 AND DUP3 ADD SWAP1 SWAP3 MSTORE PUSH2 0x2699 SWAP2 DUP2 ADD SWAP1 PUSH2 0x3D93 JUMP JUMPDEST PUSH1 0x1 JUMPDEST PUSH2 0x26AC JUMPI PUSH1 0x0 SWAP3 POP DUP3 SWAP6 POP PUSH2 0x26B2 JUMP JUMPDEST SWAP6 POP DUP6 SWAP3 POP JUMPDEST DUP1 MLOAD PUSH1 0xA0 DUP3 ADD MLOAD PUSH1 0x0 SWAP2 SWAP1 PUSH20 0xFFFFFFFFFFFFFFFFFFFFFFFFFFFFFFFFFFFFFFFF DUP2 AND PUSH2 0x2724 JUMPI PUSH20 0xFFFFFFFFFFFFFFFFFFFFFFFFFFFFFFFFFFFFFFFF DUP3 AND PUSH1 0x0 SWAP1 DUP2 MSTORE PUSH1 0x20 DUP2 SWAP1 MSTORE PUSH1 0x40 SWAP1 KECCAK256 SLOAD PUSH14 0xFFFFFFFFFFFFFFFFFFFFFFFFFFFF AND DUP9 DUP2 GT PUSH2 0x271D JUMPI DUP1 DUP10 SUB PUSH2 0x2720 JUMP JUMPDEST PUSH1 0x0 JUMPDEST SWAP4 POP POP JUMPDEST DUP2 PUSH20 0xFFFFFFFFFFFFFFFFFFFFFFFFFFFFFFFFFFFFFFFF AND PUSH4 0x825D1FC DUP6 PUSH1 0x60 ADD MLOAD DUP14 DUP14 PUSH1 0x20 ADD MLOAD DUP14 DUP9 PUSH1 0x40 MLOAD DUP7 PUSH4 0xFFFFFFFF AND PUSH1 0xE0 SHL DUP2 MSTORE PUSH1 0x4 ADD PUSH2 0x276C SWAP5 SWAP4 SWAP3 SWAP2 SWAP1 PUSH2 0x3DB0 JUMP JUMPDEST PUSH1 0x0 PUSH1 0x40 MLOAD DUP1 DUP4 SUB DUP2 PUSH1 0x0 DUP9 DUP1 EXTCODESIZE ISZERO DUP1 ISZERO PUSH2 0x2786 JUMPI PUSH1 0x0 DUP1 REVERT JUMPDEST POP DUP8 CALL SWAP4 POP POP POP POP DUP1 ISZERO PUSH2 0x2798 JUMPI POP PUSH1 0x1 JUMPDEST PUSH2 0x2846 JUMPI PUSH2 0x27A4 PUSH2 0x3B45 JUMP JUMPDEST DUP1 PUSH4 0x8C379A0 SUB PUSH2 0x27FB JUMPI POP PUSH2 0x27B8 PUSH2 0x3B61 JUMP JUMPDEST DUP1 PUSH2 0x27C3 JUMPI POP PUSH2 0x27FD JUMP JUMPDEST DUP13 PUSH1 0x0 DUP3 PUSH1 0x40 MLOAD PUSH31 0xFA072B00000000000000000000000000000000000000000000000000000000 DUP2 MSTORE PUSH1 0x4 ADD PUSH2 0x6F3 SWAP4 SWAP3 SWAP2 SWAP1 PUSH2 0x3C09 JUMP JUMPDEST POP JUMPDEST PUSH1 0x40 MLOAD PUSH31 0xFA072B00000000000000000000000000000000000000000000000000000000 DUP2 MSTORE PUSH1 0x4 DUP2 ADD DUP14 SWAP1 MSTORE PUSH1 0x0 PUSH1 0x24 DUP3 ADD DUP2 SWAP1 MSTORE PUSH1 0x60 PUSH1 0x44 DUP4 ADD MSTORE PUSH1 0x64 DUP3 ADD MSTORE PUSH1 0x84 ADD PUSH2 0x6F3 JUMP JUMPDEST PUSH20 0xFFFFFFFFFFFFFFFFFFFFFFFFFFFFFFFFFFFFFFFF DUP2 AND PUSH2 0x294B JUMPI PUSH20 0xFFFFFFFFFFFFFFFFFFFFFFFFFFFFFFFFFFFFFFFF DUP3 AND PUSH1 0x0 SWAP1 DUP2 MSTORE PUSH1 0x20 DUP2 SWAP1 MSTORE PUSH1 0x40 SWAP1 KECCAK256 DUP1 SLOAD PUSH14 0xFFFFFFFFFFFFFFFFFFFFFFFFFFFF AND DUP1 DUP11 GT ISZERO PUSH2 0x290F JUMPI PUSH1 0x40 MLOAD PUSH31 0xFA072B00000000000000000000000000000000000000000000000000000000 DUP2 MSTORE PUSH1 0x4 DUP2 ADD DUP16 SWAP1 MSTORE PUSH1 0x0 PUSH1 0x24 DUP3 ADD MSTORE PUSH1 0x60 PUSH1 0x44 DUP3 ADD MSTORE PUSH1 0x19 PUSH1 0x64 DUP3 ADD MSTORE PUSH32 0x77616C6C6574206469646E2774207061792070726566756E6400000000000000 PUSH1 0x84 DUP3 ADD MSTORE PUSH1 0xA4 ADD PUSH2 0x6F3 JUMP JUMPDEST DUP2 SLOAD PUSH32 0xFFFFFFFFFFFFFFFFFFFFFFFFFFFFFFFFFFFF0000000000000000000000000000 AND SWAP1 DUP11 SWAP1 SUB PUSH14 0xFFFFFFFFFFFFFFFFFFFFFFFFFFFF AND OR SWAP1 SSTORE JUMPDEST GAS DUP6 SUB SWAP7 POP POP POP POP POP POP SWAP6 POP SWAP6 SWAP4 POP POP POP POP JUMP JUMPDEST DUP3 MLOAD PUSH1 0xA0 DUP2 ADD MLOAD PUSH20 0xFFFFFFFFFFFFFFFFFFFFFFFFFFFFFFFFFFFFFFFF DUP2 AND PUSH1 0x0 SWAP1 DUP2 MSTORE PUSH1 0x20 DUP2 SWAP1 MSTORE PUSH1 0x40 SWAP1 KECCAK256 DUP1 SLOAD PUSH1 0x60 SWAP4 SWAP3 SWAP2 SWAP1 PUSH14 0xFFFFFFFFFFFFFFFFFFFFFFFFFFFF DUP2 AND SWAP1 PUSH15 0x10000000000000000000000000000 SWAP1 DIV PUSH1 0xFF AND DUP1 PUSH2 0x29F4 JUMPI DUP11 DUP5 PUSH1 0x40 MLOAD PUSH31 0xFA072B00000000000000000000000000000000000000000000000000000000 DUP2 MSTORE PUSH1 0x4 ADD PUSH2 0x6F3 SWAP3 SWAP2 SWAP1 PUSH2 0x3DF5 JUMP JUMPDEST DUP8 DUP3 LT ISZERO PUSH2 0x2A80 JUMPI PUSH1 0x40 MLOAD PUSH31 0xFA072B00000000000000000000000000000000000000000000000000000000 DUP2 MSTORE PUSH1 0x4 DUP2 ADD DUP13 SWAP1 MSTORE PUSH20 0xFFFFFFFFFFFFFFFFFFFFFFFFFFFFFFFFFFFFFFFF DUP6 AND PUSH1 0x24 DUP3 ADD MSTORE PUSH1 0x60 PUSH1 0x44 DUP3 ADD MSTORE PUSH1 0x19 PUSH1 0x64 DUP3 ADD MSTORE PUSH32 0x7061796D6173746572206465706F73697420746F6F206C6F7700000000000000 PUSH1 0x84 DUP3 ADD MSTORE PUSH1 0xA4 ADD PUSH2 0x6F3 JUMP JUMPDEST DUP8 DUP3 SUB DUP4 PUSH1 0x0 ADD PUSH1 0x0 PUSH2 0x100 EXP DUP2 SLOAD DUP2 PUSH14 0xFFFFFFFFFFFFFFFFFFFFFFFFFFFF MUL NOT AND SWAP1 DUP4 PUSH14 0xFFFFFFFFFFFFFFFFFFFFFFFFFFFF AND MUL OR SWAP1 SSTORE POP PUSH1 0x0 DUP8 DUP7 PUSH1 0x60 ADD MLOAD SUB SWAP1 POP DUP5 PUSH20 0xFFFFFFFFFFFFFFFFFFFFFFFFFFFFFFFFFFFFFFFF AND PUSH4 0xF465C77E DUP3 DUP14 DUP14 PUSH1 0x20 ADD MLOAD DUP14 PUSH1 0x40 MLOAD DUP6 PUSH4 0xFFFFFFFF AND PUSH1 0xE0 SHL DUP2 MSTORE PUSH1 0x4 ADD PUSH2 0x2B06 SWAP4 SWAP3 SWAP2 SWAP1 PUSH2 0x3E54 JUMP JUMPDEST PUSH1 0x0 PUSH1 0x40 MLOAD DUP1 DUP4 SUB DUP2 PUSH1 0x0 DUP9 DUP8 CALL SWAP4 POP POP POP POP DUP1 ISZERO PUSH2 0x2B65 JUMPI POP PUSH1 0x40 MLOAD RETURNDATASIZE PUSH1 0x0 DUP3 RETURNDATACOPY PUSH1 0x1F RETURNDATASIZE SWAP1 DUP2 ADD PUSH32 0xFFFFFFFFFFFFFFFFFFFFFFFFFFFFFFFFFFFFFFFFFFFFFFFFFFFFFFFFFFFFFFE0 AND DUP3 ADD PUSH1 0x40 MSTORE PUSH2 0x2B62 SWAP2 SWAP1 DUP2 ADD SWAP1 PUSH2 0x3E79 JUMP JUMPDEST PUSH1 0x1 JUMPDEST PUSH2 0x2C27 JUMPI PUSH2 0x2B71 PUSH2 0x3B45 JUMP JUMPDEST DUP1 PUSH4 0x8C379A0 SUB PUSH2 0x2BC7 JUMPI POP PUSH2 0x2B85 PUSH2 0x3B61 JUMP JUMPDEST DUP1 PUSH2 0x2B90 JUMPI POP PUSH2 0x2BC9 JUMP JUMPDEST DUP13 DUP7 DUP3 PUSH1 0x40 MLOAD PUSH31 0xFA072B00000000000000000000000000000000000000000000000000000000 DUP2 MSTORE PUSH1 0x4 ADD PUSH2 0x6F3 SWAP4 SWAP3 SWAP2 SWAP1 PUSH2 0x3C09 JUMP JUMPDEST POP JUMPDEST PUSH1 0x40 MLOAD PUSH31 0xFA072B00000000000000000000000000000000000000000000000000000000 DUP2 MSTORE PUSH1 0x4 DUP2 ADD DUP14 SWAP1 MSTORE PUSH20 0xFFFFFFFFFFFFFFFFFFFFFFFFFFFFFFFFFFFFFFFF DUP7 AND PUSH1 0x24 DUP3 ADD MSTORE PUSH1 0x60 PUSH1 0x44 DUP3 ADD MSTORE PUSH1 0x0 PUSH1 0x64 DUP3 ADD MSTORE PUSH1 0x84 ADD PUSH2 0x6F3 JUMP JUMPDEST SWAP13 SWAP12 POP POP POP POP POP POP POP POP POP POP POP POP JUMP JUMPDEST PUSH1 0x0 DUP2 DUP4 LT PUSH2 0x2C46 JUMPI DUP2 PUSH2 0x1335 JUMP JUMPDEST POP SWAP1 SWAP2 SWAP1 POP JUMP JUMPDEST DUP1 ISZERO PUSH2 0x22DC JUMPI DUP3 MLOAD PUSH20 0xFFFFFFFFFFFFFFFFFFFFFFFFFFFFFFFFFFFFFFFF AND EXTCODESIZE ISZERO PUSH2 0x2CD3 JUMPI PUSH1 0x40 MLOAD PUSH32 0x8C379A000000000000000000000000000000000000000000000000000000000 DUP2 MSTORE PUSH1 0x20 PUSH1 0x4 DUP3 ADD MSTORE PUSH1 0x1A PUSH1 0x24 DUP3 ADD MSTORE PUSH32 0x73656E64657220616C726561647920636F6E7374727563746564000000000000 PUSH1 0x44 DUP3 ADD MSTORE PUSH1 0x64 ADD PUSH2 0x6F3 JUMP JUMPDEST PUSH1 0x0 PUSH2 0x2CDF DUP4 DUP4 PUSH2 0x22E1 JUMP JUMPDEST SWAP1 POP DUP4 PUSH1 0x0 ADD MLOAD PUSH20 0xFFFFFFFFFFFFFFFFFFFFFFFFFFFFFFFFFFFFFFFF AND DUP2 PUSH20 0xFFFFFFFFFFFFFFFFFFFFFFFFFFFFFFFFFFFFFFFF AND EQ PUSH2 0x2DA0 JUMPI PUSH1 0x40 MLOAD PUSH32 0x8C379A000000000000000000000000000000000000000000000000000000000 DUP2 MSTORE PUSH1 0x20 PUSH1 0x4 DUP3 ADD MSTORE PUSH1 0x25 PUSH1 0x24 DUP3 ADD MSTORE PUSH32 0x73656E64657220646F65736E2774206D6174636820696E6974436F6465206164 PUSH1 0x44 DUP3 ADD MSTORE PUSH32 0x6472657373000000000000000000000000000000000000000000000000000000 PUSH1 0x64 DUP3 ADD MSTORE PUSH1 0x84 ADD PUSH2 0x6F3 JUMP JUMPDEST DUP1 PUSH20 0xFFFFFFFFFFFFFFFFFFFFFFFFFFFFFFFFFFFFFFFF AND EXTCODESIZE PUSH1 0x0 SUB PUSH2 0xF36 JUMPI PUSH1 0x40 MLOAD PUSH32 0x8C379A000000000000000000000000000000000000000000000000000000000 DUP2 MSTORE PUSH1 0x20 PUSH1 0x4 DUP3 ADD DUP2 SWAP1 MSTORE PUSH1 0x24 DUP3 ADD MSTORE PUSH32 0x696E6974436F6465206661696C656420746F206372656174652073656E646572 PUSH1 0x44 DUP3 ADD MSTORE PUSH1 0x64 ADD PUSH2 0x6F3 JUMP JUMPDEST PUSH1 0x40 MLOAD DUP1 PUSH1 0xA0 ADD PUSH1 0x40 MSTORE DUP1 PUSH2 0x2EA0 PUSH1 0x40 MLOAD DUP1 PUSH2 0x100 ADD PUSH1 0x40 MSTORE DUP1 PUSH1 0x0 PUSH20 0xFFFFFFFFFFFFFFFFFFFFFFFFFFFFFFFFFFFFFFFF AND DUP2 MSTORE PUSH1 0x20 ADD PUSH1 0x0 DUP2 MSTORE PUSH1 0x20 ADD PUSH1 0x0 DUP2 MSTORE PUSH1 0x20 ADD PUSH1 0x0 DUP2 MSTORE PUSH1 0x20 ADD PUSH1 0x0 DUP2 MSTORE PUSH1 0x20 ADD PUSH1 0x0 PUSH20 0xFFFFFFFFFFFFFFFFFFFFFFFFFFFFFFFFFFFFFFFF AND DUP2 MSTORE PUSH1 0x20 ADD PUSH1 0x0 DUP2 MSTORE PUSH1 0x20 ADD PUSH1 0x0 DUP2 MSTORE POP SWAP1 JUMP JUMPDEST DUP2 MSTORE PUSH1 0x20 ADD PUSH1 0x0 DUP1 NOT AND DUP2 MSTORE PUSH1 0x20 ADD PUSH1 0x0 DUP2 MSTORE PUSH1 0x20 ADD PUSH1 0x0 DUP2 MSTORE PUSH1 0x20 ADD PUSH1 0x0 DUP2 MSTORE POP SWAP1 JUMP JUMPDEST PUSH1 0x0 PUSH1 0x20 DUP3 DUP5 SUB SLT ISZERO PUSH2 0x2ED7 JUMPI PUSH1 0x0 DUP1 REVERT JUMPDEST DUP2 CALLDATALOAD PUSH4 0xFFFFFFFF DUP2 AND DUP2 EQ PUSH2 0x1335 JUMPI PUSH1 0x0 DUP1 REVERT JUMPDEST PUSH1 0x0 PUSH2 0x160 DUP3 DUP5 SUB SLT ISZERO PUSH2 0x2EFE JUMPI PUSH1 0x0 DUP1 REVERT JUMPDEST POP SWAP2 SWAP1 POP JUMP JUMPDEST PUSH1 0x0 PUSH1 0x20 DUP3 DUP5 SUB SLT ISZERO PUSH2 0x2F16 JUMPI PUSH1 0x0 DUP1 REVERT JUMPDEST DUP2 CALLDATALOAD PUSH8 0xFFFFFFFFFFFFFFFF DUP2 GT ISZERO PUSH2 0x2F2D JUMPI PUSH1 0x0 DUP1 REVERT JUMPDEST PUSH2 0x2432 DUP5 DUP3 DUP6 ADD PUSH2 0x2EEB JUMP JUMPDEST PUSH1 0x0 DUP1 DUP4 PUSH1 0x1F DUP5 ADD SLT PUSH2 0x2F4B JUMPI PUSH1 0x0 DUP1 REVERT JUMPDEST POP DUP2 CALLDATALOAD PUSH8 0xFFFFFFFFFFFFFFFF DUP2 GT ISZERO PUSH2 0x2F63 JUMPI PUSH1 0x0 DUP1 REVERT JUMPDEST PUSH1 0x20 DUP4 ADD SWAP2 POP DUP4 PUSH1 0x20 DUP3 DUP6 ADD ADD GT ISZERO PUSH2 0x2F7B JUMPI PUSH1 0x0 DUP1 REVERT JUMPDEST SWAP3 POP SWAP3 SWAP1 POP JUMP JUMPDEST PUSH32 0x4E487B7100000000000000000000000000000000000000000000000000000000 PUSH1 0x0 MSTORE PUSH1 0x41 PUSH1 0x4 MSTORE PUSH1 0x24 PUSH1 0x0 REVERT JUMPDEST PUSH1 0xA0 DUP2 ADD DUP2 DUP2 LT PUSH8 0xFFFFFFFFFFFFFFFF DUP3 GT OR ISZERO PUSH2 0x2FD1 JUMPI PUSH2 0x2FD1 PUSH2 0x2F82 JUMP JUMPDEST PUSH1 0x40 MSTORE POP JUMP JUMPDEST PUSH2 0x100 DUP2 ADD DUP2 DUP2 LT PUSH8 0xFFFFFFFFFFFFFFFF DUP3 GT OR ISZERO PUSH2 0x2FD1 JUMPI PUSH2 0x2FD1 PUSH2 0x2F82 JUMP JUMPDEST PUSH32 0xFFFFFFFFFFFFFFFFFFFFFFFFFFFFFFFFFFFFFFFFFFFFFFFFFFFFFFFFFFFFFFE0 PUSH1 0x1F DUP4 ADD AND DUP2 ADD DUP2 DUP2 LT PUSH8 0xFFFFFFFFFFFFFFFF DUP3 GT OR ISZERO PUSH2 0x303C JUMPI PUSH2 0x303C PUSH2 0x2F82 JUMP JUMPDEST PUSH1 0x40 MSTORE POP POP JUMP JUMPDEST PUSH20 0xFFFFFFFFFFFFFFFFFFFFFFFFFFFFFFFFFFFFFFFF DUP2 AND DUP2 EQ PUSH2 0x3065 JUMPI PUSH1 0x0 DUP1 REVERT JUMPDEST POP JUMP JUMPDEST DUP1 CALLDATALOAD PUSH2 0x3073 DUP2 PUSH2 0x3043 JUMP JUMPDEST SWAP2 SWAP1 POP JUMP JUMPDEST PUSH1 0x0 DUP1 PUSH1 0x0 DUP1 PUSH1 0x0 DUP6 DUP8 SUB PUSH2 0x1C0 DUP2 SLT ISZERO PUSH2 0x3092 JUMPI PUSH1 0x0 DUP1 REVERT JUMPDEST DUP7 CALLDATALOAD PUSH8 0xFFFFFFFFFFFFFFFF DUP1 DUP3 GT ISZERO PUSH2 0x30AA JUMPI PUSH1 0x0 DUP1 REVERT JUMPDEST PUSH2 0x30B6 DUP11 DUP4 DUP12 ADD PUSH2 0x2F39 JUMP JUMPDEST SWAP1 SWAP9 POP SWAP7 POP PUSH32 0xFFFFFFFFFFFFFFFFFFFFFFFFFFFFFFFFFFFFFFFFFFFFFFFFFFFFFFFFFFFFFFE0 SWAP3 SWAP1 SWAP3 ADD SWAP2 PUSH2 0x180 SWAP2 POP DUP2 DUP4 SLT ISZERO PUSH2 0x30F3 JUMPI PUSH1 0x0 DUP1 REVERT JUMPDEST PUSH1 0x40 MLOAD PUSH2 0x30FF DUP2 PUSH2 0x2FB1 JUMP JUMPDEST PUSH2 0x100 DUP1 DUP6 SLT ISZERO PUSH2 0x310F JUMPI PUSH1 0x0 DUP1 REVERT JUMPDEST PUSH1 0x40 MLOAD SWAP5 POP PUSH2 0x311D DUP6 PUSH2 0x2FD7 JUMP JUMPDEST PUSH2 0x3129 PUSH1 0x20 DUP13 ADD PUSH2 0x3068 JUMP JUMPDEST DUP6 MSTORE PUSH1 0x40 DUP12 ADD CALLDATALOAD PUSH1 0x20 DUP7 ADD MSTORE PUSH1 0x60 DUP12 ADD CALLDATALOAD PUSH1 0x40 DUP7 ADD MSTORE PUSH1 0x80 DUP12 ADD CALLDATALOAD PUSH1 0x60 DUP7 ADD MSTORE PUSH1 0xA0 DUP12 ADD CALLDATALOAD PUSH1 0x80 DUP7 ADD MSTORE PUSH2 0x315F PUSH1 0xC0 DUP13 ADD PUSH2 0x3068 JUMP JUMPDEST PUSH1 0xA0 DUP7 ADD MSTORE PUSH1 0xE0 DUP12 DUP2 ADD CALLDATALOAD PUSH1 0xC0 DUP8 ADD MSTORE SWAP1 DUP12 ADD CALLDATALOAD SWAP1 DUP6 ADD MSTORE SWAP3 DUP4 MSTORE PUSH2 0x120 DUP10 ADD CALLDATALOAD PUSH1 0x20 DUP5 ADD MSTORE PUSH2 0x140 DUP10 ADD CALLDATALOAD PUSH1 0x40 DUP5 ADD MSTORE PUSH2 0x160 DUP10 ADD CALLDATALOAD PUSH1 0x60 DUP5 ADD MSTORE DUP2 DUP10 ADD CALLDATALOAD PUSH1 0x80 DUP5 ADD MSTORE SWAP2 SWAP5 POP PUSH2 0x1A0 DUP9 ADD CALLDATALOAD SWAP2 DUP1 DUP4 GT ISZERO PUSH2 0x31BB JUMPI PUSH1 0x0 DUP1 REVERT JUMPDEST POP POP PUSH2 0x31C9 DUP9 DUP3 DUP10 ADD PUSH2 0x2F39 JUMP JUMPDEST SWAP7 SWAP10 SWAP6 SWAP9 POP SWAP4 SWAP7 POP SWAP3 SWAP5 SWAP4 SWAP3 POP POP POP JUMP JUMPDEST PUSH1 0x0 DUP1 DUP4 PUSH1 0x1F DUP5 ADD SLT PUSH2 0x31EC JUMPI PUSH1 0x0 DUP1 REVERT JUMPDEST POP DUP2 CALLDATALOAD PUSH8 0xFFFFFFFFFFFFFFFF DUP2 GT ISZERO PUSH2 0x3204 JUMPI PUSH1 0x0 DUP1 REVERT JUMPDEST PUSH1 0x20 DUP4 ADD SWAP2 POP DUP4 PUSH1 0x20 DUP3 PUSH1 0x5 SHL DUP6 ADD ADD GT ISZERO PUSH2 0x2F7B JUMPI PUSH1 0x0 DUP1 REVERT JUMPDEST PUSH1 0x0 DUP1 PUSH1 0x0 PUSH1 0x40 DUP5 DUP7 SUB SLT ISZERO PUSH2 0x3234 JUMPI PUSH1 0x0 DUP1 REVERT JUMPDEST DUP4 CALLDATALOAD PUSH8 0xFFFFFFFFFFFFFFFF DUP2 GT ISZERO PUSH2 0x324B JUMPI PUSH1 0x0 DUP1 REVERT JUMPDEST PUSH2 0x3257 DUP7 DUP3 DUP8 ADD PUSH2 0x31DA JUMP JUMPDEST SWAP1 SWAP5 POP SWAP3 POP POP PUSH1 0x20 DUP5 ADD CALLDATALOAD PUSH2 0x326B DUP2 PUSH2 0x3043 JUMP JUMPDEST DUP1 SWAP2 POP POP SWAP3 POP SWAP3 POP SWAP3 JUMP JUMPDEST PUSH1 0x0 DUP1 PUSH1 0x40 DUP4 DUP6 SUB SLT ISZERO PUSH2 0x3289 JUMPI PUSH1 0x0 DUP1 REVERT JUMPDEST DUP3 CALLDATALOAD PUSH2 0x3294 DUP2 PUSH2 0x3043 JUMP JUMPDEST SWAP5 PUSH1 0x20 SWAP4 SWAP1 SWAP4 ADD CALLDATALOAD SWAP4 POP POP POP JUMP JUMPDEST PUSH1 0x0 PUSH1 0x20 DUP3 DUP5 SUB SLT ISZERO PUSH2 0x32B4 JUMPI PUSH1 0x0 DUP1 REVERT JUMPDEST DUP2 CALLDATALOAD PUSH2 0x1335 DUP2 PUSH2 0x3043 JUMP JUMPDEST PUSH1 0x0 DUP1 PUSH1 0x20 DUP4 DUP6 SUB SLT ISZERO PUSH2 0x32D2 JUMPI PUSH1 0x0 DUP1 REVERT JUMPDEST DUP3 CALLDATALOAD PUSH8 0xFFFFFFFFFFFFFFFF DUP2 GT ISZERO PUSH2 0x32E9 JUMPI PUSH1 0x0 DUP1 REVERT JUMPDEST PUSH2 0x32F5 DUP6 DUP3 DUP7 ADD PUSH2 0x2F39 JUMP JUMPDEST SWAP1 SWAP7 SWAP1 SWAP6 POP SWAP4 POP POP POP POP JUMP JUMPDEST PUSH1 0x20 DUP1 DUP3 MSTORE DUP3 MLOAD DUP3 DUP3 ADD DUP2 SWAP1 MSTORE PUSH1 0x0 SWAP2 SWAP1 DUP5 DUP3 ADD SWAP1 PUSH1 0x40 DUP6 ADD SWAP1 DUP5 JUMPDEST DUP2 DUP2 LT ISZERO PUSH2 0x3339 JUMPI DUP4 MLOAD DUP4 MSTORE SWAP3 DUP5 ADD SWAP3 SWAP2 DUP5 ADD SWAP2 PUSH1 0x1 ADD PUSH2 0x331D JUMP JUMPDEST POP SWAP1 SWAP7 SWAP6 POP POP POP POP POP POP JUMP JUMPDEST PUSH1 0x0 DUP1 PUSH1 0x40 DUP4 DUP6 SUB SLT ISZERO PUSH2 0x3358 JUMPI PUSH1 0x0 DUP1 REVERT JUMPDEST DUP3 CALLDATALOAD PUSH8 0xFFFFFFFFFFFFFFFF DUP2 GT ISZERO PUSH2 0x336F JUMPI PUSH1 0x0 DUP1 REVERT JUMPDEST PUSH2 0x337B DUP6 DUP3 DUP7 ADD PUSH2 0x2EEB JUMP JUMPDEST SWAP3 POP POP PUSH1 0x20 DUP4 ADD CALLDATALOAD DUP1 ISZERO ISZERO DUP2 EQ PUSH2 0x3391 JUMPI PUSH1 0x0 DUP1 REVERT JUMPDEST DUP1 SWAP2 POP POP SWAP3 POP SWAP3 SWAP1 POP JUMP JUMPDEST PUSH1 0x0 JUMPDEST DUP4 DUP2 LT ISZERO PUSH2 0x33B7 JUMPI DUP2 DUP2 ADD MLOAD DUP4 DUP3 ADD MSTORE PUSH1 0x20 ADD PUSH2 0x339F JUMP JUMPDEST DUP4 DUP2 GT ISZERO PUSH2 0xF36 JUMPI POP POP PUSH1 0x0 SWAP2 ADD MSTORE JUMP JUMPDEST PUSH1 0x0 DUP2 MLOAD DUP1 DUP5 MSTORE PUSH2 0x33E0 DUP2 PUSH1 0x20 DUP7 ADD PUSH1 0x20 DUP7 ADD PUSH2 0x339C JUMP JUMPDEST PUSH1 0x1F ADD PUSH32 0xFFFFFFFFFFFFFFFFFFFFFFFFFFFFFFFFFFFFFFFFFFFFFFFFFFFFFFFFFFFFFFE0 AND SWAP3 SWAP1 SWAP3 ADD PUSH1 0x20 ADD SWAP3 SWAP2 POP POP JUMP JUMPDEST DUP7 DUP2 MSTORE DUP6 PUSH1 0x20 DUP3 ADD MSTORE PUSH20 0xFFFFFFFFFFFFFFFFFFFFFFFFFFFFFFFFFFFFFFFF DUP6 AND PUSH1 0x40 DUP3 ADD MSTORE PUSH1 0xC0 PUSH1 0x60 DUP3 ADD MSTORE PUSH1 0x0 PUSH2 0x344D PUSH1 0xC0 DUP4 ADD DUP7 PUSH2 0x33C8 JUMP JUMPDEST DUP3 DUP2 SUB PUSH1 0x80 DUP5 ADD MSTORE PUSH2 0x345F DUP2 DUP7 PUSH2 0x33C8 JUMP JUMPDEST SWAP1 POP DUP3 DUP2 SUB PUSH1 0xA0 DUP5 ADD MSTORE PUSH2 0x3473 DUP2 DUP6 PUSH2 0x33C8 JUMP JUMPDEST SWAP10 SWAP9 POP POP POP POP POP POP POP POP POP JUMP JUMPDEST PUSH32 0x4E487B7100000000000000000000000000000000000000000000000000000000 PUSH1 0x0 MSTORE PUSH1 0x11 PUSH1 0x4 MSTORE PUSH1 0x24 PUSH1 0x0 REVERT JUMPDEST PUSH1 0x0 DUP3 NOT DUP3 GT ISZERO PUSH2 0x34C2 JUMPI PUSH2 0x34C2 PUSH2 0x3480 JUMP JUMPDEST POP ADD SWAP1 JUMP JUMPDEST DUP2 DUP4 DUP3 CALLDATACOPY PUSH1 0x0 SWAP2 ADD SWAP1 DUP2 MSTORE SWAP2 SWAP1 POP JUMP JUMPDEST DUP3 DUP2 MSTORE PUSH1 0x40 PUSH1 0x20 DUP3 ADD MSTORE PUSH1 0x0 PUSH2 0x2432 PUSH1 0x40 DUP4 ADD DUP5 PUSH2 0x33C8 JUMP JUMPDEST PUSH32 0x4E487B7100000000000000000000000000000000000000000000000000000000 PUSH1 0x0 MSTORE PUSH1 0x32 PUSH1 0x4 MSTORE PUSH1 0x24 PUSH1 0x0 REVERT JUMPDEST PUSH1 0x0 DUP3 CALLDATALOAD PUSH32 0xFFFFFFFFFFFFFFFFFFFFFFFFFFFFFFFFFFFFFFFFFFFFFFFFFFFFFFFFFFFFFEA1 DUP4 CALLDATASIZE SUB ADD DUP2 SLT PUSH2 0x3553 JUMPI PUSH1 0x0 DUP1 REVERT JUMPDEST SWAP2 SWAP1 SWAP2 ADD SWAP3 SWAP2 POP POP JUMP JUMPDEST PUSH1 0x0 DUP3 DUP3 LT ISZERO PUSH2 0x356F JUMPI PUSH2 0x356F PUSH2 0x3480 JUMP JUMPDEST POP SUB SWAP1 JUMP JUMPDEST PUSH1 0x0 DUP3 CALLDATALOAD PUSH32 0xFFFFFFFFFFFFFFFFFFFFFFFFFFFFFFFFFFFFFFFFFFFFFFFFFFFFFFFFFFFFFFA1 DUP4 CALLDATASIZE SUB ADD DUP2 SLT PUSH2 0x3553 JUMPI PUSH1 0x0 DUP1 REVERT JUMPDEST PUSH1 0x0 DUP1 DUP4 CALLDATALOAD PUSH32 0xFFFFFFFFFFFFFFFFFFFFFFFFFFFFFFFFFFFFFFFFFFFFFFFFFFFFFFFFFFFFFFE1 DUP5 CALLDATASIZE SUB ADD DUP2 SLT PUSH2 0x35DD JUMPI PUSH1 0x0 DUP1 REVERT JUMPDEST DUP4 ADD DUP1 CALLDATALOAD SWAP2 POP PUSH8 0xFFFFFFFFFFFFFFFF DUP3 GT ISZERO PUSH2 0x35F8 JUMPI PUSH1 0x0 DUP1 REVERT JUMPDEST PUSH1 0x20 ADD SWAP2 POP PUSH1 0x5 DUP2 SWAP1 SHL CALLDATASIZE SUB DUP3 SGT ISZERO PUSH2 0x2F7B JUMPI PUSH1 0x0 DUP1 REVERT JUMPDEST PUSH1 0x0 PUSH32 0xFFFFFFFFFFFFFFFFFFFFFFFFFFFFFFFFFFFFFFFFFFFFFFFFFFFFFFFFFFFFFFFF DUP3 SUB PUSH2 0x3641 JUMPI PUSH2 0x3641 PUSH2 0x3480 JUMP JUMPDEST POP PUSH1 0x1 ADD SWAP1 JUMP JUMPDEST PUSH1 0x0 DUP1 DUP4 CALLDATALOAD PUSH32 0xFFFFFFFFFFFFFFFFFFFFFFFFFFFFFFFFFFFFFFFFFFFFFFFFFFFFFFFFFFFFFFE1 DUP5 CALLDATASIZE SUB ADD DUP2 SLT PUSH2 0x367D JUMPI PUSH1 0x0 DUP1 REVERT JUMPDEST DUP4 ADD DUP1 CALLDATALOAD SWAP2 POP PUSH8 0xFFFFFFFFFFFFFFFF DUP3 GT ISZERO PUSH2 0x3698 JUMPI PUSH1 0x0 DUP1 REVERT JUMPDEST PUSH1 0x20 ADD SWAP2 POP CALLDATASIZE DUP2 SWAP1 SUB DUP3 SGT ISZERO PUSH2 0x2F7B JUMPI PUSH1 0x0 DUP1 REVERT JUMPDEST PUSH1 0x0 DUP1 DUP4 CALLDATALOAD PUSH32 0xFFFFFFFFFFFFFFFFFFFFFFFFFFFFFFFFFFFFFFFFFFFFFFFFFFFFFFFFFFFFFFE1 DUP5 CALLDATASIZE SUB ADD DUP2 SLT PUSH2 0x36E2 JUMPI PUSH1 0x0 DUP1 REVERT JUMPDEST DUP4 ADD PUSH1 0x20 DUP2 ADD SWAP3 POP CALLDATALOAD SWAP1 POP PUSH8 0xFFFFFFFFFFFFFFFF DUP2 GT ISZERO PUSH2 0x3702 JUMPI PUSH1 0x0 DUP1 REVERT JUMPDEST DUP1 CALLDATASIZE SUB DUP3 SGT ISZERO PUSH2 0x2F7B JUMPI PUSH1 0x0 DUP1 REVERT JUMPDEST DUP2 DUP4 MSTORE DUP2 DUP2 PUSH1 0x20 DUP6 ADD CALLDATACOPY POP PUSH1 0x0 PUSH1 0x20 DUP3 DUP5 ADD ADD MSTORE PUSH1 0x0 PUSH1 0x20 PUSH32 0xFFFFFFFFFFFFFFFFFFFFFFFFFFFFFFFFFFFFFFFFFFFFFFFFFFFFFFFFFFFFFFE0 PUSH1 0x1F DUP5 ADD AND DUP5 ADD ADD SWAP1 POP SWAP3 SWAP2 POP POP JUMP JUMPDEST PUSH1 0x0 PUSH2 0x160 PUSH2 0x3786 DUP5 PUSH2 0x376C DUP6 PUSH2 0x3068 JUMP JUMPDEST PUSH20 0xFFFFFFFFFFFFFFFFFFFFFFFFFFFFFFFFFFFFFFFF AND SWAP1 MSTORE JUMP JUMPDEST PUSH1 0x20 DUP4 ADD CALLDATALOAD PUSH1 0x20 DUP6 ADD MSTORE PUSH2 0x379D PUSH1 0x40 DUP5 ADD DUP5 PUSH2 0x36AD JUMP JUMPDEST DUP3 PUSH1 0x40 DUP8 ADD MSTORE PUSH2 0x37B0 DUP4 DUP8 ADD DUP3 DUP5 PUSH2 0x3711 JUMP JUMPDEST SWAP3 POP POP POP PUSH2 0x37C1 PUSH1 0x60 DUP5 ADD DUP5 PUSH2 0x36AD JUMP JUMPDEST DUP6 DUP4 SUB PUSH1 0x60 DUP8 ADD MSTORE PUSH2 0x37D4 DUP4 DUP3 DUP5 PUSH2 0x3711 JUMP JUMPDEST SWAP3 POP POP POP PUSH1 0x80 DUP4 ADD CALLDATALOAD PUSH1 0x80 DUP6 ADD MSTORE PUSH1 0xA0 DUP4 ADD CALLDATALOAD PUSH1 0xA0 DUP6 ADD MSTORE PUSH1 0xC0 DUP4 ADD CALLDATALOAD PUSH1 0xC0 DUP6 ADD MSTORE PUSH1 0xE0 DUP4 ADD CALLDATALOAD PUSH1 0xE0 DUP6 ADD MSTORE PUSH2 0x100 DUP1 DUP5 ADD CALLDATALOAD DUP2 DUP7 ADD MSTORE POP PUSH2 0x120 PUSH2 0x381B DUP2 DUP6 ADD DUP6 PUSH2 0x36AD JUMP JUMPDEST DUP7 DUP5 SUB DUP4 DUP9 ADD MSTORE PUSH2 0x382D DUP5 DUP3 DUP5 PUSH2 0x3711 JUMP JUMPDEST SWAP4 POP POP POP POP PUSH2 0x140 PUSH2 0x3841 DUP2 DUP6 ADD DUP6 PUSH2 0x36AD JUMP JUMPDEST DUP7 DUP5 SUB DUP4 DUP9 ADD MSTORE PUSH2 0x3853 DUP5 DUP3 DUP5 PUSH2 0x3711 JUMP JUMPDEST SWAP8 SWAP7 POP POP POP POP POP POP POP JUMP JUMPDEST PUSH1 0x40 DUP1 DUP3 MSTORE DUP2 ADD DUP5 SWAP1 MSTORE PUSH1 0x0 PUSH1 0x60 PUSH1 0x5 DUP7 SWAP1 SHL DUP4 ADD DUP2 ADD SWAP1 DUP4 ADD DUP8 DUP4 DUP1 JUMPDEST DUP10 DUP2 LT ISZERO PUSH2 0x38FE JUMPI PUSH32 0xFFFFFFFFFFFFFFFFFFFFFFFFFFFFFFFFFFFFFFFFFFFFFFFFFFFFFFFFFFFFFFA0 DUP8 DUP7 SUB ADD DUP5 MSTORE DUP3 CALLDATALOAD PUSH32 0xFFFFFFFFFFFFFFFFFFFFFFFFFFFFFFFFFFFFFFFFFFFFFFFFFFFFFFFFFFFFFEA1 DUP13 CALLDATASIZE SUB ADD DUP2 SLT PUSH2 0x38DC JUMPI DUP3 DUP4 REVERT JUMPDEST PUSH2 0x38E8 DUP7 DUP14 DUP4 ADD PUSH2 0x375A JUMP JUMPDEST SWAP6 POP POP PUSH1 0x20 SWAP4 DUP5 ADD SWAP4 SWAP3 SWAP1 SWAP3 ADD SWAP2 PUSH1 0x1 ADD PUSH2 0x387C JUMP JUMPDEST POP POP POP POP DUP3 DUP2 SUB PUSH1 0x20 DUP5 ADD MSTORE PUSH2 0x3853 DUP2 DUP6 DUP8 PUSH2 0x3711 JUMP JUMPDEST PUSH1 0x20 DUP2 MSTORE PUSH1 0x0 PUSH2 0x3952 PUSH1 0x20 DUP4 ADD PUSH1 0xA DUP2 MSTORE PUSH32 0x6E6F74207374616B656400000000000000000000000000000000000000000000 PUSH1 0x20 DUP3 ADD MSTORE PUSH1 0x40 ADD SWAP1 JUMP JUMPDEST SWAP3 SWAP2 POP POP JUMP JUMPDEST PUSH1 0x0 PUSH8 0xFFFFFFFFFFFFFFFF DUP1 DUP4 AND DUP2 DUP6 AND DUP1 DUP4 SUB DUP3 GT ISZERO PUSH2 0x397B JUMPI PUSH2 0x397B PUSH2 0x3480 JUMP JUMPDEST ADD SWAP5 SWAP4 POP POP POP POP JUMP JUMPDEST PUSH1 0x40 DUP2 MSTORE PUSH1 0x0 PUSH2 0x3997 PUSH1 0x40 DUP4 ADD DUP6 PUSH2 0x375A JUMP JUMPDEST SWAP1 POP DUP3 ISZERO ISZERO PUSH1 0x20 DUP4 ADD MSTORE SWAP4 SWAP3 POP POP POP JUMP JUMPDEST PUSH1 0x0 DUP3 PUSH1 0x1F DUP4 ADD SLT PUSH2 0x39B9 JUMPI PUSH1 0x0 DUP1 REVERT JUMPDEST DUP2 MLOAD PUSH8 0xFFFFFFFFFFFFFFFF DUP2 GT ISZERO PUSH2 0x39D3 JUMPI PUSH2 0x39D3 PUSH2 0x2F82 JUMP JUMPDEST PUSH1 0x40 MLOAD PUSH2 0x3A08 PUSH1 0x20 PUSH32 0xFFFFFFFFFFFFFFFFFFFFFFFFFFFFFFFFFFFFFFFFFFFFFFFFFFFFFFFFFFFFFFE0 PUSH1 0x1F DUP6 ADD AND ADD DUP3 PUSH2 0x2FF8 JUMP JUMPDEST DUP2 DUP2 MSTORE DUP5 PUSH1 0x20 DUP4 DUP7 ADD ADD GT ISZERO PUSH2 0x3A1D JUMPI PUSH1 0x0 DUP1 REVERT JUMPDEST PUSH2 0x2432 DUP3 PUSH1 0x20 DUP4 ADD PUSH1 0x20 DUP8 ADD PUSH2 0x339C JUMP JUMPDEST PUSH1 0x0 DUP1 PUSH1 0x0 PUSH1 0x60 DUP5 DUP7 SUB SLT ISZERO PUSH2 0x3A43 JUMPI PUSH1 0x0 DUP1 REVERT JUMPDEST DUP4 MLOAD PUSH8 0xFFFFFFFFFFFFFFFF DUP1 DUP3 GT ISZERO PUSH2 0x3A5B JUMPI PUSH1 0x0 DUP1 REVERT JUMPDEST PUSH2 0x3A67 DUP8 DUP4 DUP9 ADD PUSH2 0x39A8 JUMP JUMPDEST SWAP5 POP PUSH1 0x20 DUP7 ADD MLOAD SWAP2 POP DUP1 DUP3 GT ISZERO PUSH2 0x3A7D JUMPI PUSH1 0x0 DUP1 REVERT JUMPDEST PUSH2 0x3A89 DUP8 DUP4 DUP9 ADD PUSH2 0x39A8 JUMP JUMPDEST SWAP4 POP PUSH1 0x40 DUP7 ADD MLOAD SWAP2 POP DUP1 DUP3 GT ISZERO PUSH2 0x3A9F JUMPI PUSH1 0x0 DUP1 REVERT JUMPDEST POP PUSH2 0x3AAC DUP7 DUP3 DUP8 ADD PUSH2 0x39A8 JUMP JUMPDEST SWAP2 POP POP SWAP3 POP SWAP3 POP SWAP3 JUMP JUMPDEST PUSH32 0x4E487B7100000000000000000000000000000000000000000000000000000000 PUSH1 0x0 MSTORE PUSH1 0x21 PUSH1 0x4 MSTORE PUSH1 0x24 PUSH1 0x0 REVERT JUMPDEST PUSH1 0x0 PUSH1 0x3 DUP6 LT PUSH2 0x3B1E JUMPI PUSH32 0x4E487B7100000000000000000000000000000000000000000000000000000000 PUSH1 0x0 MSTORE PUSH1 0x21 PUSH1 0x4 MSTORE PUSH1 0x24 PUSH1 0x0 REVERT JUMPDEST DUP5 DUP3 MSTORE PUSH1 0x60 PUSH1 0x20 DUP4 ADD MSTORE PUSH2 0x3B35 PUSH1 0x60 DUP4 ADD DUP6 PUSH2 0x33C8 JUMP JUMPDEST SWAP1 POP DUP3 PUSH1 0x40 DUP4 ADD MSTORE SWAP5 SWAP4 POP POP POP POP JUMP JUMPDEST PUSH1 0x0 PUSH1 0x3 RETURNDATASIZE GT ISZERO PUSH2 0x3B5E JUMPI PUSH1 0x4 PUSH1 0x0 DUP1 RETURNDATACOPY POP PUSH1 0x0 MLOAD PUSH1 0xE0 SHR JUMPDEST SWAP1 JUMP JUMPDEST PUSH1 0x0 PUSH1 0x44 RETURNDATASIZE LT ISZERO PUSH2 0x3B6F JUMPI SWAP1 JUMP JUMPDEST PUSH1 0x40 MLOAD PUSH32 0xFFFFFFFFFFFFFFFFFFFFFFFFFFFFFFFFFFFFFFFFFFFFFFFFFFFFFFFFFFFFFFFC DUP1 RETURNDATASIZE ADD PUSH1 0x4 DUP4 RETURNDATACOPY DUP2 MLOAD RETURNDATASIZE PUSH8 0xFFFFFFFFFFFFFFFF DUP2 PUSH1 0x24 DUP5 ADD GT DUP2 DUP5 GT OR ISZERO PUSH2 0x3BBD JUMPI POP POP POP POP POP SWAP1 JUMP JUMPDEST DUP3 DUP6 ADD SWAP2 POP DUP2 MLOAD DUP2 DUP2 GT ISZERO PUSH2 0x3BD5 JUMPI POP POP POP POP POP POP SWAP1 JUMP JUMPDEST DUP5 RETURNDATASIZE DUP8 ADD ADD PUSH1 0x20 DUP3 DUP6 ADD ADD GT ISZERO PUSH2 0x3BEF JUMPI POP POP POP POP POP POP SWAP1 JUMP JUMPDEST PUSH2 0x3BFE PUSH1 0x20 DUP3 DUP7 ADD ADD DUP8 PUSH2 0x2FF8 JUMP JUMPDEST POP SWAP1 SWAP6 SWAP5 POP POP POP POP POP JUMP JUMPDEST DUP4 DUP2 MSTORE PUSH20 0xFFFFFFFFFFFFFFFFFFFFFFFFFFFFFFFFFFFFFFFF DUP4 AND PUSH1 0x20 DUP3 ADD MSTORE PUSH1 0x60 PUSH1 0x40 DUP3 ADD MSTORE PUSH1 0x0 PUSH2 0x3C3E PUSH1 0x60 DUP4 ADD DUP5 PUSH2 0x33C8 JUMP JUMPDEST SWAP6 SWAP5 POP POP POP POP POP JUMP JUMPDEST PUSH1 0x0 PUSH2 0x1C0 DUP1 DUP4 MSTORE PUSH2 0x3C5C DUP2 DUP5 ADD DUP8 DUP10 PUSH2 0x3711 JUMP JUMPDEST SWAP1 POP DUP5 MLOAD PUSH20 0xFFFFFFFFFFFFFFFFFFFFFFFFFFFFFFFFFFFFFFFF DUP1 DUP3 MLOAD AND PUSH1 0x20 DUP7 ADD MSTORE PUSH1 0x20 DUP3 ADD MLOAD PUSH1 0x40 DUP7 ADD MSTORE PUSH1 0x40 DUP3 ADD MLOAD PUSH1 0x60 DUP7 ADD MSTORE PUSH1 0x60 DUP3 ADD MLOAD PUSH1 0x80 DUP7 ADD MSTORE PUSH1 0x80 DUP3 ADD MLOAD PUSH1 0xA0 DUP7 ADD MSTORE DUP1 PUSH1 0xA0 DUP4 ADD MLOAD AND PUSH1 0xC0 DUP7 ADD MSTORE POP PUSH1 0xC0 DUP2 ADD MLOAD PUSH1 0xE0 DUP6 ADD MSTORE PUSH1 0xE0 DUP2 ADD MLOAD PUSH2 0x100 DUP6 ADD MSTORE POP PUSH1 0x20 DUP6 ADD MLOAD PUSH2 0x120 DUP5 ADD MSTORE PUSH1 0x40 DUP6 ADD MLOAD PUSH2 0x140 DUP5 ADD MSTORE PUSH1 0x60 DUP6 ADD MLOAD PUSH2 0x160 DUP5 ADD MSTORE PUSH1 0x80 DUP6 ADD MLOAD PUSH2 0x180 DUP5 ADD MSTORE DUP3 DUP2 SUB PUSH2 0x1A0 DUP5 ADD MSTORE PUSH2 0x3853 DUP2 DUP6 PUSH2 0x33C8 JUMP JUMPDEST PUSH1 0x0 PUSH1 0x20 DUP3 DUP5 SUB SLT ISZERO PUSH2 0x3D1A JUMPI PUSH1 0x0 DUP1 REVERT JUMPDEST POP MLOAD SWAP2 SWAP1 POP JUMP JUMPDEST PUSH1 0x0 DUP1 DUP6 DUP6 GT ISZERO PUSH2 0x3D31 JUMPI PUSH1 0x0 DUP1 REVERT JUMPDEST DUP4 DUP7 GT ISZERO PUSH2 0x3D3E JUMPI PUSH1 0x0 DUP1 REVERT JUMPDEST POP POP DUP3 ADD SWAP4 SWAP2 SWAP1 SWAP3 SUB SWAP2 POP JUMP JUMPDEST PUSH32 0xFFFFFFFFFFFFFFFFFFFFFFFFFFFFFFFFFFFFFFFF000000000000000000000000 DUP2 CALLDATALOAD DUP2 DUP2 AND SWAP2 PUSH1 0x14 DUP6 LT ISZERO PUSH2 0x3D8B JUMPI DUP1 DUP2 DUP7 PUSH1 0x14 SUB PUSH1 0x3 SHL SHL DUP4 AND AND SWAP3 POP JUMPDEST POP POP SWAP3 SWAP2 POP POP JUMP JUMPDEST PUSH1 0x0 PUSH1 0x20 DUP3 DUP5 SUB SLT ISZERO PUSH2 0x3DA5 JUMPI PUSH1 0x0 DUP1 REVERT JUMPDEST DUP2 MLOAD PUSH2 0x1335 DUP2 PUSH2 0x3043 JUMP JUMPDEST PUSH1 0x80 DUP2 MSTORE PUSH1 0x0 PUSH2 0x3DC3 PUSH1 0x80 DUP4 ADD DUP8 PUSH2 0x375A JUMP JUMPDEST PUSH1 0x20 DUP4 ADD SWAP6 SWAP1 SWAP6 MSTORE POP PUSH20 0xFFFFFFFFFFFFFFFFFFFFFFFFFFFFFFFFFFFFFFFF SWAP3 SWAP1 SWAP3 AND PUSH1 0x40 DUP4 ADD MSTORE PUSH1 0x60 SWAP1 SWAP2 ADD MSTORE SWAP2 SWAP1 POP JUMP JUMPDEST DUP3 DUP2 MSTORE PUSH20 0xFFFFFFFFFFFFFFFFFFFFFFFFFFFFFFFFFFFFFFFF DUP3 AND PUSH1 0x20 DUP3 ADD MSTORE PUSH1 0x60 PUSH1 0x40 DUP3 ADD MSTORE PUSH1 0x0 PUSH2 0x2432 PUSH1 0x60 DUP4 ADD PUSH1 0xA DUP2 MSTORE PUSH32 0x6E6F74207374616B656400000000000000000000000000000000000000000000 PUSH1 0x20 DUP3 ADD MSTORE PUSH1 0x40 ADD SWAP1 JUMP JUMPDEST PUSH1 0x60 DUP2 MSTORE PUSH1 0x0 PUSH2 0x3E67 PUSH1 0x60 DUP4 ADD DUP7 PUSH2 0x375A JUMP JUMPDEST PUSH1 0x20 DUP4 ADD SWAP5 SWAP1 SWAP5 MSTORE POP PUSH1 0x40 ADD MSTORE SWAP2 SWAP1 POP JUMP JUMPDEST PUSH1 0x0 PUSH1 0x20 DUP3 DUP5 SUB SLT ISZERO PUSH2 0x3E8B JUMPI PUSH1 0x0 DUP1 REVERT JUMPDEST DUP2 MLOAD PUSH8 0xFFFFFFFFFFFFFFFF DUP2 GT ISZERO PUSH2 0x3EA2 JUMPI PUSH1 0x0 DUP1 REVERT JUMPDEST PUSH2 0x2432 DUP5 DUP3 DUP6 ADD PUSH2 0x39A8 JUMP INVALID LOG2 PUSH5 0x6970667358 0x22 SLT KECCAK256 SAR PUSH2 0x509E 0x49 0xE9 ADD PUSH20 0xF3A6DCE366AD693BF2090D1750865DA8AF04B6DA DUP5 POP 0xAA SWAP16 PUSH5 0x736F6C6343 STOP ADDMOD 0xF STOP CALLER "
        },
        "methodIdentifiers": {
          "addStake(uint32)": "0396cb60",
          "balanceOf(address)": "70a08231",
          "depositTo(address)": "b760faf9",
          "deposits(address)": "fc7e286d",
          "getDepositInfo(address)": "5287ce12",
          "getRequestId((address,uint256,bytes,bytes,uint256,uint256,uint256,uint256,uint256,bytes,bytes))": "14e72634",
          "getSenderAddress(bytes)": "9b249f69",
          "getSenderStorage(address)": "ec8b5dbf",
          "handleAggregatedOps(((address,uint256,bytes,bytes,uint256,uint256,uint256,uint256,uint256,bytes,bytes)[],address,bytes)[],address)": "4b1d7cf5",
          "handleOps((address,uint256,bytes,bytes,uint256,uint256,uint256,uint256,uint256,bytes,bytes)[],address)": "1fad948c",
          "innerHandleOp(bytes,((address,uint256,uint256,uint256,uint256,address,uint256,uint256),bytes32,uint256,uint256,uint256),bytes)": "1d732756",
          "paymasterStake()": "17c6a987",
          "simulateValidation((address,uint256,bytes,bytes,uint256,uint256,uint256,uint256,uint256,bytes,bytes),bool)": "ffb01dd9",
          "unlockStake()": "bb9fe6bf",
          "unstakeDelaySec()": "390b9978",
          "withdrawStake(address)": "c23a5cea",
          "withdrawTo(address,uint256)": "205c2878"
        }
      }
    }
  }
}