{
  "contracts/OTP.sol": {
    "OTP": {
      "abi": [
        {
          "inputs": [
            {
              "internalType": "address",
              "name": "_verifier",
              "type": "address"
            },
            {
              "internalType": "uint256",
              "name": "merkleRoot",
              "type": "uint256"
            }
          ],
          "stateMutability": "nonpayable",
          "type": "constructor"
        },
        {
          "inputs": [
            {
              "internalType": "uint256[2]",
              "name": "a",
              "type": "uint256[2]"
            },
            {
              "internalType": "uint256[2][2]",
              "name": "b",
              "type": "uint256[2][2]"
            },
            {
              "internalType": "uint256[2]",
              "name": "c",
              "type": "uint256[2]"
            },
            {
              "internalType": "uint256[2]",
              "name": "input",
              "type": "uint256[2]"
            }
          ],
          "name": "blockApproval",
          "outputs": [],
          "stateMutability": "nonpayable",
          "type": "function"
        },
        {
          "inputs": [],
          "name": "dummy",
          "outputs": [
            {
              "internalType": "uint256",
              "name": "",
              "type": "uint256"
            }
          ],
          "stateMutability": "view",
          "type": "function"
        },
        {
          "inputs": [],
          "name": "lastUsedTime",
          "outputs": [
            {
              "internalType": "uint256",
              "name": "",
              "type": "uint256"
            }
          ],
          "stateMutability": "view",
          "type": "function"
        },
        {
          "inputs": [
            {
              "internalType": "uint256[2]",
              "name": "a",
              "type": "uint256[2]"
            },
            {
              "internalType": "uint256[2][2]",
              "name": "b",
              "type": "uint256[2][2]"
            },
            {
              "internalType": "uint256[2]",
              "name": "c",
              "type": "uint256[2]"
            },
            {
              "internalType": "uint256[2]",
              "name": "input",
              "type": "uint256[2]"
            },
            {
              "internalType": "address",
              "name": "_to",
              "type": "address"
            }
          ],
          "name": "naiveApproval",
          "outputs": [],
          "stateMutability": "payable",
          "type": "function"
        },
        {
          "inputs": [],
          "name": "root",
          "outputs": [
            {
              "internalType": "uint256",
              "name": "",
              "type": "uint256"
            }
          ],
          "stateMutability": "view",
          "type": "function"
        },
        {
          "inputs": [],
          "name": "verifierAddr",
          "outputs": [
            {
              "internalType": "address",
              "name": "",
              "type": "address"
            }
          ],
          "stateMutability": "view",
          "type": "function"
        }
      ],
      "evm": {
        "bytecode": {
          "linkReferences": {},
          "object": "60c060405260008055600060015534801561001957600080fd5b50604051610c1a380380610c1a8339810160408190526100389161004e565b6001600160a01b0390911660805260a052610088565b6000806040838503121561006157600080fd5b82516001600160a01b038116811461007857600080fd5b6020939093015192949293505050565b60805160a051610b526100c8600039600081816101490152818161027e015261051101526000818160c70152818161017101526104090152610b526000f3fe6080604052600436106100655760003560e01c8063bf98a6e411610043578063bf98a6e41461010e578063cdf62e2114610124578063ebf0c7171461013757600080fd5b806315eacf131461006a57806332e43a111461008c578063663ea2e2146100b5575b600080fd5b34801561007657600080fd5b5061008a6100853660046108c2565b61016b565b005b34801561009857600080fd5b506100a260015481565b6040519081526020015b60405180910390f35b3480156100c157600080fd5b506100e97f000000000000000000000000000000000000000000000000000000000000000081565b60405173ffffffffffffffffffffffffffffffffffffffff90911681526020016100ac565b34801561011a57600080fd5b506100a260005481565b61008a61013236600461091c565b610403565b34801561014357600080fd5b506100a27f000000000000000000000000000000000000000000000000000000000000000081565b838383837f000000000000000000000000000000000000000000000000000000000000000073ffffffffffffffffffffffffffffffffffffffff1663f5c9d69e858585856040518563ffffffff1660e01b81526004016101ce94939291906109ce565b602060405180830381865afa1580156101eb573d6000803e3d6000fd5b505050506040513d601f19601f8201168201806040525081019061020f9190610a59565b61027a576040517f08c379a000000000000000000000000000000000000000000000000000000000815260206004820152600d60248201527f696e76616c69642070726f6f660000000000000000000000000000000000000060448201526064015b60405180910390fd5b80517f000000000000000000000000000000000000000000000000000000000000000014610304576040517f08c379a000000000000000000000000000000000000000000000000000000000815260206004820152600c60248201527f696e76616c696420726f6f7400000000000000000000000000000000000000006044820152606401610271565b600054602082015111610373576040517f08c379a000000000000000000000000000000000000000000000000000000000815260206004820152600760248201527f6f6c64204f5450000000000000000000000000000000000000000000000000006044820152606401610271565b602085015142106103e0576040517f08c379a000000000000000000000000000000000000000000000000000000000815260206004820152600760248201527f6f6c64204f5450000000000000000000000000000000000000000000000000006044820152606401610271565b6001600081546103ef90610a82565b909155506020015160005550505050505050565b848484847f000000000000000000000000000000000000000000000000000000000000000073ffffffffffffffffffffffffffffffffffffffff1663f5c9d69e858585856040518563ffffffff1660e01b815260040161046694939291906109ce565b602060405180830381865afa158015610483573d6000803e3d6000fd5b505050506040513d601f19601f820116820180604052508101906104a79190610a59565b61050d576040517f08c379a000000000000000000000000000000000000000000000000000000000815260206004820152600d60248201527f696e76616c69642070726f6f66000000000000000000000000000000000000006044820152606401610271565b80517f000000000000000000000000000000000000000000000000000000000000000014610597576040517f08c379a000000000000000000000000000000000000000000000000000000000815260206004820152600c60248201527f696e76616c696420726f6f7400000000000000000000000000000000000000006044820152606401610271565b600054602082015111610606576040517f08c379a000000000000000000000000000000000000000000000000000000000815260206004820152600760248201527f6f6c64204f5450000000000000000000000000000000000000000000000000006044820152606401610271565b60016000815461061590610a82565b909155506106238534610634565b602001516000555050505050505050565b804710156106c4576040517f08c379a000000000000000000000000000000000000000000000000000000000815260206004820152602f60248201527f53747265616d696e673a3a736166655472616e736665724554483a20496e737560448201527f6666696369656e7420616d6f756e7400000000000000000000000000000000006064820152608401610271565b6040805160008082526020820190925273ffffffffffffffffffffffffffffffffffffffff84169083906040516106fb9190610ae1565b60006040518083038185875af1925050503d8060008114610738576040519150601f19603f3d011682016040523d82523d6000602084013e61073d565b606091505b50509050806107ce576040517f08c379a000000000000000000000000000000000000000000000000000000000815260206004820152602f60248201527f53747265616d696e673a3a736166655472616e736665724554483a204554482060448201527f7472616e73666572206661696c656400000000000000000000000000000000006064820152608401610271565b505050565b6040805190810167ffffffffffffffff8111828210171561081d577f4e487b7100000000000000000000000000000000000000000000000000000000600052604160045260246000fd5b60405290565b600082601f83011261083457600080fd5b61083c6107d3565b80604084018581111561084e57600080fd5b845b81811015610868578035845260209384019301610850565b509095945050505050565b600082601f83011261088457600080fd5b61088c6107d3565b80608084018581111561089e57600080fd5b845b81811015610868576108b28782610823565b84526020909301926040016108a0565b60008060008061014085870312156108d957600080fd5b6108e38686610823565b93506108f28660408701610873565b92506109018660c08701610823565b9150610911866101008701610823565b905092959194509250565b6000806000806000610160868803121561093557600080fd5b61093f8787610823565b945061094e8760408801610873565b935061095d8760c08801610823565b925061096d876101008801610823565b915061014086013573ffffffffffffffffffffffffffffffffffffffff8116811461099757600080fd5b809150509295509295909350565b8060005b60028110156109c85781518452602093840193909101906001016109a9565b50505050565b61014081016109dd82876109a5565b6040808301866000805b60028082106109f65750610a30565b835185845b83811015610a195782518252602092830192909101906001016109fb565b5050509385019350602092909201916001016109e7565b5050505050610a4260c08301856109a5565b610a506101008301846109a5565b95945050505050565b600060208284031215610a6b57600080fd5b81518015158114610a7b57600080fd5b9392505050565b60007fffffffffffffffffffffffffffffffffffffffffffffffffffffffffffffffff8203610ada577f4e487b7100000000000000000000000000000000000000000000000000000000600052601160045260246000fd5b5060010190565b6000825160005b81811015610b025760208186018101518583015201610ae8565b81811115610b11576000828501525b50919091019291505056fea2646970667358221220fe47f26b4efe3aaa87db476cf7c1bc62449db51ad01602166a56913d7f6280ac64736f6c634300080f0033",
          "opcodes": "PUSH1 0xC0 PUSH1 0x40 MSTORE PUSH1 0x0 DUP1 SSTORE PUSH1 0x0 PUSH1 0x1 SSTORE CALLVALUE DUP1 ISZERO PUSH2 0x19 JUMPI PUSH1 0x0 DUP1 REVERT JUMPDEST POP PUSH1 0x40 MLOAD PUSH2 0xC1A CODESIZE SUB DUP1 PUSH2 0xC1A DUP4 CODECOPY DUP2 ADD PUSH1 0x40 DUP2 SWAP1 MSTORE PUSH2 0x38 SWAP2 PUSH2 0x4E JUMP JUMPDEST PUSH1 0x1 PUSH1 0x1 PUSH1 0xA0 SHL SUB SWAP1 SWAP2 AND PUSH1 0x80 MSTORE PUSH1 0xA0 MSTORE PUSH2 0x88 JUMP JUMPDEST PUSH1 0x0 DUP1 PUSH1 0x40 DUP4 DUP6 SUB SLT ISZERO PUSH2 0x61 JUMPI PUSH1 0x0 DUP1 REVERT JUMPDEST DUP3 MLOAD PUSH1 0x1 PUSH1 0x1 PUSH1 0xA0 SHL SUB DUP2 AND DUP2 EQ PUSH2 0x78 JUMPI PUSH1 0x0 DUP1 REVERT JUMPDEST PUSH1 0x20 SWAP4 SWAP1 SWAP4 ADD MLOAD SWAP3 SWAP5 SWAP3 SWAP4 POP POP POP JUMP JUMPDEST PUSH1 0x80 MLOAD PUSH1 0xA0 MLOAD PUSH2 0xB52 PUSH2 0xC8 PUSH1 0x0 CODECOPY PUSH1 0x0 DUP2 DUP2 PUSH2 0x149 ADD MSTORE DUP2 DUP2 PUSH2 0x27E ADD MSTORE PUSH2 0x511 ADD MSTORE PUSH1 0x0 DUP2 DUP2 PUSH1 0xC7 ADD MSTORE DUP2 DUP2 PUSH2 0x171 ADD MSTORE PUSH2 0x409 ADD MSTORE PUSH2 0xB52 PUSH1 0x0 RETURN INVALID PUSH1 0x80 PUSH1 0x40 MSTORE PUSH1 0x4 CALLDATASIZE LT PUSH2 0x65 JUMPI PUSH1 0x0 CALLDATALOAD PUSH1 0xE0 SHR DUP1 PUSH4 0xBF98A6E4 GT PUSH2 0x43 JUMPI DUP1 PUSH4 0xBF98A6E4 EQ PUSH2 0x10E JUMPI DUP1 PUSH4 0xCDF62E21 EQ PUSH2 0x124 JUMPI DUP1 PUSH4 0xEBF0C717 EQ PUSH2 0x137 JUMPI PUSH1 0x0 DUP1 REVERT JUMPDEST DUP1 PUSH4 0x15EACF13 EQ PUSH2 0x6A JUMPI DUP1 PUSH4 0x32E43A11 EQ PUSH2 0x8C JUMPI DUP1 PUSH4 0x663EA2E2 EQ PUSH2 0xB5 JUMPI JUMPDEST PUSH1 0x0 DUP1 REVERT JUMPDEST CALLVALUE DUP1 ISZERO PUSH2 0x76 JUMPI PUSH1 0x0 DUP1 REVERT JUMPDEST POP PUSH2 0x8A PUSH2 0x85 CALLDATASIZE PUSH1 0x4 PUSH2 0x8C2 JUMP JUMPDEST PUSH2 0x16B JUMP JUMPDEST STOP JUMPDEST CALLVALUE DUP1 ISZERO PUSH2 0x98 JUMPI PUSH1 0x0 DUP1 REVERT JUMPDEST POP PUSH2 0xA2 PUSH1 0x1 SLOAD DUP2 JUMP JUMPDEST PUSH1 0x40 MLOAD SWAP1 DUP2 MSTORE PUSH1 0x20 ADD JUMPDEST PUSH1 0x40 MLOAD DUP1 SWAP2 SUB SWAP1 RETURN JUMPDEST CALLVALUE DUP1 ISZERO PUSH2 0xC1 JUMPI PUSH1 0x0 DUP1 REVERT JUMPDEST POP PUSH2 0xE9 PUSH32 0x0 DUP2 JUMP JUMPDEST PUSH1 0x40 MLOAD PUSH20 0xFFFFFFFFFFFFFFFFFFFFFFFFFFFFFFFFFFFFFFFF SWAP1 SWAP2 AND DUP2 MSTORE PUSH1 0x20 ADD PUSH2 0xAC JUMP JUMPDEST CALLVALUE DUP1 ISZERO PUSH2 0x11A JUMPI PUSH1 0x0 DUP1 REVERT JUMPDEST POP PUSH2 0xA2 PUSH1 0x0 SLOAD DUP2 JUMP JUMPDEST PUSH2 0x8A PUSH2 0x132 CALLDATASIZE PUSH1 0x4 PUSH2 0x91C JUMP JUMPDEST PUSH2 0x403 JUMP JUMPDEST CALLVALUE DUP1 ISZERO PUSH2 0x143 JUMPI PUSH1 0x0 DUP1 REVERT JUMPDEST POP PUSH2 0xA2 PUSH32 0x0 DUP2 JUMP JUMPDEST DUP4 DUP4 DUP4 DUP4 PUSH32 0x0 PUSH20 0xFFFFFFFFFFFFFFFFFFFFFFFFFFFFFFFFFFFFFFFF AND PUSH4 0xF5C9D69E DUP6 DUP6 DUP6 DUP6 PUSH1 0x40 MLOAD DUP6 PUSH4 0xFFFFFFFF AND PUSH1 0xE0 SHL DUP2 MSTORE PUSH1 0x4 ADD PUSH2 0x1CE SWAP5 SWAP4 SWAP3 SWAP2 SWAP1 PUSH2 0x9CE JUMP JUMPDEST PUSH1 0x20 PUSH1 0x40 MLOAD DUP1 DUP4 SUB DUP2 DUP7 GAS STATICCALL ISZERO DUP1 ISZERO PUSH2 0x1EB JUMPI RETURNDATASIZE PUSH1 0x0 DUP1 RETURNDATACOPY RETURNDATASIZE PUSH1 0x0 REVERT JUMPDEST POP POP POP POP PUSH1 0x40 MLOAD RETURNDATASIZE PUSH1 0x1F NOT PUSH1 0x1F DUP3 ADD AND DUP3 ADD DUP1 PUSH1 0x40 MSTORE POP DUP2 ADD SWAP1 PUSH2 0x20F SWAP2 SWAP1 PUSH2 0xA59 JUMP JUMPDEST PUSH2 0x27A JUMPI PUSH1 0x40 MLOAD PUSH32 0x8C379A000000000000000000000000000000000000000000000000000000000 DUP2 MSTORE PUSH1 0x20 PUSH1 0x4 DUP3 ADD MSTORE PUSH1 0xD PUSH1 0x24 DUP3 ADD MSTORE PUSH32 0x696E76616C69642070726F6F6600000000000000000000000000000000000000 PUSH1 0x44 DUP3 ADD MSTORE PUSH1 0x64 ADD JUMPDEST PUSH1 0x40 MLOAD DUP1 SWAP2 SUB SWAP1 REVERT JUMPDEST DUP1 MLOAD PUSH32 0x0 EQ PUSH2 0x304 JUMPI PUSH1 0x40 MLOAD PUSH32 0x8C379A000000000000000000000000000000000000000000000000000000000 DUP2 MSTORE PUSH1 0x20 PUSH1 0x4 DUP3 ADD MSTORE PUSH1 0xC PUSH1 0x24 DUP3 ADD MSTORE PUSH32 0x696E76616C696420726F6F740000000000000000000000000000000000000000 PUSH1 0x44 DUP3 ADD MSTORE PUSH1 0x64 ADD PUSH2 0x271 JUMP JUMPDEST PUSH1 0x0 SLOAD PUSH1 0x20 DUP3 ADD MLOAD GT PUSH2 0x373 JUMPI PUSH1 0x40 MLOAD PUSH32 0x8C379A000000000000000000000000000000000000000000000000000000000 DUP2 MSTORE PUSH1 0x20 PUSH1 0x4 DUP3 ADD MSTORE PUSH1 0x7 PUSH1 0x24 DUP3 ADD MSTORE PUSH32 0x6F6C64204F545000000000000000000000000000000000000000000000000000 PUSH1 0x44 DUP3 ADD MSTORE PUSH1 0x64 ADD PUSH2 0x271 JUMP JUMPDEST PUSH1 0x20 DUP6 ADD MLOAD TIMESTAMP LT PUSH2 0x3E0 JUMPI PUSH1 0x40 MLOAD PUSH32 0x8C379A000000000000000000000000000000000000000000000000000000000 DUP2 MSTORE PUSH1 0x20 PUSH1 0x4 DUP3 ADD MSTORE PUSH1 0x7 PUSH1 0x24 DUP3 ADD MSTORE PUSH32 0x6F6C64204F545000000000000000000000000000000000000000000000000000 PUSH1 0x44 DUP3 ADD MSTORE PUSH1 0x64 ADD PUSH2 0x271 JUMP JUMPDEST PUSH1 0x1 PUSH1 0x0 DUP2 SLOAD PUSH2 0x3EF SWAP1 PUSH2 0xA82 JUMP JUMPDEST SWAP1 SWAP2 SSTORE POP PUSH1 0x20 ADD MLOAD PUSH1 0x0 SSTORE POP POP POP POP POP POP POP JUMP JUMPDEST DUP5 DUP5 DUP5 DUP5 PUSH32 0x0 PUSH20 0xFFFFFFFFFFFFFFFFFFFFFFFFFFFFFFFFFFFFFFFF AND PUSH4 0xF5C9D69E DUP6 DUP6 DUP6 DUP6 PUSH1 0x40 MLOAD DUP6 PUSH4 0xFFFFFFFF AND PUSH1 0xE0 SHL DUP2 MSTORE PUSH1 0x4 ADD PUSH2 0x466 SWAP5 SWAP4 SWAP3 SWAP2 SWAP1 PUSH2 0x9CE JUMP JUMPDEST PUSH1 0x20 PUSH1 0x40 MLOAD DUP1 DUP4 SUB DUP2 DUP7 GAS STATICCALL ISZERO DUP1 ISZERO PUSH2 0x483 JUMPI RETURNDATASIZE PUSH1 0x0 DUP1 RETURNDATACOPY RETURNDATASIZE PUSH1 0x0 REVERT JUMPDEST POP POP POP POP PUSH1 0x40 MLOAD RETURNDATASIZE PUSH1 0x1F NOT PUSH1 0x1F DUP3 ADD AND DUP3 ADD DUP1 PUSH1 0x40 MSTORE POP DUP2 ADD SWAP1 PUSH2 0x4A7 SWAP2 SWAP1 PUSH2 0xA59 JUMP JUMPDEST PUSH2 0x50D JUMPI PUSH1 0x40 MLOAD PUSH32 0x8C379A000000000000000000000000000000000000000000000000000000000 DUP2 MSTORE PUSH1 0x20 PUSH1 0x4 DUP3 ADD MSTORE PUSH1 0xD PUSH1 0x24 DUP3 ADD MSTORE PUSH32 0x696E76616C69642070726F6F6600000000000000000000000000000000000000 PUSH1 0x44 DUP3 ADD MSTORE PUSH1 0x64 ADD PUSH2 0x271 JUMP JUMPDEST DUP1 MLOAD PUSH32 0x0 EQ PUSH2 0x597 JUMPI PUSH1 0x40 MLOAD PUSH32 0x8C379A000000000000000000000000000000000000000000000000000000000 DUP2 MSTORE PUSH1 0x20 PUSH1 0x4 DUP3 ADD MSTORE PUSH1 0xC PUSH1 0x24 DUP3 ADD MSTORE PUSH32 0x696E76616C696420726F6F740000000000000000000000000000000000000000 PUSH1 0x44 DUP3 ADD MSTORE PUSH1 0x64 ADD PUSH2 0x271 JUMP JUMPDEST PUSH1 0x0 SLOAD PUSH1 0x20 DUP3 ADD MLOAD GT PUSH2 0x606 JUMPI PUSH1 0x40 MLOAD PUSH32 0x8C379A000000000000000000000000000000000000000000000000000000000 DUP2 MSTORE PUSH1 0x20 PUSH1 0x4 DUP3 ADD MSTORE PUSH1 0x7 PUSH1 0x24 DUP3 ADD MSTORE PUSH32 0x6F6C64204F545000000000000000000000000000000000000000000000000000 PUSH1 0x44 DUP3 ADD MSTORE PUSH1 0x64 ADD PUSH2 0x271 JUMP JUMPDEST PUSH1 0x1 PUSH1 0x0 DUP2 SLOAD PUSH2 0x615 SWAP1 PUSH2 0xA82 JUMP JUMPDEST SWAP1 SWAP2 SSTORE POP PUSH2 0x623 DUP6 CALLVALUE PUSH2 0x634 JUMP JUMPDEST PUSH1 0x20 ADD MLOAD PUSH1 0x0 SSTORE POP POP POP POP POP POP POP POP JUMP JUMPDEST DUP1 SELFBALANCE LT ISZERO PUSH2 0x6C4 JUMPI PUSH1 0x40 MLOAD PUSH32 0x8C379A000000000000000000000000000000000000000000000000000000000 DUP2 MSTORE PUSH1 0x20 PUSH1 0x4 DUP3 ADD MSTORE PUSH1 0x2F PUSH1 0x24 DUP3 ADD MSTORE PUSH32 0x53747265616D696E673A3A736166655472616E736665724554483A20496E7375 PUSH1 0x44 DUP3 ADD MSTORE PUSH32 0x6666696369656E7420616D6F756E740000000000000000000000000000000000 PUSH1 0x64 DUP3 ADD MSTORE PUSH1 0x84 ADD PUSH2 0x271 JUMP JUMPDEST PUSH1 0x40 DUP1 MLOAD PUSH1 0x0 DUP1 DUP3 MSTORE PUSH1 0x20 DUP3 ADD SWAP1 SWAP3 MSTORE PUSH20 0xFFFFFFFFFFFFFFFFFFFFFFFFFFFFFFFFFFFFFFFF DUP5 AND SWAP1 DUP4 SWAP1 PUSH1 0x40 MLOAD PUSH2 0x6FB SWAP2 SWAP1 PUSH2 0xAE1 JUMP JUMPDEST PUSH1 0x0 PUSH1 0x40 MLOAD DUP1 DUP4 SUB DUP2 DUP6 DUP8 GAS CALL SWAP3 POP POP POP RETURNDATASIZE DUP1 PUSH1 0x0 DUP2 EQ PUSH2 0x738 JUMPI PUSH1 0x40 MLOAD SWAP2 POP PUSH1 0x1F NOT PUSH1 0x3F RETURNDATASIZE ADD AND DUP3 ADD PUSH1 0x40 MSTORE RETURNDATASIZE DUP3 MSTORE RETURNDATASIZE PUSH1 0x0 PUSH1 0x20 DUP5 ADD RETURNDATACOPY PUSH2 0x73D JUMP JUMPDEST PUSH1 0x60 SWAP2 POP JUMPDEST POP POP SWAP1 POP DUP1 PUSH2 0x7CE JUMPI PUSH1 0x40 MLOAD PUSH32 0x8C379A000000000000000000000000000000000000000000000000000000000 DUP2 MSTORE PUSH1 0x20 PUSH1 0x4 DUP3 ADD MSTORE PUSH1 0x2F PUSH1 0x24 DUP3 ADD MSTORE PUSH32 0x53747265616D696E673A3A736166655472616E736665724554483A2045544820 PUSH1 0x44 DUP3 ADD MSTORE PUSH32 0x7472616E73666572206661696C65640000000000000000000000000000000000 PUSH1 0x64 DUP3 ADD MSTORE PUSH1 0x84 ADD PUSH2 0x271 JUMP JUMPDEST POP POP POP JUMP JUMPDEST PUSH1 0x40 DUP1 MLOAD SWAP1 DUP2 ADD PUSH8 0xFFFFFFFFFFFFFFFF DUP2 GT DUP3 DUP3 LT OR ISZERO PUSH2 0x81D JUMPI PUSH32 0x4E487B7100000000000000000000000000000000000000000000000000000000 PUSH1 0x0 MSTORE PUSH1 0x41 PUSH1 0x4 MSTORE PUSH1 0x24 PUSH1 0x0 REVERT JUMPDEST PUSH1 0x40 MSTORE SWAP1 JUMP JUMPDEST PUSH1 0x0 DUP3 PUSH1 0x1F DUP4 ADD SLT PUSH2 0x834 JUMPI PUSH1 0x0 DUP1 REVERT JUMPDEST PUSH2 0x83C PUSH2 0x7D3 JUMP JUMPDEST DUP1 PUSH1 0x40 DUP5 ADD DUP6 DUP2 GT ISZERO PUSH2 0x84E JUMPI PUSH1 0x0 DUP1 REVERT JUMPDEST DUP5 JUMPDEST DUP2 DUP2 LT ISZERO PUSH2 0x868 JUMPI DUP1 CALLDATALOAD DUP5 MSTORE PUSH1 0x20 SWAP4 DUP5 ADD SWAP4 ADD PUSH2 0x850 JUMP JUMPDEST POP SWAP1 SWAP6 SWAP5 POP POP POP POP POP JUMP JUMPDEST PUSH1 0x0 DUP3 PUSH1 0x1F DUP4 ADD SLT PUSH2 0x884 JUMPI PUSH1 0x0 DUP1 REVERT JUMPDEST PUSH2 0x88C PUSH2 0x7D3 JUMP JUMPDEST DUP1 PUSH1 0x80 DUP5 ADD DUP6 DUP2 GT ISZERO PUSH2 0x89E JUMPI PUSH1 0x0 DUP1 REVERT JUMPDEST DUP5 JUMPDEST DUP2 DUP2 LT ISZERO PUSH2 0x868 JUMPI PUSH2 0x8B2 DUP8 DUP3 PUSH2 0x823 JUMP JUMPDEST DUP5 MSTORE PUSH1 0x20 SWAP1 SWAP4 ADD SWAP3 PUSH1 0x40 ADD PUSH2 0x8A0 JUMP JUMPDEST PUSH1 0x0 DUP1 PUSH1 0x0 DUP1 PUSH2 0x140 DUP6 DUP8 SUB SLT ISZERO PUSH2 0x8D9 JUMPI PUSH1 0x0 DUP1 REVERT JUMPDEST PUSH2 0x8E3 DUP7 DUP7 PUSH2 0x823 JUMP JUMPDEST SWAP4 POP PUSH2 0x8F2 DUP7 PUSH1 0x40 DUP8 ADD PUSH2 0x873 JUMP JUMPDEST SWAP3 POP PUSH2 0x901 DUP7 PUSH1 0xC0 DUP8 ADD PUSH2 0x823 JUMP JUMPDEST SWAP2 POP PUSH2 0x911 DUP7 PUSH2 0x100 DUP8 ADD PUSH2 0x823 JUMP JUMPDEST SWAP1 POP SWAP3 SWAP6 SWAP2 SWAP5 POP SWAP3 POP JUMP JUMPDEST PUSH1 0x0 DUP1 PUSH1 0x0 DUP1 PUSH1 0x0 PUSH2 0x160 DUP7 DUP9 SUB SLT ISZERO PUSH2 0x935 JUMPI PUSH1 0x0 DUP1 REVERT JUMPDEST PUSH2 0x93F DUP8 DUP8 PUSH2 0x823 JUMP JUMPDEST SWAP5 POP PUSH2 0x94E DUP8 PUSH1 0x40 DUP9 ADD PUSH2 0x873 JUMP JUMPDEST SWAP4 POP PUSH2 0x95D DUP8 PUSH1 0xC0 DUP9 ADD PUSH2 0x823 JUMP JUMPDEST SWAP3 POP PUSH2 0x96D DUP8 PUSH2 0x100 DUP9 ADD PUSH2 0x823 JUMP JUMPDEST SWAP2 POP PUSH2 0x140 DUP7 ADD CALLDATALOAD PUSH20 0xFFFFFFFFFFFFFFFFFFFFFFFFFFFFFFFFFFFFFFFF DUP2 AND DUP2 EQ PUSH2 0x997 JUMPI PUSH1 0x0 DUP1 REVERT JUMPDEST DUP1 SWAP2 POP POP SWAP3 SWAP6 POP SWAP3 SWAP6 SWAP1 SWAP4 POP JUMP JUMPDEST DUP1 PUSH1 0x0 JUMPDEST PUSH1 0x2 DUP2 LT ISZERO PUSH2 0x9C8 JUMPI DUP2 MLOAD DUP5 MSTORE PUSH1 0x20 SWAP4 DUP5 ADD SWAP4 SWAP1 SWAP2 ADD SWAP1 PUSH1 0x1 ADD PUSH2 0x9A9 JUMP JUMPDEST POP POP POP POP JUMP JUMPDEST PUSH2 0x140 DUP2 ADD PUSH2 0x9DD DUP3 DUP8 PUSH2 0x9A5 JUMP JUMPDEST PUSH1 0x40 DUP1 DUP4 ADD DUP7 PUSH1 0x0 DUP1 JUMPDEST PUSH1 0x2 DUP1 DUP3 LT PUSH2 0x9F6 JUMPI POP PUSH2 0xA30 JUMP JUMPDEST DUP4 MLOAD DUP6 DUP5 JUMPDEST DUP4 DUP2 LT ISZERO PUSH2 0xA19 JUMPI DUP3 MLOAD DUP3 MSTORE PUSH1 0x20 SWAP3 DUP4 ADD SWAP3 SWAP1 SWAP2 ADD SWAP1 PUSH1 0x1 ADD PUSH2 0x9FB JUMP JUMPDEST POP POP POP SWAP4 DUP6 ADD SWAP4 POP PUSH1 0x20 SWAP3 SWAP1 SWAP3 ADD SWAP2 PUSH1 0x1 ADD PUSH2 0x9E7 JUMP JUMPDEST POP POP POP POP POP PUSH2 0xA42 PUSH1 0xC0 DUP4 ADD DUP6 PUSH2 0x9A5 JUMP JUMPDEST PUSH2 0xA50 PUSH2 0x100 DUP4 ADD DUP5 PUSH2 0x9A5 JUMP JUMPDEST SWAP6 SWAP5 POP POP POP POP POP JUMP JUMPDEST PUSH1 0x0 PUSH1 0x20 DUP3 DUP5 SUB SLT ISZERO PUSH2 0xA6B JUMPI PUSH1 0x0 DUP1 REVERT JUMPDEST DUP2 MLOAD DUP1 ISZERO ISZERO DUP2 EQ PUSH2 0xA7B JUMPI PUSH1 0x0 DUP1 REVERT JUMPDEST SWAP4 SWAP3 POP POP POP JUMP JUMPDEST PUSH1 0x0 PUSH32 0xFFFFFFFFFFFFFFFFFFFFFFFFFFFFFFFFFFFFFFFFFFFFFFFFFFFFFFFFFFFFFFFF DUP3 SUB PUSH2 0xADA JUMPI PUSH32 0x4E487B7100000000000000000000000000000000000000000000000000000000 PUSH1 0x0 MSTORE PUSH1 0x11 PUSH1 0x4 MSTORE PUSH1 0x24 PUSH1 0x0 REVERT JUMPDEST POP PUSH1 0x1 ADD SWAP1 JUMP JUMPDEST PUSH1 0x0 DUP3 MLOAD PUSH1 0x0 JUMPDEST DUP2 DUP2 LT ISZERO PUSH2 0xB02 JUMPI PUSH1 0x20 DUP2 DUP7 ADD DUP2 ADD MLOAD DUP6 DUP4 ADD MSTORE ADD PUSH2 0xAE8 JUMP JUMPDEST DUP2 DUP2 GT ISZERO PUSH2 0xB11 JUMPI PUSH1 0x0 DUP3 DUP6 ADD MSTORE JUMPDEST POP SWAP2 SWAP1 SWAP2 ADD SWAP3 SWAP2 POP POP JUMP INVALID LOG2 PUSH5 0x6970667358 0x22 SLT KECCAK256 INVALID SELFBALANCE CALLCODE PUSH12 0x4EFE3AAA87DB476CF7C1BC62 DIFFICULTY SWAP14 0xB5 BYTE 0xD0 AND MUL AND PUSH11 0x56913D7F6280AC64736F6C PUSH4 0x4300080F STOP CALLER "
        },
        "methodIdentifiers": {
          "blockApproval(uint256[2],uint256[2][2],uint256[2],uint256[2])": "15eacf13",
          "dummy()": "32e43a11",
          "lastUsedTime()": "bf98a6e4",
          "naiveApproval(uint256[2],uint256[2][2],uint256[2],uint256[2],address)": "cdf62e21",
          "root()": "ebf0c717",
          "verifierAddr()": "663ea2e2"
        }
      }
    }
  }
}