{
  "_format": "hh-sol-artifact-1",
  "contractName": "MyTouchIdWallet",
  "sourceName": "contracts/MyTouchIdWallet.sol",
  "abi": [
    {
      "inputs": [
        {
          "internalType": "contract IEntryPoint",
          "name": "anEntryPoint",
          "type": "address"
        },
        {
          "internalType": "address",
          "name": "anOwner",
          "type": "address"
        },
        {
          "internalType": "uint256[2]",
          "name": "_qValues",
          "type": "uint256[2]"
        },
        {
          "internalType": "address",
          "name": "_ellipticCurve",
          "type": "address"
        }
      ],
      "stateMutability": "nonpayable",
      "type": "constructor"
    },
    {
      "anonymous": false,
      "inputs": [
        {
          "indexed": true,
          "internalType": "address",
          "name": "oldEntryPoint",
          "type": "address"
        },
        {
          "indexed": true,
          "internalType": "address",
          "name": "newEntryPoint",
          "type": "address"
        }
      ],
      "name": "EntryPointChanged",
      "type": "event"
    },
    {
      "inputs": [],
      "name": "addDeposit",
      "outputs": [],
      "stateMutability": "payable",
      "type": "function"
    },
    {
      "inputs": [],
      "name": "entryPoint",
      "outputs": [
        {
          "internalType": "contract IEntryPoint",
          "name": "",
          "type": "address"
        }
      ],
      "stateMutability": "view",
      "type": "function"
    },
    {
      "inputs": [
        {
          "internalType": "address",
          "name": "dest",
          "type": "address"
        },
        {
          "internalType": "uint256",
          "name": "value",
          "type": "uint256"
        },
        {
          "internalType": "bytes[]",
          "name": "func",
          "type": "bytes[]"
        }
      ],
      "name": "exec",
      "outputs": [],
      "stateMutability": "nonpayable",
      "type": "function"
    },
    {
      "inputs": [
        {
          "internalType": "address[]",
          "name": "dest",
          "type": "address[]"
        },
        {
          "internalType": "bytes[]",
          "name": "func",
          "type": "bytes[]"
        }
      ],
      "name": "execBatch",
      "outputs": [],
      "stateMutability": "nonpayable",
      "type": "function"
    },
    {
      "inputs": [
        {
          "internalType": "address",
          "name": "dest",
          "type": "address"
        },
        {
          "internalType": "uint256",
          "name": "value",
          "type": "uint256"
        },
        {
          "internalType": "bytes",
          "name": "func",
          "type": "bytes"
        }
      ],
      "name": "execFromEntryPoint",
      "outputs": [],
      "stateMutability": "nonpayable",
      "type": "function"
    },
    {
      "inputs": [],
      "name": "getDeposit",
      "outputs": [
        {
          "internalType": "uint256",
          "name": "",
          "type": "uint256"
        }
      ],
      "stateMutability": "view",
      "type": "function"
    },
    {
      "inputs": [],
      "name": "lastUsedTime",
      "outputs": [
        {
          "internalType": "uint256",
          "name": "",
          "type": "uint256"
        }
      ],
      "stateMutability": "view",
      "type": "function"
    },
    {
      "inputs": [],
      "name": "nonce",
      "outputs": [
        {
          "internalType": "uint256",
          "name": "",
          "type": "uint256"
        }
      ],
      "stateMutability": "view",
      "type": "function"
    },
    {
      "inputs": [
        {
          "internalType": "address",
          "name": "",
          "type": "address"
        },
        {
          "internalType": "address",
          "name": "",
          "type": "address"
        },
        {
          "internalType": "uint256",
          "name": "",
          "type": "uint256"
        },
        {
          "internalType": "bytes",
          "name": "",
          "type": "bytes"
        }
      ],
      "name": "onERC721Received",
      "outputs": [
        {
          "internalType": "bytes4",
          "name": "",
          "type": "bytes4"
        }
      ],
      "stateMutability": "nonpayable",
      "type": "function"
    },
    {
      "inputs": [],
      "name": "owner",
      "outputs": [
        {
          "internalType": "address",
          "name": "",
          "type": "address"
        }
      ],
      "stateMutability": "view",
      "type": "function"
    },
    {
      "inputs": [
        {
          "internalType": "address payable",
          "name": "dest",
          "type": "address"
        },
        {
          "internalType": "uint256",
          "name": "amount",
          "type": "uint256"
        }
      ],
      "name": "transfer",
      "outputs": [],
      "stateMutability": "nonpayable",
      "type": "function"
    },
    {
      "inputs": [
        {
          "internalType": "address",
          "name": "newEntryPoint",
          "type": "address"
        }
      ],
      "name": "updateEntryPoint",
      "outputs": [],
      "stateMutability": "nonpayable",
      "type": "function"
    },
    {
      "inputs": [
        {
          "components": [
            {
              "internalType": "address",
              "name": "sender",
              "type": "address"
            },
            {
              "internalType": "uint256",
              "name": "nonce",
              "type": "uint256"
            },
            {
              "internalType": "bytes",
              "name": "initCode",
              "type": "bytes"
            },
            {
              "internalType": "bytes",
              "name": "callData",
              "type": "bytes"
            },
            {
              "internalType": "uint256",
              "name": "callGasLimit",
              "type": "uint256"
            },
            {
              "internalType": "uint256",
              "name": "verificationGasLimit",
              "type": "uint256"
            },
            {
              "internalType": "uint256",
              "name": "preVerificationGas",
              "type": "uint256"
            },
            {
              "internalType": "uint256",
              "name": "maxFeePerGas",
              "type": "uint256"
            },
            {
              "internalType": "uint256",
              "name": "maxPriorityFeePerGas",
              "type": "uint256"
            },
            {
              "internalType": "bytes",
              "name": "paymasterAndData",
              "type": "bytes"
            },
            {
              "internalType": "bytes",
              "name": "signature",
              "type": "bytes"
            }
          ],
          "internalType": "struct UserOperation",
          "name": "userOp",
          "type": "tuple"
        },
        {
          "internalType": "bytes32",
          "name": "requestId",
          "type": "bytes32"
        },
        {
          "internalType": "address",
          "name": "aggregator",
          "type": "address"
        },
        {
          "internalType": "uint256",
          "name": "missingWalletFunds",
          "type": "uint256"
        }
      ],
      "name": "validateUserOp",
      "outputs": [],
      "stateMutability": "nonpayable",
      "type": "function"
    },
    {
      "inputs": [
        {
          "internalType": "address payable",
          "name": "withdrawAddress",
          "type": "address"
        },
        {
          "internalType": "uint256",
          "name": "amount",
          "type": "uint256"
        }
      ],
      "name": "withdrawDepositTo",
      "outputs": [],
      "stateMutability": "nonpayable",
      "type": "function"
    },
    {
      "stateMutability": "payable",
      "type": "receive"
    }
  ],
  "bytecode": "0x608060405260006001553480156200001657600080fd5b50604051620015b0380380620015b0833981016040819052620000399162000155565b600580546001600160a01b0319166001600160a01b0386811691909117909155600080546001600160601b03166c01000000000000000000000000928616929092029190911790556200008f60028381620000ba565b50600480546001600160a01b0319166001600160a01b03929092169190911790555062000217915050565b8260028101928215620000eb579160200282015b82811115620000eb578251825591602001919060010190620000ce565b50620000f9929150620000fd565b5090565b5b80821115620000f95760008155600101620000fe565b6001600160a01b03811681146200012a57600080fd5b50565b80516200013a8162000114565b919050565b634e487b7160e01b600052604160045260246000fd5b60008060008060a085870312156200016c57600080fd5b8451620001798162000114565b809450506020808601516200018e8162000114565b9350605f86018713620001a057600080fd5b604080519081016001600160401b0381118282101715620001c557620001c56200013f565b604052806080880189811115620001db57600080fd5b604089015b81811015620001f95780518352918401918401620001e0565b5082955062000208816200012d565b94505050505092959194509250565b61138980620002276000396000f3fe6080604052600436106100e15760003560e01c80638da5cb5b1161007f578063b0d691fe11610059578063b0d691fe146102c0578063bf98a6e4146102eb578063c399ec8814610301578063d0cb75fa1461031657600080fd5b80638da5cb5b14610211578063a9059cbb14610273578063affed0e01461029357600080fd5b80633ef91dfb116100bb5780633ef91dfb146101a95780634a58db19146101c95780634d44560d146101d157806380c5c7d0146101f157600080fd5b80630825d1fc146100ed578063150b7a021461010f5780631b71bb6e1461018957600080fd5b366100e857005b600080fd5b3480156100f957600080fd5b5061010d610108366004610c69565b610336565b005b34801561011b57600080fd5b5061015361012a366004610d77565b7f150b7a0200000000000000000000000000000000000000000000000000000000949350505050565b6040517fffffffff0000000000000000000000000000000000000000000000000000000090911681526020015b60405180910390f35b34801561019557600080fd5b5061010d6101a4366004610e59565b610377565b3480156101b557600080fd5b5061010d6101c4366004610ec9565b61038b565b61010d610441565b3480156101dd57600080fd5b5061010d6101ec366004610f25565b6104cc565b3480156101fd57600080fd5b5061010d61020c366004610f51565b61057b565b34801561021d57600080fd5b5060005461024e906c01000000000000000000000000900473ffffffffffffffffffffffffffffffffffffffff1681565b60405173ffffffffffffffffffffffffffffffffffffffff9091168152602001610180565b34801561027f57600080fd5b5061010d61028e366004610f25565b6105bc565b34801561029f57600080fd5b506000546bffffffffffffffffffffffff165b604051908152602001610180565b3480156102cc57600080fd5b5060055473ffffffffffffffffffffffffffffffffffffffff1661024e565b3480156102f757600080fd5b506102b260015481565b34801561030d57600080fd5b506102b261060c565b34801561032257600080fd5b5061010d610331366004610fda565b6106c2565b61033e61079a565b61034984848461081d565b610356604085018561103a565b90506000036103685761036884610966565b61037181610a2e565b50505050565b61037f610a99565b61038881610aa1565b50565b610393610b2f565b600080600080858560018181106103ac576103ac61109f565b90506020028101906103be919061103a565b8101906103cb919061111e565b93509350935093506104378888888860008181106103eb576103eb61109f565b90506020028101906103fd919061103a565b8080601f016020809104026020016040519081016040528093929190818152602001838380828437600092019190915250610bca92505050565b5050505050505050565b600061046260055473ffffffffffffffffffffffffffffffffffffffff1690565b73ffffffffffffffffffffffffffffffffffffffff163460405160006040518083038185875af1925050503d80600081146104b9576040519150601f19603f3d011682016040523d82523d6000602084013e6104be565b606091505b505090508061038857600080fd5b6104d4610b2f565b60055473ffffffffffffffffffffffffffffffffffffffff166040517f205c287800000000000000000000000000000000000000000000000000000000815273ffffffffffffffffffffffffffffffffffffffff848116600483015260248201849052919091169063205c287890604401600060405180830381600087803b15801561055f57600080fd5b505af1158015610573573d6000803e3d6000fd5b505050505050565b610371848484848080601f016020809104026020016040519081016040528093929190818152602001838380828437600092019190915250610bca92505050565b6105c4610b2f565b60405173ffffffffffffffffffffffffffffffffffffffff83169082156108fc029083906000818181858888f19350505050158015610607573d6000803e3d6000fd5b505050565b600061062d60055473ffffffffffffffffffffffffffffffffffffffff1690565b6040517f70a0823100000000000000000000000000000000000000000000000000000000815230600482015273ffffffffffffffffffffffffffffffffffffffff91909116906370a0823190602401602060405180830381865afa158015610699573d6000803e3d6000fd5b505050506040513d601f19601f820116820180604052508101906106bd91906111be565b905090565b6106ca610b2f565b828114610738576040517f08c379a000000000000000000000000000000000000000000000000000000000815260206004820152601360248201527f77726f6e67206172726179206c656e677468730000000000000000000000000060448201526064015b60405180910390fd5b60005b83811015610793576107818585838181106107585761075861109f565b905060200201602081019061076d9190610e59565b60008585858181106103eb576103eb61109f565b8061078b81611206565b91505061073b565b5050505050565b60055473ffffffffffffffffffffffffffffffffffffffff16331461081b576040517f08c379a000000000000000000000000000000000000000000000000000000000815260206004820152601b60248201527f77616c6c65743a206e6f742066726f6d20456e747279506f696e740000000000604482015260640161072f565b565b6000808061082f61014087018761103a565b81019061083c919061123e565b600480546040805180820182528681526020810186905290517f04e960d700000000000000000000000000000000000000000000000000000000815295985093965091945060009373ffffffffffffffffffffffffffffffffffffffff909216926304e960d7926108b3928792916002910161126a565b602060405180830381865afa1580156108d0573d6000803e3d6000fd5b505050506040513d601f19601f820116820180604052508101906108f491906112cb565b90508061095d576040517f08c379a000000000000000000000000000000000000000000000000000000000815260206004820152601d60248201527f5369676e617475726520766572696669636174696f6e206661696c6564000000604482015260640161072f565b50505050505050565b600080546020830135916bffffffffffffffffffffffff909116908061098b836112ed565b91906101000a8154816bffffffffffffffffffffffff02191690836bffffffffffffffffffffffff1602179055506bffffffffffffffffffffffff1614610388576040517f08c379a000000000000000000000000000000000000000000000000000000000815260206004820152601560248201527f77616c6c65743a20696e76616c6964206e6f6e63650000000000000000000000604482015260640161072f565b80156103885760405160009033907fffffffffffffffffffffffffffffffffffffffffffffffffffffffffffffffff90849084818181858888f193505050503d8060008114610793576040519150601f19603f3d011682016040523d82523d6000602084013e610793565b61081b610b2f565b60055460405173ffffffffffffffffffffffffffffffffffffffff8084169216907f450909c1478d09248269d4ad4fa8cba61ca3f50faed58c7aedefa51c7f62b83a90600090a3600580547fffffffffffffffffffffffff00000000000000000000000000000000000000001673ffffffffffffffffffffffffffffffffffffffff92909216919091179055565b6000546c01000000000000000000000000900473ffffffffffffffffffffffffffffffffffffffff16331480610b6457503330145b61081b576040517f08c379a000000000000000000000000000000000000000000000000000000000815260206004820152600a60248201527f6f6e6c79206f776e657200000000000000000000000000000000000000000000604482015260640161072f565b6000808473ffffffffffffffffffffffffffffffffffffffff168484604051610bf39190611318565b60006040518083038185875af1925050503d8060008114610c30576040519150601f19603f3d011682016040523d82523d6000602084013e610c35565b606091505b50915091508161079357805160208201fd5b73ffffffffffffffffffffffffffffffffffffffff8116811461038857600080fd5b60008060008060808587031215610c7f57600080fd5b843567ffffffffffffffff811115610c9657600080fd5b85016101608188031215610ca957600080fd5b9350602085013592506040850135610cc081610c47565b9396929550929360600135925050565b7f4e487b7100000000000000000000000000000000000000000000000000000000600052604160045260246000fd5b6040805190810167ffffffffffffffff81118282101715610d2257610d22610cd0565b60405290565b604051601f82017fffffffffffffffffffffffffffffffffffffffffffffffffffffffffffffffe016810167ffffffffffffffff81118282101715610d6f57610d6f610cd0565b604052919050565b60008060008060808587031215610d8d57600080fd5b8435610d9881610c47565b9350602085810135610da981610c47565b935060408601359250606086013567ffffffffffffffff80821115610dcd57600080fd5b818801915088601f830112610de157600080fd5b813581811115610df357610df3610cd0565b610e23847fffffffffffffffffffffffffffffffffffffffffffffffffffffffffffffffe0601f84011601610d28565b91508082528984828501011115610e3957600080fd5b808484018584013760008482840101525080935050505092959194509250565b600060208284031215610e6b57600080fd5b8135610e7681610c47565b9392505050565b60008083601f840112610e8f57600080fd5b50813567ffffffffffffffff811115610ea757600080fd5b6020830191508360208260051b8501011115610ec257600080fd5b9250929050565b60008060008060608587031215610edf57600080fd5b8435610eea81610c47565b935060208501359250604085013567ffffffffffffffff811115610f0d57600080fd5b610f1987828801610e7d565b95989497509550505050565b60008060408385031215610f3857600080fd5b8235610f4381610c47565b946020939093013593505050565b60008060008060608587031215610f6757600080fd5b8435610f7281610c47565b935060208501359250604085013567ffffffffffffffff80821115610f9657600080fd5b818701915087601f830112610faa57600080fd5b813581811115610fb957600080fd5b886020828501011115610fcb57600080fd5b95989497505060200194505050565b60008060008060408587031215610ff057600080fd5b843567ffffffffffffffff8082111561100857600080fd5b61101488838901610e7d565b9096509450602087013591508082111561102d57600080fd5b50610f1987828801610e7d565b60008083357fffffffffffffffffffffffffffffffffffffffffffffffffffffffffffffffe184360301811261106f57600080fd5b83018035915067ffffffffffffffff82111561108a57600080fd5b602001915036819003821315610ec257600080fd5b7f4e487b7100000000000000000000000000000000000000000000000000000000600052603260045260246000fd5b600082601f8301126110df57600080fd5b6110e7610cff565b8060408401858111156110f957600080fd5b845b818110156111135780358452602093840193016110fb565b509095945050505050565b600080600080610140858703121561113557600080fd5b61113f86866110ce565b9350604086605f87011261115257600080fd5b61115a610cff565b8060c088018981111561116c57600080fd5b8389015b81811015611191576111828b826110ce565b84526020909301928401611170565b5081965061119f8a826110ce565b9550505050506111b38661010087016110ce565b905092959194509250565b6000602082840312156111d057600080fd5b5051919050565b7f4e487b7100000000000000000000000000000000000000000000000000000000600052601160045260246000fd5b60007fffffffffffffffffffffffffffffffffffffffffffffffffffffffffffffffff8203611237576112376111d7565b5060010190565b60008060006060848603121561125357600080fd5b505081359360208301359350604090920135919050565b83815260a0810160208083018560005b60028110156112975781518352918301919083019060010161127a565b505050606083018460005b60028110156112bf578154835291830191600191820191016112a2565b50505050949350505050565b6000602082840312156112dd57600080fd5b81518015158114610e7657600080fd5b60006bffffffffffffffffffffffff80831681810361130e5761130e6111d7565b6001019392505050565b6000825160005b81811015611339576020818601810151858301520161131f565b81811115611348576000828501525b50919091019291505056fea2646970667358221220f0b34a3061b4f7a08c94297ea0d2ad16d739e61da588fc20d0d232715f138d1e64736f6c634300080f0033",
  "linkReferences": {},
  "deployedLinkReferences": {}
}