{
  "_format": "hh-sol-artifact-1",
  "contractName": "MyTouchIdWallet",
  "sourceName": "contracts/MyTouchIdWallet.sol",
  "abi": [
    {
      "inputs": [
        {
          "internalType": "contract IEntryPoint",
          "name": "anEntryPoint",
          "type": "address"
        },
        {
          "internalType": "address",
          "name": "anOwner",
          "type": "address"
        },
        {
          "internalType": "uint256[2]",
          "name": "_qValues",
          "type": "uint256[2]"
        },
        {
          "internalType": "address",
          "name": "_ellipticCurve",
          "type": "address"
        }
      ],
      "stateMutability": "nonpayable",
      "type": "constructor"
    },
    {
      "anonymous": false,
      "inputs": [
        {
          "indexed": true,
          "internalType": "address",
          "name": "oldEntryPoint",
          "type": "address"
        },
        {
          "indexed": true,
          "internalType": "address",
          "name": "newEntryPoint",
          "type": "address"
        }
      ],
      "name": "EntryPointChanged",
      "type": "event"
    },
    {
      "inputs": [],
      "name": "addDeposit",
      "outputs": [],
      "stateMutability": "payable",
      "type": "function"
    },
    {
      "inputs": [],
      "name": "entryPoint",
      "outputs": [
        {
          "internalType": "contract IEntryPoint",
          "name": "",
          "type": "address"
        }
      ],
      "stateMutability": "view",
      "type": "function"
    },
    {
      "inputs": [
        {
          "internalType": "address",
          "name": "dest",
          "type": "address"
        },
        {
          "internalType": "uint256",
          "name": "value",
          "type": "uint256"
        },
        {
          "internalType": "bytes[]",
          "name": "func",
          "type": "bytes[]"
        }
      ],
      "name": "exec",
      "outputs": [],
      "stateMutability": "nonpayable",
      "type": "function"
    },
    {
      "inputs": [
        {
          "internalType": "address[]",
          "name": "dest",
          "type": "address[]"
        },
        {
          "internalType": "bytes[]",
          "name": "func",
          "type": "bytes[]"
        }
      ],
      "name": "execBatch",
      "outputs": [],
      "stateMutability": "nonpayable",
      "type": "function"
    },
    {
      "inputs": [
        {
          "internalType": "address",
          "name": "dest",
          "type": "address"
        },
        {
          "internalType": "uint256",
          "name": "value",
          "type": "uint256"
        },
        {
          "internalType": "bytes",
          "name": "func",
          "type": "bytes"
        }
      ],
      "name": "execFromEntryPoint",
      "outputs": [],
      "stateMutability": "nonpayable",
      "type": "function"
    },
    {
      "inputs": [],
      "name": "getDeposit",
      "outputs": [
        {
          "internalType": "uint256",
          "name": "",
          "type": "uint256"
        }
      ],
      "stateMutability": "view",
      "type": "function"
    },
    {
      "inputs": [],
      "name": "nonce",
      "outputs": [
        {
          "internalType": "uint256",
          "name": "",
          "type": "uint256"
        }
      ],
      "stateMutability": "view",
      "type": "function"
    },
    {
      "inputs": [],
      "name": "owner",
      "outputs": [
        {
          "internalType": "address",
          "name": "",
          "type": "address"
        }
      ],
      "stateMutability": "view",
      "type": "function"
    },
    {
      "inputs": [
        {
          "internalType": "address payable",
          "name": "dest",
          "type": "address"
        },
        {
          "internalType": "uint256",
          "name": "amount",
          "type": "uint256"
        }
      ],
      "name": "transfer",
      "outputs": [],
      "stateMutability": "nonpayable",
      "type": "function"
    },
    {
      "inputs": [
        {
          "internalType": "address",
          "name": "newEntryPoint",
          "type": "address"
        }
      ],
      "name": "updateEntryPoint",
      "outputs": [],
      "stateMutability": "nonpayable",
      "type": "function"
    },
    {
      "inputs": [
        {
          "components": [
            {
              "internalType": "address",
              "name": "sender",
              "type": "address"
            },
            {
              "internalType": "uint256",
              "name": "nonce",
              "type": "uint256"
            },
            {
              "internalType": "bytes",
              "name": "initCode",
              "type": "bytes"
            },
            {
              "internalType": "bytes",
              "name": "callData",
              "type": "bytes"
            },
            {
              "internalType": "uint256",
              "name": "callGasLimit",
              "type": "uint256"
            },
            {
              "internalType": "uint256",
              "name": "verificationGasLimit",
              "type": "uint256"
            },
            {
              "internalType": "uint256",
              "name": "preVerificationGas",
              "type": "uint256"
            },
            {
              "internalType": "uint256",
              "name": "maxFeePerGas",
              "type": "uint256"
            },
            {
              "internalType": "uint256",
              "name": "maxPriorityFeePerGas",
              "type": "uint256"
            },
            {
              "internalType": "bytes",
              "name": "paymasterAndData",
              "type": "bytes"
            },
            {
              "internalType": "bytes",
              "name": "signature",
              "type": "bytes"
            },
            {
              "internalType": "uint256",
              "name": "r",
              "type": "uint256"
            },
            {
              "internalType": "uint256",
              "name": "s",
              "type": "uint256"
            },
            {
              "internalType": "bytes32",
              "name": "message",
              "type": "bytes32"
            }
          ],
          "internalType": "struct UserOperation",
          "name": "userOp",
          "type": "tuple"
        },
        {
          "internalType": "bytes32",
          "name": "requestId",
          "type": "bytes32"
        },
        {
          "internalType": "address",
          "name": "aggregator",
          "type": "address"
        },
        {
          "internalType": "uint256",
          "name": "missingWalletFunds",
          "type": "uint256"
        }
      ],
      "name": "validateUserOp",
      "outputs": [],
      "stateMutability": "nonpayable",
      "type": "function"
    },
    {
      "inputs": [
        {
          "internalType": "address payable",
          "name": "withdrawAddress",
          "type": "address"
        },
        {
          "internalType": "uint256",
          "name": "amount",
          "type": "uint256"
        }
      ],
      "name": "withdrawDepositTo",
      "outputs": [],
      "stateMutability": "nonpayable",
      "type": "function"
    },
    {
      "stateMutability": "payable",
      "type": "receive"
    }
  ],
  "bytecode": "0x60806040523480156200001157600080fd5b506040516200106838038062001068833981016040819052620000349162000151565b600580546001600160a01b0319166001600160a01b0386811691909117909155600080546001600160601b03166c01000000000000000000000000928616929092029190911790556200008b6001836002620000b6565b50600380546001600160a01b0319166001600160a01b03929092169190911790555062000213915050565b8260028101928215620000e7579160200282015b82811115620000e7578251825591602001919060010190620000ca565b50620000f5929150620000f9565b5090565b5b80821115620000f55760008155600101620000fa565b6001600160a01b03811681146200012657600080fd5b50565b8051620001368162000110565b919050565b634e487b7160e01b600052604160045260246000fd5b60008060008060a085870312156200016857600080fd5b8451620001758162000110565b809450506020808601516200018a8162000110565b9350605f860187136200019c57600080fd5b604080519081016001600160401b0381118282101715620001c157620001c16200013b565b604052806080880189811115620001d757600080fd5b604089015b81811015620001f55780518352918401918401620001dc565b50829550620002048162000129565b94505050505092959194509250565b610e4580620002236000396000f3fe6080604052600436106100ab5760003560e01c8063a9059cbb11610064578063a9059cbb14610185578063a97cd4bb146101a5578063affed0e0146101c5578063b0d691fe146101ed578063c399ec881461020b578063d0cb75fa1461022057600080fd5b80631b71bb6e146100b75780633ef91dfb146100d95780634a58db19146100f95780634d44560d1461010157806380c5c7d0146101215780638da5cb5b1461014157600080fd5b366100b257005b600080fd5b3480156100c357600080fd5b506100d76100d23660046109ff565b610240565b005b3480156100e557600080fd5b506100d76100f4366004610a6f565b610254565b6100d76102c6565b34801561010d57600080fd5b506100d761011c366004610acb565b610337565b34801561012d57600080fd5b506100d761013c366004610af7565b6103b3565b34801561014d57600080fd5b5060005461016890600160601b90046001600160a01b031681565b6040516001600160a01b0390911681526020015b60405180910390f35b34801561019157600080fd5b506100d76101a0366004610acb565b6103fc565b3480156101b157600080fd5b506100d76101c0366004610b80565b61043f565b3480156101d157600080fd5b506000546001600160601b03165b60405190815260200161017c565b3480156101f957600080fd5b506005546001600160a01b0316610168565b34801561021757600080fd5b506101df610479565b34801561022c57600080fd5b506100d761023b366004610be7565b6104fc565b6102486105b0565b610251816105ba565b50565b61025c610616565b6102c084848484600081811061027457610274610c47565b90506020028101906102869190610c5d565b8080601f01602080910402602001604051908101604052809392919081815260200183838082843760009201919091525061066e92505050565b50505050565b60006102da6005546001600160a01b031690565b6001600160a01b03163460405160006040518083038185875af1925050503d8060008114610324576040519150601f19603f3d011682016040523d82523d6000602084013e610329565b606091505b505090508061025157600080fd5b61033f610616565b6005546001600160a01b031660405163040b850f60e31b81526001600160a01b03848116600483015260248201849052919091169063205c287890604401600060405180830381600087803b15801561039757600080fd5b505af11580156103ab573d6000803e3d6000fd5b505050505050565b6103bb6106de565b6102c0848484848080601f01602080910402602001604051908101604052809392919081815260200183838082843760009201919091525061066e92505050565b610404610616565b6040516001600160a01b0383169082156108fc029083906000818181858888f1935050505015801561043a573d6000803e3d6000fd5b505050565b6104476106de565b610452848484610738565b61045f6040850185610c5d565b1515905061047057610470846108c5565b6102c08161099d565b600061048d6005546001600160a01b031690565b6040516370a0823160e01b81523060048201526001600160a01b0391909116906370a0823190602401602060405180830381865afa1580156104d3573d6000803e3d6000fd5b505050506040513d601f19601f820116820180604052508101906104f79190610ca4565b905090565b610504610616565b82811461054e5760405162461bcd60e51b815260206004820152601360248201527277726f6e67206172726179206c656e6774687360681b60448201526064015b60405180910390fd5b60005b838110156105a95761059785858381811061056e5761056e610c47565b905060200201602081019061058391906109ff565b600085858581811061027457610274610c47565b806105a181610cd3565b915050610551565b5050505050565b6105b8610616565b565b6005546040516001600160a01b038084169216907f450909c1478d09248269d4ad4fa8cba61ca3f50faed58c7aedefa51c7f62b83a90600090a3600580546001600160a01b0319166001600160a01b0392909216919091179055565b600054600160601b90046001600160a01b031633148061063557503330145b6105b85760405162461bcd60e51b815260206004820152600a60248201526937b7363c9037bbb732b960b11b6044820152606401610545565b600080846001600160a01b0316848460405161068a9190610cee565b60006040518083038185875af1925050503d80600081146106c7576040519150601f19603f3d011682016040523d82523d6000602084013e6106cc565b606091505b5091509150816105a957805160208201fd5b6005546001600160a01b031633146105b85760405162461bcd60e51b815260206004820152601b60248201527f77616c6c65743a206e6f742066726f6d20456e747279506f696e7400000000006044820152606401610545565b6000808061074a610140870187610c5d565b8101906107579190610d29565b91945092509050600461076e610140880188610c5d565b60405161077c929190610d55565b9081526040519081900360200190205460ff16156107e65760405162461bcd60e51b815260206004820152602160248201527f52657665727465642064756520746f207369676e6174757265207265706c61796044820152602160f81b6064820152608401610545565b6003546040805180820182528581526020810185905290516304e960d760e01b81526000926001600160a01b0316916304e960d79161082c918691600190600401610d65565b602060405180830381865afa158015610849573d6000803e3d6000fd5b505050506040513d601f19601f8201168201806040525081019061086d9190610dc6565b9050806108bc5760405162461bcd60e51b815260206004820152601d60248201527f5369676e617475726520766572696669636174696f6e206661696c65640000006044820152606401610545565b50505050505050565b600080546020830135916001600160601b0390911690806108e583610de8565b91906101000a8154816001600160601b0302191690836001600160601b031602179055506001600160601b0316146109575760405162461bcd60e51b815260206004820152601560248201527477616c6c65743a20696e76616c6964206e6f6e636560581b6044820152606401610545565b60016004610969610140840184610c5d565b604051610977929190610d55565b908152604051908190036020019020805460ff9290921660ff1990921691909117905550565b801561025157604051600090339060001990849084818181858888f193505050503d80600081146105a9576040519150601f19603f3d011682016040523d82523d6000602084013e6105a9565b6001600160a01b038116811461025157600080fd5b600060208284031215610a1157600080fd5b8135610a1c816109ea565b9392505050565b60008083601f840112610a3557600080fd5b50813567ffffffffffffffff811115610a4d57600080fd5b6020830191508360208260051b8501011115610a6857600080fd5b9250929050565b60008060008060608587031215610a8557600080fd5b8435610a90816109ea565b935060208501359250604085013567ffffffffffffffff811115610ab357600080fd5b610abf87828801610a23565b95989497509550505050565b60008060408385031215610ade57600080fd5b8235610ae9816109ea565b946020939093013593505050565b60008060008060608587031215610b0d57600080fd5b8435610b18816109ea565b935060208501359250604085013567ffffffffffffffff80821115610b3c57600080fd5b818701915087601f830112610b5057600080fd5b813581811115610b5f57600080fd5b886020828501011115610b7157600080fd5b95989497505060200194505050565b60008060008060808587031215610b9657600080fd5b843567ffffffffffffffff811115610bad57600080fd5b85016101c08188031215610bc057600080fd5b9350602085013592506040850135610bd7816109ea565b9396929550929360600135925050565b60008060008060408587031215610bfd57600080fd5b843567ffffffffffffffff80821115610c1557600080fd5b610c2188838901610a23565b90965094506020870135915080821115610c3a57600080fd5b50610abf87828801610a23565b634e487b7160e01b600052603260045260246000fd5b6000808335601e19843603018112610c7457600080fd5b83018035915067ffffffffffffffff821115610c8f57600080fd5b602001915036819003821315610a6857600080fd5b600060208284031215610cb657600080fd5b5051919050565b634e487b7160e01b600052601160045260246000fd5b6000600019821415610ce757610ce7610cbd565b5060010190565b6000825160005b81811015610d0f5760208186018101518583015201610cf5565b81811115610d1e576000828501525b509190910192915050565b600080600060608486031215610d3e57600080fd5b505081359360208301359350604090920135919050565b8183823760009101908152919050565b83815260a0810160208083018560005b6002811015610d9257815183529183019190830190600101610d75565b505050606083018460005b6002811015610dba57815483529183019160019182019101610d9d565b50505050949350505050565b600060208284031215610dd857600080fd5b81518015158114610a1c57600080fd5b60006001600160601b0380831681811415610e0557610e05610cbd565b600101939250505056fea2646970667358221220ac26532e329abe4b6a411a578818547eb6733e1c67a919d90097c5887f30db4364736f6c634300080c0033",
  "linkReferences": {},
  "deployedLinkReferences": {}
}