{
  "_format": "hh-sol-artifact-1",
  "contractName": "NewTouchIdAccountDeployer",
  "sourceName": "contracts/samples/NewTouchIdAccountDeployer.sol",
  "abi": [
    {
      "inputs": [
        {
          "internalType": "contract IEntryPoint",
          "name": "_entryPoint",
          "type": "address"
        }
      ],
      "stateMutability": "nonpayable",
      "type": "constructor"
    },
    {
      "inputs": [],
      "name": "accountImplementation",
      "outputs": [
        {
          "internalType": "contract NewTouchIdAccount",
          "name": "",
          "type": "address"
        }
      ],
      "stateMutability": "view",
      "type": "function"
    },
    {
      "inputs": [
        {
          "internalType": "address",
          "name": "owner",
          "type": "address"
        },
        {
          "internalType": "uint256[2]",
          "name": "_qValues",
          "type": "uint256[2]"
        },
        {
          "internalType": "address",
          "name": "_ellipticCurve",
          "type": "address"
        },
        {
          "internalType": "uint256",
          "name": "salt",
          "type": "uint256"
        }
      ],
      "name": "createAccount",
      "outputs": [
        {
          "internalType": "contract NewTouchIdAccount",
          "name": "ret",
          "type": "address"
        }
      ],
      "stateMutability": "nonpayable",
      "type": "function"
    },
    {
      "inputs": [
        {
          "internalType": "address",
          "name": "owner",
          "type": "address"
        },
        {
          "internalType": "uint256[2]",
          "name": "_qValues",
          "type": "uint256[2]"
        },
        {
          "internalType": "address",
          "name": "_ellipticCurve",
          "type": "address"
        },
        {
          "internalType": "uint256",
          "name": "salt",
          "type": "uint256"
        }
      ],
      "name": "getAddress",
      "outputs": [
        {
          "internalType": "address",
          "name": "",
          "type": "address"
        }
      ],
      "stateMutability": "view",
      "type": "function"
    }
  ],
  "bytecode": "0x60a060405234801561001057600080fd5b506040516131ff3803806131ff83398101604081905261002f91610088565b8060405161003c9061007b565b6001600160a01b039091168152602001604051809103906000f080158015610068573d6000803e3d6000fd5b506001600160a01b0316608052506100b8565b61233680610ec983390190565b60006020828403121561009a57600080fd5b81516001600160a01b03811681146100b157600080fd5b9392505050565b608051610dea6100df60003960008181604b0152818160eb01526102d80152610dea6000f3fe608060405234801561001057600080fd5b50600436106100415760003560e01c806311464fbe146100465780634105260814610096578063c050f860146100a9575b600080fd5b61006d7f000000000000000000000000000000000000000000000000000000000000000081565b60405173ffffffffffffffffffffffffffffffffffffffff909116815260200160405180910390f35b61006d6100a4366004610429565b6100bc565b61006d6100b7366004610429565b61029b565b60006102908260001b604051806020016100d5906103c3565b6020820181038252601f19601f820116604052507f000000000000000000000000000000000000000000000000000000000000000088888860405160240161011f939291906104cf565b604080517fffffffffffffffffffffffffffffffffffffffffffffffffffffffffffffffe0818403018152918152602080830180517bffffffffffffffffffffffffffffffffffffffffffffffffffffffff167f78cf75d70000000000000000000000000000000000000000000000000000000017905290516101a493929101610559565b604080517fffffffffffffffffffffffffffffffffffffffffffffffffffffffffffffffe0818403018152908290526101e092916020016105c7565b604080517fffffffffffffffffffffffffffffffffffffffffffffffffffffffffffffffe081840301815282825280516020918201207fff00000000000000000000000000000000000000000000000000000000000000848301527fffffffffffffffffffffffffffffffffffffffff0000000000000000000000003060601b16602185015260358401949094526055808401949094528151808403909401845260759092019052815191012090565b90505b949350505050565b6000806102aa868686866100bc565b905073ffffffffffffffffffffffffffffffffffffffff81163b80156102d257509050610293565b8360001b7f000000000000000000000000000000000000000000000000000000000000000088888860405160240161030c939291906104cf565b604080517fffffffffffffffffffffffffffffffffffffffffffffffffffffffffffffffe08184030181529181526020820180517bffffffffffffffffffffffffffffffffffffffffffffffffffffffff167f78cf75d7000000000000000000000000000000000000000000000000000000001790525161038c906103c3565b610397929190610559565b8190604051809103906000f59050801580156103b7573d6000803e3d6000fd5b50979650505050505050565b6107be80620005f783390190565b803573ffffffffffffffffffffffffffffffffffffffff811681146103f557600080fd5b919050565b7f4e487b7100000000000000000000000000000000000000000000000000000000600052604160045260246000fd5b60008060008060a0858703121561043f57600080fd5b610448856103d1565b9350602086603f87011261045b57600080fd5b6040516040810181811067ffffffffffffffff8211171561047e5761047e6103fa565b60405280606088018981111561049357600080fd5b8389015b818110156104ae5780358352918401918401610497565b508296506104bb816103d1565b979a96995096976080013596505050505050565b73ffffffffffffffffffffffffffffffffffffffff8481168252608082019060208084018660005b6002811015610514578151835291830191908301906001016104f7565b50505050808416606084015250949350505050565b60005b8381101561054457818101518382015260200161052c565b83811115610553576000848401525b50505050565b73ffffffffffffffffffffffffffffffffffffffff831681526040602082015260008251806040840152610594816060850160208701610529565b601f017fffffffffffffffffffffffffffffffffffffffffffffffffffffffffffffffe016919091016060019392505050565b600083516105d9818460208801610529565b8351908301906105ed818360208801610529565b0194935050505056fe60806040526040516107be3803806107be83398101604081905261002291610314565b61002e82826000610035565b5050610431565b61003e8361006b565b60008251118061004b5750805b156100665761006483836100ab60201b6100291760201c565b505b505050565b610074816100d7565b6040516001600160a01b038216907fbc7cd75a20ee27fd9adebab32041f755214dbc6bffa90cc0225b39da2e5c2d3b90600090a250565b60606100d08383604051806060016040528060278152602001610797602791396101a9565b9392505050565b6100ea8161028760201b6100551760201c565b6101515760405162461bcd60e51b815260206004820152602d60248201527f455243313936373a206e657720696d706c656d656e746174696f6e206973206e60448201526c1bdd08184818dbdb9d1c9858dd609a1b60648201526084015b60405180910390fd5b806101887f360894a13ba1a3210667c828492db98dca3e2076cc3735a920a3ca505d382bbc60001b61029660201b6100711760201c565b80546001600160a01b0319166001600160a01b039290921691909117905550565b60606001600160a01b0384163b6102115760405162461bcd60e51b815260206004820152602660248201527f416464726573733a2064656c65676174652063616c6c20746f206e6f6e2d636f6044820152651b9d1c9858dd60d21b6064820152608401610148565b600080856001600160a01b03168560405161022c91906103e2565b600060405180830381855af49150503d8060008114610267576040519150601f19603f3d011682016040523d82523d6000602084013e61026c565b606091505b50909250905061027d828286610299565b9695505050505050565b6001600160a01b03163b151590565b90565b606083156102a85750816100d0565b8251156102b85782518084602001fd5b8160405162461bcd60e51b815260040161014891906103fe565b634e487b7160e01b600052604160045260246000fd5b60005b838110156103035781810151838201526020016102eb565b838111156100645750506000910152565b6000806040838503121561032757600080fd5b82516001600160a01b038116811461033e57600080fd5b60208401519092506001600160401b038082111561035b57600080fd5b818501915085601f83011261036f57600080fd5b815181811115610381576103816102d2565b604051601f8201601f19908116603f011681019083821181831017156103a9576103a96102d2565b816040528281528860208487010111156103c257600080fd5b6103d38360208301602088016102e8565b80955050505050509250929050565b600082516103f48184602087016102e8565b9190910192915050565b602081526000825180602084015261041d8160408501602087016102e8565b601f01601f19169190910160400192915050565b610357806104406000396000f3fe60806040523661001357610011610017565b005b6100115b610027610022610074565b6100b9565b565b606061004e83836040518060600160405280602781526020016102fb602791396100dd565b9392505050565b73ffffffffffffffffffffffffffffffffffffffff163b151590565b90565b60006100b47f360894a13ba1a3210667c828492db98dca3e2076cc3735a920a3ca505d382bbc5473ffffffffffffffffffffffffffffffffffffffff1690565b905090565b3660008037600080366000845af43d6000803e8080156100d8573d6000f35b3d6000fd5b606073ffffffffffffffffffffffffffffffffffffffff84163b610188576040517f08c379a000000000000000000000000000000000000000000000000000000000815260206004820152602660248201527f416464726573733a2064656c65676174652063616c6c20746f206e6f6e2d636f60448201527f6e7472616374000000000000000000000000000000000000000000000000000060648201526084015b60405180910390fd5b6000808573ffffffffffffffffffffffffffffffffffffffff16856040516101b0919061028d565b600060405180830381855af49150503d80600081146101eb576040519150601f19603f3d011682016040523d82523d6000602084013e6101f0565b606091505b509150915061020082828661020a565b9695505050505050565b6060831561021957508161004e565b8251156102295782518084602001fd5b816040517f08c379a000000000000000000000000000000000000000000000000000000000815260040161017f91906102a9565b60005b83811015610278578181015183820152602001610260565b83811115610287576000848401525b50505050565b6000825161029f81846020870161025d565b9190910192915050565b60208152600082518060208401526102c881604085016020870161025d565b601f017fffffffffffffffffffffffffffffffffffffffffffffffffffffffffffffffe016919091016040019291505056fe416464726573733a206c6f772d6c6576656c2064656c65676174652063616c6c206661696c6564a264697066735822122060d4a5158209d03c36f809682517d998848f0c0bded4793e053bd58f022e264c64736f6c634300080f0033416464726573733a206c6f772d6c6576656c2064656c65676174652063616c6c206661696c6564a2646970667358221220406572267cd41f7cbc780e2f6e25a0a3750e2c75674e22757c4e3da8a82268af64736f6c634300080f003360c0604052306080523480156200001557600080fd5b506040516200233638038062002336833981016040819052620000389162000118565b6001600160a01b03811660a0526200004f62000056565b506200014a565b600054610100900460ff1615620000c35760405162461bcd60e51b815260206004820152602760248201527f496e697469616c697a61626c653a20636f6e747261637420697320696e697469604482015266616c697a696e6760c81b606482015260840160405180910390fd5b60005460ff908116101562000116576000805460ff191660ff9081179091556040519081527f7f26b83ff96e1f2b6a682f133852f6798a09c465da95921460cefb38474024989060200160405180910390a15b565b6000602082840312156200012b57600080fd5b81516001600160a01b03811681146200014357600080fd5b9392505050565b60805160a051612180620001b6600039600081816102bc0152818161070f015281816107b601528181610d2a01528181610e99015281816111f501526115ef015260008181610470015281816105200152818161087a0152818161092a0152610a7301526121806000f3fe6080604052600436106100f75760003560e01c806378cf75d71161008a578063b0d691fe11610059578063b0d691fe146102ad578063b61d27f6146102e0578063c399ec8814610300578063d0cb75fa1461031557600080fd5b806378cf75d7146101e857806380c5c7d0146102085780638da5cb5b14610228578063affed0e01461028a57600080fd5b80634a58db19116100c65780634a58db19146101985780634d44560d146101a05780634f1ef286146101c057806352d1902d146101d357600080fd5b806318dfb3c7146101035780633659cfe6146101255780633a871cdd146101455780633ef91dfb1461017857600080fd5b366100fe57005b600080fd5b34801561010f57600080fd5b5061012361011e3660046119f1565b610335565b005b34801561013157600080fd5b50610123610140366004611a7f565b610459565b34801561015157600080fd5b50610165610160366004611a9c565b61065e565b6040519081526020015b60405180910390f35b34801561018457600080fd5b50610123610193366004611af0565b6106a3565b61012361070d565b3480156101ac57600080fd5b506101236101bb366004611b40565b6107ac565b6101236101ce366004611c13565b610863565b3480156101df57600080fd5b50610165610a59565b3480156101f457600080fd5b50610123610203366004611d29565b610b45565b34801561021457600080fd5b50610123610223366004611d73565b610cdd565b34801561023457600080fd5b50600154610265906c01000000000000000000000000900473ffffffffffffffffffffffffffffffffffffffff1681565b60405173ffffffffffffffffffffffffffffffffffffffff909116815260200161016f565b34801561029657600080fd5b506001546bffffffffffffffffffffffff16610165565b3480156102b957600080fd5b507f0000000000000000000000000000000000000000000000000000000000000000610265565b3480156102ec57600080fd5b506101236102fb366004611d73565b610d1e565b34801561030c57600080fd5b50610165610d26565b34801561032157600080fd5b506101236103303660046119f1565b610dde565b61033d610e81565b8281146103ab576040517f08c379a000000000000000000000000000000000000000000000000000000000815260206004820152601360248201527f77726f6e67206172726179206c656e677468730000000000000000000000000060448201526064015b60405180910390fd5b60005b83811015610452576104408585838181106103cb576103cb611dfc565b90506020020160208101906103e09190611a7f565b60008585858181106103f4576103f4611dfc565b90506020028101906104069190611e2b565b8080601f016020809104026020016040519081016040528093929190818152602001838380828437600092019190915250610f5492505050565b8061044a81611ebf565b9150506103ae565b5050505050565b73ffffffffffffffffffffffffffffffffffffffff7f000000000000000000000000000000000000000000000000000000000000000016300361051e576040517f08c379a000000000000000000000000000000000000000000000000000000000815260206004820152602c60248201527f46756e6374696f6e206d7573742062652063616c6c6564207468726f7567682060448201527f64656c656761746563616c6c000000000000000000000000000000000000000060648201526084016103a2565b7f000000000000000000000000000000000000000000000000000000000000000073ffffffffffffffffffffffffffffffffffffffff166105937f360894a13ba1a3210667c828492db98dca3e2076cc3735a920a3ca505d382bbc5473ffffffffffffffffffffffffffffffffffffffff1690565b73ffffffffffffffffffffffffffffffffffffffff1614610636576040517f08c379a000000000000000000000000000000000000000000000000000000000815260206004820152602c60248201527f46756e6374696f6e206d7573742062652063616c6c6564207468726f7567682060448201527f6163746976652070726f7879000000000000000000000000000000000000000060648201526084016103a2565b61063f81610fd1565b6040805160008082526020820190925261065b91839190610fd9565b50565b60006106686111dd565b610672848461127c565b90506106816040850185611e2b565b90506000036106935761069384611377565b61069c82611440565b9392505050565b6106ab6114ab565b600080600080858560018181106106c4576106c4611dfc565b90506020028101906106d69190611e2b565b8101906106e39190611ef7565b93509350935093506107038888888860008181106103f4576103f4611dfc565b5050505050505050565b7f00000000000000000000000000000000000000000000000000000000000000006040517fb760faf900000000000000000000000000000000000000000000000000000000815230600482015273ffffffffffffffffffffffffffffffffffffffff919091169063b760faf99034906024016000604051808303818588803b15801561079857600080fd5b505af1158015610452573d6000803e3d6000fd5b6107b46114ab565b7f00000000000000000000000000000000000000000000000000000000000000006040517f205c287800000000000000000000000000000000000000000000000000000000815273ffffffffffffffffffffffffffffffffffffffff848116600483015260248201849052919091169063205c287890604401600060405180830381600087803b15801561084757600080fd5b505af115801561085b573d6000803e3d6000fd5b505050505050565b73ffffffffffffffffffffffffffffffffffffffff7f0000000000000000000000000000000000000000000000000000000000000000163003610928576040517f08c379a000000000000000000000000000000000000000000000000000000000815260206004820152602c60248201527f46756e6374696f6e206d7573742062652063616c6c6564207468726f7567682060448201527f64656c656761746563616c6c000000000000000000000000000000000000000060648201526084016103a2565b7f000000000000000000000000000000000000000000000000000000000000000073ffffffffffffffffffffffffffffffffffffffff1661099d7f360894a13ba1a3210667c828492db98dca3e2076cc3735a920a3ca505d382bbc5473ffffffffffffffffffffffffffffffffffffffff1690565b73ffffffffffffffffffffffffffffffffffffffff1614610a40576040517f08c379a000000000000000000000000000000000000000000000000000000000815260206004820152602c60248201527f46756e6374696f6e206d7573742062652063616c6c6564207468726f7567682060448201527f6163746976652070726f7879000000000000000000000000000000000000000060648201526084016103a2565b610a4982610fd1565b610a5582826001610fd9565b5050565b60003073ffffffffffffffffffffffffffffffffffffffff7f00000000000000000000000000000000000000000000000000000000000000001614610b20576040517f08c379a000000000000000000000000000000000000000000000000000000000815260206004820152603860248201527f555550535570677261646561626c653a206d757374206e6f742062652063616c60448201527f6c6564207468726f7567682064656c656761746563616c6c000000000000000060648201526084016103a2565b507f360894a13ba1a3210667c828492db98dca3e2076cc3735a920a3ca505d382bbc90565b600054610100900460ff1615808015610b655750600054600160ff909116105b80610b7f5750303b158015610b7f575060005460ff166001145b610c0b576040517f08c379a000000000000000000000000000000000000000000000000000000000815260206004820152602e60248201527f496e697469616c697a61626c653a20636f6e747261637420697320616c72656160448201527f647920696e697469616c697a656400000000000000000000000000000000000060648201526084016103a2565b600080547fffffffffffffffffffffffffffffffffffffffffffffffffffffffffffffff001660011790558015610c6957600080547fffffffffffffffffffffffffffffffffffffffffffffffffffffffffffff00ff166101001790555b610c74848484611546565b8015610cd757600080547fffffffffffffffffffffffffffffffffffffffffffffffffffffffffffff00ff169055604051600181527f7f26b83ff96e1f2b6a682f133852f6798a09c465da95921460cefb38474024989060200160405180910390a15b50505050565b610cd7848484848080601f016020809104026020016040519081016040528093929190818152602001838380828437600092019190915250610f5492505050565b610cdd610e81565b60007f00000000000000000000000000000000000000000000000000000000000000006040517f70a0823100000000000000000000000000000000000000000000000000000000815230600482015273ffffffffffffffffffffffffffffffffffffffff91909116906370a0823190602401602060405180830381865afa158015610db5573d6000803e3d6000fd5b505050506040513d601f19601f82011682018060405250810190610dd99190611f97565b905090565b610de66114ab565b828114610e4f576040517f08c379a000000000000000000000000000000000000000000000000000000000815260206004820152601360248201527f77726f6e67206172726179206c656e677468730000000000000000000000000060448201526064016103a2565b60005b8381101561045257610e6f8585838181106103cb576103cb611dfc565b80610e7981611ebf565b915050610e52565b3373ffffffffffffffffffffffffffffffffffffffff7f0000000000000000000000000000000000000000000000000000000000000000161480610eec57506001546c01000000000000000000000000900473ffffffffffffffffffffffffffffffffffffffff1633145b610f52576040517f08c379a000000000000000000000000000000000000000000000000000000000815260206004820181905260248201527f6163636f756e743a206e6f74204f776e6572206f7220456e747279506f696e7460448201526064016103a2565b565b6000808473ffffffffffffffffffffffffffffffffffffffff168484604051610f7d9190611fdc565b60006040518083038185875af1925050503d8060008114610fba576040519150601f19603f3d011682016040523d82523d6000602084013e610fbf565b606091505b50915091508161045257805160208201fd5b61065b6114ab565b7f4910fdfa16fed3260ed0e7147f7cc6da11a60208b5b9406d12a635614ffd91435460ff16156110115761100c8361163b565b505050565b8273ffffffffffffffffffffffffffffffffffffffff166352d1902d6040518163ffffffff1660e01b8152600401602060405180830381865afa925050508015611096575060408051601f3d9081017fffffffffffffffffffffffffffffffffffffffffffffffffffffffffffffffe016820190925261109391810190611f97565b60015b611122576040517f08c379a000000000000000000000000000000000000000000000000000000000815260206004820152602e60248201527f45524331393637557067726164653a206e657720696d706c656d656e7461746960448201527f6f6e206973206e6f74205555505300000000000000000000000000000000000060648201526084016103a2565b7f360894a13ba1a3210667c828492db98dca3e2076cc3735a920a3ca505d382bbc81146111d1576040517f08c379a000000000000000000000000000000000000000000000000000000000815260206004820152602960248201527f45524331393637557067726164653a20756e737570706f727465642070726f7860448201527f6961626c6555554944000000000000000000000000000000000000000000000060648201526084016103a2565b5061100c838383611745565b3373ffffffffffffffffffffffffffffffffffffffff7f00000000000000000000000000000000000000000000000000000000000000001614610f52576040517f08c379a000000000000000000000000000000000000000000000000000000000815260206004820152601c60248201527f6163636f756e743a206e6f742066726f6d20456e747279506f696e740000000060448201526064016103a2565b600080808061128f610140870187611e2b565b81019061129c9190611ff8565b600480546040805180820182528681526020810186905290517f04e960d700000000000000000000000000000000000000000000000000000000815295985093965091945060009373ffffffffffffffffffffffffffffffffffffffff909216926304e960d7926113139287929160029101612024565b602060405180830381865afa158015611330573d6000803e3d6000fd5b505050506040513d601f19601f820116820180604052508101906113549190612085565b905080611368576001945050505050611371565b60009450505050505b92915050565b600180546020830135916bffffffffffffffffffffffff90911690600061139d836120a7565b91906101000a8154816bffffffffffffffffffffffff02191690836bffffffffffffffffffffffff1602179055506bffffffffffffffffffffffff161461065b576040517f08c379a000000000000000000000000000000000000000000000000000000000815260206004820152601660248201527f6163636f756e743a20696e76616c6964206e6f6e63650000000000000000000060448201526064016103a2565b801561065b5760405160009033907fffffffffffffffffffffffffffffffffffffffffffffffffffffffffffffffff90849084818181858888f193505050503d8060008114610452576040519150601f19603f3d011682016040523d82523d6000602084013e610452565b6001546c01000000000000000000000000900473ffffffffffffffffffffffffffffffffffffffff163314806114e057503330145b610f52576040517f08c379a000000000000000000000000000000000000000000000000000000000815260206004820152600a60248201527f6f6e6c79206f776e65720000000000000000000000000000000000000000000060448201526064016103a2565b600180546bffffffffffffffffffffffff166c0100000000000000000000000073ffffffffffffffffffffffffffffffffffffffff86160217905561158d60028381611952565b50600480547fffffffffffffffffffffffff00000000000000000000000000000000000000001673ffffffffffffffffffffffffffffffffffffffff838116919091179091556001546040516c010000000000000000000000009091048216917f000000000000000000000000000000000000000000000000000000000000000016907f47e55c76e7a6f1fd8996a1da8008c1ea29699cca35e7bcd057f2dec313b6e5de90600090a3505050565b73ffffffffffffffffffffffffffffffffffffffff81163b6116df576040517f08c379a000000000000000000000000000000000000000000000000000000000815260206004820152602d60248201527f455243313936373a206e657720696d706c656d656e746174696f6e206973206e60448201527f6f74206120636f6e74726163740000000000000000000000000000000000000060648201526084016103a2565b7f360894a13ba1a3210667c828492db98dca3e2076cc3735a920a3ca505d382bbc80547fffffffffffffffffffffffff00000000000000000000000000000000000000001673ffffffffffffffffffffffffffffffffffffffff92909216919091179055565b61174e8361176a565b60008251118061175b5750805b1561100c57610cd783836117b7565b6117738161163b565b60405173ffffffffffffffffffffffffffffffffffffffff8216907fbc7cd75a20ee27fd9adebab32041f755214dbc6bffa90cc0225b39da2e5c2d3b90600090a250565b606061069c838360405180606001604052806027815260200161212460279139606073ffffffffffffffffffffffffffffffffffffffff84163b61187d576040517f08c379a000000000000000000000000000000000000000000000000000000000815260206004820152602660248201527f416464726573733a2064656c65676174652063616c6c20746f206e6f6e2d636f60448201527f6e7472616374000000000000000000000000000000000000000000000000000060648201526084016103a2565b6000808573ffffffffffffffffffffffffffffffffffffffff16856040516118a59190611fdc565b600060405180830381855af49150503d80600081146118e0576040519150601f19603f3d011682016040523d82523d6000602084013e6118e5565b606091505b50915091506118f58282866118ff565b9695505050505050565b6060831561190e57508161069c565b82511561191e5782518084602001fd5b816040517f08c379a00000000000000000000000000000000000000000000000000000000081526004016103a291906120d2565b8260028101928215611980579160200282015b82811115611980578251825591602001919060010190611965565b5061198c929150611990565b5090565b5b8082111561198c5760008155600101611991565b60008083601f8401126119b757600080fd5b50813567ffffffffffffffff8111156119cf57600080fd5b6020830191508360208260051b85010111156119ea57600080fd5b9250929050565b60008060008060408587031215611a0757600080fd5b843567ffffffffffffffff80821115611a1f57600080fd5b611a2b888389016119a5565b90965094506020870135915080821115611a4457600080fd5b50611a51878288016119a5565b95989497509550505050565b73ffffffffffffffffffffffffffffffffffffffff8116811461065b57600080fd5b600060208284031215611a9157600080fd5b813561069c81611a5d565b600080600060608486031215611ab157600080fd5b833567ffffffffffffffff811115611ac857600080fd5b84016101608187031215611adb57600080fd5b95602085013595506040909401359392505050565b60008060008060608587031215611b0657600080fd5b8435611b1181611a5d565b935060208501359250604085013567ffffffffffffffff811115611b3457600080fd5b611a51878288016119a5565b60008060408385031215611b5357600080fd5b8235611b5e81611a5d565b946020939093013593505050565b7f4e487b7100000000000000000000000000000000000000000000000000000000600052604160045260246000fd5b6040805190810167ffffffffffffffff81118282101715611bbe57611bbe611b6c565b60405290565b604051601f82017fffffffffffffffffffffffffffffffffffffffffffffffffffffffffffffffe016810167ffffffffffffffff81118282101715611c0b57611c0b611b6c565b604052919050565b60008060408385031215611c2657600080fd5b8235611c3181611a5d565b915060208381013567ffffffffffffffff80821115611c4f57600080fd5b818601915086601f830112611c6357600080fd5b813581811115611c7557611c75611b6c565b611ca5847fffffffffffffffffffffffffffffffffffffffffffffffffffffffffffffffe0601f84011601611bc4565b91508082528784828501011115611cbb57600080fd5b80848401858401376000848284010152508093505050509250929050565b600082601f830112611cea57600080fd5b611cf2611b9b565b806040840185811115611d0457600080fd5b845b81811015611d1e578035845260209384019301611d06565b509095945050505050565b600080600060808486031215611d3e57600080fd5b8335611d4981611a5d565b9250611d588560208601611cd9565b91506060840135611d6881611a5d565b809150509250925092565b60008060008060608587031215611d8957600080fd5b8435611d9481611a5d565b935060208501359250604085013567ffffffffffffffff80821115611db857600080fd5b818701915087601f830112611dcc57600080fd5b813581811115611ddb57600080fd5b886020828501011115611ded57600080fd5b95989497505060200194505050565b7f4e487b7100000000000000000000000000000000000000000000000000000000600052603260045260246000fd5b60008083357fffffffffffffffffffffffffffffffffffffffffffffffffffffffffffffffe1843603018112611e6057600080fd5b83018035915067ffffffffffffffff821115611e7b57600080fd5b6020019150368190038213156119ea57600080fd5b7f4e487b7100000000000000000000000000000000000000000000000000000000600052601160045260246000fd5b60007fffffffffffffffffffffffffffffffffffffffffffffffffffffffffffffffff8203611ef057611ef0611e90565b5060010190565b6000806000806101408587031215611f0e57600080fd5b611f188686611cd9565b9350604086605f870112611f2b57600080fd5b611f33611b9b565b8060c0880189811115611f4557600080fd5b8389015b81811015611f6a57611f5b8b82611cd9565b84526020909301928401611f49565b50819650611f788a82611cd9565b955050505050611f8c866101008701611cd9565b905092959194509250565b600060208284031215611fa957600080fd5b5051919050565b60005b83811015611fcb578181015183820152602001611fb3565b83811115610cd75750506000910152565b60008251611fee818460208701611fb0565b9190910192915050565b60008060006060848603121561200d57600080fd5b505081359360208301359350604090920135919050565b83815260a0810160208083018560005b600281101561205157815183529183019190830190600101612034565b505050606083018460005b60028110156120795781548352918301916001918201910161205c565b50505050949350505050565b60006020828403121561209757600080fd5b8151801515811461069c57600080fd5b60006bffffffffffffffffffffffff8083168181036120c8576120c8611e90565b6001019392505050565b60208152600082518060208401526120f1816040850160208701611fb0565b601f017fffffffffffffffffffffffffffffffffffffffffffffffffffffffffffffffe016919091016040019291505056fe416464726573733a206c6f772d6c6576656c2064656c65676174652063616c6c206661696c6564a264697066735822122015ab36eda19127db849c21cf5538750afcbdbf0ca92c5a83a16bb6a6d028099e64736f6c634300080f0033",
  "linkReferences": {},
  "deployedLinkReferences": {}
}