{
  "_format": "hh-sol-artifact-1",
  "contractName": "VerifyingPaymaster",
  "sourceName": "contracts/samples/VerifyingPaymaster.sol",
  "abi": [
    {
      "inputs": [
        {
          "internalType": "contract IEntryPoint",
          "name": "_entryPoint",
          "type": "address"
        },
        {
          "internalType": "address",
          "name": "_verifyingSigner",
          "type": "address"
        }
      ],
      "stateMutability": "nonpayable",
      "type": "constructor"
    },
    {
      "anonymous": false,
      "inputs": [
        {
          "indexed": true,
          "internalType": "address",
          "name": "previousOwner",
          "type": "address"
        },
        {
          "indexed": true,
          "internalType": "address",
          "name": "newOwner",
          "type": "address"
        }
      ],
      "name": "OwnershipTransferred",
      "type": "event"
    },
    {
      "inputs": [
        {
          "internalType": "uint32",
          "name": "unstakeDelaySec",
          "type": "uint32"
        }
      ],
      "name": "addStake",
      "outputs": [],
      "stateMutability": "payable",
      "type": "function"
    },
    {
      "inputs": [],
      "name": "deposit",
      "outputs": [],
      "stateMutability": "payable",
      "type": "function"
    },
    {
      "inputs": [],
      "name": "entryPoint",
      "outputs": [
        {
          "internalType": "contract IEntryPoint",
          "name": "",
          "type": "address"
        }
      ],
      "stateMutability": "view",
      "type": "function"
    },
    {
      "inputs": [],
      "name": "getDeposit",
      "outputs": [
        {
          "internalType": "uint256",
          "name": "",
          "type": "uint256"
        }
      ],
      "stateMutability": "view",
      "type": "function"
    },
    {
      "inputs": [
        {
          "components": [
            {
              "internalType": "address",
              "name": "sender",
              "type": "address"
            },
            {
              "internalType": "uint256",
              "name": "nonce",
              "type": "uint256"
            },
            {
              "internalType": "bytes",
              "name": "initCode",
              "type": "bytes"
            },
            {
              "internalType": "bytes",
              "name": "callData",
              "type": "bytes"
            },
            {
              "internalType": "uint256",
              "name": "callGasLimit",
              "type": "uint256"
            },
            {
              "internalType": "uint256",
              "name": "verificationGasLimit",
              "type": "uint256"
            },
            {
              "internalType": "uint256",
              "name": "preVerificationGas",
              "type": "uint256"
            },
            {
              "internalType": "uint256",
              "name": "maxFeePerGas",
              "type": "uint256"
            },
            {
              "internalType": "uint256",
              "name": "maxPriorityFeePerGas",
              "type": "uint256"
            },
            {
              "internalType": "bytes",
              "name": "paymasterAndData",
              "type": "bytes"
            },
            {
              "internalType": "bytes",
              "name": "signature",
              "type": "bytes"
            }
          ],
          "internalType": "struct UserOperation",
          "name": "userOp",
          "type": "tuple"
        },
        {
          "internalType": "uint48",
          "name": "validUntil",
          "type": "uint48"
        },
        {
          "internalType": "uint48",
          "name": "validAfter",
          "type": "uint48"
        }
      ],
      "name": "getHash",
      "outputs": [
        {
          "internalType": "bytes32",
          "name": "",
          "type": "bytes32"
        }
      ],
      "stateMutability": "view",
      "type": "function"
    },
    {
      "inputs": [],
      "name": "owner",
      "outputs": [
        {
          "internalType": "address",
          "name": "",
          "type": "address"
        }
      ],
      "stateMutability": "view",
      "type": "function"
    },
    {
      "inputs": [
        {
          "internalType": "bytes",
          "name": "paymasterAndData",
          "type": "bytes"
        }
      ],
      "name": "parsePaymasterAndData",
      "outputs": [
        {
          "internalType": "uint48",
          "name": "validUntil",
          "type": "uint48"
        },
        {
          "internalType": "uint48",
          "name": "validAfter",
          "type": "uint48"
        },
        {
          "internalType": "bytes",
          "name": "signature",
          "type": "bytes"
        }
      ],
      "stateMutability": "pure",
      "type": "function"
    },
    {
      "inputs": [
        {
          "internalType": "enum IPaymaster.PostOpMode",
          "name": "mode",
          "type": "uint8"
        },
        {
          "internalType": "bytes",
          "name": "context",
          "type": "bytes"
        },
        {
          "internalType": "uint256",
          "name": "actualGasCost",
          "type": "uint256"
        }
      ],
      "name": "postOp",
      "outputs": [],
      "stateMutability": "nonpayable",
      "type": "function"
    },
    {
      "inputs": [],
      "name": "renounceOwnership",
      "outputs": [],
      "stateMutability": "nonpayable",
      "type": "function"
    },
    {
      "inputs": [
        {
          "internalType": "address",
          "name": "",
          "type": "address"
        }
      ],
      "name": "senderNonce",
      "outputs": [
        {
          "internalType": "uint256",
          "name": "",
          "type": "uint256"
        }
      ],
      "stateMutability": "view",
      "type": "function"
    },
    {
      "inputs": [
        {
          "internalType": "address",
          "name": "newOwner",
          "type": "address"
        }
      ],
      "name": "transferOwnership",
      "outputs": [],
      "stateMutability": "nonpayable",
      "type": "function"
    },
    {
      "inputs": [],
      "name": "unlockStake",
      "outputs": [],
      "stateMutability": "nonpayable",
      "type": "function"
    },
    {
      "inputs": [
        {
          "components": [
            {
              "internalType": "address",
              "name": "sender",
              "type": "address"
            },
            {
              "internalType": "uint256",
              "name": "nonce",
              "type": "uint256"
            },
            {
              "internalType": "bytes",
              "name": "initCode",
              "type": "bytes"
            },
            {
              "internalType": "bytes",
              "name": "callData",
              "type": "bytes"
            },
            {
              "internalType": "uint256",
              "name": "callGasLimit",
              "type": "uint256"
            },
            {
              "internalType": "uint256",
              "name": "verificationGasLimit",
              "type": "uint256"
            },
            {
              "internalType": "uint256",
              "name": "preVerificationGas",
              "type": "uint256"
            },
            {
              "internalType": "uint256",
              "name": "maxFeePerGas",
              "type": "uint256"
            },
            {
              "internalType": "uint256",
              "name": "maxPriorityFeePerGas",
              "type": "uint256"
            },
            {
              "internalType": "bytes",
              "name": "paymasterAndData",
              "type": "bytes"
            },
            {
              "internalType": "bytes",
              "name": "signature",
              "type": "bytes"
            }
          ],
          "internalType": "struct UserOperation",
          "name": "userOp",
          "type": "tuple"
        },
        {
          "internalType": "bytes32",
          "name": "userOpHash",
          "type": "bytes32"
        },
        {
          "internalType": "uint256",
          "name": "maxCost",
          "type": "uint256"
        }
      ],
      "name": "validatePaymasterUserOp",
      "outputs": [
        {
          "internalType": "bytes",
          "name": "context",
          "type": "bytes"
        },
        {
          "internalType": "uint256",
          "name": "validationData",
          "type": "uint256"
        }
      ],
      "stateMutability": "nonpayable",
      "type": "function"
    },
    {
      "inputs": [],
      "name": "verifyingSigner",
      "outputs": [
        {
          "internalType": "address",
          "name": "",
          "type": "address"
        }
      ],
      "stateMutability": "view",
      "type": "function"
    },
    {
      "inputs": [
        {
          "internalType": "address payable",
          "name": "withdrawAddress",
          "type": "address"
        }
      ],
      "name": "withdrawStake",
      "outputs": [],
      "stateMutability": "nonpayable",
      "type": "function"
    },
    {
      "inputs": [
        {
          "internalType": "address payable",
          "name": "withdrawAddress",
          "type": "address"
        },
        {
          "internalType": "uint256",
          "name": "amount",
          "type": "uint256"
        }
      ],
      "name": "withdrawTo",
      "outputs": [],
      "stateMutability": "nonpayable",
      "type": "function"
    }
  ],
  "bytecode": "0x60c06040523480156200001157600080fd5b50604051620017ed380380620017ed8339810160408190526200003491620000c2565b81620000403362000059565b6001600160a01b039081166080521660a0525062000101565b600080546001600160a01b038381166001600160a01b0319831681178455604051919092169283917f8be0079c531659141344cd1fd0a4f28419497f9722a3daafe3b4186f6b6457e09190a35050565b6001600160a01b0381168114620000bf57600080fd5b50565b60008060408385031215620000d657600080fd5b8251620000e381620000a9565b6020840151909250620000f681620000a9565b809150509250929050565b60805160a05161168e6200015f6000396000818161013f0152610ca20152600081816102880152818161038601528181610450015281816105730152818161063a015281816106ca0152818161077d0152610a04015261168e6000f3fe6080604052600436106100f35760003560e01c8063a9a234091161008a578063c399ec8811610059578063c399ec88146102df578063d0e30db0146102f4578063f2fde38b146102fc578063f465c77e1461031c57600080fd5b8063a9a2340914610256578063b0d691fe14610276578063bb9fe6bf146102aa578063c23a5cea146102bf57600080fd5b80638da5cb5b116100c65780638da5cb5b146101a057806394d4ad60146101cb57806394e1fc19146101fb5780639c90b4431461022957600080fd5b80630396cb60146100f8578063205c28781461010d57806323d9ac9b1461012d578063715018a61461018b575b600080fd5b61010b61010636600461113f565b61034a565b005b34801561011957600080fd5b5061010b61012836600461118e565b6103fc565b34801561013957600080fd5b506101617f000000000000000000000000000000000000000000000000000000000000000081565b60405173ffffffffffffffffffffffffffffffffffffffff90911681526020015b60405180910390f35b34801561019757600080fd5b5061010b610494565b3480156101ac57600080fd5b5060005473ffffffffffffffffffffffffffffffffffffffff16610161565b3480156101d757600080fd5b506101eb6101e63660046111fc565b6104a8565b604051610182949392919061123e565b34801561020757600080fd5b5061021b6102163660046112dc565b6104e5565b604051908152602001610182565b34801561023557600080fd5b5061021b61024436600461133a565b60016020526000908152604090205481565b34801561026257600080fd5b5061010b610271366004611357565b61054f565b34801561028257600080fd5b506101617f000000000000000000000000000000000000000000000000000000000000000081565b3480156102b657600080fd5b5061010b610569565b3480156102cb57600080fd5b5061010b6102da36600461133a565b6105ed565b3480156102eb57600080fd5b5061021b610699565b61010b61074f565b34801561030857600080fd5b5061010b61031736600461133a565b6107d7565b34801561032857600080fd5b5061033c6103373660046113b7565b610893565b604051610182929190611470565b6103526108b7565b6040517f0396cb6000000000000000000000000000000000000000000000000000000000815263ffffffff821660048201527f000000000000000000000000000000000000000000000000000000000000000073ffffffffffffffffffffffffffffffffffffffff1690630396cb609034906024016000604051808303818588803b1580156103e057600080fd5b505af11580156103f4573d6000803e3d6000fd5b505050505050565b6104046108b7565b6040517f205c287800000000000000000000000000000000000000000000000000000000815273ffffffffffffffffffffffffffffffffffffffff8381166004830152602482018390527f0000000000000000000000000000000000000000000000000000000000000000169063205c287890604401600060405180830381600087803b1580156103e057600080fd5b61049c6108b7565b6104a66000610938565b565b60008036816104bb605460148789611492565b8101906104c891906114bc565b90945092506104da8560548189611492565b949793965094505050565b60006104f0846109ad565b73ffffffffffffffffffffffffffffffffffffffff85351660009081526001602090815260409182902054915161053093924692309289918991016114ef565b6040516020818303038152906040528051906020012090509392505050565b6105576109ec565b61056384848484610a8b565b50505050565b6105716108b7565b7f000000000000000000000000000000000000000000000000000000000000000073ffffffffffffffffffffffffffffffffffffffff1663bb9fe6bf6040518163ffffffff1660e01b8152600401600060405180830381600087803b1580156105d957600080fd5b505af1158015610563573d6000803e3d6000fd5b6105f56108b7565b6040517fc23a5cea00000000000000000000000000000000000000000000000000000000815273ffffffffffffffffffffffffffffffffffffffff82811660048301527f0000000000000000000000000000000000000000000000000000000000000000169063c23a5cea90602401600060405180830381600087803b15801561067e57600080fd5b505af1158015610692573d6000803e3d6000fd5b5050505050565b6040517f70a082310000000000000000000000000000000000000000000000000000000081523060048201526000907f000000000000000000000000000000000000000000000000000000000000000073ffffffffffffffffffffffffffffffffffffffff16906370a0823190602401602060405180830381865afa158015610726573d6000803e3d6000fd5b505050506040513d601f19601f8201168201806040525081019061074a919061154c565b905090565b6040517fb760faf90000000000000000000000000000000000000000000000000000000081523060048201527f000000000000000000000000000000000000000000000000000000000000000073ffffffffffffffffffffffffffffffffffffffff169063b760faf99034906024016000604051808303818588803b15801561067e57600080fd5b6107df6108b7565b73ffffffffffffffffffffffffffffffffffffffff8116610887576040517f08c379a000000000000000000000000000000000000000000000000000000000815260206004820152602660248201527f4f776e61626c653a206e6577206f776e657220697320746865207a65726f206160448201527f646472657373000000000000000000000000000000000000000000000000000060648201526084015b60405180910390fd5b61089081610938565b50565b6060600061089f6109ec565b6108aa858585610aed565b915091505b935093915050565b60005473ffffffffffffffffffffffffffffffffffffffff1633146104a6576040517f08c379a000000000000000000000000000000000000000000000000000000000815260206004820181905260248201527f4f776e61626c653a2063616c6c6572206973206e6f7420746865206f776e6572604482015260640161087e565b6000805473ffffffffffffffffffffffffffffffffffffffff8381167fffffffffffffffffffffffff0000000000000000000000000000000000000000831681178455604051919092169283917f8be0079c531659141344cd1fd0a4f28419497f9722a3daafe3b4186f6b6457e09190a35050565b60603660006109c0610120850185611565565b915091508360208184030360405194506020810185016040528085528082602087013750505050919050565b3373ffffffffffffffffffffffffffffffffffffffff7f000000000000000000000000000000000000000000000000000000000000000016146104a6576040517f08c379a000000000000000000000000000000000000000000000000000000000815260206004820152601560248201527f53656e646572206e6f7420456e747279506f696e740000000000000000000000604482015260640161087e565b6040517f08c379a000000000000000000000000000000000000000000000000000000000815260206004820152600d60248201527f6d757374206f7665727269646500000000000000000000000000000000000000604482015260640161087e565b6060600080803681610b066101e66101208b018b611565565b929650909450925090506040811480610b1f5750604181145b610bad57604080517f08c379a00000000000000000000000000000000000000000000000000000000081526020600482015260248101919091527f566572696679696e675061796d61737465723a20696e76616c6964207369676e60448201527f6174757265206c656e67746820696e207061796d6173746572416e6444617461606482015260840161087e565b6000610c10610bbd8b87876104e5565b6040517f19457468657265756d205369676e6564204d6573736167653a0a3332000000006020820152603c8101829052600090605c01604051602081830303815290604052805190602001209050919050565b73ffffffffffffffffffffffffffffffffffffffff8b35166000908152600160205260408120805492935090610c45836115ca565b9190505550610c8a8184848080601f016020809104026020016040519081016040528093929190818152602001838380828437600092019190915250610d3292505050565b73ffffffffffffffffffffffffffffffffffffffff167f000000000000000000000000000000000000000000000000000000000000000073ffffffffffffffffffffffffffffffffffffffff1614610d0757610ce860018686610d56565b60405180602001604052806000815250909650965050505050506108af565b610d1360008686610d56565b6040805160208101909152600081529b909a5098505050505050505050565b6000806000610d418585610d8e565b91509150610d4e81610dd3565b509392505050565b600060d08265ffffffffffff16901b60a08465ffffffffffff16901b85610d7e576000610d81565b60015b60ff161717949350505050565b6000808251604103610dc45760208301516040840151606085015160001a610db887828585611027565b94509450505050610dcc565b506000905060025b9250929050565b6000816004811115610de757610de7611629565b03610def5750565b6001816004811115610e0357610e03611629565b03610e6a576040517f08c379a000000000000000000000000000000000000000000000000000000000815260206004820152601860248201527f45434453413a20696e76616c6964207369676e61747572650000000000000000604482015260640161087e565b6002816004811115610e7e57610e7e611629565b03610ee5576040517f08c379a000000000000000000000000000000000000000000000000000000000815260206004820152601f60248201527f45434453413a20696e76616c6964207369676e6174757265206c656e67746800604482015260640161087e565b6003816004811115610ef957610ef9611629565b03610f86576040517f08c379a000000000000000000000000000000000000000000000000000000000815260206004820152602260248201527f45434453413a20696e76616c6964207369676e6174757265202773272076616c60448201527f7565000000000000000000000000000000000000000000000000000000000000606482015260840161087e565b6004816004811115610f9a57610f9a611629565b03610890576040517f08c379a000000000000000000000000000000000000000000000000000000000815260206004820152602260248201527f45434453413a20696e76616c6964207369676e6174757265202776272076616c60448201527f7565000000000000000000000000000000000000000000000000000000000000606482015260840161087e565b6000807f7fffffffffffffffffffffffffffffff5d576e7357a4501ddfe92f46681b20a083111561105e5750600090506003611136565b8460ff16601b1415801561107657508460ff16601c14155b156110875750600090506004611136565b6040805160008082526020820180845289905260ff881692820192909252606081018690526080810185905260019060a0016020604051602081039080840390855afa1580156110db573d6000803e3d6000fd5b50506040517fffffffffffffffffffffffffffffffffffffffffffffffffffffffffffffffe0015191505073ffffffffffffffffffffffffffffffffffffffff811661112f57600060019250925050611136565b9150600090505b94509492505050565b60006020828403121561115157600080fd5b813563ffffffff8116811461116557600080fd5b9392505050565b73ffffffffffffffffffffffffffffffffffffffff8116811461089057600080fd5b600080604083850312156111a157600080fd5b82356111ac8161116c565b946020939093013593505050565b60008083601f8401126111cc57600080fd5b50813567ffffffffffffffff8111156111e457600080fd5b602083019150836020828501011115610dcc57600080fd5b6000806020838503121561120f57600080fd5b823567ffffffffffffffff81111561122657600080fd5b611232858286016111ba565b90969095509350505050565b600065ffffffffffff8087168352808616602084015250606060408301528260608301528284608084013760006080848401015260807fffffffffffffffffffffffffffffffffffffffffffffffffffffffffffffffe0601f850116830101905095945050505050565b600061016082840312156112bb57600080fd5b50919050565b803565ffffffffffff811681146112d757600080fd5b919050565b6000806000606084860312156112f157600080fd5b833567ffffffffffffffff81111561130857600080fd5b611314868287016112a8565b935050611323602085016112c1565b9150611331604085016112c1565b90509250925092565b60006020828403121561134c57600080fd5b81356111658161116c565b6000806000806060858703121561136d57600080fd5b84356003811061137c57600080fd5b9350602085013567ffffffffffffffff81111561139857600080fd5b6113a4878288016111ba565b9598909750949560400135949350505050565b6000806000606084860312156113cc57600080fd5b833567ffffffffffffffff8111156113e357600080fd5b6113ef868287016112a8565b9660208601359650604090950135949350505050565b6000815180845260005b8181101561142b5760208185018101518683018201520161140f565b8181111561143d576000602083870101525b50601f017fffffffffffffffffffffffffffffffffffffffffffffffffffffffffffffffe0169290920160200192915050565b6040815260006114836040830185611405565b90508260208301529392505050565b600080858511156114a257600080fd5b838611156114af57600080fd5b5050820193919092039150565b600080604083850312156114cf57600080fd5b6114d8836112c1565b91506114e6602084016112c1565b90509250929050565b60c08152600061150260c0830189611405565b60208301979097525073ffffffffffffffffffffffffffffffffffffffff949094166040850152606084019290925265ffffffffffff90811660808401521660a090910152919050565b60006020828403121561155e57600080fd5b5051919050565b60008083357fffffffffffffffffffffffffffffffffffffffffffffffffffffffffffffffe184360301811261159a57600080fd5b83018035915067ffffffffffffffff8211156115b557600080fd5b602001915036819003821315610dcc57600080fd5b60007fffffffffffffffffffffffffffffffffffffffffffffffffffffffffffffffff8203611622577f4e487b7100000000000000000000000000000000000000000000000000000000600052601160045260246000fd5b5060010190565b7f4e487b7100000000000000000000000000000000000000000000000000000000600052602160045260246000fdfea2646970667358221220a2b6aee87cbe572dd12630ca2394cfd876d262aef2e0da66e4bc749b9ee0e28864736f6c634300080f0033",
  "linkReferences": {},
  "deployedLinkReferences": {}
}