{
  "_format": "hh-sol-artifact-1",
  "contractName": "EntryPoint",
  "sourceName": "contracts/core/EntryPoint.sol",
  "abi": [
    {
      "inputs": [
        {
          "internalType": "uint256",
          "name": "_paymasterStake",
          "type": "uint256"
        },
        {
          "internalType": "uint32",
          "name": "_unstakeDelaySec",
          "type": "uint32"
        }
      ],
      "stateMutability": "nonpayable",
      "type": "constructor"
    },
    {
      "inputs": [
        {
          "internalType": "uint256",
          "name": "opIndex",
          "type": "uint256"
        },
        {
          "internalType": "address",
          "name": "paymaster",
          "type": "address"
        },
        {
          "internalType": "string",
          "name": "reason",
          "type": "string"
        }
      ],
      "name": "FailedOp",
      "type": "error"
    },
    {
      "inputs": [
        {
          "internalType": "address",
          "name": "aggregator",
          "type": "address"
        }
      ],
      "name": "SignatureValidationFailed",
      "type": "error"
    },
    {
      "anonymous": false,
      "inputs": [
        {
          "indexed": true,
          "internalType": "address",
          "name": "account",
          "type": "address"
        },
        {
          "indexed": false,
          "internalType": "uint256",
          "name": "totalDeposit",
          "type": "uint256"
        }
      ],
      "name": "Deposited",
      "type": "event"
    },
    {
      "anonymous": false,
      "inputs": [
        {
          "indexed": true,
          "internalType": "address",
          "name": "account",
          "type": "address"
        },
        {
          "indexed": false,
          "internalType": "uint256",
          "name": "totalStaked",
          "type": "uint256"
        },
        {
          "indexed": false,
          "internalType": "uint256",
          "name": "withdrawTime",
          "type": "uint256"
        }
      ],
      "name": "StakeLocked",
      "type": "event"
    },
    {
      "anonymous": false,
      "inputs": [
        {
          "indexed": true,
          "internalType": "address",
          "name": "account",
          "type": "address"
        },
        {
          "indexed": false,
          "internalType": "uint256",
          "name": "withdrawTime",
          "type": "uint256"
        }
      ],
      "name": "StakeUnlocked",
      "type": "event"
    },
    {
      "anonymous": false,
      "inputs": [
        {
          "indexed": true,
          "internalType": "address",
          "name": "account",
          "type": "address"
        },
        {
          "indexed": false,
          "internalType": "address",
          "name": "withdrawAddress",
          "type": "address"
        },
        {
          "indexed": false,
          "internalType": "uint256",
          "name": "amount",
          "type": "uint256"
        }
      ],
      "name": "StakeWithdrawn",
      "type": "event"
    },
    {
      "anonymous": false,
      "inputs": [
        {
          "indexed": true,
          "internalType": "bytes32",
          "name": "requestId",
          "type": "bytes32"
        },
        {
          "indexed": true,
          "internalType": "address",
          "name": "sender",
          "type": "address"
        },
        {
          "indexed": true,
          "internalType": "address",
          "name": "paymaster",
          "type": "address"
        },
        {
          "indexed": false,
          "internalType": "uint256",
          "name": "nonce",
          "type": "uint256"
        },
        {
          "indexed": false,
          "internalType": "uint256",
          "name": "actualGasCost",
          "type": "uint256"
        },
        {
          "indexed": false,
          "internalType": "uint256",
          "name": "actualGasPrice",
          "type": "uint256"
        },
        {
          "indexed": false,
          "internalType": "bool",
          "name": "success",
          "type": "bool"
        }
      ],
      "name": "UserOperationEvent",
      "type": "event"
    },
    {
      "anonymous": false,
      "inputs": [
        {
          "indexed": true,
          "internalType": "bytes32",
          "name": "requestId",
          "type": "bytes32"
        },
        {
          "indexed": true,
          "internalType": "address",
          "name": "sender",
          "type": "address"
        },
        {
          "indexed": false,
          "internalType": "uint256",
          "name": "nonce",
          "type": "uint256"
        },
        {
          "indexed": false,
          "internalType": "bytes",
          "name": "revertReason",
          "type": "bytes"
        }
      ],
      "name": "UserOperationRevertReason",
      "type": "event"
    },
    {
      "anonymous": false,
      "inputs": [
        {
          "indexed": true,
          "internalType": "address",
          "name": "account",
          "type": "address"
        },
        {
          "indexed": false,
          "internalType": "address",
          "name": "withdrawAddress",
          "type": "address"
        },
        {
          "indexed": false,
          "internalType": "uint256",
          "name": "amount",
          "type": "uint256"
        }
      ],
      "name": "Withdrawn",
      "type": "event"
    },
    {
      "inputs": [
        {
          "internalType": "uint32",
          "name": "_unstakeDelaySec",
          "type": "uint32"
        }
      ],
      "name": "addStake",
      "outputs": [],
      "stateMutability": "payable",
      "type": "function"
    },
    {
      "inputs": [
        {
          "internalType": "address",
          "name": "account",
          "type": "address"
        }
      ],
      "name": "balanceOf",
      "outputs": [
        {
          "internalType": "uint256",
          "name": "",
          "type": "uint256"
        }
      ],
      "stateMutability": "view",
      "type": "function"
    },
    {
      "inputs": [
        {
          "internalType": "address",
          "name": "account",
          "type": "address"
        }
      ],
      "name": "depositTo",
      "outputs": [],
      "stateMutability": "payable",
      "type": "function"
    },
    {
      "inputs": [
        {
          "internalType": "address",
          "name": "",
          "type": "address"
        }
      ],
      "name": "deposits",
      "outputs": [
        {
          "internalType": "uint112",
          "name": "deposit",
          "type": "uint112"
        },
        {
          "internalType": "bool",
          "name": "staked",
          "type": "bool"
        },
        {
          "internalType": "uint112",
          "name": "stake",
          "type": "uint112"
        },
        {
          "internalType": "uint32",
          "name": "unstakeDelaySec",
          "type": "uint32"
        },
        {
          "internalType": "uint64",
          "name": "withdrawTime",
          "type": "uint64"
        }
      ],
      "stateMutability": "view",
      "type": "function"
    },
    {
      "inputs": [
        {
          "internalType": "address",
          "name": "account",
          "type": "address"
        }
      ],
      "name": "getDepositInfo",
      "outputs": [
        {
          "components": [
            {
              "internalType": "uint112",
              "name": "deposit",
              "type": "uint112"
            },
            {
              "internalType": "bool",
              "name": "staked",
              "type": "bool"
            },
            {
              "internalType": "uint112",
              "name": "stake",
              "type": "uint112"
            },
            {
              "internalType": "uint32",
              "name": "unstakeDelaySec",
              "type": "uint32"
            },
            {
              "internalType": "uint64",
              "name": "withdrawTime",
              "type": "uint64"
            }
          ],
          "internalType": "struct IStakeManager.DepositInfo",
          "name": "info",
          "type": "tuple"
        }
      ],
      "stateMutability": "view",
      "type": "function"
    },
    {
      "inputs": [
        {
          "components": [
            {
              "internalType": "address",
              "name": "sender",
              "type": "address"
            },
            {
              "internalType": "uint256",
              "name": "nonce",
              "type": "uint256"
            },
            {
              "internalType": "bytes",
              "name": "initCode",
              "type": "bytes"
            },
            {
              "internalType": "bytes",
              "name": "callData",
              "type": "bytes"
            },
            {
              "internalType": "uint256",
              "name": "callGasLimit",
              "type": "uint256"
            },
            {
              "internalType": "uint256",
              "name": "verificationGasLimit",
              "type": "uint256"
            },
            {
              "internalType": "uint256",
              "name": "preVerificationGas",
              "type": "uint256"
            },
            {
              "internalType": "uint256",
              "name": "maxFeePerGas",
              "type": "uint256"
            },
            {
              "internalType": "uint256",
              "name": "maxPriorityFeePerGas",
              "type": "uint256"
            },
            {
              "internalType": "bytes",
              "name": "paymasterAndData",
              "type": "bytes"
            },
            {
              "internalType": "bytes",
              "name": "signature",
              "type": "bytes"
            }
          ],
          "internalType": "struct UserOperation",
          "name": "userOp",
          "type": "tuple"
        }
      ],
      "name": "getRequestId",
      "outputs": [
        {
          "internalType": "bytes32",
          "name": "",
          "type": "bytes32"
        }
      ],
      "stateMutability": "view",
      "type": "function"
    },
    {
      "inputs": [
        {
          "internalType": "bytes",
          "name": "initCode",
          "type": "bytes"
        }
      ],
      "name": "getSenderAddress",
      "outputs": [
        {
          "internalType": "address",
          "name": "sender",
          "type": "address"
        }
      ],
      "stateMutability": "nonpayable",
      "type": "function"
    },
    {
      "inputs": [
        {
          "internalType": "address",
          "name": "sender",
          "type": "address"
        }
      ],
      "name": "getSenderStorage",
      "outputs": [
        {
          "internalType": "uint256[]",
          "name": "senderStorageCells",
          "type": "uint256[]"
        }
      ],
      "stateMutability": "view",
      "type": "function"
    },
    {
      "inputs": [
        {
          "components": [
            {
              "components": [
                {
                  "internalType": "address",
                  "name": "sender",
                  "type": "address"
                },
                {
                  "internalType": "uint256",
                  "name": "nonce",
                  "type": "uint256"
                },
                {
                  "internalType": "bytes",
                  "name": "initCode",
                  "type": "bytes"
                },
                {
                  "internalType": "bytes",
                  "name": "callData",
                  "type": "bytes"
                },
                {
                  "internalType": "uint256",
                  "name": "callGasLimit",
                  "type": "uint256"
                },
                {
                  "internalType": "uint256",
                  "name": "verificationGasLimit",
                  "type": "uint256"
                },
                {
                  "internalType": "uint256",
                  "name": "preVerificationGas",
                  "type": "uint256"
                },
                {
                  "internalType": "uint256",
                  "name": "maxFeePerGas",
                  "type": "uint256"
                },
                {
                  "internalType": "uint256",
                  "name": "maxPriorityFeePerGas",
                  "type": "uint256"
                },
                {
                  "internalType": "bytes",
                  "name": "paymasterAndData",
                  "type": "bytes"
                },
                {
                  "internalType": "bytes",
                  "name": "signature",
                  "type": "bytes"
                }
              ],
              "internalType": "struct UserOperation[]",
              "name": "userOps",
              "type": "tuple[]"
            },
            {
              "internalType": "contract IAggregator",
              "name": "aggregator",
              "type": "address"
            },
            {
              "internalType": "bytes",
              "name": "signature",
              "type": "bytes"
            }
          ],
          "internalType": "struct IEntryPoint.UserOpsPerAggregator[]",
          "name": "opsPerAggregator",
          "type": "tuple[]"
        },
        {
          "internalType": "address payable",
          "name": "beneficiary",
          "type": "address"
        }
      ],
      "name": "handleAggregatedOps",
      "outputs": [],
      "stateMutability": "nonpayable",
      "type": "function"
    },
    {
      "inputs": [
        {
          "components": [
            {
              "internalType": "address",
              "name": "sender",
              "type": "address"
            },
            {
              "internalType": "uint256",
              "name": "nonce",
              "type": "uint256"
            },
            {
              "internalType": "bytes",
              "name": "initCode",
              "type": "bytes"
            },
            {
              "internalType": "bytes",
              "name": "callData",
              "type": "bytes"
            },
            {
              "internalType": "uint256",
              "name": "callGasLimit",
              "type": "uint256"
            },
            {
              "internalType": "uint256",
              "name": "verificationGasLimit",
              "type": "uint256"
            },
            {
              "internalType": "uint256",
              "name": "preVerificationGas",
              "type": "uint256"
            },
            {
              "internalType": "uint256",
              "name": "maxFeePerGas",
              "type": "uint256"
            },
            {
              "internalType": "uint256",
              "name": "maxPriorityFeePerGas",
              "type": "uint256"
            },
            {
              "internalType": "bytes",
              "name": "paymasterAndData",
              "type": "bytes"
            },
            {
              "internalType": "bytes",
              "name": "signature",
              "type": "bytes"
            }
          ],
          "internalType": "struct UserOperation[]",
          "name": "ops",
          "type": "tuple[]"
        },
        {
          "internalType": "address payable",
          "name": "beneficiary",
          "type": "address"
        }
      ],
      "name": "handleOps",
      "outputs": [],
      "stateMutability": "nonpayable",
      "type": "function"
    },
    {
      "inputs": [
        {
          "internalType": "bytes",
          "name": "callData",
          "type": "bytes"
        },
        {
          "components": [
            {
              "components": [
                {
                  "internalType": "address",
                  "name": "sender",
                  "type": "address"
                },
                {
                  "internalType": "uint256",
                  "name": "nonce",
                  "type": "uint256"
                },
                {
                  "internalType": "uint256",
                  "name": "callGasLimit",
                  "type": "uint256"
                },
                {
                  "internalType": "uint256",
                  "name": "verificationGasLimit",
                  "type": "uint256"
                },
                {
                  "internalType": "uint256",
                  "name": "preVerificationGas",
                  "type": "uint256"
                },
                {
                  "internalType": "address",
                  "name": "paymaster",
                  "type": "address"
                },
                {
                  "internalType": "uint256",
                  "name": "maxFeePerGas",
                  "type": "uint256"
                },
                {
                  "internalType": "uint256",
                  "name": "maxPriorityFeePerGas",
                  "type": "uint256"
                }
              ],
              "internalType": "struct EntryPoint.MemoryUserOp",
              "name": "mUserOp",
              "type": "tuple"
            },
            {
              "internalType": "bytes32",
              "name": "requestId",
              "type": "bytes32"
            },
            {
              "internalType": "uint256",
              "name": "prefund",
              "type": "uint256"
            },
            {
              "internalType": "uint256",
              "name": "contextOffset",
              "type": "uint256"
            },
            {
              "internalType": "uint256",
              "name": "preOpGas",
              "type": "uint256"
            }
          ],
          "internalType": "struct EntryPoint.UserOpInfo",
          "name": "opInfo",
          "type": "tuple"
        },
        {
          "internalType": "bytes",
          "name": "context",
          "type": "bytes"
        }
      ],
      "name": "innerHandleOp",
      "outputs": [
        {
          "internalType": "uint256",
          "name": "actualGasCost",
          "type": "uint256"
        }
      ],
      "stateMutability": "nonpayable",
      "type": "function"
    },
    {
      "inputs": [],
      "name": "paymasterStake",
      "outputs": [
        {
          "internalType": "uint256",
          "name": "",
          "type": "uint256"
        }
      ],
      "stateMutability": "view",
      "type": "function"
    },
    {
      "inputs": [
        {
          "components": [
            {
              "internalType": "address",
              "name": "sender",
              "type": "address"
            },
            {
              "internalType": "uint256",
              "name": "nonce",
              "type": "uint256"
            },
            {
              "internalType": "bytes",
              "name": "initCode",
              "type": "bytes"
            },
            {
              "internalType": "bytes",
              "name": "callData",
              "type": "bytes"
            },
            {
              "internalType": "uint256",
              "name": "callGasLimit",
              "type": "uint256"
            },
            {
              "internalType": "uint256",
              "name": "verificationGasLimit",
              "type": "uint256"
            },
            {
              "internalType": "uint256",
              "name": "preVerificationGas",
              "type": "uint256"
            },
            {
              "internalType": "uint256",
              "name": "maxFeePerGas",
              "type": "uint256"
            },
            {
              "internalType": "uint256",
              "name": "maxPriorityFeePerGas",
              "type": "uint256"
            },
            {
              "internalType": "bytes",
              "name": "paymasterAndData",
              "type": "bytes"
            },
            {
              "internalType": "bytes",
              "name": "signature",
              "type": "bytes"
            }
          ],
          "internalType": "struct UserOperation",
          "name": "userOp",
          "type": "tuple"
        },
        {
          "internalType": "bool",
          "name": "offChainSigCheck",
          "type": "bool"
        }
      ],
      "name": "simulateValidation",
      "outputs": [
        {
          "internalType": "uint256",
          "name": "preOpGas",
          "type": "uint256"
        },
        {
          "internalType": "uint256",
          "name": "prefund",
          "type": "uint256"
        },
        {
          "internalType": "address",
          "name": "actualAggregator",
          "type": "address"
        },
        {
          "internalType": "bytes",
          "name": "sigForUserOp",
          "type": "bytes"
        },
        {
          "internalType": "bytes",
          "name": "sigForAggregation",
          "type": "bytes"
        },
        {
          "internalType": "bytes",
          "name": "offChainSigInfo",
          "type": "bytes"
        }
      ],
      "stateMutability": "nonpayable",
      "type": "function"
    },
    {
      "inputs": [],
      "name": "unlockStake",
      "outputs": [],
      "stateMutability": "nonpayable",
      "type": "function"
    },
    {
      "inputs": [],
      "name": "unstakeDelaySec",
      "outputs": [
        {
          "internalType": "uint32",
          "name": "",
          "type": "uint32"
        }
      ],
      "stateMutability": "view",
      "type": "function"
    },
    {
      "inputs": [
        {
          "internalType": "address payable",
          "name": "withdrawAddress",
          "type": "address"
        }
      ],
      "name": "withdrawStake",
      "outputs": [],
      "stateMutability": "nonpayable",
      "type": "function"
    },
    {
      "inputs": [
        {
          "internalType": "address payable",
          "name": "withdrawAddress",
          "type": "address"
        },
        {
          "internalType": "uint256",
          "name": "withdrawAmount",
          "type": "uint256"
        }
      ],
      "name": "withdrawTo",
      "outputs": [],
      "stateMutability": "nonpayable",
      "type": "function"
    },
    {
      "stateMutability": "payable",
      "type": "receive"
    }
  ],
  "bytecode": "0x60c06040523480156200001157600080fd5b50604051620033a9380380620033a98339810160408190526200003491620000f1565b63ffffffff8116608081905260a0839052620000975760405162461bcd60e51b815260206004820152601460248201527f696e76616c696420756e7374616b6544656c617900000000000000000000000060448201526064015b60405180910390fd5b60008211620000e95760405162461bcd60e51b815260206004820152601660248201527f696e76616c6964207061796d61737465725374616b650000000000000000000060448201526064016200008e565b50506200012c565b600080604083850312156200010557600080fd5b82519150602083015163ffffffff811681146200012157600080fd5b809150509250929050565b60805160a051613249620001606000396000818161016f01526106ba01526000818161020301526105c901526132496000f3fe6080604052600436106101025760003560e01c80635287ce1211610095578063bb9fe6bf11610064578063bb9fe6bf14610402578063c23a5cea14610417578063ec8b5dbf14610437578063fc7e286d14610464578063ffb01dd91461051a57600080fd5b80635287ce121461025a57806370a08231146103785780639b249f69146103b7578063b760faf9146103ef57600080fd5b80631fad948c116100d15780631fad948c146101b1578063205c2878146101d1578063390b9978146101f15780634b1d7cf51461023a57600080fd5b80630396cb601461011757806314e726341461012a57806317c6a9871461015d5780631d7327561461019157600080fd5b36610112576101103361054c565b005b600080fd5b6101106101253660046124a8565b6105b3565b34801561013657600080fd5b5061014a6101453660046124e7565b61087d565b6040519081526020015b60405180910390f35b34801561016957600080fd5b5061014a7f000000000000000000000000000000000000000000000000000000000000000081565b34801561019d57600080fd5b5061014a6101ac366004612612565b6108bf565b3480156101bd57600080fd5b506101106101cc366004612799565b610a0e565b3480156101dd57600080fd5b506101106101ec3660046127ef565b610b35565b3480156101fd57600080fd5b506102257f000000000000000000000000000000000000000000000000000000000000000081565b60405163ffffffff9091168152602001610154565b34801561024657600080fd5b50610110610255366004612799565b610cf8565b34801561026657600080fd5b5061031f61027536600461281b565b6040805160a081018252600080825260208201819052918101829052606081018290526080810191909152506001600160a01b031660009081526020818152604091829020825160a08101845281546001600160701b038082168352600160701b820460ff16151594830194909452600160781b90049092169282019290925260019091015463ffffffff81166060830152600160201b90046001600160401b0316608082015290565b6040805182516001600160701b03908116825260208085015115159083015283830151169181019190915260608083015163ffffffff16908201526080918201516001600160401b03169181019190915260a001610154565b34801561038457600080fd5b5061014a61039336600461281b565b6001600160a01b03166000908152602081905260409020546001600160701b031690565b3480156103c357600080fd5b506103d76103d2366004612838565b611016565b6040516001600160a01b039091168152602001610154565b6101106103fd36600461281b565b61054c565b34801561040e57600080fd5b50610110611047565b34801561042357600080fd5b5061011061043236600461281b565b61114f565b34801561044357600080fd5b5061045761045236600461281b565b611384565b6040516101549190612879565b34801561047057600080fd5b506104d361047f36600461281b565b600060208190529081526040902080546001909101546001600160701b0380831692600160701b810460ff1692600160781b9091049091169063ffffffff811690600160201b90046001600160401b031685565b604080516001600160701b0396871681529415156020860152929094169183019190915263ffffffff1660608201526001600160401b03909116608082015260a001610154565b34801561052657600080fd5b5061053a6105353660046128bd565b6113ea565b6040516101549695949392919061296b565b61055681346114f1565b6001600160a01b03811660008181526020818152604091829020805492516001600160701b03909316835292917f2da466a7b24304f47e87fa2e1e5a81b9831ce54fec19055ce277ca2f39ba42c491015b60405180910390a25050565b33600090815260208190526040902063ffffffff7f0000000000000000000000000000000000000000000000000000000000000000811690831610156106385760405162461bcd60e51b8152602060048201526015602482015274756e7374616b652064656c617920746f6f206c6f7760581b60448201526064015b60405180910390fd5b600181015463ffffffff90811690831610156106965760405162461bcd60e51b815260206004820152601c60248201527f63616e6e6f7420646563726561736520756e7374616b652074696d6500000000604482015260640161062f565b80546000906106b6903490600160781b90046001600160701b03166129e1565b90507f000000000000000000000000000000000000000000000000000000000000000081101561071e5760405162461bcd60e51b81526020600482015260136024820152727374616b652076616c756520746f6f206c6f7760681b604482015260640161062f565b6001600160701b0381106107655760405162461bcd60e51b815260206004820152600e60248201526d7374616b65206f766572666c6f7760901b604482015260640161062f565b6040805160a08101825283546001600160701b0390811682526001602080840182815286841685870190815263ffffffff808b16606088019081526000608089018181523380835296829052908a902098518954955194518916600160781b02600160781b600160e81b0319951515600160701b026effffffffffffffffffffffffffffff19909716919099161794909417929092169590951786555194909201805492516001600160401b0316600160201b026001600160601b0319909316949093169390931717905590517fa5ae833d0bb1dcd632d98a8b70973e8516812898e19bf27b70071ebc8dc52c0190610870908490879091825263ffffffff16602082015260400190565b60405180910390a2505050565b60006108888261158d565b6040805160208101929092523090820152466060820152608001604051602081830303815290604052805190602001209050919050565b6000805a90503330146108d157600080fd5b8451600087156109ae5760008083600001516001600160a01b031684604001518c8c6040516109019291906129f9565b60006040518083038160008787f1925050503d806000811461093f576040519150601f19603f3d011682016040523d82523d6000602084013e610944565b606091505b5091509150816109ab578051156109a65783600001516001600160a01b031689602001517f1c4fada7374c0a9ee8841fc38afe82932dc0f8e69012e927f061a8bae611a20186602001518460405161099d929190612a09565b60405180910390a35b600192505b50505b600087608001515a8503019050610a006000838a8a8a8080601f0160208091040260200160405190810160405280939291908181526020018383808284376000920191909152508892506115a6915050565b9a9950505050505050505050565b816000816001600160401b03811115610a2957610a29612563565b604051908082528060200260200182016040528015610a6257816020015b610a4f61241e565b815260200190600190039081610a475790505b50905060005b82811015610ac257610ab981878784818110610a8657610a86612a22565b9050602002810190610a989190612a38565b848481518110610aaa57610aaa612a22565b60200260200101516000611898565b50600101610a68565b506000805b83811015610b2257610b1681888884818110610ae557610ae5612a22565b9050602002810190610af79190612a38565b858481518110610b0957610b09612a22565b6020026020010151611a40565b90910190600101610ac7565b50610b2d8482611b08565b505050505050565b3360009081526020818152604091829020825160a08101845281546001600160701b03808216808452600160701b830460ff16151595840195909552600160781b90910416938101939093526001015463ffffffff81166060840152600160201b90046001600160401b03166080830152821115610bf55760405162461bcd60e51b815260206004820152601960248201527f576974686472617720616d6f756e7420746f6f206c6172676500000000000000604482015260640161062f565b8051610c0b9083906001600160701b0316612a59565b6001600160701b03168152604080516001600160a01b03851681526020810184905233917fd1c19fbcd4551a5edfb66d43d2e337c04837afda3482b42bdf569a8fccdae5fb910160405180910390a26000836001600160a01b03168360405160006040518083038185875af1925050503d8060008114610ca7576040519150601f19603f3d011682016040523d82523d6000602084013e610cac565b606091505b5050905080610cf25760405162461bcd60e51b81526020600482015260126024820152716661696c656420746f20776974686472617760701b604482015260640161062f565b50505050565b816000805b82811015610d5257858582818110610d1757610d17612a22565b9050602002810190610d299190612a70565b610d339080612a86565b610d3e9150836129e1565b915080610d4a81612acf565b915050610cfd565b506000816001600160401b03811115610d6d57610d6d612563565b604051908082528060200260200182016040528015610da657816020015b610d9361241e565b815260200190600190039081610d8b5790505b5090506000805b84811015610f2d5736888883818110610dc857610dc8612a22565b9050602002810190610dda9190612a70565b9050366000610de98380612a86565b90925090506000610e00604085016020860161281b565b90508160005b81811015610e7757610e5688868684818110610e2457610e24612a22565b9050602002810190610e369190612a38565b8b8b81518110610e4857610e48612a22565b602002602001015186611898565b5087610e6181612acf565b9850508080610e6f90612acf565b915050610e06565b506001600160a01b03821615610f15576001600160a01b03821663e3563a4f8585610ea560408a018a612aea565b6040518563ffffffff1660e01b8152600401610ec49493929190612c95565b60006040518083038186803b158015610edc57600080fd5b505afa925050508015610eed575060015b610f155760405163086a9f7560e41b81526001600160a01b038316600482015260240161062f565b50505050508080610f2590612acf565b915050610dad565b50600080915060005b858110156110015736898983818110610f5157610f51612a22565b9050602002810190610f639190612a70565b9050366000610f728380612a86565b90925090508060005b81811015610fe957610fbd88858584818110610f9957610f99612a22565b9050602002810190610fab9190612a38565b8b8b81518110610b0957610b09612a22565b610fc790886129e1565b965087610fd381612acf565b9850508080610fe190612acf565b915050610f7b565b50505050508080610ff990612acf565b915050610f36565b5061100c8682611b08565b5050505050505050565b600033156110365760405162461bcd60e51b815260040161062f90612d12565b6110408383611bb9565b9392505050565b336000908152602081905260409020600181015463ffffffff1661107d5760405162461bcd60e51b815260040161062f90612d5e565b8054600160701b900460ff166110c95760405162461bcd60e51b8152602060048201526011602482015270616c726561647920756e7374616b696e6760781b604482015260640161062f565b60018101546000906110e19063ffffffff1642612d8e565b6001830180546bffffffffffffffff000000001916600160201b6001600160401b03841690810291909117909155835460ff60701b1916845560405190815290915033907ffa9b3c14cc825c412c9ed81b3ba365a5b459439403f18829e572ed53a4180f0a906020016105a7565b3360009081526020819052604090208054600160781b90046001600160701b0316806111b45760405162461bcd60e51b81526020600482015260146024820152734e6f207374616b6520746f20776974686472617760601b604482015260640161062f565b6001820154600160201b90046001600160401b03166112155760405162461bcd60e51b815260206004820152601d60248201527f6d7573742063616c6c20756e6c6f636b5374616b652829206669727374000000604482015260640161062f565b600182015442600160201b9091046001600160401b0316111561127a5760405162461bcd60e51b815260206004820152601b60248201527f5374616b65207769746864726177616c206973206e6f74206475650000000000604482015260640161062f565b6001820180546001600160601b03191690558154600160781b600160e81b0319168255604080516001600160a01b03851681526020810183905233917fb7c918e0e249f999e965cafeb6c664271b3f4317d296461500e71da39f0cbda3910160405180910390a26000836001600160a01b03168260405160006040518083038185875af1925050503d806000811461132e576040519150601f19603f3d011682016040523d82523d6000602084013e611333565b606091505b5050905080610cf25760405162461bcd60e51b815260206004820152601860248201527f6661696c656420746f207769746864726177207374616b650000000000000000604482015260640161062f565b6001600160a01b038116600090815260208190526040908190208151600180825281840190935260609282919081602001602082028036833701905050925081836000815181106113d7576113d7612a22565b6020026020010181815250505050919050565b6000806000606080606060005a905061140161241e565b61140f60008b836001611898565b9550806040015196508960c001355a6114289084612a59565b61143291906129e1565b975061143d43600052565b6001600160a01b038616156114c75760405163303b6a1d60e11b81526001600160a01b03871690636076d43a9061147a908d908d90600401612db9565b600060405180830381865afa158015611497573d6000803e3d6000fd5b505050506040513d6000823e601f3d908101601f191682016040526114bf9190810190612e44565b919650945092505b33156114e55760405162461bcd60e51b815260040161062f90612d12565b50509295509295509295565b6001600160a01b038216600090815260208190526040812080549091906115229084906001600160701b03166129e1565b90506001600160701b0381111561156e5760405162461bcd60e51b815260206004820152601060248201526f6465706f736974206f766572666c6f7760801b604482015260640161062f565b81546001600160701b0319166001600160701b03919091161790555050565b600061159882611c7b565b805190602001209050919050565b6000805a8551909150600090816115bc82611cba565b60a08301519091506001600160a01b0381166115db578251935061176e565b80935060008851111561176e57868202955060028a600281111561160157611601612ecb565b1461167357606083015160405163a9a2340960e01b81526001600160a01b0383169163a9a234099161163b908e908d908c90600401612ee1565b600060405180830381600088803b15801561165557600080fd5b5087f1158015611669573d6000803e3d6000fd5b505050505061176e565b606083015160405163a9a2340960e01b81526001600160a01b0383169163a9a23409916116a8908e908d908c90600401612ee1565b600060405180830381600088803b1580156116c257600080fd5b5087f1935050505080156116d4575060015b61176e576116e0612f28565b806308c379a0141561171e57506116f5612f44565b806117005750611720565b8b828260405162fa072b60e01b815260040161062f93929190612fcd565b505b60405162fa072b60e01b8152600481018c90526001600160a01b038216602482015260606044820152600d60648201526c1c1bdcdd13dc081c995d995c9d609a1b608482015260a40161062f565b5a850387019650818702955085896040015110156117e45760405162fa072b60e01b8152600481018c90526001600160a01b038216602482015260606044820152601b60648201527f70726566756e642062656c6f772061637475616c476173436f73740000000000608482015260a40161062f565b60408901518690036117f685826114f1565b6000808c600281111561180b5761180b612ecb565b1490508460a001516001600160a01b031685600001516001600160a01b03168c602001517f33fd4d1f25a5461bea901784a6571de6debc16cd0831932c22c6969cd73ba99488602001518c89876040516118809493929190938452602084019290925260408301521515606082015260800190565b60405180910390a45050505050505095945050505050565b6000805a84519091506118ab8682611ceb565b6118b48661087d565b6020860152604081015160608201516080830151171760e087013517610100870135176effffffffffffffffffffffffffffff81111561192c5760405162461bcd60e51b81526020600482015260136024820152726761732076616c756573206f766572666c6f7760681b604482015260640161062f565b60008061193884611de4565b90506119478a8a8a8a85611e32565b9650915061195443600052565b60a08401516060906001600160a01b03161561197e576119778b8b8b85876120ce565b905061198f565b506040805160208101909152600081525b60005a87039050808b60a001351015611a125760a086015160405162fa072b60e01b8152600481018e90526001600160a01b03909116602482015260606044820152602360648201527f55736564206d6f7265207468616e20766572696669636174696f6e4761734c696084820152621b5a5d60ea1b60a482015260c40161062f565b60408a018390528160608b015260c08b01355a8803018a608001818152505050505050505050949350505050565b6000805a90506000611a53846060015190565b905030631d732756611a686060880188612aea565b87856040518563ffffffff1660e01b8152600401611a899493929190613000565b6020604051808303816000875af1925050508015611ac4575060408051601f3d908101601f19168201909252611ac1918101906130b3565b60015b611afc57600084608001515a611ada9085612a59565b611ae491906129e1565b9050611af48760028785856115a6565b935050611aff565b92505b50509392505050565b6001600160a01b038216611b545760405162461bcd60e51b8152602060048201526013602482015272696e76616c69642062656e656669636961727960681b604482015260640161062f565b6000826001600160a01b03168260405160006040518083038185875af1925050503d8060008114611ba1576040519150601f19603f3d011682016040523d82523d6000602084013e611ba6565b606091505b5050905080611bb457600080fd5b505050565b600080611bc960148285876130cc565b611bd2916130f6565b60601c90506000611be684601481886130cc565b8080601f016020809104026020016040519081016040528093929190818152602001838380828437600092018290525084519495509360209350849250905082850182875af19050600051935080611c725760405162461bcd60e51b815260206004820152600f60248201526e1a5b9a5d10dbd9194819985a5b1959608a1b604482015260640161062f565b50505092915050565b6060366000611c8e610140850185612aea565b915091508360208184030360405194506020810185016040528085528082602087013750505050919050565b60c081015160e08201516000919080821415611cd7575092915050565b611ce3824883016122d1565b949350505050565b611cf8602083018361281b565b6001600160a01b0316815260208083013590820152608080830135604083015260a0830135606083015260c0808401359183019190915260e0808401359183019190915261010083013590820152366000611d57610120850185612aea565b90925090508015611dd7576014811015611db35760405162461bcd60e51b815260206004820152601860248201527f696e76616c6964207061796d6173746572416e64446174610000000000000000604482015260640161062f565b611dc16014600083856130cc565b611dca916130f6565b60601c60a0840152610cf2565b600060a084015250505050565b60a081015160009081906001600160a01b0316611e02576001611e05565b60035b60ff1690506000836080015182856060015102856040015101019050611e2a84611cba565b029392505050565b60008060005a8651909150611e5381611e4e60408b018b612aea565b6122e7565b6001600160a01b03861660011415611ed95780600001516001600160a01b0316633ad59dbc6040518163ffffffff1660e01b8152600401602060405180830381865afa925050508015611ec3575060408051601f3d908101601f19168201909252611ec091810190613126565b60015b611ed35760009250829550611ed9565b95508592505b805160a0820151600091906001600160a01b038116611f2a576001600160a01b0382166000908152602081905260409020546001600160701b0316888111611f2357808903611f26565b60005b9350505b816001600160a01b0316630825d1fc85606001518d8d602001518d886040518663ffffffff1660e01b8152600401611f659493929190613143565b600060405180830381600088803b158015611f7f57600080fd5b5087f193505050508015611f91575060015b61200e57611f9d612f28565b806308c379a01415611fdc5750611fb2612f44565b80611fbd5750611fde565b8c60008260405162fa072b60e01b815260040161062f93929190612fcd565b505b60405162fa072b60e01b8152600481018d905260006024820181905260606044830152606482015260840161062f565b6001600160a01b0381166120ba576001600160a01b038216600090815260208190526040902080546001600160701b0316808a111561209d5760405162fa072b60e01b8152600481018f90526000602482015260606044820152601960648201527f77616c6c6574206469646e2774207061792070726566756e6400000000000000608482015260a40161062f565b81546001600160701b031916908a90036001600160701b03161790555b5a8503965050505050509550959350505050565b825160a08101516001600160a01b038116600090815260208190526040902080546060939291906001600160701b03811690600160701b900460ff168061212b578a8460405162fa072b60e01b815260040161062f92919061317b565b878210156121915760405162fa072b60e01b8152600481018c90526001600160a01b038516602482015260606044820152601960648201527f7061796d6173746572206465706f73697420746f6f206c6f7700000000000000608482015260a40161062f565b8782038360000160006101000a8154816001600160701b0302191690836001600160701b031602179055506000878660600151039050846001600160a01b031663f465c77e828d8d602001518d6040518563ffffffff1660e01b81526004016121fc939291906131ba565b60006040518083038160008887f19350505050801561223d57506040513d6000823e601f3d908101601f1916820160405261223a91908101906131df565b60015b6122c157612249612f28565b806308c379a01415612287575061225e612f44565b806122695750612289565b8c868260405162fa072b60e01b815260040161062f93929190612fcd565b505b60405162fa072b60e01b8152600481018d90526001600160a01b0386166024820152606060448201526000606482015260840161062f565b9c9b505050505050505050505050565b60008183106122e05781611040565b5090919050565b8015611bb45782516001600160a01b03163b156123465760405162461bcd60e51b815260206004820152601a60248201527f73656e64657220616c726561647920636f6e7374727563746564000000000000604482015260640161062f565b60006123528383611bb9565b905083600001516001600160a01b0316816001600160a01b0316146123c75760405162461bcd60e51b815260206004820152602560248201527f73656e64657220646f65736e2774206d6174636820696e6974436f6465206164604482015264647265737360d81b606482015260840161062f565b6001600160a01b0381163b610cf25760405162461bcd60e51b815260206004820181905260248201527f696e6974436f6465206661696c656420746f206372656174652073656e646572604482015260640161062f565b6040518060a0016040528061248360405180610100016040528060006001600160a01b031681526020016000815260200160008152602001600081526020016000815260200160006001600160a01b0316815260200160008152602001600081525090565b8152602001600080191681526020016000815260200160008152602001600081525090565b6000602082840312156124ba57600080fd5b813563ffffffff8116811461104057600080fd5b600061016082840312156124e157600080fd5b50919050565b6000602082840312156124f957600080fd5b81356001600160401b0381111561250f57600080fd5b611ce3848285016124ce565b60008083601f84011261252d57600080fd5b5081356001600160401b0381111561254457600080fd5b60208301915083602082850101111561255c57600080fd5b9250929050565b634e487b7160e01b600052604160045260246000fd5b60a081018181106001600160401b038211171561259857612598612563565b60405250565b61010081018181106001600160401b038211171561259857612598612563565b601f8201601f191681016001600160401b03811182821017156125e3576125e3612563565b6040525050565b6001600160a01b03811681146125ff57600080fd5b50565b803561260d816125ea565b919050565b60008060008060008587036101c081121561262c57600080fd5b86356001600160401b038082111561264357600080fd5b61264f8a838b0161251b565b9098509650601f19929092019161018091508183121561266e57600080fd5b60405161267a81612579565b6101008085121561268a57600080fd5b60405194506126988561259e565b6126a460208c01612602565b855260408b0135602086015260608b0135604086015260808b0135606086015260a08b013560808601526126da60c08c01612602565b60a086015260e08b81013560c0870152908b0135908501529283526101208901356020840152610140890135604084015261016089013560608401528189013560808401529194506101a0880135918083111561273657600080fd5b50506127448882890161251b565b969995985093965092949392505050565b60008083601f84011261276757600080fd5b5081356001600160401b0381111561277e57600080fd5b6020830191508360208260051b850101111561255c57600080fd5b6000806000604084860312156127ae57600080fd5b83356001600160401b038111156127c457600080fd5b6127d086828701612755565b90945092505060208401356127e4816125ea565b809150509250925092565b6000806040838503121561280257600080fd5b823561280d816125ea565b946020939093013593505050565b60006020828403121561282d57600080fd5b8135611040816125ea565b6000806020838503121561284b57600080fd5b82356001600160401b0381111561286157600080fd5b61286d8582860161251b565b90969095509350505050565b6020808252825182820181905260009190848201906040850190845b818110156128b157835183529284019291840191600101612895565b50909695505050505050565b600080604083850312156128d057600080fd5b82356001600160401b038111156128e657600080fd5b6128f2858286016124ce565b9250506020830135801515811461290857600080fd5b809150509250929050565b60005b8381101561292e578181015183820152602001612916565b83811115610cf25750506000910152565b60008151808452612957816020860160208601612913565b601f01601f19169290920160200192915050565b86815285602082015260018060a01b038516604082015260c06060820152600061299860c083018661293f565b82810360808401526129aa818661293f565b905082810360a08401526129be818561293f565b9998505050505050505050565b634e487b7160e01b600052601160045260246000fd5b600082198211156129f4576129f46129cb565b500190565b8183823760009101908152919050565b828152604060208201526000611ce3604083018461293f565b634e487b7160e01b600052603260045260246000fd5b6000823561015e19833603018112612a4f57600080fd5b9190910192915050565b600082821015612a6b57612a6b6129cb565b500390565b60008235605e19833603018112612a4f57600080fd5b6000808335601e19843603018112612a9d57600080fd5b8301803591506001600160401b03821115612ab757600080fd5b6020019150600581901b360382131561255c57600080fd5b6000600019821415612ae357612ae36129cb565b5060010190565b6000808335601e19843603018112612b0157600080fd5b8301803591506001600160401b03821115612b1b57600080fd5b60200191503681900382131561255c57600080fd5b6000808335601e19843603018112612b4757600080fd5b83016020810192503590506001600160401b03811115612b6657600080fd5b80360383131561255c57600080fd5b81835281816020850137506000828201602090810191909152601f909101601f19169091010190565b6000610160612bbd84612bb085612602565b6001600160a01b03169052565b60208301356020850152612bd46040840184612b30565b826040870152612be78387018284612b75565b92505050612bf86060840184612b30565b8583036060870152612c0b838284612b75565b925050506080830135608085015260a083013560a085015260c083013560c085015260e083013560e0850152610100808401358186015250610120612c5281850185612b30565b86840383880152612c64848284612b75565b9350505050610140612c7881850185612b30565b86840383880152612c8a848284612b75565b979650505050505050565b6040808252810184905260006060600586901b830181019083018783805b89811015612cfb57868503605f190184528235368c900361015e19018112612cd9578283fd5b612ce5868d8301612b9e565b9550506020938401939290920191600101612cb3565b505050508281036020840152612c8a818587612b75565b6020808252602c908201527f6d7573742062652063616c6c6564206f66662d636861696e207769746820667260408201526b37b69ebd32b93796b0b2323960a11b606082015260800190565b602081526000612d8860208301600a8152691b9bdd081cdd185ad95960b21b602082015260400190565b92915050565b60006001600160401b03808316818516808303821115612db057612db06129cb565b01949350505050565b604081526000612dcc6040830185612b9e565b905082151560208301529392505050565b600082601f830112612dee57600080fd5b81516001600160401b03811115612e0757612e07612563565b604051612e1e601f8301601f1916602001826125be565b818152846020838601011115612e3357600080fd5b611ce3826020830160208701612913565b600080600060608486031215612e5957600080fd5b83516001600160401b0380821115612e7057600080fd5b612e7c87838801612ddd565b94506020860151915080821115612e9257600080fd5b612e9e87838801612ddd565b93506040860151915080821115612eb457600080fd5b50612ec186828701612ddd565b9150509250925092565b634e487b7160e01b600052602160045260246000fd5b600060038510612f0157634e487b7160e01b600052602160045260246000fd5b84825260606020830152612f18606083018561293f565b9050826040830152949350505050565b600060033d1115612f415760046000803e5060005160e01c5b90565b600060443d1015612f525790565b6040516003193d81016004833e81513d6001600160401b038160248401118184111715612f8157505050505090565b8285019150815181811115612f995750505050505090565b843d8701016020828501011115612fb35750505050505090565b612fc2602082860101876125be565b509095945050505050565b8381526001600160a01b0383166020820152606060408201819052600090612ff79083018461293f565b95945050505050565b60006101c08083526130158184018789612b75565b9050845160018060a01b03808251166020860152602082015160408601526040820151606086015260608201516080860152608082015160a08601528060a08301511660c08601525060c081015160e085015260e08101516101008501525060208501516101208401526040850151610140840152606085015161016084015260808501516101808401528281036101a0840152612c8a818561293f565b6000602082840312156130c557600080fd5b5051919050565b600080858511156130dc57600080fd5b838611156130e957600080fd5b5050820193919092039150565b6001600160601b0319813581811691601485101561311e5780818660140360031b1b83161692505b505092915050565b60006020828403121561313857600080fd5b8151611040816125ea565b6080815260006131566080830187612b9e565b6020830195909552506001600160a01b03929092166040830152606090910152919050565b8281526001600160a01b0382166020820152606060408201819052600a90820152691b9bdd081cdd185ad95960b21b6080820152600060a08201611ce3565b6060815260006131cd6060830186612b9e565b60208301949094525060400152919050565b6000602082840312156131f157600080fd5b81516001600160401b0381111561320757600080fd5b611ce384828501612ddd56fea2646970667358221220329fba13b259a6a6f9a8fb44fdfb8628dccfd2bd1b71dbf68ac412d3f5cbc18164736f6c634300080c0033",
  "linkReferences": {},
  "deployedLinkReferences": {}
}