{
  "_format": "hh-sol-artifact-1",
  "contractName": "EllipticCurve",
  "sourceName": "contracts/EllipticCurve.sol",
  "abi": [
    {
      "inputs": [
        {
          "internalType": "uint256",
          "name": "x0",
          "type": "uint256"
        },
        {
          "internalType": "uint256",
          "name": "y0",
          "type": "uint256"
        },
        {
          "internalType": "uint256",
          "name": "x1",
          "type": "uint256"
        },
        {
          "internalType": "uint256",
          "name": "y1",
          "type": "uint256"
        }
      ],
      "name": "add",
      "outputs": [
        {
          "internalType": "uint256",
          "name": "",
          "type": "uint256"
        },
        {
          "internalType": "uint256",
          "name": "",
          "type": "uint256"
        }
      ],
      "stateMutability": "pure",
      "type": "function"
    },
    {
      "inputs": [
        {
          "internalType": "uint256",
          "name": "x1",
          "type": "uint256"
        },
        {
          "internalType": "uint256",
          "name": "y1",
          "type": "uint256"
        },
        {
          "internalType": "uint256",
          "name": "x2",
          "type": "uint256"
        },
        {
          "internalType": "uint256",
          "name": "y2",
          "type": "uint256"
        }
      ],
      "name": "addAndReturnProjectivePoint",
      "outputs": [
        {
          "internalType": "uint256[3]",
          "name": "P",
          "type": "uint256[3]"
        }
      ],
      "stateMutability": "pure",
      "type": "function"
    },
    {
      "inputs": [
        {
          "internalType": "uint256",
          "name": "x0",
          "type": "uint256"
        },
        {
          "internalType": "uint256",
          "name": "y0",
          "type": "uint256"
        },
        {
          "internalType": "uint256",
          "name": "z0",
          "type": "uint256"
        },
        {
          "internalType": "uint256",
          "name": "x1",
          "type": "uint256"
        },
        {
          "internalType": "uint256",
          "name": "y1",
          "type": "uint256"
        },
        {
          "internalType": "uint256",
          "name": "z1",
          "type": "uint256"
        }
      ],
      "name": "addProj",
      "outputs": [
        {
          "internalType": "uint256",
          "name": "x2",
          "type": "uint256"
        },
        {
          "internalType": "uint256",
          "name": "y2",
          "type": "uint256"
        },
        {
          "internalType": "uint256",
          "name": "z2",
          "type": "uint256"
        }
      ],
      "stateMutability": "pure",
      "type": "function"
    },
    {
      "inputs": [
        {
          "internalType": "uint256",
          "name": "x",
          "type": "uint256"
        },
        {
          "internalType": "uint256",
          "name": "y",
          "type": "uint256"
        }
      ],
      "name": "isOnCurve",
      "outputs": [
        {
          "internalType": "bool",
          "name": "",
          "type": "bool"
        }
      ],
      "stateMutability": "pure",
      "type": "function"
    },
    {
      "inputs": [
        {
          "internalType": "uint256",
          "name": "x0",
          "type": "uint256"
        },
        {
          "internalType": "uint256",
          "name": "y0",
          "type": "uint256"
        }
      ],
      "name": "isZeroCurve",
      "outputs": [
        {
          "internalType": "bool",
          "name": "isZero",
          "type": "bool"
        }
      ],
      "stateMutability": "pure",
      "type": "function"
    },
    {
      "inputs": [
        {
          "internalType": "uint256",
          "name": "scalar",
          "type": "uint256"
        }
      ],
      "name": "multipleGeneratorByScalar",
      "outputs": [
        {
          "internalType": "uint256",
          "name": "",
          "type": "uint256"
        },
        {
          "internalType": "uint256",
          "name": "",
          "type": "uint256"
        }
      ],
      "stateMutability": "pure",
      "type": "function"
    },
    {
      "inputs": [
        {
          "internalType": "uint256",
          "name": "x0",
          "type": "uint256"
        },
        {
          "internalType": "uint256",
          "name": "y0",
          "type": "uint256"
        },
        {
          "internalType": "uint256",
          "name": "exp",
          "type": "uint256"
        }
      ],
      "name": "multiplyPowerBase2",
      "outputs": [
        {
          "internalType": "uint256",
          "name": "",
          "type": "uint256"
        },
        {
          "internalType": "uint256",
          "name": "",
          "type": "uint256"
        }
      ],
      "stateMutability": "pure",
      "type": "function"
    },
    {
      "inputs": [
        {
          "internalType": "uint256",
          "name": "x0",
          "type": "uint256"
        },
        {
          "internalType": "uint256",
          "name": "y0",
          "type": "uint256"
        },
        {
          "internalType": "uint256",
          "name": "scalar",
          "type": "uint256"
        }
      ],
      "name": "multiplyScalar",
      "outputs": [
        {
          "internalType": "uint256",
          "name": "x1",
          "type": "uint256"
        },
        {
          "internalType": "uint256",
          "name": "y1",
          "type": "uint256"
        }
      ],
      "stateMutability": "pure",
      "type": "function"
    },
    {
      "inputs": [
        {
          "internalType": "uint256",
          "name": "x0",
          "type": "uint256"
        },
        {
          "internalType": "uint256",
          "name": "y0",
          "type": "uint256"
        },
        {
          "internalType": "uint256",
          "name": "z0",
          "type": "uint256"
        }
      ],
      "name": "toAffinePoint",
      "outputs": [
        {
          "internalType": "uint256",
          "name": "x1",
          "type": "uint256"
        },
        {
          "internalType": "uint256",
          "name": "y1",
          "type": "uint256"
        }
      ],
      "stateMutability": "pure",
      "type": "function"
    },
    {
      "inputs": [
        {
          "internalType": "uint256",
          "name": "x0",
          "type": "uint256"
        },
        {
          "internalType": "uint256",
          "name": "y0",
          "type": "uint256"
        }
      ],
      "name": "toProjectivePoint",
      "outputs": [
        {
          "internalType": "uint256[3]",
          "name": "P",
          "type": "uint256[3]"
        }
      ],
      "stateMutability": "pure",
      "type": "function"
    },
    {
      "inputs": [
        {
          "internalType": "uint256",
          "name": "x0",
          "type": "uint256"
        },
        {
          "internalType": "uint256",
          "name": "y0",
          "type": "uint256"
        }
      ],
      "name": "twice",
      "outputs": [
        {
          "internalType": "uint256",
          "name": "",
          "type": "uint256"
        },
        {
          "internalType": "uint256",
          "name": "",
          "type": "uint256"
        }
      ],
      "stateMutability": "pure",
      "type": "function"
    },
    {
      "inputs": [
        {
          "internalType": "uint256",
          "name": "x0",
          "type": "uint256"
        },
        {
          "internalType": "uint256",
          "name": "y0",
          "type": "uint256"
        },
        {
          "internalType": "uint256",
          "name": "z0",
          "type": "uint256"
        }
      ],
      "name": "twiceProj",
      "outputs": [
        {
          "internalType": "uint256",
          "name": "x1",
          "type": "uint256"
        },
        {
          "internalType": "uint256",
          "name": "y1",
          "type": "uint256"
        },
        {
          "internalType": "uint256",
          "name": "z1",
          "type": "uint256"
        }
      ],
      "stateMutability": "pure",
      "type": "function"
    },
    {
      "inputs": [
        {
          "internalType": "bytes32",
          "name": "message",
          "type": "bytes32"
        },
        {
          "internalType": "uint256[2]",
          "name": "rs",
          "type": "uint256[2]"
        },
        {
          "internalType": "uint256[2]",
          "name": "Q",
          "type": "uint256[2]"
        }
      ],
      "name": "validateSignature",
      "outputs": [
        {
          "internalType": "bool",
          "name": "",
          "type": "bool"
        }
      ],
      "stateMutability": "pure",
      "type": "function"
    },
    {
      "inputs": [],
      "name": "zeroAffine",
      "outputs": [
        {
          "internalType": "uint256",
          "name": "x",
          "type": "uint256"
        },
        {
          "internalType": "uint256",
          "name": "y",
          "type": "uint256"
        }
      ],
      "stateMutability": "pure",
      "type": "function"
    },
    {
      "inputs": [],
      "name": "zeroProj",
      "outputs": [
        {
          "internalType": "uint256",
          "name": "x",
          "type": "uint256"
        },
        {
          "internalType": "uint256",
          "name": "y",
          "type": "uint256"
        },
        {
          "internalType": "uint256",
          "name": "z",
          "type": "uint256"
        }
      ],
      "stateMutability": "pure",
      "type": "function"
    }
  ],
  "bytecode": "0x608060405234801561001057600080fd5b50610fd8806100206000396000f3fe608060405234801561001057600080fd5b50600436106100f55760003560e01c8063713eca2811610097578063c30cfa2d11610066578063c30cfa2d14610205578063c80edca414610218578063e022d77c1461022b578063f214aba01461023e57600080fd5b8063713eca28146101b757806372fb4a14146101d75780637ec8da8d146101ea57806384dfba46146101fd57600080fd5b80630b0dbcfa116100d35780630b0dbcfa1461015d57806314c6706014610170578063322b24aa14610191578063675ca043146101a457600080fd5b806304e960d7146100fa57806309d3ef31146101225780630afb4ddc1461014a575b600080fd5b61010d610108366004610dd6565b610251565b60405190151581526020015b60405180910390f35b610135610130366004610e14565b6103ef565b60408051928352602083019190915201610119565b610135610158366004610e36565b61041e565b61010d61016b366004610e14565b610475565b60006001815b60408051938452602084019290925290820152606001610119565b61013561019f366004610e4f565b610567565b6101356101b2366004610e4f565b6105b8565b6101ca6101c5366004610e7b565b610608565b6040516101199190610ead565b6101356101e5366004610e4f565b610639565b6101ca6101f8366004610e14565b610705565b600080610135565b61010d610213366004610e14565b61075e565b610176610226366004610e4f565b610782565b610135610239366004610e7b565b6109c1565b61017661024c366004610ede565b6109f6565b8151600090158061027157508251600080516020610f8383398151915211155b8061027e57506020830151155b1561028b575060006103e8565b8151602083015161029c9190610475565b6102a8575060006103e8565b6000808080806102cd8860016020020151600080516020610f83833981519152610afd565b905061032b7f6b17d1f2e12c4247f8bce6e563a440f277037d812deb33a0f4a13945d898c2967f4fe342e2fe1a7f9b8ee7eb4a7c0f9e162bce33576b315ececbb6406837bf51f5600080516020610f83833981519152848d09610639565b885160208a01518b5193985091955061035992909190600080516020610f8383398151915290859009610639565b9094509150600061036c86858786610608565b604081015190915061038757600096505050505050506103e8565b60006103a88260026020020151600160601b63ffffffff60c01b0319610afd565b9050600160601b63ffffffff60c01b0319808283098351098a519091506103dd600080516020610f8383398151915283610f37565b149750505050505050505b9392505050565b600080600061040085856001610782565b919650945090506104128585836105b8565b92509250509250929050565b60008061046c7f6b17d1f2e12c4247f8bce6e563a440f277037d812deb33a0f4a13945d898c2967f4fe342e2fe1a7f9b8ee7eb4a7c0f9e162bce33576b315ececbb6406837bf51f585610639565b91509150915091565b60008215806104915750600160601b63ffffffff60c01b031983145b8061049a575081155b806104b25750600160601b63ffffffff60c01b031982145b156104bf57506000610561565b6000600160601b63ffffffff60c01b031983840990506000600160601b63ffffffff60c01b031985600160601b63ffffffff60c01b0319878809099050600160601b63ffffffff60c01b0319806bfffffffffffffffffffffffd63ffffffff60c01b0319870982089050600160601b63ffffffff60c01b03197f5ac635d8aa3a93e7b3ebbd55769886bc651d06b0cc53b0f63bce3c3e27d2604b820890501490505b92915050565b60008084846001835b8681101561059c57610583848484610782565b919550935091508061059481610f59565b915050610570565b506105a88383836105b8565b945094505050505b935093915050565b60008060006105d584600160601b63ffffffff60c01b0319610afd565b9050600160601b63ffffffff60c01b03198187099250600160601b63ffffffff60c01b0319818609915050935093915050565b610610610d3a565b60008061061f878787876109c1565b909250905061062e8282610705565b979650505050505050565b6000808261064e576000805b915091506105b0565b82600114156106615750839050826105b0565b82600214156106745761064585856103ef565b50839050828181600180610689600288610f37565b61069557600094508495505b600187901c96505b86156106ea576106ae848484610782565b919550935091506106c0600288610f37565b600114156106de576106d68484848989866109f6565b919750955090505b600187901c965061069d565b6106f58686836105b8565b9550955050505050935093915050565b61070d610d3a565b600160601b63ffffffff60c01b0319600160000860408201819052600160601b63ffffffff60c01b031990840981526040810151600160601b63ffffffff60c01b0319908309602082015292915050565b60008215801561076c575081155b1561077957506001610561565b50600092915050565b60008060008060008060006107978a8a61075e565b156107b0576000600181965096509650505050506109b8565b600160601b63ffffffff60c01b0319888a099250600160601b63ffffffff60c01b0319600284099250600160601b63ffffffff60c01b03198a84099150600160601b63ffffffff60c01b03198983099150600160601b63ffffffff60c01b0319600283099150600160601b63ffffffff60c01b03198a8b099950600160601b63ffffffff60c01b031960038b099350600160601b63ffffffff60c01b03198889099750600160601b63ffffffff60c01b03196bfffffffffffffffffffffffd63ffffffff60c01b031989099750600160601b63ffffffff60c01b03198885089350600160601b63ffffffff60c01b03198485099050600160601b63ffffffff60c01b0319826002099950600160601b63ffffffff60c01b03198a600160601b63ffffffff60c01b03190382089050600160601b63ffffffff60c01b031981600160601b63ffffffff60c01b03190383089950600160601b63ffffffff60c01b03198a85099950600160601b63ffffffff60c01b0319838a099850600160601b63ffffffff60c01b0319898a099850600160601b63ffffffff60c01b0319896002099850600160601b63ffffffff60c01b031989600160601b63ffffffff60c01b0319038b089550600160601b63ffffffff60c01b03198184099650600160601b63ffffffff60c01b03198384099450600160601b63ffffffff60c01b03198386099450505050505b93509350939050565b60008060006109d687876001888860016109f6565b919850965090506109e88787836105b8565b925092505094509492505050565b6000806000806000806000610a0b8d8d61075e565b15610a225789898996509650965050505050610af1565b610a2c8a8a61075e565b15610a43578c8c8c96509650965050505050610af1565b600160601b63ffffffff60c01b0319888d099350600160601b63ffffffff60c01b03198b8a099250600160601b63ffffffff60c01b0319888e099150600160601b63ffffffff60c01b03198b8b09905080821415610ac75782841415610abd57610aae8d8d8d610782565b96509650965050505050610af1565b6000600181610aae565b610ae5600160601b63ffffffff60c01b0319898d0983838688610b91565b91985096509450505050505b96509650969350505050565b6000821580610b0b57508183145b80610b14575081155b15610b2157506000610561565b81831115610b3657610b338284610f37565b92505b600060018385835b8115610b6d57818381610b5357610b53610f21565b949594048581029094039391928383029003919050610b3e565b6000851215610b855750505090830191506105619050565b50929695505050505050565b600080808080808080600160601b63ffffffff60c01b03198a600160601b63ffffffff60c01b0319038a089050600160601b63ffffffff60c01b03198b600160601b63ffffffff60c01b0319038d089450600160601b63ffffffff60c01b03198586099350600160601b63ffffffff60c01b03198182099150600160601b63ffffffff60c01b03198d83099150600160601b63ffffffff60c01b03198c8c089a50600160601b63ffffffff60c01b0319848c099a50600160601b63ffffffff60c01b03198b600160601b63ffffffff60c01b03190383089150600160601b63ffffffff60c01b03198286099750600160601b63ffffffff60c01b03198585099250600160601b63ffffffff60c01b0319848d099b50600160601b63ffffffff60c01b031982600160601b63ffffffff60c01b0319038d089b50600160601b63ffffffff60c01b03198c82099050600160601b63ffffffff60c01b0319838a099850600160601b63ffffffff60c01b031989600160601b63ffffffff60c01b03190382089650600160601b63ffffffff60c01b03198d840995505050505050955095509592505050565b60405180606001604052806003906020820280368337509192915050565b600082601f830112610d6957600080fd5b6040516040810181811067ffffffffffffffff82111715610d9a57634e487b7160e01b600052604160045260246000fd5b8060405250806040840185811115610db157600080fd5b845b81811015610dcb578035835260209283019201610db3565b509195945050505050565b600080600060a08486031215610deb57600080fd5b83359250610dfc8560208601610d58565b9150610e0b8560608601610d58565b90509250925092565b60008060408385031215610e2757600080fd5b50508035926020909101359150565b600060208284031215610e4857600080fd5b5035919050565b600080600060608486031215610e6457600080fd5b505081359360208301359350604090920135919050565b60008060008060808587031215610e9157600080fd5b5050823594602084013594506040840135936060013592509050565b60608101818360005b6003811015610ed5578151835260209283019290910190600101610eb6565b50505092915050565b60008060008060008060c08789031215610ef757600080fd5b505084359660208601359650604086013595606081013595506080810135945060a0013592509050565b634e487b7160e01b600052601260045260246000fd5b600082610f5457634e487b7160e01b600052601260045260246000fd5b500690565b6000600019821415610f7b57634e487b7160e01b600052601160045260246000fd5b506001019056feffffffff00000000ffffffffffffffffbce6faada7179e84f3b9cac2fc632551a26469706673582212200c121fb6572d0291ce2cbc9b4976a3f3084fd45a05ef60639fed605a8eb65a1164736f6c634300080c0033",
  "linkReferences": {},
  "deployedLinkReferences": {}
}