{
  "_format": "hh-sol-artifact-1",
  "contractName": "Create2Factory",
  "sourceName": "contracts/Create2Factory.sol",
  "abi": [
    {
      "anonymous": false,
      "inputs": [
        {
          "indexed": false,
          "internalType": "address",
          "name": "createdContract",
          "type": "address"
        }
      ],
      "name": "Deployed",
      "type": "event"
    },
    {
      "inputs": [
        {
          "internalType": "bytes",
          "name": "bytecode",
          "type": "bytes"
        },
        {
          "internalType": "bytes32",
          "name": "salt",
          "type": "bytes32"
        }
      ],
      "name": "computeAddress",
      "outputs": [
        {
          "internalType": "address",
          "name": "",
          "type": "address"
        }
      ],
      "stateMutability": "view",
      "type": "function"
    },
    {
      "inputs": [
        {
          "internalType": "bytes",
          "name": "bytecode",
          "type": "bytes"
        },
        {
          "internalType": "bytes32",
          "name": "salt",
          "type": "bytes32"
        }
      ],
      "name": "deploy",
      "outputs": [
        {
          "internalType": "address",
          "name": "",
          "type": "address"
        }
      ],
      "stateMutability": "nonpayable",
      "type": "function"
    }
  ],
  "bytecode": "0x608060405234801561001057600080fd5b50610285806100206000396000f3fe608060405234801561001057600080fd5b50600436106100365760003560e01c80633e4b9f7a1461003b5780634af63f02146100ca575b600080fd5b6100ae61004936600461019a565b8151602092830120604080516001600160f81b0319818601523060601b6bffffffffffffffffffffffff19166021820152603581019390935260558084019290925280518084039092018252607590920190915280519101206001600160a01b031690565b6040516001600160a01b03909116815260200160405180910390f35b6100ae6100d836600461019a565b600080828451602086016000f590506001600160a01b0381166101415760405162461bcd60e51b815260206004820152601960248201527f437265617465323a204661696c6564206f6e206465706c6f7900000000000000604482015260640160405180910390fd5b6040516001600160a01b03821681527ff40fcec21964ffb566044d083b4073f29f7f7929110ea19e1b3ebe375d89055e9060200160405180910390a19392505050565b634e487b7160e01b600052604160045260246000fd5b600080604083850312156101ad57600080fd5b823567ffffffffffffffff808211156101c557600080fd5b818501915085601f8301126101d957600080fd5b8135818111156101eb576101eb610184565b604051601f8201601f19908116603f0116810190838211818310171561021357610213610184565b8160405282815288602084870101111561022c57600080fd5b82602086016020830137600060209382018401529896909101359650505050505056fea2646970667358221220b00478d827791e0a9dc4facfde936fe74ec421d04f75de26f99d79eee328325564736f6c634300080c0033",
  "linkReferences": {},
  "deployedLinkReferences": {}
}