{
  "_format": "hh-sol-artifact-1",
  "contractName": "MyWalletDeployer",
  "sourceName": "contracts/MyWalletDeployer.sol",
  "abi": [
    {
      "inputs": [
        {
          "internalType": "contract IEntryPoint",
          "name": "entryPoint",
          "type": "address"
        },
        {
          "internalType": "address",
          "name": "owner",
          "type": "address"
        },
        {
          "internalType": "uint256",
          "name": "root",
          "type": "uint256"
        },
        {
          "internalType": "uint256",
          "name": "salt",
          "type": "uint256"
        },
        {
          "internalType": "uint256[2]",
          "name": "_qValues",
          "type": "uint256[2]"
        },
        {
          "internalType": "address",
          "name": "_ellipticCurve",
          "type": "address"
        }
      ],
      "name": "deployWallet",
      "outputs": [
        {
          "internalType": "contract MyWallet",
          "name": "",
          "type": "address"
        }
      ],
      "stateMutability": "nonpayable",
      "type": "function"
    },
    {
      "inputs": [
        {
          "internalType": "contract IEntryPoint",
          "name": "entryPoint",
          "type": "address"
        },
        {
          "internalType": "address",
          "name": "owner",
          "type": "address"
        },
        {
          "internalType": "uint256",
          "name": "root",
          "type": "uint256"
        },
        {
          "internalType": "uint256",
          "name": "salt",
          "type": "uint256"
        },
        {
          "internalType": "uint256[2]",
          "name": "_qValues",
          "type": "uint256[2]"
        },
        {
          "internalType": "address",
          "name": "_ellipticCurve",
          "type": "address"
        }
      ],
      "name": "getDeploymentAddress",
      "outputs": [
        {
          "internalType": "address",
          "name": "",
          "type": "address"
        }
      ],
      "stateMutability": "view",
      "type": "function"
    }
  ],
  "bytecode": "0x608060405234801561001057600080fd5b50611973806100206000396000f3fe608060405234801561001057600080fd5b50600436106100365760003560e01c8063cbd8b7ab1461003b578063cdd871611461006a575b600080fd5b61004e6100493660046101fd565b61007d565b6040516001600160a01b03909116815260200160405180910390f35b61004e6100783660046101fd565b6100ce565b60008360001b8787878686604051610094906101b2565b6100a29594939291906102c2565b8190604051809103906000f59050801580156100c2573d6000803e3d6000fd5b50979650505050505050565b60008060ff60f81b3086604051806020016100e8906101b2565b601f1982820381018352601f909101166040819052610113908d908d908d908c908c906020016102c2565b60408051601f1981840301815290829052610131929160200161035f565b6040516020818303038152906040528051906020012060405160200161018e94939291906001600160f81b031994909416845260609290921b6bffffffffffffffffffffffff191660018401526015830152603582015260550190565b60408051808303601f19018152919052805160209091012098975050505050505050565b6115c18061037d83390190565b6001600160a01b03811681146101d457600080fd5b50565b80356101e2816101bf565b919050565b634e487b7160e01b600052604160045260246000fd5b60008060008060008060e0878903121561021657600080fd5b8635610221816101bf565b9550602087810135610232816101bf565b95506040880135945060608801359350609f8801891361025157600080fd5b6040516040810181811067ffffffffffffffff82111715610274576102746101e7565b6040528060c08a018b81111561028957600080fd5b60808b015b818110156102a5578035835291840191840161028e565b508295506102b2816101d7565b9450505050509295509295509295565b6001600160a01b0386811682528581166020808401919091526040830186905260c083019190606084018660005b600281101561030d578151835291830191908301906001016102f0565b5050505080841660a0840152509695505050505050565b6000815160005b81811015610345576020818501810151868301520161032b565b81811115610354576000828601525b509290920192915050565b600061037461036e8386610324565b84610324565b94935050505056fe608060405260006003553480156200001657600080fd5b50604051620015c1380380620015c183398101604081905262000039916200017c565b600780546001600160a01b038088166001600160a01b031992831617909255600080549287166c01000000000000000000000000026001600160601b0390931692909217909155600284815560018054909216739bd0782cc9c70a57acac290077a7e0fc8a4e7c4b17909155620000b5906004908490620000e1565b50600680546001600160a01b0319166001600160a01b0392909216919091179055506200024a92505050565b826002810192821562000112579160200282015b8281111562000112578251825591602001919060010190620000f5565b506200012092915062000124565b5090565b5b8082111562000120576000815560010162000125565b6001600160a01b03811681146200015157600080fd5b50565b805162000161816200013b565b919050565b634e487b7160e01b600052604160045260246000fd5b600080600080600060c086880312156200019557600080fd5b8551620001a2816200013b565b80955050602080870151620001b7816200013b565b809550506040870151935087607f880112620001d257600080fd5b604080519081016001600160401b0381118282101715620001f757620001f762000166565b6040528060a089018a8111156200020d57600080fd5b60608a015b818110156200022b578051835291840191840162000212565b508295506200023a8162000154565b9450505050509295509295909350565b611367806200025a6000396000f3fe60806040526004361061010d5760003560e01c8063a97cd4bb11610095578063c399ec8811610064578063c399ec88146102c3578063d0cb75fa146102d8578063e1a3fca3146102f8578063eaaa734c14610318578063ebf0c7171461035a57600080fd5b8063a97cd4bb14610247578063affed0e014610267578063b0d691fe1461028f578063bf98a6e4146102ad57600080fd5b80634d44560d116100dc5780634d44560d14610183578063663ea2e2146101a357806380c5c7d0146101e05780638da5cb5b14610200578063a9059cbb1461022757600080fd5b80631b71bb6e1461011957806331e33df31461013b5780633ef91dfb1461015b5780634a58db191461017b57600080fd5b3661011457005b600080fd5b34801561012557600080fd5b50610139610134366004610cbe565b610370565b005b34801561014757600080fd5b50610139610156366004610db8565b610384565b34801561016757600080fd5b50610139610176366004610e7d565b61039a565b61013961049d565b34801561018f57600080fd5b5061013961019e366004610ed9565b61050e565b3480156101af57600080fd5b506001546101c3906001600160a01b031681565b6040516001600160a01b0390911681526020015b60405180910390f35b3480156101ec57600080fd5b506101396101fb366004610f05565b610582565b34801561020c57600080fd5b506000546101c390600160601b90046001600160a01b031681565b34801561023357600080fd5b50610139610242366004610ed9565b6105c9565b34801561025357600080fd5b50610139610262366004610f8e565b61060c565b34801561027357600080fd5b506000546001600160601b03165b6040519081526020016101d7565b34801561029b57600080fd5b506007546001600160a01b03166101c3565b3480156102b957600080fd5b5061028160035481565b3480156102cf57600080fd5b5061028161063b565b3480156102e457600080fd5b506101396102f3366004610ff5565b6106be565b34801561030457600080fd5b50610139610313366004611055565b61076d565b34801561032457600080fd5b506101396103333660046110ce565b600291909155600180546001600160a01b0319166001600160a01b03909216919091179055565b34801561036657600080fd5b5061028160025481565b6103786108f1565b610381816108fb565b50565b61039286868686858761076d565b505050505050565b6103a2610957565b600080600080858560018181106103bb576103bb6110fe565b90506020028101906103cd9190611114565b8101906103da919061115b565b93509350935093506103ee848484846109af565b61042f5760405162461bcd60e51b815260206004820152600d60248201526c24b73b30b634b210383937b7b360991b60448201526064015b60405180910390fd5b610493888888886000818110610447576104476110fe565b90506020028101906104599190611114565b8080601f016020809104026020016040519081016040528093929190818152602001838380828437600092019190915250610b0092505050565b5050505050505050565b60006104b16007546001600160a01b031690565b6001600160a01b03163460405160006040518083038185875af1925050503d80600081146104fb576040519150601f19603f3d011682016040523d82523d6000602084013e610500565b606091505b505090508061038157600080fd5b610516610957565b6007546001600160a01b031660405163040b850f60e31b81526001600160a01b03848116600483015260248201849052919091169063205c287890604401600060405180830381600087803b15801561056e57600080fd5b505af1158015610392573d6000803e3d6000fd5b6105c3848484848080601f016020809104026020016040519081016040528093929190818152602001838380828437600092019190915250610b0092505050565b50505050565b6105d1610957565b6040516001600160a01b0383169082156108fc029083906000818181858888f19350505050158015610607573d6000803e3d6000fd5b505050565b610614610b70565b6106216040850185611114565b151590506106325761063284610bca565b6105c381610c5c565b600061064f6007546001600160a01b031690565b6040516370a0823160e01b81523060048201526001600160a01b0391909116906370a0823190602401602060405180830381865afa158015610695573d6000803e3d6000fd5b505050506040513d601f19601f820116820180604052508101906106b991906111b5565b905090565b6106c6610957565b82811461070b5760405162461bcd60e51b815260206004820152601360248201527277726f6e67206172726179206c656e6774687360681b6044820152606401610426565b60005b838110156107665761075485858381811061072b5761072b6110fe565b90506020020160208101906107409190610cbe565b6000858585818110610447576104476110fe565b8061075e816111e4565b91505061070e565b5050505050565b600154604051637ae4eb4f60e11b815287918791879187916001600160a01b039091169063f5c9d69e906107ab908790879087908790600401611222565b602060405180830381865afa1580156107c8573d6000803e3d6000fd5b505050506040513d601f19601f820116820180604052508101906107ec91906112ad565b6108285760405162461bcd60e51b815260206004820152600d60248201526c34b73b30b634b210383937b7b360991b6044820152606401610426565b6002548151146108695760405162461bcd60e51b815260206004820152600c60248201526b1a5b9d985b1a59081c9bdbdd60a21b6044820152606401610426565b6003546020820151116108a85760405162461bcd60e51b815260206004820152600760248201526606f6c64204f54560cc1b6044820152606401610426565b6040516001600160a01b0387169086156108fc029087906000818181858888f193505050501580156108de573d6000803e3d6000fd5b5060200151600355505050505050505050565b6108f9610957565b565b6007546040516001600160a01b038084169216907f450909c1478d09248269d4ad4fa8cba61ca3f50faed58c7aedefa51c7f62b83a90600090a3600780546001600160a01b0319166001600160a01b0392909216919091179055565b600054600160601b90046001600160a01b031633148061097657503330145b6108f95760405162461bcd60e51b815260206004820152600a60248201526937b7363c9037bbb732b960b11b6044820152606401610426565b600154604051637ae4eb4f60e11b815260009186918691869186916001600160a01b03169063f5c9d69e906109ee908790879087908790600401611222565b602060405180830381865afa158015610a0b573d6000803e3d6000fd5b505050506040513d601f19601f82011682018060405250810190610a2f91906112ad565b610a6b5760405162461bcd60e51b815260206004820152600d60248201526c34b73b30b634b210383937b7b360991b6044820152606401610426565b600254815114610aac5760405162461bcd60e51b815260206004820152600c60248201526b1a5b9d985b1a59081c9bdbdd60a21b6044820152606401610426565b600354602082015111610aeb5760405162461bcd60e51b815260206004820152600760248201526606f6c64204f54560cc1b6044820152606401610426565b60200151600355506001979650505050505050565b600080846001600160a01b03168484604051610b1c91906112cf565b60006040518083038185875af1925050503d8060008114610b59576040519150601f19603f3d011682016040523d82523d6000602084013e610b5e565b606091505b50915091508161076657805160208201fd5b6007546001600160a01b031633146108f95760405162461bcd60e51b815260206004820152601b60248201527f77616c6c65743a206e6f742066726f6d20456e747279506f696e7400000000006044820152606401610426565b600080546020830135916001600160601b039091169080610bea8361130a565b91906101000a8154816001600160601b0302191690836001600160601b031602179055506001600160601b0316146103815760405162461bcd60e51b815260206004820152601560248201527477616c6c65743a20696e76616c6964206e6f6e636560581b6044820152606401610426565b801561038157604051600090339060001990849084818181858888f193505050503d8060008114610766576040519150601f19603f3d011682016040523d82523d6000602084013e610766565b6001600160a01b038116811461038157600080fd5b600060208284031215610cd057600080fd5b8135610cdb81610ca9565b9392505050565b6040805190810167ffffffffffffffff81118282101715610d1357634e487b7160e01b600052604160045260246000fd5b60405290565b600082601f830112610d2a57600080fd5b610d32610ce2565b806040840185811115610d4457600080fd5b845b81811015610d5e578035845260209384019301610d46565b509095945050505050565b600082601f830112610d7a57600080fd5b610d82610ce2565b806080840185811115610d9457600080fd5b845b81811015610d5e57610da88782610d19565b8452602090930192604001610d96565b6000806000806000806101808789031215610dd257600080fd5b610ddc8888610d19565b9550610deb8860408901610d69565b9450610dfa8860c08901610d19565b9350610e0a886101008901610d19565b92506101408701359150610160870135610e2381610ca9565b809150509295509295509295565b60008083601f840112610e4357600080fd5b50813567ffffffffffffffff811115610e5b57600080fd5b6020830191508360208260051b8501011115610e7657600080fd5b9250929050565b60008060008060608587031215610e9357600080fd5b8435610e9e81610ca9565b935060208501359250604085013567ffffffffffffffff811115610ec157600080fd5b610ecd87828801610e31565b95989497509550505050565b60008060408385031215610eec57600080fd5b8235610ef781610ca9565b946020939093013593505050565b60008060008060608587031215610f1b57600080fd5b8435610f2681610ca9565b935060208501359250604085013567ffffffffffffffff80821115610f4a57600080fd5b818701915087601f830112610f5e57600080fd5b813581811115610f6d57600080fd5b886020828501011115610f7f57600080fd5b95989497505060200194505050565b60008060008060808587031215610fa457600080fd5b843567ffffffffffffffff811115610fbb57600080fd5b85016101c08188031215610fce57600080fd5b9350602085013592506040850135610fe581610ca9565b9396929550929360600135925050565b6000806000806040858703121561100b57600080fd5b843567ffffffffffffffff8082111561102357600080fd5b61102f88838901610e31565b9096509450602087013591508082111561104857600080fd5b50610ecd87828801610e31565b600080600080600080610180878903121561106f57600080fd5b6110798888610d19565b95506110888860408901610d69565b94506110978860c08901610d19565b93506110a7886101008901610d19565b92506101408701356110b881610ca9565b8092505061016087013590509295509295509295565b600080604083850312156110e157600080fd5b8235915060208301356110f381610ca9565b809150509250929050565b634e487b7160e01b600052603260045260246000fd5b6000808335601e1984360301811261112b57600080fd5b83018035915067ffffffffffffffff82111561114657600080fd5b602001915036819003821315610e7657600080fd5b600080600080610140858703121561117257600080fd5b61117c8686610d19565b935061118b8660408701610d69565b925061119a8660c08701610d19565b91506111aa866101008701610d19565b905092959194509250565b6000602082840312156111c757600080fd5b5051919050565b634e487b7160e01b600052601160045260246000fd5b60006000198214156111f8576111f86111ce565b5060010190565b8060005b60028110156105c3578151845260209384019390910190600101611203565b610140810161123182876111ff565b6040808301866000805b600280821061124a5750611284565b835185845b8381101561126d57825182526020928301929091019060010161124f565b50505093850193506020929092019160010161123b565b505050505061129660c08301856111ff565b6112a46101008301846111ff565b95945050505050565b6000602082840312156112bf57600080fd5b81518015158114610cdb57600080fd5b6000825160005b818110156112f057602081860181015185830152016112d6565b818111156112ff576000828501525b509190910192915050565b60006001600160601b0380831681811415611327576113276111ce565b600101939250505056fea26469706673582212207d05581545f75fef39abadf8616999832280d0431240a9930d661a77c281a0e464736f6c634300080c0033a264697066735822122038cffa9ae7c58d4591adaee320bde32773d07ba7e91fc1881401c6534e4aa3ee64736f6c634300080c0033",
  "linkReferences": {},
  "deployedLinkReferences": {}
}