{
  "_format": "hh-sol-artifact-1",
  "contractName": "MyWalletDeployer",
  "sourceName": "contracts/MyWalletDeployer.sol",
  "abi": [
    {
      "inputs": [
        {
          "internalType": "contract IEntryPoint",
          "name": "entryPoint",
          "type": "address"
        },
        {
          "internalType": "address",
          "name": "owner",
          "type": "address"
        },
        {
          "internalType": "uint256",
          "name": "salt",
          "type": "uint256"
        },
        {
          "internalType": "uint256[2]",
          "name": "_qValues",
          "type": "uint256[2]"
        },
        {
          "internalType": "address",
          "name": "_ellipticCurve",
          "type": "address"
        }
      ],
      "name": "deployWallet",
      "outputs": [
        {
          "internalType": "contract MyTouchIdWallet",
          "name": "",
          "type": "address"
        }
      ],
      "stateMutability": "nonpayable",
      "type": "function"
    },
    {
      "inputs": [
        {
          "internalType": "contract IEntryPoint",
          "name": "entryPoint",
          "type": "address"
        },
        {
          "internalType": "address",
          "name": "owner",
          "type": "address"
        },
        {
          "internalType": "uint256",
          "name": "salt",
          "type": "uint256"
        },
        {
          "internalType": "uint256[2]",
          "name": "_qValues",
          "type": "uint256[2]"
        },
        {
          "internalType": "address",
          "name": "_ellipticCurve",
          "type": "address"
        }
      ],
      "name": "getDeploymentAddress",
      "outputs": [
        {
          "internalType": "address",
          "name": "",
          "type": "address"
        }
      ],
      "stateMutability": "view",
      "type": "function"
    }
  ],
  "bytecode": "0x608060405234801561001057600080fd5b50611857806100206000396000f3fe608060405234801561001057600080fd5b50600436106100365760003560e01c8063859291c31461003b5780638cf66e3414610077575b600080fd5b61004e6100493660046102af565b61008a565b60405173ffffffffffffffffffffffffffffffffffffffff909116815260200160405180910390f35b61004e6100853660046102af565b6101f0565b60008060ff60f81b3086604051806020016100a49061023e565b7fffffffffffffffffffffffffffffffffffffffffffffffffffffffffffffffe082820381018352601f9091011660408190526100eb908c908c908b908b9060200161036c565b604080517fffffffffffffffffffffffffffffffffffffffffffffffffffffffffffffffe081840301815290829052610127929160200161040d565b604051602081830303815290604052805190602001206040516020016101af94939291907fff0000000000000000000000000000000000000000000000000000000000000094909416845260609290921b7fffffffffffffffffffffffffffffffffffffffff0000000000000000000000001660018401526015830152603582015260550190565b604080518083037fffffffffffffffffffffffffffffffffffffffffffffffffffffffffffffffe00181529190528051602090910120979650505050505050565b60008360001b868685856040516102069061023e565b610213949392919061036c565b8190604051809103906000f5905080158015610233573d6000803e3d6000fd5b509695505050505050565b6113f78061042b83390190565b73ffffffffffffffffffffffffffffffffffffffff8116811461026d57600080fd5b50565b803561027b8161024b565b919050565b7f4e487b7100000000000000000000000000000000000000000000000000000000600052604160045260246000fd5b600080600080600060c086880312156102c757600080fd5b85356102d28161024b565b94506020868101356102e38161024b565b945060408701359350607f870188136102fb57600080fd5b6040516040810181811067ffffffffffffffff8211171561031e5761031e610280565b6040528060a089018a81111561033357600080fd5b60608a015b8181101561034f5780358352918401918401610338565b5082955061035c81610270565b9450505050509295509295909350565b600060a08201905073ffffffffffffffffffffffffffffffffffffffff8087168352602081871681850152604084018660005b60028110156103bc5781518352918301919083019060010161039f565b5050505080841660808401525095945050505050565b6000815160005b818110156103f357602081850181015186830152016103d9565b81811115610402576000828601525b509290920192915050565b600061042261041c83866103d2565b846103d2565b94935050505056fe608060405260006001553480156200001657600080fd5b50604051620013f7380380620013f7833981016040819052620000399162000155565b600580546001600160a01b0319166001600160a01b0386811691909117909155600080546001600160601b03166c01000000000000000000000000928616929092029190911790556200008f60028381620000ba565b50600480546001600160a01b0319166001600160a01b03929092169190911790555062000217915050565b8260028101928215620000eb579160200282015b82811115620000eb578251825591602001919060010190620000ce565b50620000f9929150620000fd565b5090565b5b80821115620000f95760008155600101620000fe565b6001600160a01b03811681146200012a57600080fd5b50565b80516200013a8162000114565b919050565b634e487b7160e01b600052604160045260246000fd5b60008060008060a085870312156200016c57600080fd5b8451620001798162000114565b809450506020808601516200018e8162000114565b9350605f86018713620001a057600080fd5b604080519081016001600160401b0381118282101715620001c557620001c56200013f565b604052806080880189811115620001db57600080fd5b604089015b81811015620001f95780518352918401918401620001e0565b5082955062000208816200012d565b94505050505092959194509250565b6111d080620002276000396000f3fe6080604052600436106100d65760003560e01c80638da5cb5b1161007f578063b0d691fe11610059578063b0d691fe14610240578063bf98a6e41461026b578063c399ec8814610281578063d0cb75fa1461029657600080fd5b80638da5cb5b1461018c578063a9059cbb146101f3578063affed0e01461021357600080fd5b80634a58db19116100b05780634a58db19146101445780634d44560d1461014c57806380c5c7d01461016c57600080fd5b80630825d1fc146100e25780631b71bb6e146101045780633ef91dfb1461012457600080fd5b366100dd57005b600080fd5b3480156100ee57600080fd5b506101026100fd366004610be9565b6102b6565b005b34801561011057600080fd5b5061010261011f366004610c50565b6102f7565b34801561013057600080fd5b5061010261013f366004610cc0565b61030b565b6101026103c1565b34801561015857600080fd5b50610102610167366004610d1c565b61044c565b34801561017857600080fd5b50610102610187366004610d48565b6104fb565b34801561019857600080fd5b506000546101c9906c01000000000000000000000000900473ffffffffffffffffffffffffffffffffffffffff1681565b60405173ffffffffffffffffffffffffffffffffffffffff90911681526020015b60405180910390f35b3480156101ff57600080fd5b5061010261020e366004610d1c565b61053c565b34801561021f57600080fd5b506000546bffffffffffffffffffffffff165b6040519081526020016101ea565b34801561024c57600080fd5b5060055473ffffffffffffffffffffffffffffffffffffffff166101c9565b34801561027757600080fd5b5061023260015481565b34801561028d57600080fd5b5061023261058c565b3480156102a257600080fd5b506101026102b1366004610dd1565b610642565b6102be61071a565b6102c984848461079d565b6102d66040850185610e31565b90506000036102e8576102e8846108e6565b6102f1816109ae565b50505050565b6102ff610a19565b61030881610a21565b50565b610313610aaf565b6000806000808585600181811061032c5761032c610e96565b905060200281019061033e9190610e31565b81019061034b9190610f65565b93509350935093506103b788888888600081811061036b5761036b610e96565b905060200281019061037d9190610e31565b8080601f016020809104026020016040519081016040528093929190818152602001838380828437600092019190915250610b4a92505050565b5050505050505050565b60006103e260055473ffffffffffffffffffffffffffffffffffffffff1690565b73ffffffffffffffffffffffffffffffffffffffff163460405160006040518083038185875af1925050503d8060008114610439576040519150601f19603f3d011682016040523d82523d6000602084013e61043e565b606091505b505090508061030857600080fd5b610454610aaf565b60055473ffffffffffffffffffffffffffffffffffffffff166040517f205c287800000000000000000000000000000000000000000000000000000000815273ffffffffffffffffffffffffffffffffffffffff848116600483015260248201849052919091169063205c287890604401600060405180830381600087803b1580156104df57600080fd5b505af11580156104f3573d6000803e3d6000fd5b505050505050565b6102f1848484848080601f016020809104026020016040519081016040528093929190818152602001838380828437600092019190915250610b4a92505050565b610544610aaf565b60405173ffffffffffffffffffffffffffffffffffffffff83169082156108fc029083906000818181858888f19350505050158015610587573d6000803e3d6000fd5b505050565b60006105ad60055473ffffffffffffffffffffffffffffffffffffffff1690565b6040517f70a0823100000000000000000000000000000000000000000000000000000000815230600482015273ffffffffffffffffffffffffffffffffffffffff91909116906370a0823190602401602060405180830381865afa158015610619573d6000803e3d6000fd5b505050506040513d601f19601f8201168201806040525081019061063d9190611005565b905090565b61064a610aaf565b8281146106b8576040517f08c379a000000000000000000000000000000000000000000000000000000000815260206004820152601360248201527f77726f6e67206172726179206c656e677468730000000000000000000000000060448201526064015b60405180910390fd5b60005b83811015610713576107018585838181106106d8576106d8610e96565b90506020020160208101906106ed9190610c50565b600085858581811061036b5761036b610e96565b8061070b8161104d565b9150506106bb565b5050505050565b60055473ffffffffffffffffffffffffffffffffffffffff16331461079b576040517f08c379a000000000000000000000000000000000000000000000000000000000815260206004820152601b60248201527f77616c6c65743a206e6f742066726f6d20456e747279506f696e74000000000060448201526064016106af565b565b600080806107af610140870187610e31565b8101906107bc9190611085565b600480546040805180820182528681526020810186905290517f04e960d700000000000000000000000000000000000000000000000000000000815295985093965091945060009373ffffffffffffffffffffffffffffffffffffffff909216926304e960d79261083392879291600291016110b1565b602060405180830381865afa158015610850573d6000803e3d6000fd5b505050506040513d601f19601f820116820180604052508101906108749190611112565b9050806108dd576040517f08c379a000000000000000000000000000000000000000000000000000000000815260206004820152601d60248201527f5369676e617475726520766572696669636174696f6e206661696c656400000060448201526064016106af565b50505050505050565b600080546020830135916bffffffffffffffffffffffff909116908061090b83611134565b91906101000a8154816bffffffffffffffffffffffff02191690836bffffffffffffffffffffffff1602179055506bffffffffffffffffffffffff1614610308576040517f08c379a000000000000000000000000000000000000000000000000000000000815260206004820152601560248201527f77616c6c65743a20696e76616c6964206e6f6e6365000000000000000000000060448201526064016106af565b80156103085760405160009033907fffffffffffffffffffffffffffffffffffffffffffffffffffffffffffffffff90849084818181858888f193505050503d8060008114610713576040519150601f19603f3d011682016040523d82523d6000602084013e610713565b61079b610aaf565b60055460405173ffffffffffffffffffffffffffffffffffffffff8084169216907f450909c1478d09248269d4ad4fa8cba61ca3f50faed58c7aedefa51c7f62b83a90600090a3600580547fffffffffffffffffffffffff00000000000000000000000000000000000000001673ffffffffffffffffffffffffffffffffffffffff92909216919091179055565b6000546c01000000000000000000000000900473ffffffffffffffffffffffffffffffffffffffff16331480610ae457503330145b61079b576040517f08c379a000000000000000000000000000000000000000000000000000000000815260206004820152600a60248201527f6f6e6c79206f776e65720000000000000000000000000000000000000000000060448201526064016106af565b6000808473ffffffffffffffffffffffffffffffffffffffff168484604051610b73919061115f565b60006040518083038185875af1925050503d8060008114610bb0576040519150601f19603f3d011682016040523d82523d6000602084013e610bb5565b606091505b50915091508161071357805160208201fd5b73ffffffffffffffffffffffffffffffffffffffff8116811461030857600080fd5b60008060008060808587031215610bff57600080fd5b843567ffffffffffffffff811115610c1657600080fd5b85016101608188031215610c2957600080fd5b9350602085013592506040850135610c4081610bc7565b9396929550929360600135925050565b600060208284031215610c6257600080fd5b8135610c6d81610bc7565b9392505050565b60008083601f840112610c8657600080fd5b50813567ffffffffffffffff811115610c9e57600080fd5b6020830191508360208260051b8501011115610cb957600080fd5b9250929050565b60008060008060608587031215610cd657600080fd5b8435610ce181610bc7565b935060208501359250604085013567ffffffffffffffff811115610d0457600080fd5b610d1087828801610c74565b95989497509550505050565b60008060408385031215610d2f57600080fd5b8235610d3a81610bc7565b946020939093013593505050565b60008060008060608587031215610d5e57600080fd5b8435610d6981610bc7565b935060208501359250604085013567ffffffffffffffff80821115610d8d57600080fd5b818701915087601f830112610da157600080fd5b813581811115610db057600080fd5b886020828501011115610dc257600080fd5b95989497505060200194505050565b60008060008060408587031215610de757600080fd5b843567ffffffffffffffff80821115610dff57600080fd5b610e0b88838901610c74565b90965094506020870135915080821115610e2457600080fd5b50610d1087828801610c74565b60008083357fffffffffffffffffffffffffffffffffffffffffffffffffffffffffffffffe1843603018112610e6657600080fd5b83018035915067ffffffffffffffff821115610e8157600080fd5b602001915036819003821315610cb957600080fd5b7f4e487b7100000000000000000000000000000000000000000000000000000000600052603260045260246000fd5b6040805190810167ffffffffffffffff81118282101715610f0f577f4e487b7100000000000000000000000000000000000000000000000000000000600052604160045260246000fd5b60405290565b600082601f830112610f2657600080fd5b610f2e610ec5565b806040840185811115610f4057600080fd5b845b81811015610f5a578035845260209384019301610f42565b509095945050505050565b6000806000806101408587031215610f7c57600080fd5b610f868686610f15565b9350604086605f870112610f9957600080fd5b610fa1610ec5565b8060c0880189811115610fb357600080fd5b8389015b81811015610fd857610fc98b82610f15565b84526020909301928401610fb7565b50819650610fe68a82610f15565b955050505050610ffa866101008701610f15565b905092959194509250565b60006020828403121561101757600080fd5b5051919050565b7f4e487b7100000000000000000000000000000000000000000000000000000000600052601160045260246000fd5b60007fffffffffffffffffffffffffffffffffffffffffffffffffffffffffffffffff820361107e5761107e61101e565b5060010190565b60008060006060848603121561109a57600080fd5b505081359360208301359350604090920135919050565b83815260a0810160208083018560005b60028110156110de578151835291830191908301906001016110c1565b505050606083018460005b6002811015611106578154835291830191600191820191016110e9565b50505050949350505050565b60006020828403121561112457600080fd5b81518015158114610c6d57600080fd5b60006bffffffffffffffffffffffff8083168181036111555761115561101e565b6001019392505050565b6000825160005b818110156111805760208186018101518583015201611166565b8181111561118f576000828501525b50919091019291505056fea264697066735822122014f2b85bb3d19ce59667bf71a3656286104b9638394dff6b3f0f858fc763e56964736f6c634300080f0033a26469706673582212201723526406559f0f7856bdcd7c64a908f38f19d40fa00a445533e08ab9e993e264736f6c634300080f0033",
  "linkReferences": {},
  "deployedLinkReferences": {}
}