{
  "_format": "hh-sol-artifact-1",
  "contractName": "OTP",
  "sourceName": "contracts/OTP.sol",
  "abi": [
    {
      "inputs": [
        {
          "internalType": "address",
          "name": "_verifier",
          "type": "address"
        },
        {
          "internalType": "uint256",
          "name": "merkleRoot",
          "type": "uint256"
        }
      ],
      "stateMutability": "nonpayable",
      "type": "constructor"
    },
    {
      "inputs": [
        {
          "internalType": "uint256[2]",
          "name": "a",
          "type": "uint256[2]"
        },
        {
          "internalType": "uint256[2][2]",
          "name": "b",
          "type": "uint256[2][2]"
        },
        {
          "internalType": "uint256[2]",
          "name": "c",
          "type": "uint256[2]"
        },
        {
          "internalType": "uint256[2]",
          "name": "input",
          "type": "uint256[2]"
        }
      ],
      "name": "blockApproval",
      "outputs": [],
      "stateMutability": "nonpayable",
      "type": "function"
    },
    {
      "inputs": [],
      "name": "dummy",
      "outputs": [
        {
          "internalType": "uint256",
          "name": "",
          "type": "uint256"
        }
      ],
      "stateMutability": "view",
      "type": "function"
    },
    {
      "inputs": [],
      "name": "lastUsedTime",
      "outputs": [
        {
          "internalType": "uint256",
          "name": "",
          "type": "uint256"
        }
      ],
      "stateMutability": "view",
      "type": "function"
    },
    {
      "inputs": [
        {
          "internalType": "uint256[2]",
          "name": "a",
          "type": "uint256[2]"
        },
        {
          "internalType": "uint256[2][2]",
          "name": "b",
          "type": "uint256[2][2]"
        },
        {
          "internalType": "uint256[2]",
          "name": "c",
          "type": "uint256[2]"
        },
        {
          "internalType": "uint256[2]",
          "name": "input",
          "type": "uint256[2]"
        },
        {
          "internalType": "address",
          "name": "_to",
          "type": "address"
        }
      ],
      "name": "naiveApproval",
      "outputs": [],
      "stateMutability": "payable",
      "type": "function"
    },
    {
      "inputs": [],
      "name": "root",
      "outputs": [
        {
          "internalType": "uint256",
          "name": "",
          "type": "uint256"
        }
      ],
      "stateMutability": "view",
      "type": "function"
    },
    {
      "inputs": [],
      "name": "verifierAddr",
      "outputs": [
        {
          "internalType": "address",
          "name": "",
          "type": "address"
        }
      ],
      "stateMutability": "view",
      "type": "function"
    }
  ],
  "bytecode": "0x60c060405260008055600060015534801561001957600080fd5b506040516109c33803806109c38339810160408190526100389161004e565b6001600160a01b0390911660805260a052610088565b6000806040838503121561006157600080fd5b82516001600160a01b038116811461007857600080fd5b6020939093015192949293505050565b60805160a0516108fb6100c86000396000818161012c0152818161022a01526103c701526000818160b70152818161015401526102f601526108fb6000f3fe6080604052600436106100555760003560e01c806315eacf131461005a57806332e43a111461007c578063663ea2e2146100a5578063bf98a6e4146100f1578063cdf62e2114610107578063ebf0c7171461011a575b600080fd5b34801561006657600080fd5b5061007a61007536600461068d565b61014e565b005b34801561008857600080fd5b5061009260015481565b6040519081526020015b60405180910390f35b3480156100b157600080fd5b506100d97f000000000000000000000000000000000000000000000000000000000000000081565b6040516001600160a01b03909116815260200161009c565b3480156100fd57600080fd5b5061009260005481565b61007a6101153660046106e7565b6102f0565b34801561012657600080fd5b506100927f000000000000000000000000000000000000000000000000000000000000000081565b838383837f00000000000000000000000000000000000000000000000000000000000000006001600160a01b031663f5c9d69e858585856040518563ffffffff1660e01b81526004016101a4949392919061078c565b602060405180830381865afa1580156101c1573d6000803e3d6000fd5b505050506040513d601f19601f820116820180604052508101906101e59190610817565b6102265760405162461bcd60e51b815260206004820152600d60248201526c34b73b30b634b210383937b7b360991b60448201526064015b60405180910390fd5b80517f0000000000000000000000000000000000000000000000000000000000000000146102855760405162461bcd60e51b815260206004820152600c60248201526b1a5b9d985b1a59081c9bdbdd60a21b604482015260640161021d565b6000546020820151116102aa5760405162461bcd60e51b815260040161021d90610840565b602085015142106102cd5760405162461bcd60e51b815260040161021d90610840565b6001600081546102dc90610861565b909155506020015160005550505050505050565b848484847f00000000000000000000000000000000000000000000000000000000000000006001600160a01b031663f5c9d69e858585856040518563ffffffff1660e01b8152600401610346949392919061078c565b602060405180830381865afa158015610363573d6000803e3d6000fd5b505050506040513d601f19601f820116820180604052508101906103879190610817565b6103c35760405162461bcd60e51b815260206004820152600d60248201526c34b73b30b634b210383937b7b360991b604482015260640161021d565b80517f0000000000000000000000000000000000000000000000000000000000000000146104225760405162461bcd60e51b815260206004820152600c60248201526b1a5b9d985b1a59081c9bdbdd60a21b604482015260640161021d565b6000546020820151116104475760405162461bcd60e51b815260040161021d90610840565b60016000815461045690610861565b909155506104648534610475565b602001516000555050505050505050565b804710156104dd5760405162461bcd60e51b815260206004820152602f60248201527f53747265616d696e673a3a736166655472616e736665724554483a20496e737560448201526e19999a58da595b9d08185b5bdd5b9d608a1b606482015260840161021d565b604080516000808252602082019092526001600160a01b038416908390604051610507919061088a565b60006040518083038185875af1925050503d8060008114610544576040519150601f19603f3d011682016040523d82523d6000602084013e610549565b606091505b50509050806105b25760405162461bcd60e51b815260206004820152602f60248201527f53747265616d696e673a3a736166655472616e736665724554483a204554482060448201526e1d1c985b9cd9995c8819985a5b1959608a1b606482015260840161021d565b505050565b6040805190810167ffffffffffffffff811182821017156105e857634e487b7160e01b600052604160045260246000fd5b60405290565b600082601f8301126105ff57600080fd5b6106076105b7565b80604084018581111561061957600080fd5b845b8181101561063357803584526020938401930161061b565b509095945050505050565b600082601f83011261064f57600080fd5b6106576105b7565b80608084018581111561066957600080fd5b845b818110156106335761067d87826105ee565b845260209093019260400161066b565b60008060008061014085870312156106a457600080fd5b6106ae86866105ee565b93506106bd866040870161063e565b92506106cc8660c087016105ee565b91506106dc8661010087016105ee565b905092959194509250565b6000806000806000610160868803121561070057600080fd5b61070a87876105ee565b9450610719876040880161063e565b93506107288760c088016105ee565b92506107388761010088016105ee565b91506101408601356001600160a01b038116811461075557600080fd5b809150509295509295909350565b8060005b6002811015610786578151845260209384019390910190600101610767565b50505050565b610140810161079b8287610763565b6040808301866000805b60028082106107b457506107ee565b835185845b838110156107d75782518252602092830192909101906001016107b9565b5050509385019350602092909201916001016107a5565b505050505061080060c0830185610763565b61080e610100830184610763565b95945050505050565b60006020828403121561082957600080fd5b8151801515811461083957600080fd5b9392505050565b60208082526007908201526606f6c64204f54560cc1b604082015260600190565b600060001982141561088357634e487b7160e01b600052601160045260246000fd5b5060010190565b6000825160005b818110156108ab5760208186018101518583015201610891565b818111156108ba576000828501525b50919091019291505056fea2646970667358221220e70f44129ff37818104274eca42f1eadaf701df2c64187515af02ddbb3f19dbc64736f6c634300080c0033",
  "linkReferences": {},
  "deployedLinkReferences": {}
}